{
  "_format": "hh-sol-artifact-1",
  "contractName": "Offer",
  "sourceName": "contracts/standard/core/Offer.sol",
  "abi": [
    {
      "inputs": [],
      "stateMutability": "nonpayable",
      "type": "constructor"
    },
    {
      "anonymous": false,
      "inputs": [
        {
          "indexed": false,
          "internalType": "uint256",
          "name": "offerId",
          "type": "uint256"
        },
        {
          "indexed": false,
          "internalType": "address",
          "name": "from",
          "type": "address"
        },
        {
          "indexed": false,
          "internalType": "address",
          "name": "to",
          "type": "address"
        },
        {
          "indexed": false,
          "internalType": "uint256",
          "name": "tokenId",
          "type": "uint256"
        },
        {
          "indexed": false,
          "internalType": "uint256",
          "name": "price",
          "type": "uint256"
        },
        {
          "indexed": false,
          "internalType": "address",
          "name": "contractERC20",
          "type": "address"
        },
        {
          "indexed": false,
          "internalType": "address",
          "name": "contractERC721",
          "type": "address"
        }
      ],
      "name": "AcceptOffer",
      "type": "event"
    },
    {
      "anonymous": false,
      "inputs": [
        {
          "indexed": false,
          "internalType": "address",
          "name": "previousAdmin",
          "type": "address"
        },
        {
          "indexed": false,
          "internalType": "address",
          "name": "newAdmin",
          "type": "address"
        }
      ],
      "name": "AdminChanged",
      "type": "event"
    },
    {
      "anonymous": false,
      "inputs": [
        {
          "indexed": true,
          "internalType": "address",
          "name": "beacon",
          "type": "address"
        }
      ],
      "name": "BeaconUpgraded",
      "type": "event"
    },
    {
      "anonymous": false,
      "inputs": [
        {
          "indexed": false,
          "internalType": "uint256",
          "name": "offerId",
          "type": "uint256"
        },
        {
          "indexed": false,
          "internalType": "address",
          "name": "from",
          "type": "address"
        },
        {
          "indexed": false,
          "internalType": "address",
          "name": "to",
          "type": "address"
        },
        {
          "indexed": false,
          "internalType": "uint256",
          "name": "tokenId",
          "type": "uint256"
        },
        {
          "indexed": false,
          "internalType": "uint256",
          "name": "price",
          "type": "uint256"
        },
        {
          "indexed": false,
          "internalType": "address",
          "name": "contractERC20",
          "type": "address"
        },
        {
          "indexed": false,
          "internalType": "address",
          "name": "contractERC721",
          "type": "address"
        }
      ],
      "name": "CancelOffer",
      "type": "event"
    },
    {
      "anonymous": false,
      "inputs": [
        {
          "indexed": false,
          "internalType": "uint256",
          "name": "offerId",
          "type": "uint256"
        },
        {
          "indexed": false,
          "internalType": "address",
          "name": "from",
          "type": "address"
        },
        {
          "indexed": false,
          "internalType": "address",
          "name": "to",
          "type": "address"
        },
        {
          "indexed": false,
          "internalType": "uint256",
          "name": "tokenId",
          "type": "uint256"
        },
        {
          "indexed": false,
          "internalType": "uint256",
          "name": "price",
          "type": "uint256"
        },
        {
          "indexed": false,
          "internalType": "address",
          "name": "contractERC20",
          "type": "address"
        },
        {
          "indexed": false,
          "internalType": "address",
          "name": "contractERC721",
          "type": "address"
        }
      ],
      "name": "CreateOffer",
      "type": "event"
    },
    {
      "anonymous": false,
      "inputs": [
        {
          "indexed": false,
          "internalType": "uint8",
          "name": "version",
          "type": "uint8"
        }
      ],
      "name": "Initialized",
      "type": "event"
    },
    {
      "anonymous": false,
      "inputs": [
        {
          "indexed": true,
          "internalType": "address",
          "name": "previousOwner",
          "type": "address"
        },
        {
          "indexed": true,
          "internalType": "address",
          "name": "newOwner",
          "type": "address"
        }
      ],
      "name": "OwnershipTransferred",
      "type": "event"
    },
    {
      "anonymous": false,
      "inputs": [
        {
          "indexed": true,
          "internalType": "address",
          "name": "implementation",
          "type": "address"
        }
      ],
      "name": "Upgraded",
      "type": "event"
    },
    {
      "anonymous": false,
      "inputs": [
        {
          "indexed": true,
          "internalType": "address",
          "name": "newOwner",
          "type": "address"
        }
      ],
      "name": "WhitelistChanged",
      "type": "event"
    },
    {
      "stateMutability": "payable",
      "type": "fallback"
    },
    {
      "inputs": [],
      "name": "FEE_PER_PRICE",
      "outputs": [
        {
          "internalType": "uint256",
          "name": "",
          "type": "uint256"
        }
      ],
      "stateMutability": "view",
      "type": "function"
    },
    {
      "inputs": [
        {
          "internalType": "address",
          "name": "_contractERC721",
          "type": "address"
        },
        {
          "internalType": "uint256",
          "name": "_tokenId",
          "type": "uint256"
        },
        {
          "internalType": "uint256",
          "name": "_offerId",
          "type": "uint256"
        }
      ],
      "name": "acceptOffer",
      "outputs": [],
      "stateMutability": "nonpayable",
      "type": "function"
    },
    {
      "inputs": [
        {
          "internalType": "address",
          "name": "_contractERC721",
          "type": "address"
        },
        {
          "internalType": "uint256",
          "name": "_tokenId",
          "type": "uint256"
        },
        {
          "internalType": "uint256",
          "name": "_offerId",
          "type": "uint256"
        }
      ],
      "name": "cancelOffer",
      "outputs": [],
      "stateMutability": "nonpayable",
      "type": "function"
    },
    {
      "inputs": [
        {
          "internalType": "address",
          "name": "_contractERC721",
          "type": "address"
        },
        {
          "internalType": "uint256",
          "name": "_tokenId",
          "type": "uint256"
        }
      ],
      "name": "getTotalOffers",
      "outputs": [
        {
          "internalType": "uint256",
          "name": "",
          "type": "uint256"
        }
      ],
      "stateMutability": "view",
      "type": "function"
    },
    {
      "inputs": [
        {
          "internalType": "address",
          "name": "_whitelistAddress",
          "type": "address"
        }
      ],
      "name": "initialize",
      "outputs": [],
      "stateMutability": "nonpayable",
      "type": "function"
    },
    {
      "inputs": [
        {
          "internalType": "address",
          "name": "_contractERC721",
          "type": "address"
        },
        {
          "internalType": "uint256",
          "name": "_tokenId",
          "type": "uint256"
        },
        {
          "internalType": "address",
          "name": "_contractERC20",
          "type": "address"
        },
        {
          "internalType": "uint256",
          "name": "_price",
          "type": "uint256"
        }
      ],
      "name": "makeOffer",
      "outputs": [],
      "stateMutability": "payable",
      "type": "function"
    },
    {
      "inputs": [],
      "name": "owner",
      "outputs": [
        {
          "internalType": "address",
          "name": "",
          "type": "address"
        }
      ],
      "stateMutability": "view",
      "type": "function"
    },
    {
      "inputs": [],
      "name": "proxiableUUID",
      "outputs": [
        {
          "internalType": "bytes32",
          "name": "",
          "type": "bytes32"
        }
      ],
      "stateMutability": "view",
      "type": "function"
    },
    {
      "inputs": [],
      "name": "renounceOwnership",
      "outputs": [],
      "stateMutability": "nonpayable",
      "type": "function"
    },
    {
      "inputs": [
        {
          "internalType": "address",
          "name": "_address",
          "type": "address"
        }
      ],
      "name": "setCurrencyAddress",
      "outputs": [],
      "stateMutability": "nonpayable",
      "type": "function"
    },
    {
      "inputs": [
        {
          "internalType": "address",
          "name": "_address",
          "type": "address"
        }
      ],
      "name": "setTreasuryAddress",
      "outputs": [],
      "stateMutability": "nonpayable",
      "type": "function"
    },
    {
      "inputs": [
        {
          "internalType": "address",
          "name": "whitelistAddress_",
          "type": "address"
        }
      ],
      "name": "setWhitelistAddress",
      "outputs": [],
      "stateMutability": "nonpayable",
      "type": "function"
    },
    {
      "inputs": [
        {
          "internalType": "address",
          "name": "",
          "type": "address"
        },
        {
          "internalType": "uint256",
          "name": "",
          "type": "uint256"
        },
        {
          "internalType": "uint256",
          "name": "",
          "type": "uint256"
        }
      ],
      "name": "tokenOffer",
      "outputs": [
        {
          "internalType": "address",
          "name": "from",
          "type": "address"
        },
        {
          "internalType": "address",
          "name": "contractERC20",
          "type": "address"
        },
        {
          "internalType": "uint256",
          "name": "price",
          "type": "uint256"
        },
        {
          "internalType": "enum Offer.OfferStatus",
          "name": "status",
          "type": "uint8"
        }
      ],
      "stateMutability": "view",
      "type": "function"
    },
    {
      "inputs": [
        {
          "internalType": "address",
          "name": "",
          "type": "address"
        },
        {
          "internalType": "uint256",
          "name": "",
          "type": "uint256"
        },
        {
          "internalType": "address",
          "name": "",
          "type": "address"
        }
      ],
      "name": "totalOffersFromUsers",
      "outputs": [
        {
          "internalType": "uint256",
          "name": "",
          "type": "uint256"
        }
      ],
      "stateMutability": "view",
      "type": "function"
    },
    {
      "inputs": [
        {
          "internalType": "address",
          "name": "newOwner",
          "type": "address"
        }
      ],
      "name": "transferOwnership",
      "outputs": [],
      "stateMutability": "nonpayable",
      "type": "function"
    },
    {
      "inputs": [
        {
          "internalType": "address",
          "name": "newImplementation",
          "type": "address"
        }
      ],
      "name": "upgradeTo",
      "outputs": [],
      "stateMutability": "nonpayable",
      "type": "function"
    },
    {
      "inputs": [
        {
          "internalType": "address",
          "name": "newImplementation",
          "type": "address"
        },
        {
          "internalType": "bytes",
          "name": "data",
          "type": "bytes"
        }
      ],
      "name": "upgradeToAndCall",
      "outputs": [],
      "stateMutability": "payable",
      "type": "function"
    }
  ],
  "bytecode": "0x60a0604052306080523480156200001557600080fd5b506200002062000026565b620000e8565b600054610100900460ff1615620000935760405162461bcd60e51b815260206004820152602760248201527f496e697469616c697a61626c653a20636f6e747261637420697320696e697469604482015266616c697a696e6760c81b606482015260840160405180910390fd5b60005460ff9081161015620000e6576000805460ff191660ff9081179091556040519081527f7f26b83ff96e1f2b6a682f133852f6798a09c465da95921460cefb38474024989060200160405180910390a15b565b6080516125a56200012060003960008181610ab101528181610af10152818161104f0152818161108f015261112201526125a56000f3fe6080604052600436106100f55760003560e01c80636605bfda1161008f5780638da5cb5b116100615780638da5cb5b1461027d578063a224c745146102a5578063c4d66de8146102c5578063e85dfab9146102e5578063f2fde38b1461030557005b80636605bfda146101ea5780636ac42adb1461020a578063715018a614610248578063796b89ec1461025d57005b80633c6fc817116100c85780633c6fc817146101725780634dbeed50146101925780634f1ef286146101c257806352d1902d146101d557005b8063087e789b146100f75780630e030d6a1461011f5780633096fe2d1461013f5780633659cfe614610152575b005b34801561010357600080fd5b5061010c600a81565b6040519081526020015b60405180910390f35b34801561012b57600080fd5b506100f561013a366004611fcf565b610325565b6100f561014d366004612004565b61068c565b34801561015e57600080fd5b506100f561016d36600461204c565b610aa7565b34801561017e57600080fd5b506100f561018d366004611fcf565b610b86565b34801561019e57600080fd5b506101b26101ad366004611fcf565b610fe1565b604051610116949392919061207f565b6100f56101d03660046120e1565b611045565b3480156101e157600080fd5b5061010c611115565b3480156101f657600080fd5b506100f561020536600461204c565b6111c8565b34801561021657600080fd5b5061010c6102253660046121a5565b60ff60209081526000938452604080852082529284528284209052825290205481565b34801561025457600080fd5b506100f56112e9565b34801561026957600080fd5b506100f561027836600461204c565b6112fd565b34801561028957600080fd5b506033546040516001600160a01b039091168152602001610116565b3480156102b157600080fd5b506100f56102c036600461204c565b61141e565b3480156102d157600080fd5b506100f56102e036600461204c565b611567565b3480156102f157600080fd5b5061010c6103003660046121e7565b6116a3565b34801561031157600080fd5b506100f561032036600461204c565b6116ce565b600260ca54036103505760405162461bcd60e51b815260040161034790612213565b60405180910390fd5b600260ca556001600160a01b038316600090815260fe60209081526040808320858452909152812080548390811061038a5761038a61224a565b6000918252602082206004909102019150600382015460ff1660028111156103b4576103b4612069565b146103d15760405162461bcd60e51b815260040161034790612260565b6001600160a01b038416600090815260fe60209081526040808320868452909152902054808311156104455760405162461bcd60e51b815260206004820152601760248201527f4f666665723a20496e76616c6964206f666665722069640000000000000000006044820152606401610347565b6040516331a9108f60e11b8152600481018590526000906001600160a01b03871690636352211e90602401602060405180830381865afa15801561048d573d6000803e3d6000fd5b505050506040513d601f19601f820116820180604052508101906104b191906122a8565b9050336001600160a01b03821614806104d3575082546001600160a01b031633145b61053e5760405162461bcd60e51b815260206004820152603660248201527f4f666665723a20796f7520617265206e6f74206f776e6572206f662074686973604482015275103a37b5b2b724b21037b9103a3434b99037b33332b960511b6064820152608401610347565b6000606461054d600a826122db565b856002015461055c91906122ee565b6105669190612305565b60018501549091506001600160a01b0316156105f557600184015460405163095ea7b360e01b8152306004820152602481018390526001600160a01b039091169063095ea7b3906044016020604051808303816000875af11580156105cf573d6000803e3d6000fd5b505050506040513d601f19601f820116820180604052508101906105f39190612327565b505b60018401548454610615916001600160a01b039081169130911684611744565b60038401805460ff191660021790557f82b2130601ae0c8b1bb4086219b3b16c397ebf7d8ac0513b7aa1ebc9f552f5ae85338654600288015460018901546040516106769594936001600160a01b03908116938e9390929116908f90612349565b60405180910390a15050600160ca555050505050565b600260ca54036106ae5760405162461bcd60e51b815260040161034790612213565b600260ca556106bc84611897565b6107015760405162461bcd60e51b81526020600482015260166024820152754f666665723a206e6f7420657263373231207479706560501b6044820152606401610347565b60006064610710600a826122db565b61071a90846122ee565b6107249190612305565b6040516331a9108f60e11b8152600481018690529091506000906001600160a01b03871690636352211e90602401602060405180830381865afa15801561076f573d6000803e3d6000fd5b505050506040513d601f19601f8201168201806040525081019061079391906122a8565b90506001600160a01b03811633036107ed5760405162461bcd60e51b815260206004820181905260248201527f4f666665723a20796f7520617265206f776e6572206f662074686973206e66746044820152606401610347565b60fc5460405163f992e3b760e01b81526001600160a01b0386811660048301529091169063f992e3b7906024016020604051808303816000875af1158015610839573d6000803e3d6000fd5b505050506040513d601f19601f8201168201806040525081019061085d9190612327565b15156001146108bc5760405162461bcd60e51b815260206004820152602560248201527f4f666665723a2063616e206e6f7420757365207468697320746f6b656e206164604482015264647265737360d81b6064820152608401610347565b6001600160a01b03841661091357813410156109135760405162461bcd60e51b815260206004820152601660248201527527b33332b91d103737ba1032b737bab3b4102ba1272160511b6044820152606401610347565b61091f84333085611744565b600060405180608001604052806109333390565b6001600160a01b0390811682528716602082015260408101869052606001600090526001600160a01b03808916600090815260fe602090815260408083208b8452825280832080546001818101835591855293839020865160049095020180549486166001600160a01b03199586161781559286015183820180549190961694169390931790935591830151600280840191909155606084015160038401805495965086959193909260ff199092169184908111156109f4576109f4612069565b021790555050506001600160a01b038716600090815260ff6020908152604080832089845282528083203384529091528120805460019290610a379084906122db565b90915550506001600160a01b038716600090815260fe602090815260408083208984529091529020547f9e819e378eb0297ef4ecd6d628a6e8d4a9bb9dde9095f3d7080c7e0f70a3a8da90610a8e90600190612384565b338489888a8d6040516106769796959493929190612349565b6001600160a01b037f0000000000000000000000000000000000000000000000000000000000000000163003610aef5760405162461bcd60e51b815260040161034790612397565b7f00000000000000000000000000000000000000000000000000000000000000006001600160a01b0316610b38600080516020612552833981519152546001600160a01b031690565b6001600160a01b031614610b5e5760405162461bcd60e51b8152600401610347906123e3565b610b6781611909565b60408051600080825260208201909252610b8391839190611a07565b50565b600260ca5403610ba85760405162461bcd60e51b815260040161034790612213565b600260ca5560405163020604bf60e21b81526004810183905230906001600160a01b0385169063081812fc90602401602060405180830381865afa158015610bf4573d6000803e3d6000fd5b505050506040513d601f19601f82011682018060405250810190610c1891906122a8565b6001600160a01b031614610c7a5760405162461bcd60e51b815260206004820152602360248201527f4f666665723a20746869732061646472657373206973206e6f7420617070726f6044820152621d995960ea1b6064820152608401610347565b6040516331a9108f60e11b8152600481018390526000906001600160a01b03851690636352211e90602401602060405180830381865afa158015610cc2573d6000803e3d6000fd5b505050506040513d601f19601f82011682018060405250810190610ce691906122a8565b9050336001600160a01b03821614610d515760405162461bcd60e51b815260206004820152602860248201527f4f666665723a20796f7520617265206e6f74206f776e6572206f662074686973604482015267081d1bdad95b925960c21b6064820152608401610347565b6001600160a01b038416600090815260fe602090815260408083208684529091528120805484908110610d8657610d8661224a565b6000918252602082206004909102019150600382015460ff166002811115610db057610db0612069565b14610dcd5760405162461bcd60e51b815260040161034790612260565b60038101805460ff1916600117905560006064610deb600a826122db565b8360020154610dfa91906122ee565b610e049190612305565b60018301549091506001600160a01b031615610e9357600182015460405163095ea7b360e01b8152306004820152602481018390526001600160a01b039091169063095ea7b3906044016020604051808303816000875af1158015610e6d573d6000803e3d6000fd5b505050506040513d601f19601f82011682018060405250810190610e919190612327565b505b6001820154610eb1906001600160a01b031630338560020154611744565b600182015460fd546002840154610ee2926001600160a01b03908116923092911690610edd9086612384565b611744565b6001600160a01b03861663b88d4fde33845460405160e084901b6001600160e01b03191681526001600160a01b0392831660048201529116602482015260448101889052608060648201526002608482015261060f60f31b60a482015260c401600060405180830381600087803b158015610f5c57600080fd5b505af1158015610f70573d6000803e3d6000fd5b505050507fddac44b93f001194ad5c1014df96e0722a0176dc47b323add05bf47b4a216d4984610f9d3390565b845460028601546001870154604051610fcc9594936001600160a01b03908116938d9390929116908e90612349565b60405180910390a15050600160ca5550505050565b60fe602052826000526040600020602052816000526040600020818154811061100957600080fd5b600091825260209091206004909102018054600182015460028301546003909301546001600160a01b0392831696509116935090915060ff1684565b6001600160a01b037f000000000000000000000000000000000000000000000000000000000000000016300361108d5760405162461bcd60e51b815260040161034790612397565b7f00000000000000000000000000000000000000000000000000000000000000006001600160a01b03166110d6600080516020612552833981519152546001600160a01b031690565b6001600160a01b0316146110fc5760405162461bcd60e51b8152600401610347906123e3565b61110582611909565b61111182826001611a07565b5050565b6000306001600160a01b037f000000000000000000000000000000000000000000000000000000000000000016146111b55760405162461bcd60e51b815260206004820152603860248201527f555550535570677261646561626c653a206d757374206e6f742062652063616c60448201527f6c6564207468726f7567682064656c656761746563616c6c00000000000000006064820152608401610347565b5060008051602061255283398151915290565b60c95460408051631d6c8e3f60e21b815290516000926001600160a01b0316916375b238fc9160048083019260209291908290030181865afa158015611212573d6000803e3d6000fd5b505050506040513d601f19601f82011682018060405250810190611236919061242f565b60c954604051632474521560e21b8152600481018390523360248201529192506001600160a01b0316906391d1485490604401602060405180830381865afa158015611286573d6000803e3d6000fd5b505050506040513d601f19601f820116820180604052508101906112aa9190612327565b6112c65760405162461bcd60e51b815260040161034790612448565b5060fd80546001600160a01b0319166001600160a01b0392909216919091179055565b6112f1611b77565b6112fb6000611bd1565b565b60c95460408051631d6c8e3f60e21b815290516000926001600160a01b0316916375b238fc9160048083019260209291908290030181865afa158015611347573d6000803e3d6000fd5b505050506040513d601f19601f8201168201806040525081019061136b919061242f565b60c954604051632474521560e21b8152600481018390523360248201529192506001600160a01b0316906391d1485490604401602060405180830381865afa1580156113bb573d6000803e3d6000fd5b505050506040513d601f19601f820116820180604052508101906113df9190612327565b6113fb5760405162461bcd60e51b815260040161034790612448565b5060fc80546001600160a01b0319166001600160a01b0392909216919091179055565b60c95460408051631d6c8e3f60e21b815290516000926001600160a01b0316916375b238fc9160048083019260209291908290030181865afa158015611468573d6000803e3d6000fd5b505050506040513d601f19601f8201168201806040525081019061148c919061242f565b60c954604051632474521560e21b8152600481018390523360248201529192506001600160a01b0316906391d1485490604401602060405180830381865afa1580156114dc573d6000803e3d6000fd5b505050506040513d601f19601f820116820180604052508101906115009190612327565b61151c5760405162461bcd60e51b815260040161034790612448565b60c980546001600160a01b0319166001600160a01b0384169081179091556040517fdd8c807c33d35ad7642d985aca3455e9281f5298b1c22a4aadb5a86d52df7ed190600090a25050565b600054610100900460ff16158080156115875750600054600160ff909116105b806115a15750303b1580156115a1575060005460ff166001145b6116045760405162461bcd60e51b815260206004820152602e60248201527f496e697469616c697a61626c653a20636f6e747261637420697320616c72656160448201526d191e481a5b9a5d1a585b1a5e995960921b6064820152608401610347565b6000805460ff191660011790558015611627576000805461ff0019166101001790555b61162f611c23565b61163882611c52565b60fd80546001600160a01b03191633179055611652611c82565b61165a611ca9565b8015611111576000805461ff0019169055604051600181527f7f26b83ff96e1f2b6a682f133852f6798a09c465da95921460cefb38474024989060200160405180910390a15050565b6001600160a01b038216600090815260fe602090815260408083208484529091529020545b92915050565b6116d6611b77565b6001600160a01b03811661173b5760405162461bcd60e51b815260206004820152602660248201527f4f776e61626c653a206e6577206f776e657220697320746865207a65726f206160448201526564647265737360d01b6064820152608401610347565b610b8381611bd1565b60006001600160a01b0385166117c557306001600160a01b0384160361176c57506001611843565b6040516001600160a01b038416908390600081818185875af1925050503d80600081146117b5576040519150601f19603f3d011682016040523d82523d6000602084013e6117ba565b606091505b505080915050611843565b6040516323b872dd60e01b81526001600160a01b0385811660048301528481166024830152604482018490528616906323b872dd906064016020604051808303816000875af115801561181c573d6000803e3d6000fd5b505050506040513d601f19601f820116820180604052508101906118409190612327565b90505b806118905760405162461bcd60e51b815260206004820152601d60248201527f4f666665723a205472616e73666572204552433230206661696c6564210000006044820152606401610347565b5050505050565b6040516301ffc9a760e01b81526380ac58cd60e01b60048201526000906001600160a01b038316906301ffc9a790602401602060405180830381865afa1580156118e5573d6000803e3d6000fd5b505050506040513d601f19601f820116820180604052508101906116c89190612327565b60c95460408051631d6c8e3f60e21b815290516000926001600160a01b0316916375b238fc9160048083019260209291908290030181865afa158015611953573d6000803e3d6000fd5b505050506040513d601f19601f82011682018060405250810190611977919061242f565b60c954604051632474521560e21b8152600481018390523360248201529192506001600160a01b0316906391d1485490604401602060405180830381865afa1580156119c7573d6000803e3d6000fd5b505050506040513d601f19601f820116820180604052508101906119eb9190612327565b6111115760405162461bcd60e51b815260040161034790612448565b7f4910fdfa16fed3260ed0e7147f7cc6da11a60208b5b9406d12a635614ffd91435460ff1615611a3f57611a3a83611cd8565b505050565b826001600160a01b03166352d1902d6040518163ffffffff1660e01b8152600401602060405180830381865afa925050508015611a99575060408051601f3d908101601f19168201909252611a969181019061242f565b60015b611afc5760405162461bcd60e51b815260206004820152602e60248201527f45524331393637557067726164653a206e657720696d706c656d656e7461746960448201526d6f6e206973206e6f74205555505360901b6064820152608401610347565b6000805160206125528339815191528114611b6b5760405162461bcd60e51b815260206004820152602960248201527f45524331393637557067726164653a20756e737570706f727465642070726f786044820152681a58589b195555525160ba1b6064820152608401610347565b50611a3a838383611d74565b6033546001600160a01b031633146112fb5760405162461bcd60e51b815260206004820181905260248201527f4f776e61626c653a2063616c6c6572206973206e6f7420746865206f776e65726044820152606401610347565b603380546001600160a01b038381166001600160a01b0319831681179093556040519116919082907f8be0079c531659141344cd1fd0a4f28419497f9722a3daafe3b4186f6b6457e090600090a35050565b600054610100900460ff16611c4a5760405162461bcd60e51b815260040161034790612493565b6112fb611d9f565b600054610100900460ff16611c795760405162461bcd60e51b815260040161034790612493565b610b8381611dcf565b600054610100900460ff166112fb5760405162461bcd60e51b815260040161034790612493565b600054610100900460ff16611cd05760405162461bcd60e51b815260040161034790612493565b6112fb611e18565b6001600160a01b0381163b611d455760405162461bcd60e51b815260206004820152602d60248201527f455243313936373a206e657720696d706c656d656e746174696f6e206973206e60448201526c1bdd08184818dbdb9d1c9858dd609a1b6064820152608401610347565b60008051602061255283398151915280546001600160a01b0319166001600160a01b0392909216919091179055565b611d7d83611e46565b600082511180611d8a5750805b15611a3a57611d998383611e86565b50505050565b600054610100900460ff16611dc65760405162461bcd60e51b815260040161034790612493565b6112fb33611bd1565b600054610100900460ff16611df65760405162461bcd60e51b815260040161034790612493565b60c980546001600160a01b0319166001600160a01b0392909216919091179055565b600054610100900460ff16611e3f5760405162461bcd60e51b815260040161034790612493565b600160ca55565b611e4f81611cd8565b6040516001600160a01b038216907fbc7cd75a20ee27fd9adebab32041f755214dbc6bffa90cc0225b39da2e5c2d3b90600090a250565b60606001600160a01b0383163b611eee5760405162461bcd60e51b815260206004820152602660248201527f416464726573733a2064656c65676174652063616c6c20746f206e6f6e2d636f6044820152651b9d1c9858dd60d21b6064820152608401610347565b600080846001600160a01b031684604051611f099190612502565b600060405180830381855af49150503d8060008114611f44576040519150601f19603f3d011682016040523d82523d6000602084013e611f49565b606091505b5091509150611f71828260405180606001604052806027815260200161257260279139611f7a565b95945050505050565b60608315611f89575081611fb3565b825115611f995782518084602001fd5b8160405162461bcd60e51b8152600401610347919061251e565b9392505050565b6001600160a01b0381168114610b8357600080fd5b600080600060608486031215611fe457600080fd5b8335611fef81611fba565b95602085013595506040909401359392505050565b6000806000806080858703121561201a57600080fd5b843561202581611fba565b935060208501359250604085013561203c81611fba565b9396929550929360600135925050565b60006020828403121561205e57600080fd5b8135611fb381611fba565b634e487b7160e01b600052602160045260246000fd5b6001600160a01b038581168252841660208201526040810183905260808101600383106120bc57634e487b7160e01b600052602160045260246000fd5b82606083015295945050505050565b634e487b7160e01b600052604160045260246000fd5b600080604083850312156120f457600080fd5b82356120ff81611fba565b9150602083013567ffffffffffffffff8082111561211c57600080fd5b818501915085601f83011261213057600080fd5b813581811115612142576121426120cb565b604051601f8201601f19908116603f0116810190838211818310171561216a5761216a6120cb565b8160405282815288602084870101111561218357600080fd5b8260208601602083013760006020848301015280955050505050509250929050565b6000806000606084860312156121ba57600080fd5b83356121c581611fba565b92506020840135915060408401356121dc81611fba565b809150509250925092565b600080604083850312156121fa57600080fd5b823561220581611fba565b946020939093013593505050565b6020808252601f908201527f5265656e7472616e637947756172643a207265656e7472616e742063616c6c00604082015260600190565b634e487b7160e01b600052603260045260246000fd5b60208082526028908201527f4f666665723a2074686973206f66666572206973206e6f7420696e2063726561604082015267746520737461746560c01b606082015260800190565b6000602082840312156122ba57600080fd5b8151611fb381611fba565b634e487b7160e01b600052601160045260246000fd5b808201808211156116c8576116c86122c5565b80820281158282048414176116c8576116c86122c5565b60008261232257634e487b7160e01b600052601260045260246000fd5b500490565b60006020828403121561233957600080fd5b81518015158114611fb357600080fd5b9687526001600160a01b039586166020880152938516604087015260608601929092526080850152821660a08401521660c082015260e00190565b818103818111156116c8576116c86122c5565b6020808252602c908201527f46756e6374696f6e206d7573742062652063616c6c6564207468726f7567682060408201526b19195b1959d85d1958d85b1b60a21b606082015260800190565b6020808252602c908201527f46756e6374696f6e206d7573742062652063616c6c6564207468726f7567682060408201526b6163746976652070726f787960a01b606082015260800190565b60006020828403121561244157600080fd5b5051919050565b6020808252602b908201527f57686974656c697374577261707065723a20596f7520646f6e2774206861766560408201526a2061646d696e20726f6c6560a81b606082015260800190565b6020808252602b908201527f496e697469616c697a61626c653a20636f6e7472616374206973206e6f74206960408201526a6e697469616c697a696e6760a81b606082015260800190565b60005b838110156124f95781810151838201526020016124e1565b50506000910152565b600082516125148184602087016124de565b9190910192915050565b602081526000825180602084015261253d8160408501602087016124de565b601f01601f1916919091016040019291505056fe360894a13ba1a3210667c828492db98dca3e2076cc3735a920a3ca505d382bbc416464726573733a206c6f772d6c6576656c2064656c65676174652063616c6c206661696c6564a164736f6c6343000811000a",
  "linkReferences": {},
  "deployedLinkReferences": {}
}