{
  "_format": "hh-sol-artifact-1",
  "contractName": "Polft721Rentable",
  "sourceName": "contracts/standard/extensions/Polft721Rentable.sol",
  "abi": [
    {
      "anonymous": false,
      "inputs": [
        {
          "indexed": false,
          "internalType": "address",
          "name": "previousAdmin",
          "type": "address"
        },
        {
          "indexed": false,
          "internalType": "address",
          "name": "newAdmin",
          "type": "address"
        }
      ],
      "name": "AdminChanged",
      "type": "event"
    },
    {
      "anonymous": false,
      "inputs": [
        {
          "indexed": true,
          "internalType": "address",
          "name": "owner",
          "type": "address"
        },
        {
          "indexed": true,
          "internalType": "address",
          "name": "approved",
          "type": "address"
        },
        {
          "indexed": true,
          "internalType": "uint256",
          "name": "tokenId",
          "type": "uint256"
        }
      ],
      "name": "Approval",
      "type": "event"
    },
    {
      "anonymous": false,
      "inputs": [
        {
          "indexed": true,
          "internalType": "address",
          "name": "owner",
          "type": "address"
        },
        {
          "indexed": true,
          "internalType": "address",
          "name": "operator",
          "type": "address"
        },
        {
          "indexed": false,
          "internalType": "bool",
          "name": "approved",
          "type": "bool"
        }
      ],
      "name": "ApprovalForAll",
      "type": "event"
    },
    {
      "anonymous": false,
      "inputs": [
        {
          "indexed": true,
          "internalType": "address",
          "name": "beacon",
          "type": "address"
        }
      ],
      "name": "BeaconUpgraded",
      "type": "event"
    },
    {
      "anonymous": false,
      "inputs": [
        {
          "indexed": false,
          "internalType": "uint8",
          "name": "version",
          "type": "uint8"
        }
      ],
      "name": "Initialized",
      "type": "event"
    },
    {
      "anonymous": false,
      "inputs": [
        {
          "indexed": false,
          "internalType": "address",
          "name": "from",
          "type": "address"
        },
        {
          "indexed": false,
          "internalType": "address",
          "name": "to",
          "type": "address"
        },
        {
          "indexed": false,
          "internalType": "address",
          "name": "nftAddress",
          "type": "address"
        },
        {
          "indexed": false,
          "internalType": "uint256",
          "name": "tokenId",
          "type": "uint256"
        },
        {
          "indexed": false,
          "internalType": "uint256",
          "name": "quantity",
          "type": "uint256"
        },
        {
          "indexed": false,
          "internalType": "string",
          "name": "ipfs",
          "type": "string"
        }
      ],
      "name": "Mint",
      "type": "event"
    },
    {
      "anonymous": false,
      "inputs": [
        {
          "indexed": true,
          "internalType": "address",
          "name": "previousOwner",
          "type": "address"
        },
        {
          "indexed": true,
          "internalType": "address",
          "name": "newOwner",
          "type": "address"
        }
      ],
      "name": "OwnershipTransferred",
      "type": "event"
    },
    {
      "anonymous": false,
      "inputs": [
        {
          "indexed": false,
          "internalType": "address",
          "name": "account",
          "type": "address"
        }
      ],
      "name": "Paused",
      "type": "event"
    },
    {
      "anonymous": false,
      "inputs": [
        {
          "indexed": true,
          "internalType": "address",
          "name": "from",
          "type": "address"
        },
        {
          "indexed": true,
          "internalType": "address",
          "name": "to",
          "type": "address"
        },
        {
          "indexed": true,
          "internalType": "uint256",
          "name": "tokenId",
          "type": "uint256"
        }
      ],
      "name": "Transfer",
      "type": "event"
    },
    {
      "anonymous": false,
      "inputs": [
        {
          "indexed": false,
          "internalType": "address",
          "name": "account",
          "type": "address"
        }
      ],
      "name": "Unpaused",
      "type": "event"
    },
    {
      "anonymous": false,
      "inputs": [
        {
          "indexed": true,
          "internalType": "uint256",
          "name": "tokenId",
          "type": "uint256"
        },
        {
          "indexed": true,
          "internalType": "address",
          "name": "user",
          "type": "address"
        },
        {
          "indexed": false,
          "internalType": "uint64",
          "name": "expires",
          "type": "uint64"
        }
      ],
      "name": "UpdateUser",
      "type": "event"
    },
    {
      "anonymous": false,
      "inputs": [
        {
          "indexed": true,
          "internalType": "address",
          "name": "implementation",
          "type": "address"
        }
      ],
      "name": "Upgraded",
      "type": "event"
    },
    {
      "anonymous": false,
      "inputs": [
        {
          "indexed": true,
          "internalType": "address",
          "name": "newOwner",
          "type": "address"
        }
      ],
      "name": "WhitelistChanged",
      "type": "event"
    },
    {
      "inputs": [
        {
          "internalType": "address",
          "name": "to",
          "type": "address"
        },
        {
          "internalType": "uint256",
          "name": "tokenId",
          "type": "uint256"
        }
      ],
      "name": "approve",
      "outputs": [],
      "stateMutability": "nonpayable",
      "type": "function"
    },
    {
      "inputs": [
        {
          "internalType": "address",
          "name": "owner",
          "type": "address"
        }
      ],
      "name": "balanceOf",
      "outputs": [
        {
          "internalType": "uint256",
          "name": "",
          "type": "uint256"
        }
      ],
      "stateMutability": "view",
      "type": "function"
    },
    {
      "inputs": [
        {
          "internalType": "uint256",
          "name": "tokenId",
          "type": "uint256"
        }
      ],
      "name": "burn",
      "outputs": [],
      "stateMutability": "nonpayable",
      "type": "function"
    },
    {
      "inputs": [
        {
          "internalType": "address",
          "name": "_to",
          "type": "address"
        },
        {
          "internalType": "string",
          "name": "_ipfs",
          "type": "string"
        }
      ],
      "name": "claim",
      "outputs": [],
      "stateMutability": "nonpayable",
      "type": "function"
    },
    {
      "inputs": [],
      "name": "contractURI",
      "outputs": [
        {
          "internalType": "string",
          "name": "",
          "type": "string"
        }
      ],
      "stateMutability": "view",
      "type": "function"
    },
    {
      "inputs": [],
      "name": "getAddress",
      "outputs": [
        {
          "internalType": "address",
          "name": "",
          "type": "address"
        }
      ],
      "stateMutability": "view",
      "type": "function"
    },
    {
      "inputs": [
        {
          "internalType": "bytes",
          "name": "signature",
          "type": "bytes"
        },
        {
          "components": [
            {
              "internalType": "address",
              "name": "requester",
              "type": "address"
            },
            {
              "internalType": "uint256",
              "name": "assetId",
              "type": "uint256"
            },
            {
              "internalType": "uint256",
              "name": "nonce",
              "type": "uint256"
            }
          ],
          "internalType": "struct IPolft721.MintAssetRequest",
          "name": "req",
          "type": "tuple"
        }
      ],
      "name": "getAddressWithSignature",
      "outputs": [
        {
          "internalType": "address",
          "name": "",
          "type": "address"
        }
      ],
      "stateMutability": "view",
      "type": "function"
    },
    {
      "inputs": [
        {
          "internalType": "uint256",
          "name": "tokenId",
          "type": "uint256"
        }
      ],
      "name": "getApproved",
      "outputs": [
        {
          "internalType": "address",
          "name": "",
          "type": "address"
        }
      ],
      "stateMutability": "view",
      "type": "function"
    },
    {
      "inputs": [],
      "name": "getChainId",
      "outputs": [
        {
          "internalType": "uint256",
          "name": "",
          "type": "uint256"
        }
      ],
      "stateMutability": "view",
      "type": "function"
    },
    {
      "inputs": [
        {
          "internalType": "address",
          "name": "_whitelistAddress",
          "type": "address"
        }
      ],
      "name": "initialize",
      "outputs": [],
      "stateMutability": "nonpayable",
      "type": "function"
    },
    {
      "inputs": [
        {
          "internalType": "address",
          "name": "owner",
          "type": "address"
        },
        {
          "internalType": "address",
          "name": "operator",
          "type": "address"
        }
      ],
      "name": "isApprovedForAll",
      "outputs": [
        {
          "internalType": "bool",
          "name": "",
          "type": "bool"
        }
      ],
      "stateMutability": "view",
      "type": "function"
    },
    {
      "inputs": [],
      "name": "mintFee",
      "outputs": [
        {
          "internalType": "uint256",
          "name": "",
          "type": "uint256"
        }
      ],
      "stateMutability": "view",
      "type": "function"
    },
    {
      "inputs": [],
      "name": "name",
      "outputs": [
        {
          "internalType": "string",
          "name": "",
          "type": "string"
        }
      ],
      "stateMutability": "view",
      "type": "function"
    },
    {
      "inputs": [],
      "name": "owner",
      "outputs": [
        {
          "internalType": "address",
          "name": "",
          "type": "address"
        }
      ],
      "stateMutability": "view",
      "type": "function"
    },
    {
      "inputs": [
        {
          "internalType": "uint256",
          "name": "tokenId",
          "type": "uint256"
        }
      ],
      "name": "ownerOf",
      "outputs": [
        {
          "internalType": "address",
          "name": "",
          "type": "address"
        }
      ],
      "stateMutability": "view",
      "type": "function"
    },
    {
      "inputs": [],
      "name": "pause",
      "outputs": [],
      "stateMutability": "nonpayable",
      "type": "function"
    },
    {
      "inputs": [],
      "name": "paused",
      "outputs": [
        {
          "internalType": "bool",
          "name": "",
          "type": "bool"
        }
      ],
      "stateMutability": "view",
      "type": "function"
    },
    {
      "inputs": [],
      "name": "proxiableUUID",
      "outputs": [
        {
          "internalType": "bytes32",
          "name": "",
          "type": "bytes32"
        }
      ],
      "stateMutability": "view",
      "type": "function"
    },
    {
      "inputs": [],
      "name": "renounceOwnership",
      "outputs": [],
      "stateMutability": "nonpayable",
      "type": "function"
    },
    {
      "inputs": [
        {
          "internalType": "string",
          "name": "_ipfs",
          "type": "string"
        },
        {
          "internalType": "bytes",
          "name": "_signature",
          "type": "bytes"
        },
        {
          "components": [
            {
              "internalType": "address",
              "name": "requester",
              "type": "address"
            },
            {
              "internalType": "uint256",
              "name": "assetId",
              "type": "uint256"
            },
            {
              "internalType": "uint256",
              "name": "nonce",
              "type": "uint256"
            }
          ],
          "internalType": "struct IPolft721.MintAssetRequest",
          "name": "_req",
          "type": "tuple"
        }
      ],
      "name": "safeMint",
      "outputs": [],
      "stateMutability": "payable",
      "type": "function"
    },
    {
      "inputs": [
        {
          "internalType": "address",
          "name": "from",
          "type": "address"
        },
        {
          "internalType": "address",
          "name": "to",
          "type": "address"
        },
        {
          "internalType": "uint256",
          "name": "tokenId",
          "type": "uint256"
        }
      ],
      "name": "safeTransferFrom",
      "outputs": [],
      "stateMutability": "nonpayable",
      "type": "function"
    },
    {
      "inputs": [
        {
          "internalType": "address",
          "name": "from",
          "type": "address"
        },
        {
          "internalType": "address",
          "name": "to",
          "type": "address"
        },
        {
          "internalType": "uint256",
          "name": "tokenId",
          "type": "uint256"
        },
        {
          "internalType": "bytes",
          "name": "data",
          "type": "bytes"
        }
      ],
      "name": "safeTransferFrom",
      "outputs": [],
      "stateMutability": "nonpayable",
      "type": "function"
    },
    {
      "inputs": [
        {
          "internalType": "address",
          "name": "_address",
          "type": "address"
        }
      ],
      "name": "setAirdropAddress",
      "outputs": [],
      "stateMutability": "nonpayable",
      "type": "function"
    },
    {
      "inputs": [
        {
          "internalType": "address",
          "name": "operator",
          "type": "address"
        },
        {
          "internalType": "bool",
          "name": "approved",
          "type": "bool"
        }
      ],
      "name": "setApprovalForAll",
      "outputs": [],
      "stateMutability": "nonpayable",
      "type": "function"
    },
    {
      "inputs": [
        {
          "internalType": "string",
          "name": "_contractURI",
          "type": "string"
        }
      ],
      "name": "setContractURI",
      "outputs": [],
      "stateMutability": "nonpayable",
      "type": "function"
    },
    {
      "inputs": [
        {
          "internalType": "uint256",
          "name": "_value",
          "type": "uint256"
        }
      ],
      "name": "setMintFee",
      "outputs": [],
      "stateMutability": "nonpayable",
      "type": "function"
    },
    {
      "inputs": [
        {
          "internalType": "uint256",
          "name": "_tokenId",
          "type": "uint256"
        },
        {
          "internalType": "string",
          "name": "_uri",
          "type": "string"
        }
      ],
      "name": "setTokenURI",
      "outputs": [],
      "stateMutability": "nonpayable",
      "type": "function"
    },
    {
      "inputs": [
        {
          "internalType": "address",
          "name": "_address",
          "type": "address"
        }
      ],
      "name": "setTreasuryAddress",
      "outputs": [],
      "stateMutability": "nonpayable",
      "type": "function"
    },
    {
      "inputs": [
        {
          "internalType": "uint256",
          "name": "tokenId",
          "type": "uint256"
        },
        {
          "internalType": "address",
          "name": "user",
          "type": "address"
        },
        {
          "internalType": "uint64",
          "name": "expires",
          "type": "uint64"
        }
      ],
      "name": "setUser",
      "outputs": [],
      "stateMutability": "nonpayable",
      "type": "function"
    },
    {
      "inputs": [
        {
          "internalType": "address",
          "name": "whitelistAddress_",
          "type": "address"
        }
      ],
      "name": "setWhitelistAddress",
      "outputs": [],
      "stateMutability": "nonpayable",
      "type": "function"
    },
    {
      "inputs": [
        {
          "internalType": "bytes4",
          "name": "interfaceId",
          "type": "bytes4"
        }
      ],
      "name": "supportsInterface",
      "outputs": [
        {
          "internalType": "bool",
          "name": "",
          "type": "bool"
        }
      ],
      "stateMutability": "view",
      "type": "function"
    },
    {
      "inputs": [],
      "name": "symbol",
      "outputs": [
        {
          "internalType": "string",
          "name": "",
          "type": "string"
        }
      ],
      "stateMutability": "view",
      "type": "function"
    },
    {
      "inputs": [
        {
          "internalType": "uint256",
          "name": "index",
          "type": "uint256"
        }
      ],
      "name": "tokenByIndex",
      "outputs": [
        {
          "internalType": "uint256",
          "name": "",
          "type": "uint256"
        }
      ],
      "stateMutability": "view",
      "type": "function"
    },
    {
      "inputs": [
        {
          "internalType": "address",
          "name": "owner",
          "type": "address"
        },
        {
          "internalType": "uint256",
          "name": "index",
          "type": "uint256"
        }
      ],
      "name": "tokenOfOwnerByIndex",
      "outputs": [
        {
          "internalType": "uint256",
          "name": "",
          "type": "uint256"
        }
      ],
      "stateMutability": "view",
      "type": "function"
    },
    {
      "inputs": [
        {
          "internalType": "uint256",
          "name": "tokenId",
          "type": "uint256"
        }
      ],
      "name": "tokenURI",
      "outputs": [
        {
          "internalType": "string",
          "name": "",
          "type": "string"
        }
      ],
      "stateMutability": "view",
      "type": "function"
    },
    {
      "inputs": [],
      "name": "totalSupply",
      "outputs": [
        {
          "internalType": "uint256",
          "name": "",
          "type": "uint256"
        }
      ],
      "stateMutability": "view",
      "type": "function"
    },
    {
      "inputs": [
        {
          "internalType": "address",
          "name": "from",
          "type": "address"
        },
        {
          "internalType": "address",
          "name": "to",
          "type": "address"
        },
        {
          "internalType": "uint256",
          "name": "tokenId",
          "type": "uint256"
        }
      ],
      "name": "transferFrom",
      "outputs": [],
      "stateMutability": "nonpayable",
      "type": "function"
    },
    {
      "inputs": [
        {
          "internalType": "address",
          "name": "newOwner",
          "type": "address"
        }
      ],
      "name": "transferOwnership",
      "outputs": [],
      "stateMutability": "nonpayable",
      "type": "function"
    },
    {
      "inputs": [],
      "name": "unpause",
      "outputs": [],
      "stateMutability": "nonpayable",
      "type": "function"
    },
    {
      "inputs": [
        {
          "internalType": "address",
          "name": "newImplementation",
          "type": "address"
        }
      ],
      "name": "upgradeTo",
      "outputs": [],
      "stateMutability": "nonpayable",
      "type": "function"
    },
    {
      "inputs": [
        {
          "internalType": "address",
          "name": "newImplementation",
          "type": "address"
        },
        {
          "internalType": "bytes",
          "name": "data",
          "type": "bytes"
        }
      ],
      "name": "upgradeToAndCall",
      "outputs": [],
      "stateMutability": "payable",
      "type": "function"
    },
    {
      "inputs": [
        {
          "internalType": "uint256",
          "name": "tokenId",
          "type": "uint256"
        }
      ],
      "name": "userExpires",
      "outputs": [
        {
          "internalType": "uint256",
          "name": "",
          "type": "uint256"
        }
      ],
      "stateMutability": "view",
      "type": "function"
    },
    {
      "inputs": [
        {
          "internalType": "uint256",
          "name": "tokenId",
          "type": "uint256"
        }
      ],
      "name": "userOf",
      "outputs": [
        {
          "internalType": "address",
          "name": "",
          "type": "address"
        }
      ],
      "stateMutability": "view",
      "type": "function"
    }
  ],
  "bytecode": "0x60a0604052306080523480156200001557600080fd5b506200002062000026565b620000e8565b600054610100900460ff1615620000935760405162461bcd60e51b815260206004820152602760248201527f496e697469616c697a61626c653a20636f6e747261637420697320696e697469604482015266616c697a696e6760c81b606482015260840160405180910390fd5b60005460ff9081161015620000e6576000805460ff191660ff9081179091556040519081527f7f26b83ff96e1f2b6a682f133852f6798a09c465da95921460cefb38474024989060200160405180910390a15b565b6080516144246200012060003960008181610e3b01528181610e7b015281816110f501528181611135015261125b01526144246000f3fe60806040526004361061025c5760003560e01c80636352211e11610144578063a8d95fb2116100b6578063c87b56dd1161007a578063c87b56dd146106d6578063e030565e146106f6578063e8a3d48514610716578063e985e9c51461072b578063eddd0d9c14610774578063f2fde38b1461079457600080fd5b8063a8d95fb214610636578063ab0eda9e14610656578063b88d4fde14610676578063c2f1f14a14610696578063c4d66de8146106b657600080fd5b80638da5cb5b116101085780638da5cb5b146105645780638fc88c4814610583578063938e3d7b146105c157806395d89b41146105e1578063a224c745146105f6578063a22cb4651461061657600080fd5b80636352211e146104da5780636605bfda146104fa57806370a082311461051a578063715018a61461053a5780638456cb591461054f57600080fd5b80633408e470116101dd57806342842e0e116101a157806342842e0e1461043a57806342966c681461045a5780634f1ef2861461047a5780634f6ccce71461048d57806352d1902d146104ad5780635c975abb146104c257600080fd5b80633408e470146103bf5780633659cfe6146103d257806337a328f8146103f257806338cc4831146104125780633f4ba83a1461042557600080fd5b806313966db51161022457806313966db514610325578063162094c41461034a57806318160ddd1461036a57806323b872dd1461037f5780632f745c591461039f57600080fd5b806301ffc9a71461026157806306fdde0314610296578063081812fc146102b8578063095ea7b3146102f05780630cfb4aee14610312575b600080fd5b34801561026d57600080fd5b5061028161027c3660046139ec565b6107b4565b60405190151581526020015b60405180910390f35b3480156102a257600080fd5b506102ab6107df565b60405161028d9190613a59565b3480156102c457600080fd5b506102d86102d3366004613a6c565b610871565b6040516001600160a01b03909116815260200161028d565b3480156102fc57600080fd5b5061031061030b366004613a9c565b610898565b005b610310610320366004613bc1565b6109b2565b34801561033157600080fd5b5061033c61022d5481565b60405190815260200161028d565b34801561035657600080fd5b50610310610365366004613c3c565b610cf3565b34801561037657600080fd5b5060995461033c565b34801561038b57600080fd5b5061031061039a366004613c82565b610d69565b3480156103ab57600080fd5b5061033c6103ba366004613a9c565b610d9b565b3480156103cb57600080fd5b504661033c565b3480156103de57600080fd5b506103106103ed366004613cbe565b610e31565b3480156103fe57600080fd5b506102d861040d366004613cd9565b610f10565b34801561041e57600080fd5b50306102d8565b34801561043157600080fd5b50610310610fbf565b34801561044657600080fd5b50610310610455366004613c82565b6110c7565b34801561046657600080fd5b50610310610475366004613a6c565b6110e2565b610310610488366004613d2d565b6110eb565b34801561049957600080fd5b5061033c6104a8366004613a6c565b6111bb565b3480156104b957600080fd5b5061033c61124e565b3480156104ce57600080fd5b5060fb5460ff16610281565b3480156104e657600080fd5b506102d86104f5366004613a6c565b611301565b34801561050657600080fd5b50610310610515366004613cbe565b611361565b34801561052657600080fd5b5061033c610535366004613cbe565b611485565b34801561054657600080fd5b5061031061150b565b34801561055b57600080fd5b5061031061151f565b34801561057057600080fd5b5061012d546001600160a01b03166102d8565b34801561058f57600080fd5b5061033c61059e366004613a6c565b60009081526102316020526040902054600160a01b90046001600160401b031690565b3480156105cd57600080fd5b506103106105dc366004613d64565b611627565b3480156105ed57600080fd5b506102ab611634565b34801561060257600080fd5b50610310610611366004613cbe565b611643565b34801561062257600080fd5b50610310610631366004613da6565b61178f565b34801561064257600080fd5b50610310610651366004613d2d565b61179a565b34801561066257600080fd5b50610310610671366004613cbe565b611826565b34801561068257600080fd5b50610310610691366004613ddd565b61194a565b3480156106a257600080fd5b506102d86106b1366004613a6c565b611982565b3480156106c257600080fd5b506103106106d1366004613cbe565b6119d3565b3480156106e257600080fd5b506102ab6106f1366004613a6c565b611bc8565b34801561070257600080fd5b50610310610711366004613e44565b611bd3565b34801561072257600080fd5b506102ab611cc5565b34801561073757600080fd5b50610281610746366004613e90565b6001600160a01b039182166000908152606a6020908152604080832093909416825291909152205460ff1690565b34801561078057600080fd5b5061031061078f366004613a6c565b611d54565b3480156107a057600080fd5b506103106107af366004613cbe565b611e5b565b60006001600160e01b03198216632b424ad760e21b14806107d957506107d982611ed1565b92915050565b6060606580546107ee90613ec3565b80601f016020809104026020016040519081016040528092919081815260200182805461081a90613ec3565b80156108675780601f1061083c57610100808354040283529160200191610867565b820191906000526020600020905b81548152906001019060200180831161084a57829003601f168201915b5050505050905090565b600061087c82611edc565b506000908152606960205260409020546001600160a01b031690565b60006108a382611301565b9050806001600160a01b0316836001600160a01b0316036109155760405162461bcd60e51b815260206004820152602160248201527f4552433732313a20617070726f76616c20746f2063757272656e74206f776e656044820152603960f91b60648201526084015b60405180910390fd5b336001600160a01b038216148061093157506109318133610746565b6109a35760405162461bcd60e51b815260206004820152603e60248201527f4552433732313a20617070726f76652063616c6c6572206973206e6f7420746f60448201527f6b656e206f776e6572206e6f7220617070726f76656420666f7220616c6c0000606482015260840161090c565b6109ad8383611f3b565b505050565b6109bd838383610f10565b6102295460408051635c79c67d60e01b815290516000926001600160a01b031691635c79c67d9160048083019260209291908290030181865afa158015610a08573d6000803e3d6000fd5b505050506040513d601f19601f82011682018060405250810190610a2c9190613ef7565b61022954604051632474521560e21b8152600481018390526001600160a01b0385811660248301529293509116906391d1485490604401602060405180830381865afa158015610a80573d6000803e3d6000fd5b505050506040513d601f19601f82011682018060405250810190610aa49190613f10565b610b045760405162461bcd60e51b815260206004820152602b60248201527f57686974656c697374577261707065723a20596f7520646f6e2774206861766560448201526a206772616e7420726f6c6560a81b606482015260840161090c565b61022d54341015610b575760405162461bcd60e51b815260206004820152601860248201527f506f6c66743732313a204e6f7420656e6f756768206665650000000000000000604482015260640161090c565b61022e546040516000916001600160a01b03169034908381818185875af1925050503d8060008114610ba5576040519150601f19603f3d011682016040523d82523d6000602084013e610baa565b606091505b5050905080610bfb5760405162461bcd60e51b815260206004820152601c60248201527f506f6c66743732313a2043616e206e6f742073656e64206d6f6e657900000000604482015260640161090c565b602080850135600090815261022b909152604090205460ff1615610c545760405162461bcd60e51b815260206004820152601060248201526f4173736574206973206d696e7465642160801b604482015260640161090c565b6000610c6061022a5490565b9050610c7161022a80546001019055565b610c7b3382611fa9565b610c858189611fc3565b602080860135600090815261022b9091526040808220805460ff1916600190811790915590517f79438b0ee2bc727e4bfda50a589facc82e58113bdfe3672ed4521e14428a71f992610ce1929091339130918791908f90613f2d565b60405180910390a15050505050505050565b8133610cfe82611301565b6001600160a01b031614610d5f5760405162461bcd60e51b815260206004820152602260248201527f506f6c66743732313a20596f7520617265206e6f74206f776e6572206f66204e604482015261119560f21b606482015260840161090c565b6109ad8383611fc3565b610d74335b82612056565b610d905760405162461bcd60e51b815260040161090c90613f7b565b6109ad8383836120d5565b6000610da683611485565b8210610e085760405162461bcd60e51b815260206004820152602b60248201527f455243373231456e756d657261626c653a206f776e657220696e646578206f7560448201526a74206f6620626f756e647360a81b606482015260840161090c565b506001600160a01b03919091166000908152609760209081526040808320938352929052205490565b6001600160a01b037f0000000000000000000000000000000000000000000000000000000000000000163003610e795760405162461bcd60e51b815260040161090c90613fc9565b7f00000000000000000000000000000000000000000000000000000000000000006001600160a01b0316610ec26000805160206143d1833981519152546001600160a01b031690565b6001600160a01b031614610ee85760405162461bcd60e51b815260040161090c90614015565b610ef18161227c565b60408051600080825260208201909252610f0d9183919061237c565b50565b600080610fb485858080601f0160208091040260200160405190810160405280939291908181526020018383808284376000920191909152505061022c54610fae92509050610f626020880188613cbe565b604080516020818101949094526001600160a01b039092168282015291880135606082015290870135608082015260a001604051602081830303815290604052805190602001206124e7565b90612535565b9150505b9392505050565b6102295460408051631d6c8e3f60e21b815290516000926001600160a01b0316916375b238fc9160048083019260209291908290030181865afa15801561100a573d6000803e3d6000fd5b505050506040513d601f19601f8201168201806040525081019061102e9190613ef7565b61022954604051632474521560e21b8152600481018390523360248201529192506001600160a01b0316906391d1485490604401602060405180830381865afa15801561107f573d6000803e3d6000fd5b505050506040513d601f19601f820116820180604052508101906110a39190613f10565b6110bf5760405162461bcd60e51b815260040161090c90614061565b610f0d612559565b6109ad8383836040518060200160405280600081525061194a565b610f0d816125ab565b6001600160a01b037f00000000000000000000000000000000000000000000000000000000000000001630036111335760405162461bcd60e51b815260040161090c90613fc9565b7f00000000000000000000000000000000000000000000000000000000000000006001600160a01b031661117c6000805160206143d1833981519152546001600160a01b031690565b6001600160a01b0316146111a25760405162461bcd60e51b815260040161090c90614015565b6111ab8261227c565b6111b78282600161237c565b5050565b60006111c660995490565b82106112295760405162461bcd60e51b815260206004820152602c60248201527f455243373231456e756d657261626c653a20676c6f62616c20696e646578206f60448201526b7574206f6620626f756e647360a01b606482015260840161090c565b6099828154811061123c5761123c6140ac565b90600052602060002001549050919050565b6000306001600160a01b037f000000000000000000000000000000000000000000000000000000000000000016146112ee5760405162461bcd60e51b815260206004820152603860248201527f555550535570677261646561626c653a206d757374206e6f742062652063616c60448201527f6c6564207468726f7567682064656c656761746563616c6c0000000000000000606482015260840161090c565b506000805160206143d183398151915290565b6000818152606760205260408120546001600160a01b0316806107d95760405162461bcd60e51b8152602060048201526018602482015277115490cdcc8c4e881a5b9d985b1a59081d1bdad95b88125160421b604482015260640161090c565b6102295460408051631d6c8e3f60e21b815290516000926001600160a01b0316916375b238fc9160048083019260209291908290030181865afa1580156113ac573d6000803e3d6000fd5b505050506040513d601f19601f820116820180604052508101906113d09190613ef7565b61022954604051632474521560e21b8152600481018390523360248201529192506001600160a01b0316906391d1485490604401602060405180830381865afa158015611421573d6000803e3d6000fd5b505050506040513d601f19601f820116820180604052508101906114459190613f10565b6114615760405162461bcd60e51b815260040161090c90614061565b5061022e80546001600160a01b0319166001600160a01b0392909216919091179055565b60006001600160a01b0382166114ef5760405162461bcd60e51b815260206004820152602960248201527f4552433732313a2061646472657373207a65726f206973206e6f7420612076616044820152683634b21037bbb732b960b91b606482015260840161090c565b506001600160a01b031660009081526068602052604090205490565b6115136125d9565b61151d6000612634565b565b6102295460408051631d6c8e3f60e21b815290516000926001600160a01b0316916375b238fc9160048083019260209291908290030181865afa15801561156a573d6000803e3d6000fd5b505050506040513d601f19601f8201168201806040525081019061158e9190613ef7565b61022954604051632474521560e21b8152600481018390523360248201529192506001600160a01b0316906391d1485490604401602060405180830381865afa1580156115df573d6000803e3d6000fd5b505050506040513d601f19601f820116820180604052508101906116039190613f10565b61161f5760405162461bcd60e51b815260040161090c90614061565b610f0d612687565b6102306111b78282614110565b6060606680546107ee90613ec3565b6102295460408051631d6c8e3f60e21b815290516000926001600160a01b0316916375b238fc9160048083019260209291908290030181865afa15801561168e573d6000803e3d6000fd5b505050506040513d601f19601f820116820180604052508101906116b29190613ef7565b61022954604051632474521560e21b8152600481018390523360248201529192506001600160a01b0316906391d1485490604401602060405180830381865afa158015611703573d6000803e3d6000fd5b505050506040513d601f19601f820116820180604052508101906117279190613f10565b6117435760405162461bcd60e51b815260040161090c90614061565b61022980546001600160a01b0319166001600160a01b0384169081179091556040517fdd8c807c33d35ad7642d985aca3455e9281f5298b1c22a4aadb5a86d52df7ed190600090a25050565b6111b73383836126c4565b61022f546001600160a01b031633146117f55760405162461bcd60e51b815260206004820152601d60248201527f506f6c66743732313a206e6f742061697264726f702061646472657373000000604482015260640161090c565b600061180161022a5490565b905061181261022a80546001019055565b61181c8382611fa9565b6109ad8183611fc3565b6102295460408051631d6c8e3f60e21b815290516000926001600160a01b0316916375b238fc9160048083019260209291908290030181865afa158015611871573d6000803e3d6000fd5b505050506040513d601f19601f820116820180604052508101906118959190613ef7565b61022954604051632474521560e21b8152600481018390523360248201529192506001600160a01b0316906391d1485490604401602060405180830381865afa1580156118e6573d6000803e3d6000fd5b505050506040513d601f19601f8201168201806040525081019061190a9190613f10565b6119265760405162461bcd60e51b815260040161090c90614061565b5061022f80546001600160a01b0319166001600160a01b0392909216919091179055565b6119543383612056565b6119705760405162461bcd60e51b815260040161090c90613f7b565b61197c84848484612793565b50505050565b6000818152610231602052604081205442600160a01b9091046001600160401b0316106119c65750600090815261023160205260409020546001600160a01b031690565b506000919050565b919050565b600054610100900460ff16158080156119f35750600054600160ff909116105b80611a0d5750303b158015611a0d575060005460ff166001145b611a705760405162461bcd60e51b815260206004820152602e60248201527f496e697469616c697a61626c653a20636f6e747261637420697320616c72656160448201526d191e481a5b9a5d1a585b1a5e995960921b606482015260840161090c565b6000805460ff191660011790558015611a93576000805461ff0019166101001790555b611ad860405180604001604052806008815260200167506f6c667437323160c01b8152506040518060400160405280600381526020016214111560ea1b8152506127c6565b611ae06127f7565b611ae86127f7565b611af18261281e565b611af961284e565b611b0161287d565b611b096127f7565b611b116127f7565b611b3b611b1c6107df565b604051806040016040528060018152602001603160f81b8152506128ac565b7f8a33b8863d26293d4ac8b7387dc25b141b99ff6ad73c435248e319500cbd071261022c556611c37937e0800061022d5561022e80546001600160a01b0319163317905580156111b7576000805461ff0019169055604051600181527f7f26b83ff96e1f2b6a682f133852f6798a09c465da95921460cefb38474024989060200160405180910390a15050565b60606107d9826128dd565b611bdd3384612056565b611c445760405162461bcd60e51b815260206004820152603260248201527f455243343930373a207472616e736665722063616c6c6572206973206e6f74206044820152711bdddb995c881b9bdc88185c1c1c9bdd995960721b606482015260840161090c565b6000838152610231602090815260409182902080546001600160a01b0386166001600160e01b03199091168117600160a01b6001600160401b03871690810291909117835593519384529092909186917f4e06b4e7000e659094299b3533b47b6aa8ad048e95e872d23d1f4ee55af89cfe910160405180910390a350505050565b6102308054611cd390613ec3565b80601f0160208091040260200160405190810160405280929190818152602001828054611cff90613ec3565b8015611d4c5780601f10611d2157610100808354040283529160200191611d4c565b820191906000526020600020905b815481529060010190602001808311611d2f57829003601f168201915b505050505081565b6102295460408051631d6c8e3f60e21b815290516000926001600160a01b0316916375b238fc9160048083019260209291908290030181865afa158015611d9f573d6000803e3d6000fd5b505050506040513d601f19601f82011682018060405250810190611dc39190613ef7565b61022954604051632474521560e21b8152600481018390523360248201529192506001600160a01b0316906391d1485490604401602060405180830381865afa158015611e14573d6000803e3d6000fd5b505050506040513d601f19601f82011682018060405250810190611e389190613f10565b611e545760405162461bcd60e51b815260040161090c90614061565b5061022d55565b611e636125d9565b6001600160a01b038116611ec85760405162461bcd60e51b815260206004820152602660248201527f4f776e61626c653a206e6577206f776e657220697320746865207a65726f206160448201526564647265737360d01b606482015260840161090c565b610f0d81612634565b60006107d9826129e5565b6000818152606760205260409020546001600160a01b0316610f0d5760405162461bcd60e51b8152602060048201526018602482015277115490cdcc8c4e881a5b9d985b1a59081d1bdad95b88125160421b604482015260640161090c565b600081815260696020526040902080546001600160a01b0319166001600160a01b0384169081179091558190611f7082611301565b6001600160a01b03167f8c5be1e5ebec7d5bd14f71427d1e84f3dd0314c0f7b2291e5b200ac8c7c3b92560405160405180910390a45050565b6111b7828260405180602001604052806000815250612a0a565b6000828152606760205260409020546001600160a01b031661203e5760405162461bcd60e51b815260206004820152602e60248201527f45524337323155524953746f726167653a2055524920736574206f66206e6f6e60448201526d32bc34b9ba32b73a103a37b5b2b760911b606482015260840161090c565b600082815260c9602052604090206109ad8282614110565b60008061206283611301565b9050806001600160a01b0316846001600160a01b031614806120a957506001600160a01b038082166000908152606a602090815260408083209388168352929052205460ff165b806120cd5750836001600160a01b03166120c284610871565b6001600160a01b0316145b949350505050565b826001600160a01b03166120e882611301565b6001600160a01b03161461214c5760405162461bcd60e51b815260206004820152602560248201527f4552433732313a207472616e736665722066726f6d20696e636f72726563742060448201526437bbb732b960d91b606482015260840161090c565b6001600160a01b0382166121ae5760405162461bcd60e51b8152602060048201526024808201527f4552433732313a207472616e7366657220746f20746865207a65726f206164646044820152637265737360e01b606482015260840161090c565b6121b9838383612a3d565b6121c4600082611f3b565b6001600160a01b03831660009081526068602052604081208054600192906121ed9084906141e5565b90915550506001600160a01b038216600090815260686020526040812080546001929061221b9084906141f8565b909155505060008181526067602052604080822080546001600160a01b0319166001600160a01b0386811691821790925591518493918716917fddf252ad1be2c89b69c2b068fc378daa952ba7f163c4a11628f55a4df523b3ef91a4505050565b6102295460408051631d6c8e3f60e21b815290516000926001600160a01b0316916375b238fc9160048083019260209291908290030181865afa1580156122c7573d6000803e3d6000fd5b505050506040513d601f19601f820116820180604052508101906122eb9190613ef7565b61022954604051632474521560e21b8152600481018390523360248201529192506001600160a01b0316906391d1485490604401602060405180830381865afa15801561233c573d6000803e3d6000fd5b505050506040513d601f19601f820116820180604052508101906123609190613f10565b6111b75760405162461bcd60e51b815260040161090c90614061565b7f4910fdfa16fed3260ed0e7147f7cc6da11a60208b5b9406d12a635614ffd91435460ff16156123af576109ad83612ad4565b826001600160a01b03166352d1902d6040518163ffffffff1660e01b8152600401602060405180830381865afa925050508015612409575060408051601f3d908101601f1916820190925261240691810190613ef7565b60015b61246c5760405162461bcd60e51b815260206004820152602e60248201527f45524331393637557067726164653a206e657720696d706c656d656e7461746960448201526d6f6e206973206e6f74205555505360901b606482015260840161090c565b6000805160206143d183398151915281146124db5760405162461bcd60e51b815260206004820152602960248201527f45524331393637557067726164653a20756e737570706f727465642070726f786044820152681a58589b195555525160ba1b606482015260840161090c565b506109ad838383612b70565b60006107d96124f4612b95565b8360405161190160f01b6020820152602281018390526042810182905260009060620160405160208183030381529060405280519060200120905092915050565b60008060006125448585612c17565b9150915061255181612c5c565b509392505050565b612561612e12565b60fb805460ff191690557f5db9ee0a495bf2e6ff9c91a7834c1ba4fdd244a5e8aa4e537bd38aeae4b073aa335b6040516001600160a01b03909116815260200160405180910390a1565b6125b433610d6e565b6125d05760405162461bcd60e51b815260040161090c90613f7b565b610f0d81612e5b565b61012d546001600160a01b0316331461151d5760405162461bcd60e51b815260206004820181905260248201527f4f776e61626c653a2063616c6c6572206973206e6f7420746865206f776e6572604482015260640161090c565b61012d80546001600160a01b038381166001600160a01b0319831681179093556040519116919082907f8be0079c531659141344cd1fd0a4f28419497f9722a3daafe3b4186f6b6457e090600090a35050565b61268f612e64565b60fb805460ff191660011790557f62e78cea01bee320cd4e420270b5ea74000d11b0c9f74754ebdbfc544b05a25861258e3390565b816001600160a01b0316836001600160a01b0316036127255760405162461bcd60e51b815260206004820152601960248201527f4552433732313a20617070726f766520746f2063616c6c657200000000000000604482015260640161090c565b6001600160a01b038381166000818152606a6020908152604080832094871680845294825291829020805460ff191686151590811790915591519182527f17307eab39ab6107e8899845ad3d59bd9653f200f220920489ca2b5937696c3191015b60405180910390a3505050565b61279e8484846120d5565b6127aa84848484612eaa565b61197c5760405162461bcd60e51b815260040161090c9061420b565b600054610100900460ff166127ed5760405162461bcd60e51b815260040161090c9061425d565b6111b78282612fab565b600054610100900460ff1661151d5760405162461bcd60e51b815260040161090c9061425d565b600054610100900460ff166128455760405162461bcd60e51b815260040161090c9061425d565b610f0d81612feb565b600054610100900460ff166128755760405162461bcd60e51b815260040161090c9061425d565b61151d613035565b600054610100900460ff166128a45760405162461bcd60e51b815260040161090c9061425d565b61151d613068565b600054610100900460ff166128d35760405162461bcd60e51b815260040161090c9061425d565b6111b78282613098565b60606128e882611edc565b600082815260c960205260408120805461290190613ec3565b80601f016020809104026020016040519081016040528092919081815260200182805461292d90613ec3565b801561297a5780601f1061294f5761010080835404028352916020019161297a565b820191906000526020600020905b81548152906001019060200180831161295d57829003601f168201915b50505050509050600061299860408051602081019091526000815290565b905080516000036129aa575092915050565b8151156129dc5780826040516020016129c49291906142a8565b60405160208183030381529060405292505050919050565b6120cd846130db565b60006001600160e01b0319821663780e9d6360e01b14806107d957506107d98261314e565b612a14838361319e565b612a216000848484612eaa565b6109ad5760405162461bcd60e51b815260040161090c9061420b565b612a488383836132ec565b816001600160a01b0316836001600160a01b031614158015612a815750600081815261023160205260409020546001600160a01b031615155b156109ad5760008181526102316020908152604080832080546001600160e01b03191690555182815283917f4e06b4e7000e659094299b3533b47b6aa8ad048e95e872d23d1f4ee55af89cfe9101612786565b6001600160a01b0381163b612b415760405162461bcd60e51b815260206004820152602d60248201527f455243313936373a206e657720696d706c656d656e746174696f6e206973206e60448201526c1bdd08184818dbdb9d1c9858dd609a1b606482015260840161090c565b6000805160206143d183398151915280546001600160a01b0319166001600160a01b0392909216919091179055565b612b79836132ff565b600082511180612b865750805b156109ad5761197c838361333f565b6000612c127f8b73c3c69bb8fe3d512ecc4cf759cc79239f7b179b0ffacaa9a75d522b39400f612bc56101f55490565b6101f6546040805160208101859052908101839052606081018290524660808201523060a082015260009060c0016040516020818303038152906040528051906020012090509392505050565b905090565b6000808251604103612c4d5760208301516040840151606085015160001a612c4187828585613433565b94509450505050612c55565b506000905060025b9250929050565b6000816004811115612c7057612c706142d7565b03612c785750565b6001816004811115612c8c57612c8c6142d7565b03612cd95760405162461bcd60e51b815260206004820152601860248201527f45434453413a20696e76616c6964207369676e61747572650000000000000000604482015260640161090c565b6002816004811115612ced57612ced6142d7565b03612d3a5760405162461bcd60e51b815260206004820152601f60248201527f45434453413a20696e76616c6964207369676e6174757265206c656e67746800604482015260640161090c565b6003816004811115612d4e57612d4e6142d7565b03612da65760405162461bcd60e51b815260206004820152602260248201527f45434453413a20696e76616c6964207369676e6174757265202773272076616c604482015261756560f01b606482015260840161090c565b6004816004811115612dba57612dba6142d7565b03610f0d5760405162461bcd60e51b815260206004820152602260248201527f45434453413a20696e76616c6964207369676e6174757265202776272076616c604482015261756560f01b606482015260840161090c565b60fb5460ff1661151d5760405162461bcd60e51b815260206004820152601460248201527314185d5cd8589b194e881b9bdd081c185d5cd95960621b604482015260640161090c565b610f0d81613520565b60fb5460ff161561151d5760405162461bcd60e51b815260206004820152601060248201526f14185d5cd8589b194e881c185d5cd95960821b604482015260640161090c565b60006001600160a01b0384163b15612fa057604051630a85bd0160e11b81526001600160a01b0385169063150b7a0290612eee9033908990889088906004016142ed565b6020604051808303816000875af1925050508015612f29575060408051601f3d908101601f19168201909252612f269181019061432a565b60015b612f86573d808015612f57576040519150601f19603f3d011682016040523d82523d6000602084013e612f5c565b606091505b508051600003612f7e5760405162461bcd60e51b815260040161090c9061420b565b805181602001fd5b6001600160e01b031916630a85bd0160e11b1490506120cd565b506001949350505050565b600054610100900460ff16612fd25760405162461bcd60e51b815260040161090c9061425d565b6065612fde8382614110565b5060666109ad8282614110565b600054610100900460ff166130125760405162461bcd60e51b815260040161090c9061425d565b61022980546001600160a01b0319166001600160a01b0392909216919091179055565b600054610100900460ff1661305c5760405162461bcd60e51b815260040161090c9061425d565b60fb805460ff19169055565b600054610100900460ff1661308f5760405162461bcd60e51b815260040161090c9061425d565b61151d33612634565b600054610100900460ff166130bf5760405162461bcd60e51b815260040161090c9061425d565b8151602092830120815191909201206101f5919091556101f655565b60606130e682611edc565b60006130fd60408051602081019091526000815290565b9050600081511161311d5760405180602001604052806000815250610fb8565b8061312784613560565b6040516020016131389291906142a8565b6040516020818303038152906040529392505050565b60006001600160e01b031982166380ac58cd60e01b148061317f57506001600160e01b03198216635b5e139f60e01b145b806107d957506301ffc9a760e01b6001600160e01b03198316146107d9565b6001600160a01b0382166131f45760405162461bcd60e51b815260206004820181905260248201527f4552433732313a206d696e7420746f20746865207a65726f2061646472657373604482015260640161090c565b6000818152606760205260409020546001600160a01b0316156132595760405162461bcd60e51b815260206004820152601c60248201527f4552433732313a20746f6b656e20616c7265616479206d696e74656400000000604482015260640161090c565b61326560008383612a3d565b6001600160a01b038216600090815260686020526040812080546001929061328e9084906141f8565b909155505060008181526067602052604080822080546001600160a01b0319166001600160a01b03861690811790915590518392907fddf252ad1be2c89b69c2b068fc378daa952ba7f163c4a11628f55a4df523b3ef908290a45050565b6132f4612e64565b6109ad838383613660565b61330881612ad4565b6040516001600160a01b038216907fbc7cd75a20ee27fd9adebab32041f755214dbc6bffa90cc0225b39da2e5c2d3b90600090a250565b60606001600160a01b0383163b6133a75760405162461bcd60e51b815260206004820152602660248201527f416464726573733a2064656c65676174652063616c6c20746f206e6f6e2d636f6044820152651b9d1c9858dd60d21b606482015260840161090c565b600080846001600160a01b0316846040516133c29190614347565b600060405180830381855af49150503d80600081146133fd576040519150601f19603f3d011682016040523d82523d6000602084013e613402565b606091505b509150915061342a82826040518060600160405280602781526020016143f160279139613718565b95945050505050565b6000807f7fffffffffffffffffffffffffffffff5d576e7357a4501ddfe92f46681b20a083111561346a5750600090506003613517565b8460ff16601b1415801561348257508460ff16601c14155b156134935750600090506004613517565b6040805160008082526020820180845289905260ff881692820192909252606081018690526080810185905260019060a0016020604051602081039080840390855afa1580156134e7573d6000803e3d6000fd5b5050604051601f1901519150506001600160a01b03811661351057600060019250925050613517565b9150600090505b94509492505050565b61352981613751565b600081815260c960205260409020805461354290613ec3565b159050610f0d57600081815260c960205260408120610f0d91613988565b6060816000036135875750506040805180820190915260018152600360fc1b602082015290565b8160005b81156135b1578061359b81614363565b91506135aa9050600a83614392565b915061358b565b6000816001600160401b038111156135cb576135cb613ac6565b6040519080825280601f01601f1916602001820160405280156135f5576020820181803683370190505b5090505b84156120cd5761360a6001836141e5565b9150613617600a866143a6565b6136229060306141f8565b60f81b818381518110613637576136376140ac565b60200101906001600160f81b031916908160001a905350613659600a86614392565b94506135f9565b6001600160a01b0383166136bb576136b681609980546000838152609a60205260408120829055600182018355919091527f72a152ddfb8e864297c917af52ea6c1c68aead0fee1a62673fcc7e0c94979d000155565b6136de565b816001600160a01b0316836001600160a01b0316146136de576136de83826137f8565b6001600160a01b0382166136f5576109ad81613895565b826001600160a01b0316826001600160a01b0316146109ad576109ad8282613944565b60608315613727575081610fb8565b8251156137375782518084602001fd5b8160405162461bcd60e51b815260040161090c9190613a59565b600061375c82611301565b905061376a81600084612a3d565b613775600083611f3b565b6001600160a01b038116600090815260686020526040812080546001929061379e9084906141e5565b909155505060008281526067602052604080822080546001600160a01b0319169055518391906001600160a01b038416907fddf252ad1be2c89b69c2b068fc378daa952ba7f163c4a11628f55a4df523b3ef908390a45050565b6000600161380584611485565b61380f91906141e5565b600083815260986020526040902054909150808214613862576001600160a01b03841660009081526097602090815260408083208584528252808320548484528184208190558352609890915290208190555b5060009182526098602090815260408084208490556001600160a01b039094168352609781528383209183525290812055565b6099546000906138a7906001906141e5565b6000838152609a6020526040812054609980549394509092849081106138cf576138cf6140ac565b9060005260206000200154905080609983815481106138f0576138f06140ac565b6000918252602080832090910192909255828152609a90915260408082208490558582528120556099805480613928576139286143ba565b6001900381819060005260206000200160009055905550505050565b600061394f83611485565b6001600160a01b039093166000908152609760209081526040808320868452825280832085905593825260989052919091209190915550565b50805461399490613ec3565b6000825580601f106139a4575050565b601f016020900490600052602060002090810190610f0d91905b808211156139d257600081556001016139be565b5090565b6001600160e01b031981168114610f0d57600080fd5b6000602082840312156139fe57600080fd5b8135610fb8816139d6565b60005b83811015613a24578181015183820152602001613a0c565b50506000910152565b60008151808452613a45816020860160208601613a09565b601f01601f19169290920160200192915050565b602081526000610fb86020830184613a2d565b600060208284031215613a7e57600080fd5b5035919050565b80356001600160a01b03811681146119ce57600080fd5b60008060408385031215613aaf57600080fd5b613ab883613a85565b946020939093013593505050565b634e487b7160e01b600052604160045260246000fd5b600082601f830112613aed57600080fd5b81356001600160401b0380821115613b0757613b07613ac6565b604051601f8301601f19908116603f01168101908282118183101715613b2f57613b2f613ac6565b81604052838152866020858801011115613b4857600080fd5b836020870160208301376000602085830101528094505050505092915050565b60008083601f840112613b7a57600080fd5b5081356001600160401b03811115613b9157600080fd5b602083019150836020828501011115612c5557600080fd5b600060608284031215613bbb57600080fd5b50919050565b60008060008060a08587031215613bd757600080fd5b84356001600160401b0380821115613bee57600080fd5b613bfa88838901613adc565b95506020870135915080821115613c1057600080fd5b50613c1d87828801613b68565b9094509250613c3190508660408701613ba9565b905092959194509250565b60008060408385031215613c4f57600080fd5b8235915060208301356001600160401b03811115613c6c57600080fd5b613c7885828601613adc565b9150509250929050565b600080600060608486031215613c9757600080fd5b613ca084613a85565b9250613cae60208501613a85565b9150604084013590509250925092565b600060208284031215613cd057600080fd5b610fb882613a85565b600080600060808486031215613cee57600080fd5b83356001600160401b03811115613d0457600080fd5b613d1086828701613b68565b9094509250613d2490508560208601613ba9565b90509250925092565b60008060408385031215613d4057600080fd5b613d4983613a85565b915060208301356001600160401b03811115613c6c57600080fd5b600060208284031215613d7657600080fd5b81356001600160401b03811115613d8c57600080fd5b6120cd84828501613adc565b8015158114610f0d57600080fd5b60008060408385031215613db957600080fd5b613dc283613a85565b91506020830135613dd281613d98565b809150509250929050565b60008060008060808587031215613df357600080fd5b613dfc85613a85565b9350613e0a60208601613a85565b92506040850135915060608501356001600160401b03811115613e2c57600080fd5b613e3887828801613adc565b91505092959194509250565b600080600060608486031215613e5957600080fd5b83359250613e6960208501613a85565b915060408401356001600160401b0381168114613e8557600080fd5b809150509250925092565b60008060408385031215613ea357600080fd5b613eac83613a85565b9150613eba60208401613a85565b90509250929050565b600181811c90821680613ed757607f821691505b602082108103613bbb57634e487b7160e01b600052602260045260246000fd5b600060208284031215613f0957600080fd5b5051919050565b600060208284031215613f2257600080fd5b8151610fb881613d98565b6001600160a01b038781168252868116602083015285166040820152606081018490526080810183905260c060a08201819052600090613f6f90830184613a2d565b98975050505050505050565b6020808252602e908201527f4552433732313a2063616c6c6572206973206e6f7420746f6b656e206f776e6560408201526d1c881b9bdc88185c1c1c9bdd995960921b606082015260800190565b6020808252602c908201527f46756e6374696f6e206d7573742062652063616c6c6564207468726f7567682060408201526b19195b1959d85d1958d85b1b60a21b606082015260800190565b6020808252602c908201527f46756e6374696f6e206d7573742062652063616c6c6564207468726f7567682060408201526b6163746976652070726f787960a01b606082015260800190565b6020808252602b908201527f57686974656c697374577261707065723a20596f7520646f6e2774206861766560408201526a2061646d696e20726f6c6560a81b606082015260800190565b634e487b7160e01b600052603260045260246000fd5b601f8211156109ad57600081815260208120601f850160051c810160208610156140e95750805b601f850160051c820191505b81811015614108578281556001016140f5565b505050505050565b81516001600160401b0381111561412957614129613ac6565b61413d816141378454613ec3565b846140c2565b602080601f831160018114614172576000841561415a5750858301515b600019600386901b1c1916600185901b178555614108565b600085815260208120601f198616915b828110156141a157888601518255948401946001909101908401614182565b50858210156141bf5787850151600019600388901b60f8161c191681555b5050505050600190811b01905550565b634e487b7160e01b600052601160045260246000fd5b818103818111156107d9576107d96141cf565b808201808211156107d9576107d96141cf565b60208082526032908201527f4552433732313a207472616e7366657220746f206e6f6e20455243373231526560408201527131b2b4bb32b91034b6b83632b6b2b73a32b960711b606082015260800190565b6020808252602b908201527f496e697469616c697a61626c653a20636f6e7472616374206973206e6f74206960408201526a6e697469616c697a696e6760a81b606082015260800190565b600083516142ba818460208801613a09565b8351908301906142ce818360208801613a09565b01949350505050565b634e487b7160e01b600052602160045260246000fd5b6001600160a01b038581168252841660208201526040810183905260806060820181905260009061432090830184613a2d565b9695505050505050565b60006020828403121561433c57600080fd5b8151610fb8816139d6565b60008251614359818460208701613a09565b9190910192915050565b600060018201614375576143756141cf565b5060010190565b634e487b7160e01b600052601260045260246000fd5b6000826143a1576143a161437c565b500490565b6000826143b5576143b561437c565b500690565b634e487b7160e01b600052603160045260246000fdfe360894a13ba1a3210667c828492db98dca3e2076cc3735a920a3ca505d382bbc416464726573733a206c6f772d6c6576656c2064656c65676174652063616c6c206661696c6564a164736f6c6343000811000a",
  "linkReferences": {},
  "deployedLinkReferences": {}
}