{
  "_format": "hh-sol-artifact-1",
  "contractName": "Treasury",
  "sourceName": "contracts/standard/core/Treasury.sol",
  "abi": [
    {
      "inputs": [],
      "stateMutability": "nonpayable",
      "type": "constructor"
    },
    {
      "anonymous": false,
      "inputs": [
        {
          "indexed": false,
          "internalType": "address",
          "name": "previousAdmin",
          "type": "address"
        },
        {
          "indexed": false,
          "internalType": "address",
          "name": "newAdmin",
          "type": "address"
        }
      ],
      "name": "AdminChanged",
      "type": "event"
    },
    {
      "anonymous": false,
      "inputs": [
        {
          "indexed": true,
          "internalType": "address",
          "name": "beacon",
          "type": "address"
        }
      ],
      "name": "BeaconUpgraded",
      "type": "event"
    },
    {
      "anonymous": false,
      "inputs": [
        {
          "indexed": false,
          "internalType": "uint8",
          "name": "version",
          "type": "uint8"
        }
      ],
      "name": "Initialized",
      "type": "event"
    },
    {
      "anonymous": false,
      "inputs": [
        {
          "indexed": true,
          "internalType": "address",
          "name": "previousOwner",
          "type": "address"
        },
        {
          "indexed": true,
          "internalType": "address",
          "name": "newOwner",
          "type": "address"
        }
      ],
      "name": "OwnershipTransferred",
      "type": "event"
    },
    {
      "anonymous": false,
      "inputs": [
        {
          "indexed": true,
          "internalType": "address",
          "name": "implementation",
          "type": "address"
        }
      ],
      "name": "Upgraded",
      "type": "event"
    },
    {
      "anonymous": false,
      "inputs": [
        {
          "indexed": true,
          "internalType": "address",
          "name": "newOwner",
          "type": "address"
        }
      ],
      "name": "WhitelistChanged",
      "type": "event"
    },
    {
      "stateMutability": "payable",
      "type": "fallback"
    },
    {
      "inputs": [
        {
          "internalType": "address",
          "name": "_contractERC20",
          "type": "address"
        }
      ],
      "name": "balanceERC20",
      "outputs": [
        {
          "internalType": "uint256",
          "name": "",
          "type": "uint256"
        }
      ],
      "stateMutability": "view",
      "type": "function"
    },
    {
      "inputs": [],
      "name": "balanceETH",
      "outputs": [
        {
          "internalType": "uint256",
          "name": "",
          "type": "uint256"
        }
      ],
      "stateMutability": "view",
      "type": "function"
    },
    {
      "inputs": [
        {
          "internalType": "address",
          "name": "_whitelistAddress",
          "type": "address"
        }
      ],
      "name": "initialize",
      "outputs": [],
      "stateMutability": "nonpayable",
      "type": "function"
    },
    {
      "inputs": [],
      "name": "owner",
      "outputs": [
        {
          "internalType": "address",
          "name": "",
          "type": "address"
        }
      ],
      "stateMutability": "view",
      "type": "function"
    },
    {
      "inputs": [],
      "name": "proxiableUUID",
      "outputs": [
        {
          "internalType": "bytes32",
          "name": "",
          "type": "bytes32"
        }
      ],
      "stateMutability": "view",
      "type": "function"
    },
    {
      "inputs": [],
      "name": "renounceOwnership",
      "outputs": [],
      "stateMutability": "nonpayable",
      "type": "function"
    },
    {
      "inputs": [
        {
          "internalType": "address",
          "name": "whitelistAddress_",
          "type": "address"
        }
      ],
      "name": "setWhitelistAddress",
      "outputs": [],
      "stateMutability": "nonpayable",
      "type": "function"
    },
    {
      "inputs": [
        {
          "internalType": "address",
          "name": "newOwner",
          "type": "address"
        }
      ],
      "name": "transferOwnership",
      "outputs": [],
      "stateMutability": "nonpayable",
      "type": "function"
    },
    {
      "inputs": [
        {
          "internalType": "address",
          "name": "newImplementation",
          "type": "address"
        }
      ],
      "name": "upgradeTo",
      "outputs": [],
      "stateMutability": "nonpayable",
      "type": "function"
    },
    {
      "inputs": [
        {
          "internalType": "address",
          "name": "newImplementation",
          "type": "address"
        },
        {
          "internalType": "bytes",
          "name": "data",
          "type": "bytes"
        }
      ],
      "name": "upgradeToAndCall",
      "outputs": [],
      "stateMutability": "payable",
      "type": "function"
    },
    {
      "inputs": [
        {
          "internalType": "address",
          "name": "_recipient",
          "type": "address"
        }
      ],
      "name": "withdraw",
      "outputs": [],
      "stateMutability": "payable",
      "type": "function"
    },
    {
      "inputs": [
        {
          "internalType": "address",
          "name": "_contractERC20",
          "type": "address"
        },
        {
          "internalType": "address",
          "name": "_recipient",
          "type": "address"
        },
        {
          "internalType": "uint256",
          "name": "_amount",
          "type": "uint256"
        }
      ],
      "name": "withdrawERC20",
      "outputs": [],
      "stateMutability": "payable",
      "type": "function"
    },
    {
      "stateMutability": "payable",
      "type": "receive"
    }
  ],
  "bytecode": "0x60a06040523060805234801561001457600080fd5b5061001d610022565b6100e2565b600054610100900460ff161561008e5760405162461bcd60e51b815260206004820152602760248201527f496e697469616c697a61626c653a20636f6e747261637420697320696e697469604482015266616c697a696e6760c81b606482015260840160405180910390fd5b60005460ff90811610156100e0576000805460ff191660ff9081179091556040519081527f7f26b83ff96e1f2b6a682f133852f6798a09c465da95921460cefb38474024989060200160405180910390a15b565b6080516114f56101196000396000818161027a015281816102c30152818161060301528181610643015261088601526114f56000f3fe6080604052600436106100a55760003560e01c8063715018a611610061578063715018a61461014f5780638da5cb5b14610164578063a224c7451461018c578063c4d66de8146101ac578063ecbdbb32146101cc578063f2fde38b146101df57005b80630f4ac71a146100ae5780633659cfe6146100e157806344004cc1146101015780634f1ef2861461011457806351cff8d91461012757806352d1902d1461013a57005b366100ac57005b005b3480156100ba57600080fd5b506100ce6100c9366004611196565b6101ff565b6040519081526020015b60405180910390f35b3480156100ed57600080fd5b506100ac6100fc366004611196565b610270565b6100ac61010f3660046111b1565b610358565b6100ac610122366004611203565b6105f9565b6100ac610135366004611196565b6106c9565b34801561014657600080fd5b506100ce610879565b34801561015b57600080fd5b506100ac61092c565b34801561017057600080fd5b506033546040516001600160a01b0390911681526020016100d8565b34801561019857600080fd5b506100ac6101a7366004611196565b610940565b3480156101b857600080fd5b506100ac6101c7366004611196565b610a89565b3480156101d857600080fd5b50476100ce565b3480156101eb57600080fd5b506100ac6101fa366004611196565b610bab565b6040516370a0823160e01b81523060048201526000906001600160a01b038316906370a0823190602401602060405180830381865afa158015610246573d6000803e3d6000fd5b505050506040513d601f19601f8201168201806040525081019061026a91906112c5565b92915050565b6001600160a01b037f00000000000000000000000000000000000000000000000000000000000000001630036102c15760405162461bcd60e51b81526004016102b8906112de565b60405180910390fd5b7f00000000000000000000000000000000000000000000000000000000000000006001600160a01b031661030a6000805160206114a2833981519152546001600160a01b031690565b6001600160a01b0316146103305760405162461bcd60e51b81526004016102b89061132a565b61033981610c21565b6040805160008082526020820190925261035591839190610c29565b50565b60c95460408051631d6c8e3f60e21b815290516000926001600160a01b0316916375b238fc9160048083019260209291908290030181865afa1580156103a2573d6000803e3d6000fd5b505050506040513d601f19601f820116820180604052508101906103c691906112c5565b60c954604051632474521560e21b8152600481018390523360248201529192506001600160a01b0316906391d1485490604401602060405180830381865afa158015610416573d6000803e3d6000fd5b505050506040513d601f19601f8201168201806040525081019061043a9190611376565b6104565760405162461bcd60e51b81526004016102b890611398565b6040516370a0823160e01b815230600482015282906001600160a01b038616906370a0823190602401602060405180830381865afa15801561049c573d6000803e3d6000fd5b505050506040513d601f19601f820116820180604052508101906104c091906112c5565b101561051c5760405162461bcd60e51b815260206004820152602560248201527f54726561737572793a20796f7520646f6e2774206861766520656e6f756768206044820152643a37b5b2b760d91b60648201526084016102b8565b60405163a9059cbb60e01b81526001600160a01b038481166004830152602482018490526000919086169063a9059cbb906044016020604051808303816000875af115801561056f573d6000803e3d6000fd5b505050506040513d601f19601f820116820180604052508101906105939190611376565b9050806105f25760405162461bcd60e51b815260206004820152602760248201527f54726561737572793a2063616e206e6f7420776974686472617720657263323060448201526620746f6b656e2160c81b60648201526084016102b8565b5050505050565b6001600160a01b037f00000000000000000000000000000000000000000000000000000000000000001630036106415760405162461bcd60e51b81526004016102b8906112de565b7f00000000000000000000000000000000000000000000000000000000000000006001600160a01b031661068a6000805160206114a2833981519152546001600160a01b031690565b6001600160a01b0316146106b05760405162461bcd60e51b81526004016102b89061132a565b6106b982610c21565b6106c582826001610c29565b5050565b60c95460408051631d6c8e3f60e21b815290516000926001600160a01b0316916375b238fc9160048083019260209291908290030181865afa158015610713573d6000803e3d6000fd5b505050506040513d601f19601f8201168201806040525081019061073791906112c5565b60c954604051632474521560e21b8152600481018390523360248201529192506001600160a01b0316906391d1485490604401602060405180830381865afa158015610787573d6000803e3d6000fd5b505050506040513d601f19601f820116820180604052508101906107ab9190611376565b6107c75760405162461bcd60e51b81526004016102b890611398565b6000826001600160a01b03164760405160006040518083038185875af1925050503d8060008114610814576040519150601f19603f3d011682016040523d82523d6000602084013e610819565b606091505b50509050806108745760405162461bcd60e51b815260206004820152602160248201527f54726561737572793a2063616e206e6f74207769746864726177206d6f6e65796044820152602160f81b60648201526084016102b8565b505050565b6000306001600160a01b037f000000000000000000000000000000000000000000000000000000000000000016146109195760405162461bcd60e51b815260206004820152603860248201527f555550535570677261646561626c653a206d757374206e6f742062652063616c60448201527f6c6564207468726f7567682064656c656761746563616c6c000000000000000060648201526084016102b8565b506000805160206114a283398151915290565b610934610d94565b61093e6000610dee565b565b60c95460408051631d6c8e3f60e21b815290516000926001600160a01b0316916375b238fc9160048083019260209291908290030181865afa15801561098a573d6000803e3d6000fd5b505050506040513d601f19601f820116820180604052508101906109ae91906112c5565b60c954604051632474521560e21b8152600481018390523360248201529192506001600160a01b0316906391d1485490604401602060405180830381865afa1580156109fe573d6000803e3d6000fd5b505050506040513d601f19601f82011682018060405250810190610a229190611376565b610a3e5760405162461bcd60e51b81526004016102b890611398565b60c980546001600160a01b0319166001600160a01b0384169081179091556040517fdd8c807c33d35ad7642d985aca3455e9281f5298b1c22a4aadb5a86d52df7ed190600090a25050565b600054610100900460ff1615808015610aa95750600054600160ff909116105b80610ac35750303b158015610ac3575060005460ff166001145b610b265760405162461bcd60e51b815260206004820152602e60248201527f496e697469616c697a61626c653a20636f6e747261637420697320616c72656160448201526d191e481a5b9a5d1a585b1a5e995960921b60648201526084016102b8565b6000805460ff191660011790558015610b49576000805461ff0019166101001790555b610b51610e40565b610b5a82610e6f565b610b62610e9f565b80156106c5576000805461ff0019169055604051600181527f7f26b83ff96e1f2b6a682f133852f6798a09c465da95921460cefb38474024989060200160405180910390a15050565b610bb3610d94565b6001600160a01b038116610c185760405162461bcd60e51b815260206004820152602660248201527f4f776e61626c653a206e6577206f776e657220697320746865207a65726f206160448201526564647265737360d01b60648201526084016102b8565b61035581610dee565b610355610d94565b7f4910fdfa16fed3260ed0e7147f7cc6da11a60208b5b9406d12a635614ffd91435460ff1615610c5c5761087483610ec6565b826001600160a01b03166352d1902d6040518163ffffffff1660e01b8152600401602060405180830381865afa925050508015610cb6575060408051601f3d908101601f19168201909252610cb3918101906112c5565b60015b610d195760405162461bcd60e51b815260206004820152602e60248201527f45524331393637557067726164653a206e657720696d706c656d656e7461746960448201526d6f6e206973206e6f74205555505360901b60648201526084016102b8565b6000805160206114a28339815191528114610d885760405162461bcd60e51b815260206004820152602960248201527f45524331393637557067726164653a20756e737570706f727465642070726f786044820152681a58589b195555525160ba1b60648201526084016102b8565b50610874838383610f62565b6033546001600160a01b0316331461093e5760405162461bcd60e51b815260206004820181905260248201527f4f776e61626c653a2063616c6c6572206973206e6f7420746865206f776e657260448201526064016102b8565b603380546001600160a01b038381166001600160a01b0319831681179093556040519116919082907f8be0079c531659141344cd1fd0a4f28419497f9722a3daafe3b4186f6b6457e090600090a35050565b600054610100900460ff16610e675760405162461bcd60e51b81526004016102b8906113e3565b61093e610f8d565b600054610100900460ff16610e965760405162461bcd60e51b81526004016102b8906113e3565b61035581610fbd565b600054610100900460ff1661093e5760405162461bcd60e51b81526004016102b8906113e3565b6001600160a01b0381163b610f335760405162461bcd60e51b815260206004820152602d60248201527f455243313936373a206e657720696d706c656d656e746174696f6e206973206e60448201526c1bdd08184818dbdb9d1c9858dd609a1b60648201526084016102b8565b6000805160206114a283398151915280546001600160a01b0319166001600160a01b0392909216919091179055565b610f6b83611006565b600082511180610f785750805b1561087457610f878383611046565b50505050565b600054610100900460ff16610fb45760405162461bcd60e51b81526004016102b8906113e3565b61093e33610dee565b600054610100900460ff16610fe45760405162461bcd60e51b81526004016102b8906113e3565b60c980546001600160a01b0319166001600160a01b0392909216919091179055565b61100f81610ec6565b6040516001600160a01b038216907fbc7cd75a20ee27fd9adebab32041f755214dbc6bffa90cc0225b39da2e5c2d3b90600090a250565b60606001600160a01b0383163b6110ae5760405162461bcd60e51b815260206004820152602660248201527f416464726573733a2064656c65676174652063616c6c20746f206e6f6e2d636f6044820152651b9d1c9858dd60d21b60648201526084016102b8565b600080846001600160a01b0316846040516110c99190611452565b600060405180830381855af49150503d8060008114611104576040519150601f19603f3d011682016040523d82523d6000602084013e611109565b606091505b509150915061113182826040518060600160405280602781526020016114c26027913961113a565b95945050505050565b60608315611149575081611173565b8251156111595782518084602001fd5b8160405162461bcd60e51b81526004016102b8919061146e565b9392505050565b80356001600160a01b038116811461119157600080fd5b919050565b6000602082840312156111a857600080fd5b6111738261117a565b6000806000606084860312156111c657600080fd5b6111cf8461117a565b92506111dd6020850161117a565b9150604084013590509250925092565b634e487b7160e01b600052604160045260246000fd5b6000806040838503121561121657600080fd5b61121f8361117a565b9150602083013567ffffffffffffffff8082111561123c57600080fd5b818501915085601f83011261125057600080fd5b813581811115611262576112626111ed565b604051601f8201601f19908116603f0116810190838211818310171561128a5761128a6111ed565b816040528281528860208487010111156112a357600080fd5b8260208601602083013760006020848301015280955050505050509250929050565b6000602082840312156112d757600080fd5b5051919050565b6020808252602c908201527f46756e6374696f6e206d7573742062652063616c6c6564207468726f7567682060408201526b19195b1959d85d1958d85b1b60a21b606082015260800190565b6020808252602c908201527f46756e6374696f6e206d7573742062652063616c6c6564207468726f7567682060408201526b6163746976652070726f787960a01b606082015260800190565b60006020828403121561138857600080fd5b8151801515811461117357600080fd5b6020808252602b908201527f57686974656c697374577261707065723a20596f7520646f6e2774206861766560408201526a2061646d696e20726f6c6560a81b606082015260800190565b6020808252602b908201527f496e697469616c697a61626c653a20636f6e7472616374206973206e6f74206960408201526a6e697469616c697a696e6760a81b606082015260800190565b60005b83811015611449578181015183820152602001611431565b50506000910152565b6000825161146481846020870161142e565b9190910192915050565b602081526000825180602084015261148d81604085016020870161142e565b601f01601f1916919091016040019291505056fe360894a13ba1a3210667c828492db98dca3e2076cc3735a920a3ca505d382bbc416464726573733a206c6f772d6c6576656c2064656c65676174652063616c6c206661696c6564a164736f6c6343000811000a",
  "linkReferences": {},
  "deployedLinkReferences": {}
}