{
  "_format": "hh-sol-artifact-1",
  "contractName": "PolftRentFree",
  "sourceName": "contracts/standard/rent/PolftRentFree.sol",
  "abi": [
    {
      "inputs": [
        {
          "internalType": "address",
          "name": "_whitelistAddress",
          "type": "address"
        }
      ],
      "stateMutability": "nonpayable",
      "type": "constructor"
    },
    {
      "anonymous": false,
      "inputs": [
        {
          "indexed": false,
          "internalType": "bool",
          "name": "is721",
          "type": "bool"
        },
        {
          "indexed": true,
          "internalType": "address",
          "name": "lenderAddress",
          "type": "address"
        },
        {
          "indexed": true,
          "internalType": "address",
          "name": "nft",
          "type": "address"
        },
        {
          "indexed": true,
          "internalType": "uint256",
          "name": "tokenId",
          "type": "uint256"
        },
        {
          "indexed": false,
          "internalType": "uint256",
          "name": "lendingId",
          "type": "uint256"
        },
        {
          "indexed": false,
          "internalType": "uint32",
          "name": "maxRentDuration",
          "type": "uint32"
        },
        {
          "indexed": false,
          "internalType": "uint256",
          "name": "dailyRentPrice",
          "type": "uint256"
        },
        {
          "indexed": false,
          "internalType": "uint32",
          "name": "lendAmount",
          "type": "uint32"
        },
        {
          "indexed": false,
          "internalType": "address",
          "name": "contractERC20",
          "type": "address"
        },
        {
          "indexed": false,
          "internalType": "bool",
          "name": "willAutoRenew",
          "type": "bool"
        }
      ],
      "name": "Lend",
      "type": "event"
    },
    {
      "anonymous": false,
      "inputs": [
        {
          "indexed": true,
          "internalType": "address",
          "name": "renterAddress",
          "type": "address"
        },
        {
          "indexed": true,
          "internalType": "uint256",
          "name": "lendingId",
          "type": "uint256"
        },
        {
          "indexed": true,
          "internalType": "uint256",
          "name": "rentingId",
          "type": "uint256"
        },
        {
          "indexed": false,
          "internalType": "uint32",
          "name": "rentAmount",
          "type": "uint32"
        },
        {
          "indexed": false,
          "internalType": "uint32",
          "name": "rentDuration",
          "type": "uint32"
        },
        {
          "indexed": false,
          "internalType": "uint32",
          "name": "rentedAt",
          "type": "uint32"
        }
      ],
      "name": "Rent",
      "type": "event"
    },
    {
      "anonymous": false,
      "inputs": [
        {
          "indexed": true,
          "internalType": "uint256",
          "name": "rentingID",
          "type": "uint256"
        },
        {
          "indexed": false,
          "internalType": "uint32",
          "name": "collectedAt",
          "type": "uint32"
        }
      ],
      "name": "RentClaimed",
      "type": "event"
    },
    {
      "anonymous": false,
      "inputs": [
        {
          "indexed": true,
          "internalType": "uint256",
          "name": "lendingId",
          "type": "uint256"
        },
        {
          "indexed": false,
          "internalType": "uint32",
          "name": "stopLendAt",
          "type": "uint32"
        },
        {
          "indexed": false,
          "internalType": "uint32",
          "name": "lendAmount",
          "type": "uint32"
        }
      ],
      "name": "StopLend",
      "type": "event"
    },
    {
      "anonymous": false,
      "inputs": [
        {
          "indexed": true,
          "internalType": "uint256",
          "name": "rentingID",
          "type": "uint256"
        },
        {
          "indexed": false,
          "internalType": "uint32",
          "name": "stoppedAt",
          "type": "uint32"
        }
      ],
      "name": "StopRent",
      "type": "event"
    },
    {
      "anonymous": false,
      "inputs": [
        {
          "indexed": true,
          "internalType": "address",
          "name": "newOwner",
          "type": "address"
        }
      ],
      "name": "WhitelistChanged",
      "type": "event"
    },
    {
      "inputs": [],
      "name": "LIMIT_SECONDS_TO_CLAIM",
      "outputs": [
        {
          "internalType": "uint32",
          "name": "",
          "type": "uint32"
        }
      ],
      "stateMutability": "view",
      "type": "function"
    },
    {
      "inputs": [],
      "name": "LIMIT_SECONDS_TO_RETURN",
      "outputs": [
        {
          "internalType": "uint32",
          "name": "",
          "type": "uint32"
        }
      ],
      "stateMutability": "view",
      "type": "function"
    },
    {
      "inputs": [],
      "name": "MAX_PERCENTAGE",
      "outputs": [
        {
          "internalType": "uint32",
          "name": "",
          "type": "uint32"
        }
      ],
      "stateMutability": "view",
      "type": "function"
    },
    {
      "inputs": [],
      "name": "SECONDS_PER_DAY",
      "outputs": [
        {
          "internalType": "uint32",
          "name": "",
          "type": "uint32"
        }
      ],
      "stateMutability": "view",
      "type": "function"
    },
    {
      "inputs": [
        {
          "internalType": "enum PolftRentFree.ERCType[]",
          "name": "_ercTypes",
          "type": "uint8[]"
        },
        {
          "internalType": "address[]",
          "name": "_nfts",
          "type": "address[]"
        },
        {
          "internalType": "uint256[]",
          "name": "_tokenIds",
          "type": "uint256[]"
        },
        {
          "internalType": "uint256[]",
          "name": "_lendingIds",
          "type": "uint256[]"
        },
        {
          "internalType": "uint256[]",
          "name": "_rentingIds",
          "type": "uint256[]"
        }
      ],
      "name": "claimRent",
      "outputs": [],
      "stateMutability": "nonpayable",
      "type": "function"
    },
    {
      "inputs": [
        {
          "internalType": "address",
          "name": "_nft",
          "type": "address"
        },
        {
          "internalType": "uint256",
          "name": "_tokenId",
          "type": "uint256"
        },
        {
          "internalType": "uint256",
          "name": "_lendingId",
          "type": "uint256"
        }
      ],
      "name": "getLending",
      "outputs": [
        {
          "internalType": "uint8",
          "name": "",
          "type": "uint8"
        },
        {
          "internalType": "address",
          "name": "",
          "type": "address"
        },
        {
          "internalType": "uint32",
          "name": "",
          "type": "uint32"
        },
        {
          "internalType": "uint256",
          "name": "",
          "type": "uint256"
        },
        {
          "internalType": "uint32",
          "name": "",
          "type": "uint32"
        },
        {
          "internalType": "uint256",
          "name": "",
          "type": "uint256"
        },
        {
          "internalType": "address",
          "name": "",
          "type": "address"
        }
      ],
      "stateMutability": "view",
      "type": "function"
    },
    {
      "inputs": [
        {
          "internalType": "address",
          "name": "_nft",
          "type": "address"
        },
        {
          "internalType": "uint256",
          "name": "_tokenId",
          "type": "uint256"
        },
        {
          "internalType": "uint256",
          "name": "_rentingId",
          "type": "uint256"
        }
      ],
      "name": "getRenting",
      "outputs": [
        {
          "internalType": "address",
          "name": "",
          "type": "address"
        },
        {
          "internalType": "uint32",
          "name": "",
          "type": "uint32"
        },
        {
          "internalType": "uint32",
          "name": "",
          "type": "uint32"
        },
        {
          "internalType": "uint32",
          "name": "",
          "type": "uint32"
        }
      ],
      "stateMutability": "view",
      "type": "function"
    },
    {
      "inputs": [
        {
          "internalType": "enum PolftRentFree.ERCType[]",
          "name": "_ercTypes",
          "type": "uint8[]"
        },
        {
          "internalType": "address[]",
          "name": "_nfts",
          "type": "address[]"
        },
        {
          "internalType": "uint256[]",
          "name": "_tokenIds",
          "type": "uint256[]"
        },
        {
          "internalType": "uint32[]",
          "name": "_lendAmounts",
          "type": "uint32[]"
        },
        {
          "internalType": "uint256[]",
          "name": "_dailyRentPrices",
          "type": "uint256[]"
        },
        {
          "internalType": "uint32[]",
          "name": "_maxRentDurations",
          "type": "uint32[]"
        },
        {
          "internalType": "address[]",
          "name": "_contractERC20s",
          "type": "address[]"
        },
        {
          "internalType": "bool[]",
          "name": "_willAutoRenew",
          "type": "bool[]"
        }
      ],
      "name": "lend",
      "outputs": [],
      "stateMutability": "nonpayable",
      "type": "function"
    },
    {
      "inputs": [
        {
          "internalType": "address",
          "name": "",
          "type": "address"
        },
        {
          "internalType": "address",
          "name": "",
          "type": "address"
        },
        {
          "internalType": "uint256[]",
          "name": "",
          "type": "uint256[]"
        },
        {
          "internalType": "uint256[]",
          "name": "",
          "type": "uint256[]"
        },
        {
          "internalType": "bytes",
          "name": "",
          "type": "bytes"
        }
      ],
      "name": "onERC1155BatchReceived",
      "outputs": [
        {
          "internalType": "bytes4",
          "name": "",
          "type": "bytes4"
        }
      ],
      "stateMutability": "nonpayable",
      "type": "function"
    },
    {
      "inputs": [
        {
          "internalType": "address",
          "name": "",
          "type": "address"
        },
        {
          "internalType": "address",
          "name": "",
          "type": "address"
        },
        {
          "internalType": "uint256",
          "name": "",
          "type": "uint256"
        },
        {
          "internalType": "uint256",
          "name": "",
          "type": "uint256"
        },
        {
          "internalType": "bytes",
          "name": "",
          "type": "bytes"
        }
      ],
      "name": "onERC1155Received",
      "outputs": [
        {
          "internalType": "bytes4",
          "name": "",
          "type": "bytes4"
        }
      ],
      "stateMutability": "nonpayable",
      "type": "function"
    },
    {
      "inputs": [
        {
          "internalType": "address",
          "name": "",
          "type": "address"
        },
        {
          "internalType": "address",
          "name": "",
          "type": "address"
        },
        {
          "internalType": "uint256",
          "name": "",
          "type": "uint256"
        },
        {
          "internalType": "bytes",
          "name": "",
          "type": "bytes"
        }
      ],
      "name": "onERC721Received",
      "outputs": [
        {
          "internalType": "bytes4",
          "name": "",
          "type": "bytes4"
        }
      ],
      "stateMutability": "nonpayable",
      "type": "function"
    },
    {
      "inputs": [
        {
          "internalType": "enum PolftRentFree.ERCType[]",
          "name": "_ercTypes",
          "type": "uint8[]"
        },
        {
          "internalType": "address[]",
          "name": "_nfts",
          "type": "address[]"
        },
        {
          "internalType": "uint256[]",
          "name": "_tokenIds",
          "type": "uint256[]"
        },
        {
          "internalType": "uint256[]",
          "name": "_lendIds",
          "type": "uint256[]"
        },
        {
          "internalType": "uint32[]",
          "name": "_rentDurations",
          "type": "uint32[]"
        },
        {
          "internalType": "uint32[]",
          "name": "_rentAmounts",
          "type": "uint32[]"
        }
      ],
      "name": "rent",
      "outputs": [],
      "stateMutability": "payable",
      "type": "function"
    },
    {
      "inputs": [],
      "name": "rentFee",
      "outputs": [
        {
          "internalType": "uint32",
          "name": "",
          "type": "uint32"
        }
      ],
      "stateMutability": "view",
      "type": "function"
    },
    {
      "inputs": [
        {
          "internalType": "address",
          "name": "_address",
          "type": "address"
        }
      ],
      "name": "setCurrencyAddress",
      "outputs": [],
      "stateMutability": "nonpayable",
      "type": "function"
    },
    {
      "inputs": [
        {
          "internalType": "uint32",
          "name": "_time",
          "type": "uint32"
        }
      ],
      "name": "setLimitClaimTime",
      "outputs": [],
      "stateMutability": "nonpayable",
      "type": "function"
    },
    {
      "inputs": [
        {
          "internalType": "uint32",
          "name": "_time",
          "type": "uint32"
        }
      ],
      "name": "setLimitReturnTime",
      "outputs": [],
      "stateMutability": "nonpayable",
      "type": "function"
    },
    {
      "inputs": [
        {
          "internalType": "uint32",
          "name": "_rentFee",
          "type": "uint32"
        }
      ],
      "name": "setRentFee",
      "outputs": [],
      "stateMutability": "nonpayable",
      "type": "function"
    },
    {
      "inputs": [
        {
          "internalType": "address",
          "name": "_address",
          "type": "address"
        }
      ],
      "name": "setTreasuryAddress",
      "outputs": [],
      "stateMutability": "nonpayable",
      "type": "function"
    },
    {
      "inputs": [
        {
          "internalType": "address",
          "name": "_address",
          "type": "address"
        }
      ],
      "name": "setWhitelistAddress",
      "outputs": [],
      "stateMutability": "nonpayable",
      "type": "function"
    },
    {
      "inputs": [
        {
          "internalType": "enum PolftRentFree.ERCType[]",
          "name": "_ercTypes",
          "type": "uint8[]"
        },
        {
          "internalType": "address[]",
          "name": "_nfts",
          "type": "address[]"
        },
        {
          "internalType": "uint256[]",
          "name": "_tokenIds",
          "type": "uint256[]"
        },
        {
          "internalType": "uint256[]",
          "name": "_lendingIds",
          "type": "uint256[]"
        }
      ],
      "name": "stopLend",
      "outputs": [],
      "stateMutability": "nonpayable",
      "type": "function"
    },
    {
      "inputs": [
        {
          "internalType": "enum PolftRentFree.ERCType[]",
          "name": "_ercTypes",
          "type": "uint8[]"
        },
        {
          "internalType": "address[]",
          "name": "_nfts",
          "type": "address[]"
        },
        {
          "internalType": "uint256[]",
          "name": "_tokenIds",
          "type": "uint256[]"
        },
        {
          "internalType": "uint256[]",
          "name": "_lendingIds",
          "type": "uint256[]"
        },
        {
          "internalType": "uint256[]",
          "name": "_rentingIds",
          "type": "uint256[]"
        }
      ],
      "name": "stopRent",
      "outputs": [],
      "stateMutability": "nonpayable",
      "type": "function"
    },
    {
      "inputs": [
        {
          "internalType": "bytes4",
          "name": "interfaceId",
          "type": "bytes4"
        }
      ],
      "name": "supportsInterface",
      "outputs": [
        {
          "internalType": "bool",
          "name": "",
          "type": "bool"
        }
      ],
      "stateMutability": "view",
      "type": "function"
    }
  ],
  "bytecode": "0x60806040523480156200001157600080fd5b506040516200541d3803806200541d8339810160408190526200003491620000c4565b60018055600580546001600160a01b03199081163317909155600280549091167101f400000e1000015180000151800000271017905562000075816200007c565b50620000f6565b600080546001600160a01b0319166001600160a01b038316908117825560405190917fdd8c807c33d35ad7642d985aca3455e9281f5298b1c22a4aadb5a86d52df7ed191a250565b600060208284031215620000d757600080fd5b81516001600160a01b0381168114620000ef57600080fd5b9392505050565b61531780620001066000396000f3fe6080604052600436106101355760003560e01c8063937821a1116100ab578063c9c401831161006f578063c9c40183146103ef578063d5e55e811461040f578063ea990ec014610422578063f23a6e6114610442578063fd0c984d1461046e578063fe46b7cd1461048e57600080fd5b8063937821a11461033f578063a224c7451461035f578063a9b602311461037f578063bc197c811461039f578063bf2b23ea146103cb57600080fd5b8063512f06f7116100fd578063512f06f71461027357806353ab20bd146102935780636605bfda146102b757806370de591a146102d757806374f0314f146102fb578063796b89ec1461031f57600080fd5b806301ffc9a71461013a57806314b5685c1461016f578063150b7a0214610191578063296c21b7146101d55780634c255c9714610241575b600080fd5b34801561014657600080fd5b5061015a610155366004614749565b6104e4565b60405190151581526020015b60405180910390f35b34801561017b57600080fd5b5061018f61018a366004614935565b61051b565b005b34801561019d57600080fd5b506101bc6101ac366004614a75565b630a85bd0160e11b949350505050565b6040516001600160e01b03199091168152602001610166565b3480156101e157600080fd5b506101f56101f0366004614adc565b61053a565b6040805160ff90981688526001600160a01b03968716602089015263ffffffff9586169088015260608701939093529216608085015260a08401919091521660c082015260e001610166565b34801561024d57600080fd5b5060025461025e9063ffffffff1681565b60405163ffffffff9091168152602001610166565b34801561027f57600080fd5b5061018f61028e366004614bf7565b6105f2565b34801561029f57600080fd5b5060025461025e90600160401b900463ffffffff1681565b3480156102c357600080fd5b5061018f6102d2366004614d36565b610612565b3480156102e357600080fd5b5060025461025e90600160601b900463ffffffff1681565b34801561030757600080fd5b5060025461025e90600160201b900463ffffffff1681565b34801561032b57600080fd5b5061018f61033a366004614d36565b610746565b34801561034b57600080fd5b5061018f61035a366004614935565b610871565b34801561036b57600080fd5b5061018f61037a366004614d36565b610884565b34801561038b57600080fd5b5061018f61039a366004614d51565b610999565b3480156103ab57600080fd5b506101bc6103ba366004614d6c565b63bc197c8160e01b95945050505050565b3480156103d757600080fd5b5060025461025e90600160801b900463ffffffff1681565b3480156103fb57600080fd5b5061018f61040a366004614e08565b610ac8565b61018f61041d366004614ea8565b610b0c565b34801561042e57600080fd5b5061018f61043d366004614d51565b610b28565b34801561044e57600080fd5b506101bc61045d366004614f9c565b63f23a6e6160e01b95945050505050565b34801561047a57600080fd5b5061018f610489366004614d51565b610c57565b34801561049a57600080fd5b506104ae6104a9366004614adc565b610d8b565b604080516001600160a01b03909516855263ffffffff938416602086015291831691840191909152166060820152608001610166565b60006001600160e01b03198216630271189760e51b148061051557506301ffc9a760e01b6001600160e01b03198316145b92915050565b610533610e0861052e8787878787611387565b61153e565b5050505050565b6000806000806000806000808a8a8a60405160200161055b93929190615000565b60408051601f19818403018152918152815160209283012060008181526007909352912080549192509060ff1660018111156105995761059961502a565b8154600483015460018401546002850154600390950154939c506001600160a01b0361010090930483169b5063ffffffff600160a01b830481169b50909950939093169650909450169150509397509397509397909450565b61060861166a61052e8a8a8a8a8a8a8a8a611cef565b5050505050505050565b60008060009054906101000a90046001600160a01b03166001600160a01b03166375b238fc6040518163ffffffff1660e01b8152600401602060405180830381865afa158015610666573d6000803e3d6000fd5b505050506040513d601f19601f8201168201806040525081019061068a9190615040565b600054604051632474521560e21b8152600481018390523360248201529192506001600160a01b0316906391d1485490604401602060405180830381865afa1580156106da573d6000803e3d6000fd5b505050506040513d601f19601f820116820180604052508101906106fe9190615059565b6107235760405162461bcd60e51b815260040161071a90615076565b60405180910390fd5b50600580546001600160a01b0319166001600160a01b0392909216919091179055565b60008060009054906101000a90046001600160a01b03166001600160a01b03166375b238fc6040518163ffffffff1660e01b8152600401602060405180830381865afa15801561079a573d6000803e3d6000fd5b505050506040513d601f19601f820116820180604052508101906107be9190615040565b600054604051632474521560e21b8152600481018390523360248201529192506001600160a01b0316906391d1485490604401602060405180830381865afa15801561080e573d6000803e3d6000fd5b505050506040513d601f19601f820116820180604052508101906108329190615059565b61084e5760405162461bcd60e51b815260040161071a90615076565b50600680546001600160a01b0319166001600160a01b0392909216919091179055565b610533611e2861052e8787878787611387565b60008060009054906101000a90046001600160a01b03166001600160a01b03166375b238fc6040518163ffffffff1660e01b8152600401602060405180830381865afa1580156108d8573d6000803e3d6000fd5b505050506040513d601f19601f820116820180604052508101906108fc9190615040565b600054604051632474521560e21b8152600481018390523360248201529192506001600160a01b0316906391d1485490604401602060405180830381865afa15801561094c573d6000803e3d6000fd5b505050506040513d601f19601f820116820180604052508101906109709190615059565b61098c5760405162461bcd60e51b815260040161071a90615076565b61099582612234565b5050565b60008060009054906101000a90046001600160a01b03166001600160a01b03166375b238fc6040518163ffffffff1660e01b8152600401602060405180830381865afa1580156109ed573d6000803e3d6000fd5b505050506040513d601f19601f82011682018060405250810190610a119190615040565b600054604051632474521560e21b8152600481018390523360248201529192506001600160a01b0316906391d1485490604401602060405180830381865afa158015610a61573d6000803e3d6000fd5b505050506040513d601f19601f82011682018060405250810190610a859190615059565b610aa15760405162461bcd60e51b815260040161071a90615076565b506002805463ffffffff909216600160801b0263ffffffff60801b19909216919091179055565b610b0661227c61052e868686866000604051908082528060200260200182016040528015610b00578160200160208202803683370190505b50611387565b50505050565b610b2061266561052e888888888888612d8a565b505050505050565b60008060009054906101000a90046001600160a01b03166001600160a01b03166375b238fc6040518163ffffffff1660e01b8152600401602060405180830381865afa158015610b7c573d6000803e3d6000fd5b505050506040513d601f19601f82011682018060405250810190610ba09190615040565b600054604051632474521560e21b8152600481018390523360248201529192506001600160a01b0316906391d1485490604401602060405180830381865afa158015610bf0573d6000803e3d6000fd5b505050506040513d601f19601f82011682018060405250810190610c149190615059565b610c305760405162461bcd60e51b815260040161071a90615076565b506002805463ffffffff909216600160601b0263ffffffff60601b19909216919091179055565b60008060009054906101000a90046001600160a01b03166001600160a01b03166375b238fc6040518163ffffffff1660e01b8152600401602060405180830381865afa158015610cab573d6000803e3d6000fd5b505050506040513d601f19601f82011682018060405250810190610ccf9190615040565b600054604051632474521560e21b8152600481018390523360248201529192506001600160a01b0316906391d1485490604401602060405180830381865afa158015610d1f573d6000803e3d6000fd5b505050506040513d601f19601f82011682018060405250810190610d439190615059565b610d5f5760405162461bcd60e51b815260040161071a90615076565b506002805463ffffffff909216600160401b026bffffffff000000000000000019909216919091179055565b6000806000806000878787604051602001610da893929190615000565b60408051808303601f19018152918152815160209283012060009081526008909252902054600160201b81046001600160a01b03169963ffffffff8083169a50600160c01b830481169950600160e01b9092049091169650945050505050565b80515b81602001518110156109955760008260600151836000015181518110610e3357610e336150c1565b602002602001015183608001518381518110610e5157610e516150c1565b60200260200101518461010001518481518110610e7057610e706150c1565b6020026020010151604051602001610e8a93929190615000565b60405160208183030381529060405280519060200120905060008360600151846000015181518110610ebe57610ebe6150c1565b602002602001015184608001518481518110610edc57610edc6150c1565b60200260200101518561012001518581518110610efb57610efb6150c1565b6020026020010151604051602001610f1593929190615000565b60408051601f1981840301815282825280516020918201206000868152600783528381208282526008909352839020610100850190935281549094509092610ff4918490829060ff166001811115610f6f57610f6f61502a565b6001811115610f8057610f8061502a565b8152815461010090046001600160a01b03908116602083015260018301546040830152600283015463ffffffff90811660608401526003840154608084015260049093015490811660a0830152600160a01b810490921660c0820152600160c01b90910460ff16151560e090910152612ebe565b60408051608081018252825463ffffffff80821683526001600160a01b03600160201b8304166020840152600160c01b8204811693830193909352600160e01b9004909116606082015261104790612f79565b60408051608081018252825463ffffffff80821683526001600160a01b03600160201b8304166020840152600160c01b8204811693830193909352600160e01b9004909116606082015261109b904261303a565b815460ff1660018111156110b1576110b161502a565b866040015186815181106110c7576110c76150c1565b602002602001015160018111156110e0576110e061502a565b146110fd5760405162461bcd60e51b815260040161071a906150d7565b6002820154815463ffffffff9182169116111561115c5760405162461bcd60e51b815260206004820152601d60248201527f506f6c667452656e74467265653a20637269746963616c206572726f72000000604482015260640161071a565b805460009061117890600160e01b900463ffffffff1642615130565b6040805161010081019091528454919250611275918590829060ff1660018111156111a5576111a561502a565b60018111156111b6576111b661502a565b815281546001600160a01b0361010090910481166020808401919091526001840154604080850191909152600285015463ffffffff908116606080870191909152600387015460808088019190915260049097015480861660a0880152600160a01b8104831660c088015260ff600160c01b9182900416151560e090970196909652825196870183528a548083168852600160201b810490951693870193909352938304841690850152600160e01b90910490911690820152836130f5565b611300838389606001518a6000015181518110611294576112946150c1565b60200260200101518a604001518b60000151815181106112b6576112b66150c1565b60200260200101518b608001518b815181106112d4576112d46150c1565b60200260200101518c61010001518c815181106112f3576112f36150c1565b60200260200101516133be565b8661012001518681518110611317576113176150c1565b60200260200101517f58855dd8908b14c6d7922d964418f37efd968bc6b9b857560870b14a898f916d4260405161135a919063ffffffff91909116815260200190565b60405180910390a2505050600090815260086020526040812055508061137f81615143565b915050610e0b565b61138f6146da565b604051806101c00160405280600081526020016001815260200187815260200186815260200185815260200160006001600160401b038111156113d4576113d461477a565b6040519080825280602002602001820160405280156113fd578160200160208202803683370190505b508152602001600060405190808252806020026020018201604052801561142e578160200160208202803683370190505b508152602001600060405190808252806020026020018201604052801561145f578160200160208202803683370190505b5081526020810185905260408101849052606001600060405190808252806020026020018201604052801561149e578160200160208202803683370190505b50815260200160006040519080825280602002602001820160405280156114cf578160200160208202803683370190505b5081526020016000604051908082528060200260200182016040528015611500578160200160208202803683370190505b5081526020016000604051908082528060200260200182016040528015611531578160200160208202803683370190505b5090529695505050505050565b6000816060015151116115885760405162461bcd60e51b8152602060048201526012602482015271506f6c667452656e743a206e6f206e66747360701b604482015260640161071a565b80606001515181602001511461165d5780606001518160200151815181106115b2576115b26150c1565b60200260200101516001600160a01b031681606001518260000151815181106115dd576115dd6150c1565b60200260200101516001600160a01b031614801561162057506116208160600151826020015181518110611613576116136150c1565b60200260200101516136ad565b1561163d576020810180519061163582615143565b905250611588565b61164a818363ffffffff16565b6020810180518083529061163582615143565b610995818363ffffffff16565b80515b8160200151811015611cae576116838282613720565b6000826060015183600001518151811061169f5761169f6150c1565b6020026020010151836080015183815181106116bd576116bd6150c1565b60200260200101516003546040516020016116da93929190615000565b60408051601f19818403018152828252805160209182012060008181526007909252908290206101008401909252815490935090916117b0918390829060ff16600181111561172b5761172b61502a565b600181111561173c5761173c61502a565b8152815461010090046001600160a01b03908116602083015260018301546040830152600283015463ffffffff90811660608401526003840154608084015260049093015490811660a0830152600160a01b810490921660c0820152600160c01b90910460ff16151560e090910152613a4c565b600080856040015185815181106117c9576117c96150c1565b602002602001015160018111156117e2576117e261502a565b14905060008560a0015185815181106117fd576117fd6150c1565b6020026020010151905081156118f6578063ffffffff1660011461187a5760405162461bcd60e51b815260206004820152602e60248201527f506f6c667452656e74467265653a206c656e64416d6f756e742073686f756c6460448201526d20626520657175616c20746f203160901b606482015260840161071a565b6118a086606001518681518110611893576118936150c1565b6020026020010151613b03565b15156001146118f15760405162461bcd60e51b815260206004820152601e60248201527f506f6c667452656e74467265653a206e6f742065726337323120747970650000604482015260640161071a565b611960565b61190f86606001518681518110611613576116136150c1565b15156001146119605760405162461bcd60e51b815260206004820152601f60248201527f506f6c667452656e74467265653a206e6f742065726331313535207479706500604482015260640161071a565b60405180610100016040528087604001518781518110611982576119826150c1565b6020026020010151600181111561199b5761199b61502a565b8152602001336001600160a01b031681526020018760e0015187815181106119c5576119c56150c1565b602002602001015181526020018263ffffffff1681526020018263ffffffff1681526020018760c001518781518110611a0057611a006150c1565b60200260200101516001600160a01b031681526020018761018001518781518110611a2d57611a2d6150c1565b602002602001015163ffffffff168152602001876101a001518781518110611a5757611a576150c1565b6020908102919091018101511515909152600086815260079091526040902081518154829060ff191660018381811115611a9357611a9361502a565b021790555060208201518154610100600160a81b0319166101006001600160a01b039283160217825560408301516001830155606083015160028301805463ffffffff191663ffffffff928316179055608080850151600385015560a08501516004909401805460c087015160e090970151959094166001600160c01b031990941693909317600160a01b95909216949094021760ff60c01b1916600160c01b92151592909202919091179055860151805186908110611b5557611b556150c1565b60200260200101518660600151876000015181518110611b7757611b776150c1565b60200260200101516001600160a01b0316336001600160a01b03167fa08c85143d5a49375bf571dc0dcdf968a4fd176ba71317849dc07303e63f8590856003548b61018001518b81518110611bce57611bce6150c1565b60200260200101518c60e001518c81518110611bec57611bec6150c1565b6020026020010151888e60c001518e81518110611c0b57611c0b6150c1565b60200260200101518f6101a001518f81518110611c2a57611c2a6150c1565b6020908102919091018101516040805198151589529188019690965263ffffffff94851690870152606086019290925290911660808401526001600160a01b031660a0830152151560c082015260e00160405180910390a460038054906000611c9283615143565b9190505550505050508080611ca690615143565b91505061166d565b50611cec813330611cce8560800151866000015187602001516000613b39565b611ce78660a00151876000015188602001516000613bf8565b613cb8565b50565b611cf76146da565b604051806101c0016040528060008152602001600181526020018a815260200189815260200188815260200187815260200184815260200186815260200160006001600160401b03811115611d4e57611d4e61477a565b604051908082528060200260200182016040528015611d77578160200160208202803683370190505b5081526020016000604051908082528060200260200182016040528015611da8578160200160208202803683370190505b5081526020016000604051908082528060200260200182016040528015611dd9578160200160208202803683370190505b5081526020016000604051908082528060200260200182016040528015611e0a578160200160208202803683370190505b50815260200185815260200183815250905098975050505050505050565b80515b81602001518110156109955760008260600151836000015181518110611e5357611e536150c1565b602002602001015183608001518381518110611e7157611e716150c1565b60200260200101518461010001518481518110611e9057611e906150c1565b6020026020010151604051602001611eaa93929190615000565b60405160208183030381529060405280519060200120905060008360600151846000015181518110611ede57611ede6150c1565b602002602001015184608001518481518110611efc57611efc6150c1565b60200260200101518561012001518581518110611f1b57611f1b6150c1565b6020026020010151604051602001611f3593929190615000565b60408051601f1981840301815282825280516020918201206000868152600783528381208282526008909352839020610100850190935281549094509092611f8f918490829060ff166001811115610f6f57610f6f61502a565b60408051608081018252825463ffffffff80821683526001600160a01b03600160201b8304166020840152600160c01b8204811693830193909352600160e01b90049091166060820152611fe290612f79565b60408051608081018252825463ffffffff80821683526001600160a01b03600160201b8304166020840152600160c01b8204811693830193909352600160e01b900490911660608201526120369042613e67565b604080516101008101909152825461213091908490829060ff1660018111156120615761206161502a565b60018111156120725761207261502a565b815281546001600160a01b0361010090910481166020808401919091526001840154604080850191909152600285015463ffffffff908116606080870191909152600387015460808088019190915260049097015480861660a0880152600160a01b8104831660c088015260ff600160c01b9182900416151560e0909701969096528251968701835289548083168852600160201b810490951693870193909352938304841690850152600160e01b90910490911690820152613ec7565b6121ae8282886060015189600001518151811061214f5761214f6150c1565b602002602001015189604001518a6000015181518110612171576121716150c1565b60200260200101518a608001518a8151811061218f5761218f6150c1565b60200260200101518b61010001518b815181106112f3576112f36150c1565b85610120015185815181106121c5576121c56150c1565b60200260200101517f4630b53a4335803b2a4f9c1ce896f4cadbf909907810e496eda17614483d7b9442604051612208919063ffffffff91909116815260200190565b60405180910390a25050600090815260086020526040812055508061222c81615143565b915050611e2b565b600080546001600160a01b0319166001600160a01b038316908117825560405190917fdd8c807c33d35ad7642d985aca3455e9281f5298b1c22a4aadb5a86d52df7ed191a250565b8051602082015160009161228f91615130565b6001600160401b038111156122a6576122a661477a565b6040519080825280602002602001820160405280156122cf578160200160208202803683370190505b5082519091505b826020015181101561263257600083606001518460000151815181106122fe576122fe6150c1565b60200260200101518460800151838151811061231c5761231c6150c1565b6020026020010151856101000151848151811061233b5761233b6150c1565b602002602001015160405160200161235593929190615000565b60408051601f19818403018152828252805160209182012060008181526007909252908290206101008401909252815490935090916123a6918390829060ff166001811115610f6f57610f6f61502a565b604080516101008101909152815461245791908390829060ff1660018111156123d1576123d161502a565b60018111156123e2576123e261502a565b8152815461010090046001600160a01b03908116602083015260018301546040830152600283015463ffffffff90811660608401526003840154608084015260049093015490811660a0830152600160a01b810490921660c0820152600160c01b90910460ff16151560e09091015233613ff3565b805460ff16600181111561246d5761246d61502a565b85604001518481518110612483576124836150c1565b6020026020010151600181111561249c5761249c61502a565b146124b95760405162461bcd60e51b815260040161071a906150d7565b6003810154600282015463ffffffff16146125165760405162461bcd60e51b815260206004820152601e60248201527f506f6c667452656e74467265653a206163746976656c792072656e7465640000604482015260640161071a565b6002810154855163ffffffff9091169085906125329086615130565b81518110612542576125426150c1565b602002602001019063ffffffff16908163ffffffff16815250508461010001518381518110612573576125736150c1565b602090810291909101015160028201546040517f3a3b132e7127220fa7e78cf8fc36a4e59a414d29c817ad588883d9118c3bb937916125cc91429163ffffffff169063ffffffff92831681529116602082015260400190565b60405180910390a250600090815260076020526040812080546001600160a81b03191681556001810182905560028101805463ffffffff19169055600381019190915560040180546001600160c81b03191690558061262a81615143565b9150506122d6565b506109958230336126528660800151876000015188602001516000613b39565b86516020880151611ce791889181613bf8565b80515b81602001518110156109955760008260600151836000015181518110612690576126906150c1565b6020026020010151836080015183815181106126ae576126ae6150c1565b602002602001015184610100015184815181106126cd576126cd6150c1565b60200260200101516040516020016126e793929190615000565b6040516020818303038152906040528051906020012090506000836060015184600001518151811061271b5761271b6150c1565b602002602001015184608001518481518110612739576127396150c1565b602002602001015160045460405160200161275693929190615000565b60408051601f19818403018152828252805160209182012060008681526007835283812082825260089093528390206101008501909352815490945090926127b0918490829060ff166001811115610f6f57610f6f61502a565b60408051608081018252825463ffffffff80821683526001600160a01b03600160201b8304166020840152600160c01b8204811693830193909352600160e01b9004909116606082015261280390614058565b60408051610100810190915282546128b691908490829060ff16600181111561282e5761282e61502a565b600181111561283f5761283f61502a565b8152815461010090046001600160a01b03908116602083015260018301546040830152600283015463ffffffff90811660608401526003840154608084015260049093015490811660a0830152600160a01b810490921660c0820152600160c01b90910460ff16151560e090910152878733614115565b815460ff1660018111156128cc576128cc61502a565b866040015186815181106128e2576128e26150c1565b602002602001015160018111156128fb576128fb61502a565b146129185760405162461bcd60e51b815260040161071a906150d7565b81600301548661014001518681518110612934576129346150c1565b602002602001015163ffffffff16111561299b5760405162461bcd60e51b815260206004820152602260248201527f506f6c667452656e74467265653a20696e76616c69642072656e7420616d6f756044820152611b9d60f21b606482015260840161071a565b6000600260049054906101000a900463ffffffff1663ffffffff16836001015488610160015188815181106129d2576129d26150c1565b602002602001015189610140015189815181106129f1576129f16150c1565b6020026020010151612a03919061515c565b63ffffffff16612a139190615184565b612a1d919061519b565b905060008111612a795760405162461bcd60e51b815260206004820152602160248201527f506f6c667452656e74467265653a2072656e74207072696365206973207a65726044820152606f60f81b606482015260840161071a565b6004838101546040516323b872dd60e01b81523392810192909252306024830152604482018390526000916001600160a01b03909116906323b872dd906064016020604051808303816000875af1158015612ad8573d6000803e3d6000fd5b505050506040513d601f19601f82011682018060405250810190612afc9190615059565b905080612b575760405162461bcd60e51b8152602060048201526024808201527f506f6c667452656e74467265653a205472616e7366657220746f6b656e2066616044820152631a5b195960e21b606482015260840161071a565b60405180608001604052808961014001518981518110612b7957612b796150c1565b602002602001015163ffffffff168152602001336001600160a01b031681526020018961016001518981518110612bb257612bb26150c1565b60209081029190910181015163ffffffff9081168352428116928201929092526000888152600882526040908190208451815493860151928601516060909601518516600160e01b026001600160e01b03968616600160c01b02969096166001600160c01b036001600160a01b03909416600160201b026001600160c01b03199095169190951617929092171691909117919091179055610140880151805188908110612c6157612c616150c1565b602002602001015163ffffffff16600760008881526020019081526020016000206003016000828254612c949190615130565b9091555050600454610100890151805189908110612cb457612cb46150c1565b6020026020010151336001600160a01b03167f27e2dcb7e35485159e682480223b537c825fe23dfd300f46f917452b65edacfc8b61014001518b81518110612cfe57612cfe6150c1565b60200260200101518c61016001518c81518110612d1d57612d1d6150c1565b60209081029190910181015189546040805163ffffffff958616815292851693830193909352600160e01b90049092169082015260600160405180910390a460048054906000612d6c83615143565b91905055505050505050508080612d8290615143565b915050612668565b612d926146da565b604051806101c00160405280600081526020016001815260200188815260200187815260200186815260200160006001600160401b03811115612dd757612dd761477a565b604051908082528060200260200182016040528015612e00578160200160208202803683370190505b5081526020016000604051908082528060200260200182016040528015612e31578160200160208202803683370190505b5081526020016000604051908082528060200260200182016040528015612e62578160200160208202803683370190505b508152602080820187905260408051600080825281840183528285019190915260608401879052608084018890528151818152808401835260a0850152815181815292830190915260c090920191509052979650505050505050565b612ecb81602001516143f7565b8060c0015163ffffffff16600003612f255760405162461bcd60e51b815260206004820152601860248201527f506f6c667452656e743a206475726174696f6e207a65726f0000000000000000604482015260640161071a565b8060400151600003611cec5760405162461bcd60e51b815260206004820152601d60248201527f506f6c667452656e743a2072656e74207072696365206973207a65726f000000604482015260640161071a565b612f8681602001516143f7565b806040015163ffffffff16600003612fe05760405162461bcd60e51b815260206004820152601b60248201527f506f6c667452656e743a206475726174696f6e206973207a65726f0000000000604482015260640161071a565b806060015163ffffffff16600003611cec5760405162461bcd60e51b815260206004820152601c60248201527f506f6c667452656e743a2072656e746564206174206973207a65726f00000000604482015260640161071a565b60208201516001600160a01b0316331461308e5760405162461bcd60e51b81526020600482015260156024820152742837b6333a2932b73a1d103737ba103932b73a32b960591b604482015260640161071a565b613098828261444d565b156109955760405162461bcd60e51b815260206004820152602760248201527f506f6c667452656e743a206e6f742076616c69642074696d6520746f207265746044820152661d5c9b881b999d60ca1b606482015260840161071a565b6040830151825160009161310e9163ffffffff16615184565b600254604085015191925060009163ffffffff600160201b909204821691613137911684615184565b613141919061519b565b600254909150600090600160201b900463ffffffff166131618486615184565b61316b919061519b565b9050600082116131d15760405162461bcd60e51b815260206004820152602b60248201527f506f6c667452656e74467265653a20746f74616c2072656e746572207061796d60448201526a656e74206973207a65726f60a81b606482015260840161071a565b6000811161322f5760405162461bcd60e51b815260206004820152602560248201527f506f6c667452656e74467265653a206c656e646572207061796d656e74206973604482015264207a65726f60d81b606482015260840161071a565b600081831115613246576132438284615130565b90505b600254600160801b900463ffffffff161561327b57600061326b838960a001516144d1565b90506132778184615130565b9250505b60a0870151602088015160405163a9059cbb60e01b81526001600160a01b03918216600482015260248101859052600092919091169063a9059cbb906044016020604051808303816000875af11580156132d9573d6000803e3d6000fd5b505050506040513d601f19601f820116820180604052508101906132fd9190615059565b90508061331c5760405162461bcd60e51b815260040161071a906151bd565b81156106085760a0880151602088015160405163a9059cbb60e01b81526001600160a01b0391821660048201526024810185905291169063a9059cbb906044016020604051808303816000875af115801561337b573d6000803e3d6000fd5b505050506040513d601f19601f8201168201806040525081019061339f9190615059565b9050806106085760405162461bcd60e51b815260040161071a906151bd565b6004860154600160c01b900460ff161515600003613681578454600287015463ffffffff9182169116111561349e57845460028701805463ffffffff9283169260009161340d91859116615201565b825463ffffffff91821661010093840a908102908302199091161790925588548854604051637921219560e11b81526001600160a01b03808b16965063f242432a956134679530950490911692899291169060040161521e565b600060405180830381600087803b15801561348157600080fd5b505af1158015613495573d6000803e3d6000fd5b50505050613637565b8454600287015463ffffffff9182169116036136375760008360018111156134c8576134c861502a565b036135425785546040516323b872dd60e01b81523060048201526101009091046001600160a01b039081166024830152604482018490528516906323b872dd90606401600060405180830381600087803b15801561352557600080fd5b505af1158015613539573d6000803e3d6000fd5b505050506135b9565b85548554604051637921219560e11b81526001600160a01b038088169363f242432a9361358693309361010090930490921691889163ffffffff169060040161521e565b600060405180830381600087803b1580156135a057600080fd5b505af11580156135b4573d6000803e3d6000fd5b505050505b600760008584846040516020016135d293929190615000565b60408051601f19818403018152918152815160209283012083529082019290925201600090812080546001600160a81b03191681556001810182905560028101805463ffffffff19169055600381019190915560040180546001600160c81b03191690555b84546040805163ffffffff4281168252909216602083015282917f3a3b132e7127220fa7e78cf8fc36a4e59a414d29c817ad588883d9118c3bb937910160405180910390a2610b20565b845460038701805463ffffffff909216916000906136a0908490615256565b9091555050505050505050565b6040516301ffc9a760e01b8152636cdb3d1360e11b60048201526000906001600160a01b038316906301ffc9a7906024015b602060405180830381865afa1580156136fc573d6000803e3d6000fd5b505050506040513d601f19601f820116820180604052508101906105159190615059565b60008260a001518281518110613738576137386150c1565b602002602001015163ffffffff16116137935760405162461bcd60e51b815260206004820152601e60248201527f506f6c667452656e743a206c656e6420616d6f756e74206973207a65726f0000604482015260640161071a565b63ffffffff80168260a0015182815181106137b0576137b06150c1565b602002602001015163ffffffff1611156138045760405162461bcd60e51b81526020600482015260156024820152742837b6333a2932b73a1d103737ba103ab4b73a199960591b604482015260640161071a565b6000826101800151828151811061381d5761381d6150c1565b602002602001015163ffffffff16116138785760405162461bcd60e51b815260206004820152601b60248201527f506f6c667452656e743a206475726174696f6e206973207a65726f0000000000604482015260640161071a565b63ffffffff80168261018001518281518110613896576138966150c1565b602002602001015163ffffffff1611156138ea5760405162461bcd60e51b81526020600482015260156024820152742837b6333a2932b73a1d103737ba103ab4b73a199960591b604482015260640161071a565b60008260e001518281518110613902576139026150c1565b602002602001015163ffffffff161161395d5760405162461bcd60e51b815260206004820152601d60248201527f506f6c667452656e743a2072656e74207072696365206973207a65726f000000604482015260640161071a565b60065460c083015180516001600160a01b039092169163f992e3b791908490811061398a5761398a6150c1565b60200260200101516040518263ffffffff1660e01b81526004016139bd91906001600160a01b0391909116815260200190565b6020604051808303816000875af11580156139dc573d6000803e3d6000fd5b505050506040513d601f19601f82011682018060405250810190613a009190615059565b6109955760405162461bcd60e51b815260206004820152601760248201527f4e6f742076616c69642065726332302061646472657373000000000000000000604482015260640161071a565b613a5981602001516145db565b60c081015163ffffffff1615613ab15760405162461bcd60e51b815260206004820152601c60248201527f506f6c667452656e743a206475726174696f6e206e6f74207a65726f00000000604482015260640161071a565b604081015115611cec5760405162461bcd60e51b815260206004820152601e60248201527f506f6c667452656e743a2072656e74207072696365206e6f74207a65726f0000604482015260640161071a565b6040516301ffc9a760e01b81526380ac58cd60e01b60048201526000906001600160a01b038316906301ffc9a7906024016136df565b6060613b458484615130565b6001600160401b03811115613b5c57613b5c61477a565b604051908082528060200260200182016040528015613b85578160200160208202803683370190505b509050835b83811015613bef5785613b9d8483615130565b81518110613bad57613bad6150c1565b6020026020010151828683613bc29190615130565b81518110613bd257613bd26150c1565b602090810291909101015280613be781615143565b915050613b8a565b50949350505050565b6060613c048484615130565b6001600160401b03811115613c1b57613c1b61477a565b604051908082528060200260200182016040528015613c44578160200160208202803683370190505b509050835b83811015613bef5785613c5c8483615130565b81518110613c6c57613c6c6150c1565b6020026020010151828683613c819190615130565b81518110613c9157613c916150c1565b63ffffffff9092166020928302919091019091015280613cb081615143565b915050613c49565b613cd58560600151866000015181518110611893576118936150c1565b15613d9b576060850151855181518110613cf157613cf16150c1565b60200260200101516001600160a01b03166323b872dd85858860800151896000015181518110613d2357613d236150c1565b60209081029190910101516040516001600160e01b031960e086901b1681526001600160a01b03938416600482015292909116602483015260448201526064015b600060405180830381600087803b158015613d7e57600080fd5b505af1158015613d92573d6000803e3d6000fd5b50505050610533565b613db88560600151866000015181518110611613576116136150c1565b15613e15576060850151855181518110613dd457613dd46150c1565b60200260200101516001600160a01b0316632eb2c2d6858585613df686614632565b6040518563ffffffff1660e01b8152600401613d6494939291906152a4565b60405162461bcd60e51b815260206004820152602160248201527f506f6c667452656e743a20756e737570706f7274656420746f6b656e207479706044820152606560f81b606482015260840161071a565b613e71828261444d565b6109955760405162461bcd60e51b815260206004820152602160248201527f506f6c667452656e743a2072657475726e2064617465206e6f742070617373656044820152601960fa1b606482015260840161071a565b60408201518151600091613ee09163ffffffff16615184565b600254604084015191925060009163ffffffff600160201b909204821691613f09911684615184565b613f13919061519b565b600254909150600090600160801b900463ffffffff1615613f3f57613f3c828660a001516144d1565b90505b60008560a001516001600160a01b031663a9059cbb87602001518486613f659190615130565b6040516001600160e01b031960e085901b1681526001600160a01b03909216600483015260248201526044016020604051808303816000875af1158015613fb0573d6000803e3d6000fd5b505050506040513d601f19601f82011682018060405250810190613fd49190615059565b905080610b205760405162461bcd60e51b815260040161071a906151bd565b806001600160a01b031682602001516001600160a01b0316146109955760405162461bcd60e51b815260206004820152601960248201527f506f6c667452656e74467265653a206e6f74206c656e64657200000000000000604482015260640161071a565b61406581602001516145db565b604081015163ffffffff16156140bd5760405162461bcd60e51b815260206004820152601c60248201527f506f6c667452656e743a206475726174696f6e206e6f74207a65726f00000000604482015260640161071a565b606081015163ffffffff1615611cec5760405162461bcd60e51b815260206004820152601d60248201527f506f6c667452656e743a2072656e746564206174206e6f74207a65726f000000604482015260640161071a565b83602001516001600160a01b0316816001600160a01b03160361417a5760405162461bcd60e51b815260206004820181905260248201527f506f6c667452656e74467265653a2063616e742072656e74206f776e206e6674604482015260640161071a565b63ffffffff80168361016001518381518110614198576141986150c1565b602002602001015163ffffffff1611156141f45760405162461bcd60e51b815260206004820152601860248201527f506f6c667452656e74467265653a206e6f742075696e74380000000000000000604482015260640161071a565b6000836101600151838151811061420d5761420d6150c1565b602002602001015163ffffffff16116142685760405162461bcd60e51b815260206004820152601f60248201527f506f6c667452656e74467265653a206475726174696f6e206973207a65726f00604482015260640161071a565b63ffffffff80168361014001518381518110614286576142866150c1565b602002602001015163ffffffff1611156142e25760405162461bcd60e51b815260206004820152601960248201527f506f6c667452656e74467265653a206e6f742075696e74313600000000000000604482015260640161071a565b600083610140015183815181106142fb576142fb6150c1565b602002602001015163ffffffff16116143605760405162461bcd60e51b815260206004820152602160248201527f506f6c667452656e74467265653a2072656e74416d6f756e74206973207a65726044820152606f60f81b606482015260840161071a565b8360c0015163ffffffff168361016001518381518110614382576143826150c1565b602002602001015163ffffffff161115610b065760405162461bcd60e51b815260206004820152603060248201527f506f6c667452656e74467265653a2072656e74206475726174696f6e2065786360448201526f0cacac8e640c2d8d8deeecac840dac2f60831b606482015260840161071a565b6001600160a01b038116611cec5760405162461bcd60e51b815260206004820152601760248201527f506f6c667452656e743a207a65726f2061646472657373000000000000000000604482015260640161071a565b6000826060015163ffffffff1682116144a85760405162461bcd60e51b815260206004820152601c60248201527f506f6c667452656e743a206e6f77206265666f72652072656e74656400000000604482015260640161071a565b826040015163ffffffff16836060015163ffffffff16836144c99190615130565b119392505050565b6002546000906144ee90600160801b900463ffffffff1684615184565b90506144fc6127108261519b565b60055460405163a9059cbb60e01b81526001600160a01b039182166004820152602481018390529192506000919084169063a9059cbb906044016020604051808303816000875af1158015614555573d6000803e3d6000fd5b505050506040513d601f19601f820116820180604052508101906145799190615059565b9050806145d45760405162461bcd60e51b8152602060048201526024808201527f506f6c667452656e74467265653a207472616e7366657220746f6b656e2066616044820152631a5b195960e21b606482015260840161071a565b5092915050565b6001600160a01b03811615611cec5760405162461bcd60e51b815260206004820152601d60248201527f506f6c667452656e743a206e6f742061207a65726f2061646472657373000000604482015260640161071a565b606081516001600160401b0381111561464d5761464d61477a565b604051908082528060200260200182016040528015614676578160200160208202803683370190505b50905060005b82518110156146d457828181518110614697576146976150c1565b602002602001015163ffffffff168282815181106146b7576146b76150c1565b6020908102919091010152806146cc81615143565b91505061467c565b50919050565b604051806101c0016040528060008152602001600081526020016060815260200160608152602001606081526020016060815260200160608152602001606081526020016060815260200160608152602001606081526020016060815260200160608152602001606081525090565b60006020828403121561475b57600080fd5b81356001600160e01b03198116811461477357600080fd5b9392505050565b634e487b7160e01b600052604160045260246000fd5b604051601f8201601f191681016001600160401b03811182821017156147b8576147b861477a565b604052919050565b60006001600160401b038211156147d9576147d961477a565b5060051b60200190565b600082601f8301126147f457600080fd5b81356020614809614804836147c0565b614790565b82815260059290921b8401810191818101908684111561482857600080fd5b8286015b84811015614851578035600281106148445760008081fd5b835291830191830161482c565b509695505050505050565b80356001600160a01b038116811461487357600080fd5b919050565b600082601f83011261488957600080fd5b81356020614899614804836147c0565b82815260059290921b840181019181810190868411156148b857600080fd5b8286015b84811015614851576148cd8161485c565b83529183019183016148bc565b600082601f8301126148eb57600080fd5b813560206148fb614804836147c0565b82815260059290921b8401810191818101908684111561491a57600080fd5b8286015b84811015614851578035835291830191830161491e565b600080600080600060a0868803121561494d57600080fd5b85356001600160401b038082111561496457600080fd5b61497089838a016147e3565b9650602088013591508082111561498657600080fd5b61499289838a01614878565b955060408801359150808211156149a857600080fd5b6149b489838a016148da565b945060608801359150808211156149ca57600080fd5b6149d689838a016148da565b935060808801359150808211156149ec57600080fd5b506149f9888289016148da565b9150509295509295909350565b600082601f830112614a1757600080fd5b81356001600160401b03811115614a3057614a3061477a565b614a43601f8201601f1916602001614790565b818152846020838601011115614a5857600080fd5b816020850160208301376000918101602001919091529392505050565b60008060008060808587031215614a8b57600080fd5b614a948561485c565b9350614aa26020860161485c565b92506040850135915060608501356001600160401b03811115614ac457600080fd5b614ad087828801614a06565b91505092959194509250565b600080600060608486031215614af157600080fd5b614afa8461485c565b95602085013595506040909401359392505050565b803563ffffffff8116811461487357600080fd5b600082601f830112614b3457600080fd5b81356020614b44614804836147c0565b82815260059290921b84018101918181019086841115614b6357600080fd5b8286015b8481101561485157614b7881614b0f565b8352918301918301614b67565b8015158114611cec57600080fd5b600082601f830112614ba457600080fd5b81356020614bb4614804836147c0565b82815260059290921b84018101918181019086841115614bd357600080fd5b8286015b84811015614851578035614bea81614b85565b8352918301918301614bd7565b600080600080600080600080610100898b031215614c1457600080fd5b88356001600160401b0380821115614c2b57600080fd5b614c378c838d016147e3565b995060208b0135915080821115614c4d57600080fd5b614c598c838d01614878565b985060408b0135915080821115614c6f57600080fd5b614c7b8c838d016148da565b975060608b0135915080821115614c9157600080fd5b614c9d8c838d01614b23565b965060808b0135915080821115614cb357600080fd5b614cbf8c838d016148da565b955060a08b0135915080821115614cd557600080fd5b614ce18c838d01614b23565b945060c08b0135915080821115614cf757600080fd5b614d038c838d01614878565b935060e08b0135915080821115614d1957600080fd5b50614d268b828c01614b93565b9150509295985092959890939650565b600060208284031215614d4857600080fd5b6147738261485c565b600060208284031215614d6357600080fd5b61477382614b0f565b600080600080600060a08688031215614d8457600080fd5b614d8d8661485c565b9450614d9b6020870161485c565b935060408601356001600160401b0380821115614db757600080fd5b614dc389838a016148da565b94506060880135915080821115614dd957600080fd5b614de589838a016148da565b93506080880135915080821115614dfb57600080fd5b506149f988828901614a06565b60008060008060808587031215614e1e57600080fd5b84356001600160401b0380821115614e3557600080fd5b614e41888389016147e3565b95506020870135915080821115614e5757600080fd5b614e6388838901614878565b94506040870135915080821115614e7957600080fd5b614e85888389016148da565b93506060870135915080821115614e9b57600080fd5b50614ad0878288016148da565b60008060008060008060c08789031215614ec157600080fd5b86356001600160401b0380821115614ed857600080fd5b614ee48a838b016147e3565b97506020890135915080821115614efa57600080fd5b614f068a838b01614878565b96506040890135915080821115614f1c57600080fd5b614f288a838b016148da565b95506060890135915080821115614f3e57600080fd5b614f4a8a838b016148da565b94506080890135915080821115614f6057600080fd5b614f6c8a838b01614b23565b935060a0890135915080821115614f8257600080fd5b50614f8f89828a01614b23565b9150509295509295509295565b600080600080600060a08688031215614fb457600080fd5b614fbd8661485c565b9450614fcb6020870161485c565b9350604086013592506060860135915060808601356001600160401b03811115614ff457600080fd5b6149f988828901614a06565b60609390931b6bffffffffffffffffffffffff191683526014830191909152603482015260540190565b634e487b7160e01b600052602160045260246000fd5b60006020828403121561505257600080fd5b5051919050565b60006020828403121561506b57600080fd5b815161477381614b85565b6020808252602b908201527f57686974656c697374577261707065723a20596f7520646f6e2774206861766560408201526a2061646d696e20726f6c6560a81b606082015260800190565b634e487b7160e01b600052603260045260246000fd5b60208082526023908201527f506f6c667452656e74467265653a20696e76616c6964206e6674207374616e64604082015262185c9960ea1b606082015260800190565b634e487b7160e01b600052601160045260246000fd5b818103818111156105155761051561511a565b6000600182016151555761515561511a565b5060010190565b63ffffffff81811683821602808216919082811461517c5761517c61511a565b505092915050565b80820281158282048414176105155761051561511a565b6000826151b857634e487b7160e01b600052601260045260246000fd5b500490565b60208082526024908201527f506f6c667452656e74467265653a207472616e73666572206d6f6e65792066616040820152631a5b195960e21b606082015260800190565b63ffffffff8281168282160390808211156145d4576145d461511a565b6001600160a01b0394851681529290931660208301526040820152606081019190915260a06080820181905260009082015260c00190565b808201808211156105155761051561511a565b600081518084526020808501945080840160005b838110156152995781518752958201959082019060010161527d565b509495945050505050565b6001600160a01b0385811682528416602082015260a0604082018190526000906152d090830185615269565b82810360608401526152e28185615269565b83810360809094019390935250506002815261060f60f31b602082015260400194935050505056fea164736f6c6343000811000a",
  "linkReferences": {},
  "deployedLinkReferences": {}
}