{
  "_format": "hh-sol-artifact-1",
  "contractName": "ERC1155Mock",
  "sourceName": "contracts/mock/ERC1155Mock.sol",
  "abi": [
    {
      "inputs": [],
      "stateMutability": "nonpayable",
      "type": "constructor"
    },
    {
      "anonymous": false,
      "inputs": [
        {
          "indexed": true,
          "internalType": "address",
          "name": "account",
          "type": "address"
        },
        {
          "indexed": true,
          "internalType": "address",
          "name": "operator",
          "type": "address"
        },
        {
          "indexed": false,
          "internalType": "bool",
          "name": "approved",
          "type": "bool"
        }
      ],
      "name": "ApprovalForAll",
      "type": "event"
    },
    {
      "anonymous": false,
      "inputs": [
        {
          "indexed": true,
          "internalType": "address",
          "name": "previousOwner",
          "type": "address"
        },
        {
          "indexed": true,
          "internalType": "address",
          "name": "newOwner",
          "type": "address"
        }
      ],
      "name": "OwnershipTransferred",
      "type": "event"
    },
    {
      "anonymous": false,
      "inputs": [
        {
          "indexed": true,
          "internalType": "address",
          "name": "operator",
          "type": "address"
        },
        {
          "indexed": true,
          "internalType": "address",
          "name": "from",
          "type": "address"
        },
        {
          "indexed": true,
          "internalType": "address",
          "name": "to",
          "type": "address"
        },
        {
          "indexed": false,
          "internalType": "uint256[]",
          "name": "ids",
          "type": "uint256[]"
        },
        {
          "indexed": false,
          "internalType": "uint256[]",
          "name": "values",
          "type": "uint256[]"
        }
      ],
      "name": "TransferBatch",
      "type": "event"
    },
    {
      "anonymous": false,
      "inputs": [
        {
          "indexed": true,
          "internalType": "address",
          "name": "operator",
          "type": "address"
        },
        {
          "indexed": true,
          "internalType": "address",
          "name": "from",
          "type": "address"
        },
        {
          "indexed": true,
          "internalType": "address",
          "name": "to",
          "type": "address"
        },
        {
          "indexed": false,
          "internalType": "uint256",
          "name": "id",
          "type": "uint256"
        },
        {
          "indexed": false,
          "internalType": "uint256",
          "name": "value",
          "type": "uint256"
        }
      ],
      "name": "TransferSingle",
      "type": "event"
    },
    {
      "anonymous": false,
      "inputs": [
        {
          "indexed": false,
          "internalType": "string",
          "name": "value",
          "type": "string"
        },
        {
          "indexed": true,
          "internalType": "uint256",
          "name": "id",
          "type": "uint256"
        }
      ],
      "name": "URI",
      "type": "event"
    },
    {
      "inputs": [
        {
          "internalType": "address",
          "name": "account",
          "type": "address"
        },
        {
          "internalType": "uint256",
          "name": "id",
          "type": "uint256"
        }
      ],
      "name": "balanceOf",
      "outputs": [
        {
          "internalType": "uint256",
          "name": "",
          "type": "uint256"
        }
      ],
      "stateMutability": "view",
      "type": "function"
    },
    {
      "inputs": [
        {
          "internalType": "address[]",
          "name": "accounts",
          "type": "address[]"
        },
        {
          "internalType": "uint256[]",
          "name": "ids",
          "type": "uint256[]"
        }
      ],
      "name": "balanceOfBatch",
      "outputs": [
        {
          "internalType": "uint256[]",
          "name": "",
          "type": "uint256[]"
        }
      ],
      "stateMutability": "view",
      "type": "function"
    },
    {
      "inputs": [
        {
          "internalType": "address",
          "name": "account",
          "type": "address"
        },
        {
          "internalType": "address",
          "name": "operator",
          "type": "address"
        }
      ],
      "name": "isApprovedForAll",
      "outputs": [
        {
          "internalType": "bool",
          "name": "",
          "type": "bool"
        }
      ],
      "stateMutability": "view",
      "type": "function"
    },
    {
      "inputs": [
        {
          "internalType": "address",
          "name": "account",
          "type": "address"
        },
        {
          "internalType": "uint256",
          "name": "id",
          "type": "uint256"
        },
        {
          "internalType": "uint256",
          "name": "amount",
          "type": "uint256"
        },
        {
          "internalType": "bytes",
          "name": "data",
          "type": "bytes"
        }
      ],
      "name": "mint",
      "outputs": [],
      "stateMutability": "nonpayable",
      "type": "function"
    },
    {
      "inputs": [
        {
          "internalType": "address",
          "name": "to",
          "type": "address"
        },
        {
          "internalType": "uint256[]",
          "name": "ids",
          "type": "uint256[]"
        },
        {
          "internalType": "uint256[]",
          "name": "amounts",
          "type": "uint256[]"
        },
        {
          "internalType": "bytes",
          "name": "data",
          "type": "bytes"
        }
      ],
      "name": "mintBatch",
      "outputs": [],
      "stateMutability": "nonpayable",
      "type": "function"
    },
    {
      "inputs": [],
      "name": "owner",
      "outputs": [
        {
          "internalType": "address",
          "name": "",
          "type": "address"
        }
      ],
      "stateMutability": "view",
      "type": "function"
    },
    {
      "inputs": [],
      "name": "renounceOwnership",
      "outputs": [],
      "stateMutability": "nonpayable",
      "type": "function"
    },
    {
      "inputs": [
        {
          "internalType": "address",
          "name": "from",
          "type": "address"
        },
        {
          "internalType": "address",
          "name": "to",
          "type": "address"
        },
        {
          "internalType": "uint256[]",
          "name": "ids",
          "type": "uint256[]"
        },
        {
          "internalType": "uint256[]",
          "name": "amounts",
          "type": "uint256[]"
        },
        {
          "internalType": "bytes",
          "name": "data",
          "type": "bytes"
        }
      ],
      "name": "safeBatchTransferFrom",
      "outputs": [],
      "stateMutability": "nonpayable",
      "type": "function"
    },
    {
      "inputs": [
        {
          "internalType": "address",
          "name": "from",
          "type": "address"
        },
        {
          "internalType": "address",
          "name": "to",
          "type": "address"
        },
        {
          "internalType": "uint256",
          "name": "id",
          "type": "uint256"
        },
        {
          "internalType": "uint256",
          "name": "amount",
          "type": "uint256"
        },
        {
          "internalType": "bytes",
          "name": "data",
          "type": "bytes"
        }
      ],
      "name": "safeTransferFrom",
      "outputs": [],
      "stateMutability": "nonpayable",
      "type": "function"
    },
    {
      "inputs": [
        {
          "internalType": "address",
          "name": "operator",
          "type": "address"
        },
        {
          "internalType": "bool",
          "name": "approved",
          "type": "bool"
        }
      ],
      "name": "setApprovalForAll",
      "outputs": [],
      "stateMutability": "nonpayable",
      "type": "function"
    },
    {
      "inputs": [
        {
          "internalType": "uint256",
          "name": "id",
          "type": "uint256"
        },
        {
          "internalType": "string",
          "name": "newuri",
          "type": "string"
        }
      ],
      "name": "setURI",
      "outputs": [],
      "stateMutability": "nonpayable",
      "type": "function"
    },
    {
      "inputs": [
        {
          "internalType": "bytes4",
          "name": "interfaceId",
          "type": "bytes4"
        }
      ],
      "name": "supportsInterface",
      "outputs": [
        {
          "internalType": "bool",
          "name": "",
          "type": "bool"
        }
      ],
      "stateMutability": "view",
      "type": "function"
    },
    {
      "inputs": [
        {
          "internalType": "address",
          "name": "newOwner",
          "type": "address"
        }
      ],
      "name": "transferOwnership",
      "outputs": [],
      "stateMutability": "nonpayable",
      "type": "function"
    },
    {
      "inputs": [
        {
          "internalType": "uint256",
          "name": "tokenId",
          "type": "uint256"
        }
      ],
      "name": "uri",
      "outputs": [
        {
          "internalType": "string",
          "name": "",
          "type": "string"
        }
      ],
      "stateMutability": "view",
      "type": "function"
    }
  ],
  "bytecode": "0x60a0604052600060809081526004906200001a90826200015e565b503480156200002857600080fd5b50604080516020810190915260008152620000438162000055565b506200004f3362000067565b6200022a565b60026200006382826200015e565b5050565b600380546001600160a01b038381166001600160a01b0319831681179093556040519116919082907f8be0079c531659141344cd1fd0a4f28419497f9722a3daafe3b4186f6b6457e090600090a35050565b634e487b7160e01b600052604160045260246000fd5b600181811c90821680620000e457607f821691505b6020821081036200010557634e487b7160e01b600052602260045260246000fd5b50919050565b601f8211156200015957600081815260208120601f850160051c81016020861015620001345750805b601f850160051c820191505b81811015620001555782815560010162000140565b5050505b505050565b81516001600160401b038111156200017a576200017a620000b9565b62000192816200018b8454620000cf565b846200010b565b602080601f831160018114620001ca5760008415620001b15750858301515b600019600386901b1c1916600185901b17855562000155565b600085815260208120601f198616915b82811015620001fb57888601518255948401946001909101908401620001da565b50858210156200021a5787850151600019600388901b60f8161c191681555b5050505050600190811b01905550565b611c31806200023a6000396000f3fe608060405234801561001057600080fd5b50600436106100e95760003560e01c8063731133e91161008c578063a22cb46511610066578063a22cb465146101e8578063e985e9c5146101fb578063f242432a14610237578063f2fde38b1461024a57600080fd5b8063731133e9146101a7578063862440e2146101ba5780638da5cb5b146101cd57600080fd5b80631f7fdffa116100c85780631f7fdffa146101575780632eb2c2d61461016c5780634e1273f41461017f578063715018a61461019f57600080fd5b8062fdd58e146100ee57806301ffc9a7146101145780630e89341c14610137575b600080fd5b6101016100fc36600461109d565b61025d565b6040519081526020015b60405180910390f35b6101276101223660046110dd565b6102f6565b604051901515815260200161010b565b61014a6101453660046110fa565b610346565b60405161010b9190611163565b61016a6101653660046112cc565b610351565b005b61016a61017a366004611365565b61036b565b61019261018d36600461140f565b6103b7565b60405161010b9190611515565b61016a6104e1565b61016a6101b5366004611528565b6104f5565b61016a6101c836600461157d565b610501565b6003546040516001600160a01b03909116815260200161010b565b61016a6101f63660046115ce565b61050f565b61012761020936600461160a565b6001600160a01b03918216600090815260016020908152604080832093909416825291909152205460ff1690565b61016a61024536600461163d565b61051a565b61016a6102583660046116a2565b61055f565b60006001600160a01b0383166102cd5760405162461bcd60e51b815260206004820152602a60248201527f455243313135353a2061646472657373207a65726f206973206e6f742061207660448201526930b634b21037bbb732b960b11b60648201526084015b60405180910390fd5b506000818152602081815260408083206001600160a01b03861684529091529020545b92915050565b60006001600160e01b03198216636cdb3d1360e11b148061032757506001600160e01b031982166303a24d0760e21b145b806102f057506301ffc9a760e01b6001600160e01b03198316146102f0565b60606102f0826105d8565b6103596106b8565b61036584848484610712565b50505050565b6001600160a01b03851633148061038757506103878533610209565b6103a35760405162461bcd60e51b81526004016102c4906116bd565b6103b0858585858561085d565b5050505050565b6060815183511461041c5760405162461bcd60e51b815260206004820152602960248201527f455243313135353a206163636f756e747320616e6420696473206c656e677468604482015268040dad2e6dac2e8c6d60bb1b60648201526084016102c4565b6000835167ffffffffffffffff81111561043857610438611176565b604051908082528060200260200182016040528015610461578160200160208202803683370190505b50905060005b84518110156104d9576104ac8582815181106104855761048561170c565b602002602001015185838151811061049f5761049f61170c565b602002602001015161025d565b8282815181106104be576104be61170c565b60209081029190910101526104d281611738565b9050610467565b509392505050565b6104e96106b8565b6104f360006109f9565b565b61036584848484610a4b565b61050b8282610b25565b5050565b61050b338383610b82565b6001600160a01b03851633148061053657506105368533610209565b6105525760405162461bcd60e51b81526004016102c4906116bd565b6103b08585858585610c62565b6105676106b8565b6001600160a01b0381166105cc5760405162461bcd60e51b815260206004820152602660248201527f4f776e61626c653a206e6577206f776e657220697320746865207a65726f206160448201526564647265737360d01b60648201526084016102c4565b6105d5816109f9565b50565b6000818152600560205260408120805460609291906105f690611751565b80601f016020809104026020016040519081016040528092919081815260200182805461062290611751565b801561066f5780601f106106445761010080835404028352916020019161066f565b820191906000526020600020905b81548152906001019060200180831161065257829003601f168201915b50505050509050600081511161068d5761068883610d8c565b6106b1565b6004816040516020016106a192919061178b565b6040516020818303038152906040525b9392505050565b6003546001600160a01b031633146104f35760405162461bcd60e51b815260206004820181905260248201527f4f776e61626c653a2063616c6c6572206973206e6f7420746865206f776e657260448201526064016102c4565b6001600160a01b0384166107385760405162461bcd60e51b81526004016102c490611812565b81518351146107595760405162461bcd60e51b81526004016102c490611853565b3360005b84518110156107f5578381815181106107785761077861170c565b60200260200101516000808784815181106107955761079561170c565b602002602001015181526020019081526020016000206000886001600160a01b03166001600160a01b0316815260200190815260200160002060008282546107dd919061189b565b909155508190506107ed81611738565b91505061075d565b50846001600160a01b031660006001600160a01b0316826001600160a01b03167f4a39dc06d4c0dbc64b70af90fd698a233a518aa5d07e595d983b8c0526c8f7fb87876040516108469291906118ae565b60405180910390a46103b081600087878787610e20565b815183511461087e5760405162461bcd60e51b81526004016102c490611853565b6001600160a01b0384166108a45760405162461bcd60e51b81526004016102c4906118dc565b3360005b845181101561098b5760008582815181106108c5576108c561170c565b6020026020010151905060008583815181106108e3576108e361170c565b602090810291909101810151600084815280835260408082206001600160a01b038e1683529093529190912054909150818110156109335760405162461bcd60e51b81526004016102c490611921565b6000838152602081815260408083206001600160a01b038e8116855292528083208585039055908b1682528120805484929061097090849061189b565b925050819055505050508061098490611738565b90506108a8565b50846001600160a01b0316866001600160a01b0316826001600160a01b03167f4a39dc06d4c0dbc64b70af90fd698a233a518aa5d07e595d983b8c0526c8f7fb87876040516109db9291906118ae565b60405180910390a46109f1818787878787610e20565b505050505050565b600380546001600160a01b038381166001600160a01b0319831681179093556040519116919082907f8be0079c531659141344cd1fd0a4f28419497f9722a3daafe3b4186f6b6457e090600090a35050565b6001600160a01b038416610a715760405162461bcd60e51b81526004016102c490611812565b336000610a7d85610f7b565b90506000610a8a85610f7b565b90506000868152602081815260408083206001600160a01b038b16845290915281208054879290610abc90849061189b565b909155505060408051878152602081018790526001600160a01b03808a1692600092918716917fc3d58168c5ae7397731d063d5bbf3d657854427343f4c083240f7aacaa2d0f62910160405180910390a4610b1c83600089898989610fc6565b50505050505050565b6000828152600560205260409020610b3d82826119b6565b50817f6bb7ff708619ba0610cba295a58592e0451dee2622938c8755667688daf3529b610b6984610346565b604051610b769190611163565b60405180910390a25050565b816001600160a01b0316836001600160a01b031603610bf55760405162461bcd60e51b815260206004820152602960248201527f455243313135353a2073657474696e6720617070726f76616c20737461747573604482015268103337b91039b2b63360b91b60648201526084016102c4565b6001600160a01b03838116600081815260016020908152604080832094871680845294825291829020805460ff191686151590811790915591519182527f17307eab39ab6107e8899845ad3d59bd9653f200f220920489ca2b5937696c31910160405180910390a3505050565b6001600160a01b038416610c885760405162461bcd60e51b81526004016102c4906118dc565b336000610c9485610f7b565b90506000610ca185610f7b565b90506000868152602081815260408083206001600160a01b038c16845290915290205485811015610ce45760405162461bcd60e51b81526004016102c490611921565b6000878152602081815260408083206001600160a01b038d8116855292528083208985039055908a16825281208054889290610d2190849061189b565b909155505060408051888152602081018890526001600160a01b03808b16928c821692918816917fc3d58168c5ae7397731d063d5bbf3d657854427343f4c083240f7aacaa2d0f62910160405180910390a4610d81848a8a8a8a8a610fc6565b505050505050505050565b606060028054610d9b90611751565b80601f0160208091040260200160405190810160405280929190818152602001828054610dc790611751565b8015610e145780601f10610de957610100808354040283529160200191610e14565b820191906000526020600020905b815481529060010190602001808311610df757829003601f168201915b50505050509050919050565b6001600160a01b0384163b156109f15760405163bc197c8160e01b81526001600160a01b0385169063bc197c8190610e649089908990889088908890600401611a76565b6020604051808303816000875af1925050508015610e9f575060408051601f3d908101601f19168201909252610e9c91810190611ad4565b60015b610f4b57610eab611af1565b806308c379a003610ee45750610ebf611b0d565b80610eca5750610ee6565b8060405162461bcd60e51b81526004016102c49190611163565b505b60405162461bcd60e51b815260206004820152603460248201527f455243313135353a207472616e7366657220746f206e6f6e20455243313135356044820152732932b1b2b4bb32b91034b6b83632b6b2b73a32b960611b60648201526084016102c4565b6001600160e01b0319811663bc197c8160e01b14610b1c5760405162461bcd60e51b81526004016102c490611b97565b60408051600180825281830190925260609160009190602080830190803683370190505090508281600081518110610fb557610fb561170c565b602090810291909101015292915050565b6001600160a01b0384163b156109f15760405163f23a6e6160e01b81526001600160a01b0385169063f23a6e619061100a9089908990889088908890600401611bdf565b6020604051808303816000875af1925050508015611045575060408051601f3d908101601f1916820190925261104291810190611ad4565b60015b61105157610eab611af1565b6001600160e01b0319811663f23a6e6160e01b14610b1c5760405162461bcd60e51b81526004016102c490611b97565b80356001600160a01b038116811461109857600080fd5b919050565b600080604083850312156110b057600080fd5b6110b983611081565b946020939093013593505050565b6001600160e01b0319811681146105d557600080fd5b6000602082840312156110ef57600080fd5b81356106b1816110c7565b60006020828403121561110c57600080fd5b5035919050565b60005b8381101561112e578181015183820152602001611116565b50506000910152565b6000815180845261114f816020860160208601611113565b601f01601f19169290920160200192915050565b6020815260006106b16020830184611137565b634e487b7160e01b600052604160045260246000fd5b601f8201601f1916810167ffffffffffffffff811182821017156111b2576111b2611176565b6040525050565b600067ffffffffffffffff8211156111d3576111d3611176565b5060051b60200190565b600082601f8301126111ee57600080fd5b813560206111fb826111b9565b604051611208828261118c565b83815260059390931b850182019282810191508684111561122857600080fd5b8286015b84811015611243578035835291830191830161122c565b509695505050505050565b600067ffffffffffffffff83111561126857611268611176565b60405161127f601f8501601f19166020018261118c565b80915083815284848401111561129457600080fd5b83836020830137600060208583010152509392505050565b600082601f8301126112bd57600080fd5b6106b18383356020850161124e565b600080600080608085870312156112e257600080fd5b6112eb85611081565b9350602085013567ffffffffffffffff8082111561130857600080fd5b611314888389016111dd565b9450604087013591508082111561132a57600080fd5b611336888389016111dd565b9350606087013591508082111561134c57600080fd5b50611359878288016112ac565b91505092959194509250565b600080600080600060a0868803121561137d57600080fd5b61138686611081565b945061139460208701611081565b9350604086013567ffffffffffffffff808211156113b157600080fd5b6113bd89838a016111dd565b945060608801359150808211156113d357600080fd5b6113df89838a016111dd565b935060808801359150808211156113f557600080fd5b50611402888289016112ac565b9150509295509295909350565b6000806040838503121561142257600080fd5b823567ffffffffffffffff8082111561143a57600080fd5b818501915085601f83011261144e57600080fd5b8135602061145b826111b9565b604051611468828261118c565b83815260059390931b850182019282810191508984111561148857600080fd5b948201945b838610156114ad5761149e86611081565b8252948201949082019061148d565b965050860135925050808211156114c357600080fd5b506114d0858286016111dd565b9150509250929050565b600081518084526020808501945080840160005b8381101561150a578151875295820195908201906001016114ee565b509495945050505050565b6020815260006106b160208301846114da565b6000806000806080858703121561153e57600080fd5b61154785611081565b93506020850135925060408501359150606085013567ffffffffffffffff81111561157157600080fd5b611359878288016112ac565b6000806040838503121561159057600080fd5b82359150602083013567ffffffffffffffff8111156115ae57600080fd5b8301601f810185136115bf57600080fd5b6114d08582356020840161124e565b600080604083850312156115e157600080fd5b6115ea83611081565b9150602083013580151581146115ff57600080fd5b809150509250929050565b6000806040838503121561161d57600080fd5b61162683611081565b915061163460208401611081565b90509250929050565b600080600080600060a0868803121561165557600080fd5b61165e86611081565b945061166c60208701611081565b93506040860135925060608601359150608086013567ffffffffffffffff81111561169657600080fd5b611402888289016112ac565b6000602082840312156116b457600080fd5b6106b182611081565b6020808252602f908201527f455243313135353a2063616c6c6572206973206e6f7420746f6b656e206f776e60408201526e195c881b9bdc88185c1c1c9bdd9959608a1b606082015260800190565b634e487b7160e01b600052603260045260246000fd5b634e487b7160e01b600052601160045260246000fd5b60006001820161174a5761174a611722565b5060010190565b600181811c9082168061176557607f821691505b60208210810361178557634e487b7160e01b600052602260045260246000fd5b50919050565b600080845461179981611751565b600182811680156117b157600181146117c6576117f5565b60ff19841687528215158302870194506117f5565b8860005260208060002060005b858110156117ec5781548a8201529084019082016117d3565b50505082870194505b505050508351611809818360208801611113565b01949350505050565b60208082526021908201527f455243313135353a206d696e7420746f20746865207a65726f206164647265736040820152607360f81b606082015260800190565b60208082526028908201527f455243313135353a2069647320616e6420616d6f756e7473206c656e677468206040820152670dad2e6dac2e8c6d60c31b606082015260800190565b808201808211156102f0576102f0611722565b6040815260006118c160408301856114da565b82810360208401526118d381856114da565b95945050505050565b60208082526025908201527f455243313135353a207472616e7366657220746f20746865207a65726f206164604082015264647265737360d81b606082015260800190565b6020808252602a908201527f455243313135353a20696e73756666696369656e742062616c616e636520666f60408201526939103a3930b739b332b960b11b606082015260800190565b601f8211156119b157600081815260208120601f850160051c810160208610156119925750805b601f850160051c820191505b818110156109f15782815560010161199e565b505050565b815167ffffffffffffffff8111156119d0576119d0611176565b6119e4816119de8454611751565b8461196b565b602080601f831160018114611a195760008415611a015750858301515b600019600386901b1c1916600185901b1785556109f1565b600085815260208120601f198616915b82811015611a4857888601518255948401946001909101908401611a29565b5085821015611a665787850151600019600388901b60f8161c191681555b5050505050600190811b01905550565b6001600160a01b0386811682528516602082015260a060408201819052600090611aa2908301866114da565b8281036060840152611ab481866114da565b90508281036080840152611ac88185611137565b98975050505050505050565b600060208284031215611ae657600080fd5b81516106b1816110c7565b600060033d1115611b0a5760046000803e5060005160e01c5b90565b600060443d1015611b1b5790565b6040516003193d81016004833e81513d67ffffffffffffffff8160248401118184111715611b4b57505050505090565b8285019150815181811115611b635750505050505090565b843d8701016020828501011115611b7d5750505050505090565b611b8c6020828601018761118c565b509095945050505050565b60208082526028908201527f455243313135353a204552433131353552656365697665722072656a656374656040820152676420746f6b656e7360c01b606082015260800190565b6001600160a01b03868116825285166020820152604081018490526060810183905260a060808201819052600090611c1990830184611137565b97965050505050505056fea164736f6c6343000811000a",
  "linkReferences": {},
  "deployedLinkReferences": {}
}