{
  "_format": "hh-sol-artifact-1",
  "contractName": "PolftRent",
  "sourceName": "contracts/standard/rent/PolftRent.sol",
  "abi": [
    {
      "inputs": [
        {
          "internalType": "address",
          "name": "_whitelistAddress",
          "type": "address"
        }
      ],
      "stateMutability": "nonpayable",
      "type": "constructor"
    },
    {
      "anonymous": false,
      "inputs": [
        {
          "indexed": true,
          "internalType": "uint256",
          "name": "lendingId",
          "type": "uint256"
        },
        {
          "indexed": false,
          "internalType": "uint32",
          "name": "claimedAt",
          "type": "uint32"
        }
      ],
      "name": "CollateralClaimed",
      "type": "event"
    },
    {
      "anonymous": false,
      "inputs": [
        {
          "indexed": true,
          "internalType": "uint256",
          "name": "lendingId",
          "type": "uint256"
        },
        {
          "indexed": false,
          "internalType": "uint32",
          "name": "stoppedAt",
          "type": "uint32"
        }
      ],
      "name": "LendingStopped",
      "type": "event"
    },
    {
      "anonymous": false,
      "inputs": [
        {
          "indexed": true,
          "internalType": "address",
          "name": "nftAddress",
          "type": "address"
        },
        {
          "indexed": true,
          "internalType": "uint256",
          "name": "tokenId",
          "type": "uint256"
        },
        {
          "indexed": false,
          "internalType": "uint32",
          "name": "lentAmount",
          "type": "uint32"
        },
        {
          "indexed": false,
          "internalType": "uint256",
          "name": "lendingId",
          "type": "uint256"
        },
        {
          "indexed": true,
          "internalType": "address",
          "name": "lenderAddress",
          "type": "address"
        },
        {
          "indexed": false,
          "internalType": "uint32",
          "name": "maxRentDuration",
          "type": "uint32"
        },
        {
          "indexed": false,
          "internalType": "uint256",
          "name": "dailyRentPrice",
          "type": "uint256"
        },
        {
          "indexed": false,
          "internalType": "uint256",
          "name": "nftPrice",
          "type": "uint256"
        },
        {
          "indexed": false,
          "internalType": "bool",
          "name": "isERC721",
          "type": "bool"
        },
        {
          "indexed": false,
          "internalType": "address",
          "name": "currencyAddress",
          "type": "address"
        }
      ],
      "name": "Lent",
      "type": "event"
    },
    {
      "anonymous": false,
      "inputs": [
        {
          "indexed": false,
          "internalType": "uint256",
          "name": "lendingId",
          "type": "uint256"
        },
        {
          "indexed": true,
          "internalType": "address",
          "name": "renterAddress",
          "type": "address"
        },
        {
          "indexed": false,
          "internalType": "uint32",
          "name": "rentDuration",
          "type": "uint32"
        },
        {
          "indexed": false,
          "internalType": "uint32",
          "name": "rentedAt",
          "type": "uint32"
        }
      ],
      "name": "Rent",
      "type": "event"
    },
    {
      "anonymous": false,
      "inputs": [
        {
          "indexed": true,
          "internalType": "uint256",
          "name": "lendingId",
          "type": "uint256"
        },
        {
          "indexed": false,
          "internalType": "uint32",
          "name": "returnedAt",
          "type": "uint32"
        }
      ],
      "name": "Returned",
      "type": "event"
    },
    {
      "anonymous": false,
      "inputs": [
        {
          "indexed": true,
          "internalType": "address",
          "name": "newOwner",
          "type": "address"
        }
      ],
      "name": "WhitelistChanged",
      "type": "event"
    },
    {
      "inputs": [],
      "name": "LIMIT_SECONDS_TO_CLAIM",
      "outputs": [
        {
          "internalType": "uint32",
          "name": "",
          "type": "uint32"
        }
      ],
      "stateMutability": "view",
      "type": "function"
    },
    {
      "inputs": [],
      "name": "LIMIT_SECONDS_TO_RETURN",
      "outputs": [
        {
          "internalType": "uint32",
          "name": "",
          "type": "uint32"
        }
      ],
      "stateMutability": "view",
      "type": "function"
    },
    {
      "inputs": [],
      "name": "MAX_PERCENTAGE",
      "outputs": [
        {
          "internalType": "uint32",
          "name": "",
          "type": "uint32"
        }
      ],
      "stateMutability": "view",
      "type": "function"
    },
    {
      "inputs": [],
      "name": "SECONDS_PER_DAY",
      "outputs": [
        {
          "internalType": "uint32",
          "name": "",
          "type": "uint32"
        }
      ],
      "stateMutability": "view",
      "type": "function"
    },
    {
      "inputs": [
        {
          "internalType": "address[]",
          "name": "_nfts",
          "type": "address[]"
        },
        {
          "internalType": "uint256[]",
          "name": "_tokenIds",
          "type": "uint256[]"
        },
        {
          "internalType": "uint256[]",
          "name": "_lendingIds",
          "type": "uint256[]"
        }
      ],
      "name": "claimCollateral",
      "outputs": [],
      "stateMutability": "nonpayable",
      "type": "function"
    },
    {
      "inputs": [
        {
          "internalType": "address[]",
          "name": "_nfts",
          "type": "address[]"
        },
        {
          "internalType": "uint256[]",
          "name": "_tokenIds",
          "type": "uint256[]"
        },
        {
          "internalType": "uint32[]",
          "name": "_lendAmounts",
          "type": "uint32[]"
        },
        {
          "internalType": "uint32[]",
          "name": "_maxRentDurations",
          "type": "uint32[]"
        },
        {
          "internalType": "uint256[]",
          "name": "_dailyRentPrices",
          "type": "uint256[]"
        },
        {
          "internalType": "uint256[]",
          "name": "_nftPrices",
          "type": "uint256[]"
        },
        {
          "internalType": "address[]",
          "name": "_contractERC20s",
          "type": "address[]"
        }
      ],
      "name": "lend",
      "outputs": [],
      "stateMutability": "nonpayable",
      "type": "function"
    },
    {
      "inputs": [
        {
          "internalType": "bytes32",
          "name": "",
          "type": "bytes32"
        }
      ],
      "name": "lendingRenting",
      "outputs": [
        {
          "components": [
            {
              "internalType": "address payable",
              "name": "lenderAddress",
              "type": "address"
            },
            {
              "internalType": "uint256",
              "name": "dailyRentPrice",
              "type": "uint256"
            },
            {
              "internalType": "uint256",
              "name": "nftPrice",
              "type": "uint256"
            },
            {
              "internalType": "uint32",
              "name": "maxRentDuration",
              "type": "uint32"
            },
            {
              "internalType": "uint32",
              "name": "lentAmount",
              "type": "uint32"
            },
            {
              "internalType": "address",
              "name": "contractERC20",
              "type": "address"
            }
          ],
          "internalType": "struct PolftRent.Lending",
          "name": "lending",
          "type": "tuple"
        },
        {
          "components": [
            {
              "internalType": "address payable",
              "name": "renterAddress",
              "type": "address"
            },
            {
              "internalType": "uint32",
              "name": "rentDuration",
              "type": "uint32"
            },
            {
              "internalType": "uint32",
              "name": "rentedAt",
              "type": "uint32"
            }
          ],
          "internalType": "struct PolftRent.Renting",
          "name": "renting",
          "type": "tuple"
        }
      ],
      "stateMutability": "view",
      "type": "function"
    },
    {
      "inputs": [
        {
          "internalType": "address",
          "name": "",
          "type": "address"
        },
        {
          "internalType": "address",
          "name": "",
          "type": "address"
        },
        {
          "internalType": "uint256[]",
          "name": "",
          "type": "uint256[]"
        },
        {
          "internalType": "uint256[]",
          "name": "",
          "type": "uint256[]"
        },
        {
          "internalType": "bytes",
          "name": "",
          "type": "bytes"
        }
      ],
      "name": "onERC1155BatchReceived",
      "outputs": [
        {
          "internalType": "bytes4",
          "name": "",
          "type": "bytes4"
        }
      ],
      "stateMutability": "nonpayable",
      "type": "function"
    },
    {
      "inputs": [
        {
          "internalType": "address",
          "name": "",
          "type": "address"
        },
        {
          "internalType": "address",
          "name": "",
          "type": "address"
        },
        {
          "internalType": "uint256",
          "name": "",
          "type": "uint256"
        },
        {
          "internalType": "uint256",
          "name": "",
          "type": "uint256"
        },
        {
          "internalType": "bytes",
          "name": "",
          "type": "bytes"
        }
      ],
      "name": "onERC1155Received",
      "outputs": [
        {
          "internalType": "bytes4",
          "name": "",
          "type": "bytes4"
        }
      ],
      "stateMutability": "nonpayable",
      "type": "function"
    },
    {
      "inputs": [
        {
          "internalType": "address",
          "name": "",
          "type": "address"
        },
        {
          "internalType": "address",
          "name": "",
          "type": "address"
        },
        {
          "internalType": "uint256",
          "name": "",
          "type": "uint256"
        },
        {
          "internalType": "bytes",
          "name": "",
          "type": "bytes"
        }
      ],
      "name": "onERC721Received",
      "outputs": [
        {
          "internalType": "bytes4",
          "name": "",
          "type": "bytes4"
        }
      ],
      "stateMutability": "nonpayable",
      "type": "function"
    },
    {
      "inputs": [
        {
          "internalType": "address[]",
          "name": "_nfts",
          "type": "address[]"
        },
        {
          "internalType": "uint256[]",
          "name": "_tokenIds",
          "type": "uint256[]"
        },
        {
          "internalType": "uint256[]",
          "name": "_lendingIds",
          "type": "uint256[]"
        },
        {
          "internalType": "uint32[]",
          "name": "_rentDurations",
          "type": "uint32[]"
        }
      ],
      "name": "rent",
      "outputs": [],
      "stateMutability": "nonpayable",
      "type": "function"
    },
    {
      "inputs": [],
      "name": "rentFee",
      "outputs": [
        {
          "internalType": "uint32",
          "name": "",
          "type": "uint32"
        }
      ],
      "stateMutability": "view",
      "type": "function"
    },
    {
      "inputs": [
        {
          "internalType": "address",
          "name": "_address",
          "type": "address"
        }
      ],
      "name": "setCurrencyAddress",
      "outputs": [],
      "stateMutability": "nonpayable",
      "type": "function"
    },
    {
      "inputs": [
        {
          "internalType": "uint32",
          "name": "_time",
          "type": "uint32"
        }
      ],
      "name": "setLimitClaimTime",
      "outputs": [],
      "stateMutability": "nonpayable",
      "type": "function"
    },
    {
      "inputs": [
        {
          "internalType": "uint32",
          "name": "_time",
          "type": "uint32"
        }
      ],
      "name": "setLimitReturnTime",
      "outputs": [],
      "stateMutability": "nonpayable",
      "type": "function"
    },
    {
      "inputs": [
        {
          "internalType": "uint32",
          "name": "_rentFee",
          "type": "uint32"
        }
      ],
      "name": "setRentFee",
      "outputs": [],
      "stateMutability": "nonpayable",
      "type": "function"
    },
    {
      "inputs": [
        {
          "internalType": "address",
          "name": "_address",
          "type": "address"
        }
      ],
      "name": "setTreasuryAddress",
      "outputs": [],
      "stateMutability": "nonpayable",
      "type": "function"
    },
    {
      "inputs": [
        {
          "internalType": "address",
          "name": "_address",
          "type": "address"
        }
      ],
      "name": "setWhitelistAddress",
      "outputs": [],
      "stateMutability": "nonpayable",
      "type": "function"
    },
    {
      "inputs": [
        {
          "internalType": "address[]",
          "name": "_nfts",
          "type": "address[]"
        },
        {
          "internalType": "uint256[]",
          "name": "_tokenIds",
          "type": "uint256[]"
        },
        {
          "internalType": "uint256[]",
          "name": "_lendingIds",
          "type": "uint256[]"
        }
      ],
      "name": "stopLending",
      "outputs": [],
      "stateMutability": "nonpayable",
      "type": "function"
    },
    {
      "inputs": [
        {
          "internalType": "address[]",
          "name": "_nfts",
          "type": "address[]"
        },
        {
          "internalType": "uint256[]",
          "name": "_tokenIds",
          "type": "uint256[]"
        },
        {
          "internalType": "uint256[]",
          "name": "_lendingIds",
          "type": "uint256[]"
        }
      ],
      "name": "stopRenting",
      "outputs": [],
      "stateMutability": "nonpayable",
      "type": "function"
    },
    {
      "inputs": [
        {
          "internalType": "bytes4",
          "name": "interfaceId",
          "type": "bytes4"
        }
      ],
      "name": "supportsInterface",
      "outputs": [
        {
          "internalType": "bool",
          "name": "",
          "type": "bool"
        }
      ],
      "stateMutability": "view",
      "type": "function"
    }
  ],
  "bytecode": "0x60806040523480156200001157600080fd5b50604051620044ac380380620044ac8339810160408190526200003491620000c4565b60018055600680546001600160a01b03199081163317909155600280549091167101f40000003c0000003c000151800000271017905562000075816200007c565b50620000f6565b600080546001600160a01b0319166001600160a01b038316908117825560405190917fdd8c807c33d35ad7642d985aca3455e9281f5298b1c22a4aadb5a86d52df7ed191a250565b600060208284031215620000d757600080fd5b81516001600160a01b0381168114620000ef57600080fd5b9392505050565b6143a680620001066000396000f3fe608060405234801561001057600080fd5b50600436106101375760003560e01c806374f0314f116100b8578063bc197c811161007c578063bc197c81146103cd578063bf2b23ea146103ec578063ea990ec014610403578063f23a6e6114610416578063fb629b3914610435578063fd0c984d1461044857600080fd5b806374f0314f1461024f578063796b89ec14610266578063a224c74514610279578063a247e75d1461028c578063a9b60231146103ba57600080fd5b806359fe66e4116100ff57806359fe66e4146101ec5780636007fff2146101ff5780636605bfda1461021257806370de591a1461022557806371086ae51461023c57600080fd5b806301ffc9a71461013c578063098130df14610164578063150b7a02146101795780634c255c97146101b057806353ab20bd146101d5575b600080fd5b61014f61014a3660046139da565b61045b565b60405190151581526020015b60405180910390f35b610177610172366004613b5d565b610492565b005b610197610187366004613c53565b630a85bd0160e11b949350505050565b6040516001600160e01b0319909116815260200161015b565b6002546101c09063ffffffff1681565b60405163ffffffff909116815260200161015b565b6002546101c090600160401b900463ffffffff1681565b6101776101fa366004613b5d565b6104e1565b61017761020d366004613b5d565b610519565b610177610220366004613cba565b610551565b6002546101c090600160601b900463ffffffff1681565b61017761024a366004613d4b565b61067c565b6002546101c090600160201b900463ffffffff1681565b610177610274366004613cba565b6106bf565b610177610287366004613cba565b6107ea565b61033c61029a366004613deb565b600460208181526000928352604092839020835160c08101855281546001600160a01b039081168252600183015482850152600283015482870152600383015463ffffffff808216606080860191909152600160201b830482166080860152600160401b909204831660a08501528751918201885293909501549081168552600160a01b8104831693850193909352600160c01b909204169282019290925282565b6040805183516001600160a01b03908116825260208086015181840152858401518385015260608087015163ffffffff9081169185019190915260808088015182169085015260a096870151831696840196909652845190911660c0830152830151841660e08201529101519091166101008201526101200161015b565b6101776103c8366004613e04565b6108ff565b6101976103db366004613e1f565b63bc197c8160e01b95945050505050565b6002546101c090600160801b900463ffffffff1681565b610177610411366004613e04565b610a2e565b610197610424366004613ec8565b63f23a6e6160e01b95945050505050565b610177610443366004613f2c565b610b5d565b610177610456366004613e04565b610ba6565b60006001600160e01b03198216630271189760e51b148061048c57506301ffc9a760e01b6001600160e01b03198316145b92915050565b6002600154036104bd5760405162461bcd60e51b81526004016104b490614046565b60405180910390fd5b60026001556104d8610cda6104d3858585611016565b61110e565b50506001805550565b6002600154036105035760405162461bcd60e51b81526004016104b490614046565b60026001556104d861123a6104d3858585611016565b60026001540361053b5760405162461bcd60e51b81526004016104b490614046565b60026001556104d86115396104d3858585611016565b60008060009054906101000a90046001600160a01b03166001600160a01b03166375b238fc6040518163ffffffff1660e01b8152600401602060405180830381865afa1580156105a5573d6000803e3d6000fd5b505050506040513d601f19601f820116820180604052508101906105c9919061407d565b600054604051632474521560e21b8152600481018390523360248201529192506001600160a01b0316906391d1485490604401602060405180830381865afa158015610619573d6000803e3d6000fd5b505050506040513d601f19601f8201168201806040525081019061063d9190614096565b6106595760405162461bcd60e51b81526004016104b4906140b8565b50600680546001600160a01b0319166001600160a01b0392909216919091179055565b60026001540361069e5760405162461bcd60e51b81526004016104b490614046565b60026001556106b56118086104d386868686611d69565b5050600180555050565b60008060009054906101000a90046001600160a01b03166001600160a01b03166375b238fc6040518163ffffffff1660e01b8152600401602060405180830381865afa158015610713573d6000803e3d6000fd5b505050506040513d601f19601f82011682018060405250810190610737919061407d565b600054604051632474521560e21b8152600481018390523360248201529192506001600160a01b0316906391d1485490604401602060405180830381865afa158015610787573d6000803e3d6000fd5b505050506040513d601f19601f820116820180604052508101906107ab9190614096565b6107c75760405162461bcd60e51b81526004016104b4906140b8565b50600580546001600160a01b0319166001600160a01b0392909216919091179055565b60008060009054906101000a90046001600160a01b03166001600160a01b03166375b238fc6040518163ffffffff1660e01b8152600401602060405180830381865afa15801561083e573d6000803e3d6000fd5b505050506040513d601f19601f82011682018060405250810190610862919061407d565b600054604051632474521560e21b8152600481018390523360248201529192506001600160a01b0316906391d1485490604401602060405180830381865afa1580156108b2573d6000803e3d6000fd5b505050506040513d601f19601f820116820180604052508101906108d69190614096565b6108f25760405162461bcd60e51b81526004016104b4906140b8565b6108fb82611e5d565b5050565b60008060009054906101000a90046001600160a01b03166001600160a01b03166375b238fc6040518163ffffffff1660e01b8152600401602060405180830381865afa158015610953573d6000803e3d6000fd5b505050506040513d601f19601f82011682018060405250810190610977919061407d565b600054604051632474521560e21b8152600481018390523360248201529192506001600160a01b0316906391d1485490604401602060405180830381865afa1580156109c7573d6000803e3d6000fd5b505050506040513d601f19601f820116820180604052508101906109eb9190614096565b610a075760405162461bcd60e51b81526004016104b4906140b8565b506002805463ffffffff909216600160801b0263ffffffff60801b19909216919091179055565b60008060009054906101000a90046001600160a01b03166001600160a01b03166375b238fc6040518163ffffffff1660e01b8152600401602060405180830381865afa158015610a82573d6000803e3d6000fd5b505050506040513d601f19601f82011682018060405250810190610aa6919061407d565b600054604051632474521560e21b8152600481018390523360248201529192506001600160a01b0316906391d1485490604401602060405180830381865afa158015610af6573d6000803e3d6000fd5b505050506040513d601f19601f82011682018060405250810190610b1a9190614096565b610b365760405162461bcd60e51b81526004016104b4906140b8565b506002805463ffffffff909216600160601b0263ffffffff60601b19909216919091179055565b600260015403610b7f5760405162461bcd60e51b81526004016104b490614046565b6002600155610b99611ea56104d3898989898989896123ec565b5050600180555050505050565b60008060009054906101000a90046001600160a01b03166001600160a01b03166375b238fc6040518163ffffffff1660e01b8152600401602060405180830381865afa158015610bfa573d6000803e3d6000fd5b505050506040513d601f19601f82011682018060405250810190610c1e919061407d565b600054604051632474521560e21b8152600481018390523360248201529192506001600160a01b0316906391d1485490604401602060405180830381865afa158015610c6e573d6000803e3d6000fd5b505050506040513d601f19601f82011682018060405250810190610c929190614096565b610cae5760405162461bcd60e51b81526004016104b4906140b8565b506002805463ffffffff909216600160401b026bffffffff000000000000000019909216919091179055565b80516020820151600091610ced91614119565b6001600160401b03811115610d0457610d04613a0b565b604051908082528060200260200182016040528015610d2d578160200160208202803683370190505b5082519091505b8260200151811015610fde576000600460008560400151866000015181518110610d6057610d6061412c565b602002602001015186606001518581518110610d7e57610d7e61412c565b60200260200101518760c001518681518110610d9c57610d9c61412c565b6020026020010151604051602001610db693929190614142565b60408051601f198184030181529181528151602092830120835282820193909352908201600020825160c08101845281546001600160a01b039081168252600183015493820193909352600282015493810193909352600381015463ffffffff8082166060860152600160201b8204166080850152600160401b900490911660a08301529150610e45906124bc565b6040805160608101825260048301546001600160a01b038116825263ffffffff600160a01b820481166020840152600160c01b9091041691810191909152610e8c90612569565b6040805160c08101825282546001600160a01b03908116825260018401546020830152600284015492820192909252600383015463ffffffff8082166060840152600160201b8204166080830152600160401b900490911660a0820152610ef290612624565b60038101548451600160201b90910463ffffffff16908490610f149085614119565b81518110610f2457610f2461412c565b602002602001019063ffffffff16908163ffffffff16815250508360c001518281518110610f5457610f5461412c565b60200260200101517f61bcecd87c002ae006d9d8c760291b4f3646fa6109590b4b3ea93084aae4bb6a42604051610f97919063ffffffff91909116815260200190565b60405180910390a280546001600160a01b0319168155600060018201819055600282015560030180546001600160e01b031916905580610fd68161416c565b915050610d34565b506108fb823033610ffe8660600151876000015188602001516000612675565b8651602088015161101191889181612734565b6127f4565b61101e613980565b604051806101600160405280600081526020016001815260200185815260200184815260200160006001600160401b0381111561105d5761105d613a0b565b604051908082528060200260200182016040528015611086578160200160208202803683370190505b50815260200160006040519080825280602002602001820160405280156110b7578160200160208202803683370190505b5081526020808201949094526040805160008082528187018352828401919091528151818152808701835260608401528151818152808701835260808401528151908152948501905260a001929092525092915050565b6000816040015151116111585760405162461bcd60e51b8152602060048201526012602482015271506f6c667452656e743a206e6f206e66747360701b60448201526064016104b4565b80604001515181602001511461122d5780604001518160200151815181106111825761118261412c565b60200260200101516001600160a01b031681604001518260000151815181106111ad576111ad61412c565b60200260200101516001600160a01b03161480156111f057506111f081604001518260200151815181106111e3576111e361412c565b60200260200101516129aa565b1561120d57602081018051906112058261416c565b905250611158565b61121a818363ffffffff16565b602081018051808352906112058261416c565b6108fb818363ffffffff16565b80515b81602001518110156108fb5760006004600084604001518560000151815181106112695761126961412c565b6020026020010151856060015185815181106112875761128761412c565b60200260200101518660c0015186815181106112a5576112a561412c565b60200260200101516040516020016112bf93929190614142565b60408051601f198184030181529181528151602092830120835282820193909352908201600020825160c08101845281546001600160a01b039081168252600183015493820193909352600282015493810193909352600381015463ffffffff8082166060860152600160201b8204166080850152600160401b900490911660a0830152915061134e906124bc565b6040805160608101825260048301546001600160a01b038116825263ffffffff600160a01b820481166020840152600160c01b909104169181019190915261139590612a1d565b6040805160608101825260048301546001600160a01b038116825263ffffffff600160a01b820481166020840152600160c01b90910416918101919091526113dd9042612aac565b604080516101008101825282546001600160a01b03908116828401908152600185015460608085019190915260028601546080850152600386015463ffffffff80821660a0870152600160201b8204811660c0870152600160401b909104841660e08601529184528451908101855260048601549283168152600160a01b83048216602082810191909152600160c01b9093049091169381019390935281019190915261148990612b02565b8260c00151828151811061149f5761149f61412c565b60200260200101517f8ac1440f996b8b13e31275705c447bd09a92005cf2ec131a8183afedc636f5a2426040516114e2919063ffffffff91909116815260200190565b60405180910390a280546001600160a01b031916815560006001820181905560028201556003810180546001600160e01b0319908116909155600490910180549091169055806115318161416c565b91505061123d565b8051602082015160009161154c91614119565b6001600160401b0381111561156357611563613a0b565b60405190808252806020026020018201604052801561158c578160200160208202803683370190505b5082519091505b82602001518110156117e85760006004600085604001518660000151815181106115bf576115bf61412c565b6020026020010151866060015185815181106115dd576115dd61412c565b60200260200101518760c0015186815181106115fb576115fb61412c565b602002602001015160405160200161161593929190614142565b60408051601f198184030181529181528151602092830120835282820193909352908201600020825160c08101845281546001600160a01b039081168252600183015493820193909352600282015493810193909352600381015463ffffffff8082166060860152600160201b8204166080850152600160401b900490911660a083015291506116a4906124bc565b6040805160608101825260048301546001600160a01b038116825263ffffffff600160a01b820481166020840152600160c01b90910416918101919091526116ec9042612cfc565b600481015460009061170b90600160c01b900463ffffffff1642614119565b90506117178282612db4565b60038201548551600160201b90910463ffffffff169085906117399086614119565b815181106117495761174961412c565b602002602001019063ffffffff16908163ffffffff16815250508460c0015183815181106117795761177961412c565b60200260200101517f289da9cb3ecd362ad5ae230d4daa346e68abbd8972cd9c01df54b7b1b97ab15b426040516117bc919063ffffffff91909116815260200190565b60405180910390a25060040180546001600160e01b0319169055806117e08161416c565b915050611593565b506108fb823330610ffe8660600151876000015188602001516000612675565b6000808260000151836020015161181f9190614119565b6001600160401b0381111561183657611836613a0b565b60405190808252806020026020018201604052801561185f578160200160208202803683370190505b5083519091505b8360200151811015611d315760006004600086604001518760000151815181106118925761189261412c565b6020026020010151876060015185815181106118b0576118b061412c565b60200260200101518860c0015186815181106118ce576118ce61412c565b60200260200101516040516020016118e893929190614142565b60408051601f198184030181529181528151602092830120835282820193909352908201600020825160c08101845281546001600160a01b039081168252600183015493820193909352600282015493810193909352600381015463ffffffff8082166060860152600160201b8204166080850152600160401b900490911660a08301529150611977906124bc565b6040805160608101825260048301546001600160a01b038116825263ffffffff600160a01b820481166020840152600160c01b90910416918101919091526119be90612569565b6040805160c08101825282546001600160a01b03908116825260018401546020830152600284015492820192909252600383015463ffffffff8082166060840152600160201b8204166080830152600160401b900490911660a0820152611a269086846130cd565b60025460038201546001830154610120880151805160009463ffffffff600160201b91829004811695919091041692919087908110611a6757611a6761412c565b602002602001015163ffffffff16611a7f9190614185565b611a899190614185565b611a93919061419c565b60028301546003840154919250600091611aba9190600160201b900463ffffffff16614185565b905060008211611adc5760405162461bcd60e51b81526004016104b4906141be565b60008111611afc5760405162461bcd60e51b81526004016104b4906141f5565b6003830154600160401b90046001600160a01b03166323b872dd3330611b22858761422c565b6040516001600160e01b031960e086901b1681526001600160a01b03938416600482015292909116602483015260448201526064016020604051808303816000875af1158015611b76573d6000803e3d6000fd5b505050506040513d601f19601f82011682018060405250810190611b9a9190614096565b955085611bb95760405162461bcd60e51b81526004016104b49061423f565b505060038101548551600160201b90910463ffffffff16908490611bdd9085614119565b81518110611bed57611bed61412c565b63ffffffff92909216602092830291909101909101526004810180546001600160a01b03191633179055610120850151805183908110611c2f57611c2f61412c565b60209081029190910101516004820180544263ffffffff908116600160c01b0263ffffffff60c01b1991909416600160a01b021667ffffffffffffffff60a01b1990911617919091179055611c813390565b6001600160a01b03167f4fa1fd5c88941e657ed3084d5a400062b26dc94798989b5e0d42e87de8f2cc918660c001518481518110611cc157611cc161412c565b60200260200101518761012001518581518110611ce057611ce061412c565b60209081029190910181015160048601546040805194855263ffffffff92831693850193909352600160c01b9004169082015260600160405180910390a25080611d298161416c565b915050611866565b50611d64833033611d518760600151886000015189602001516000612675565b8751602089015161101191889181612734565b505050565b611d71613980565b604051806101600160405280600081526020016001815260200186815260200185815260200160006001600160401b03811115611db057611db0613a0b565b604051908082528060200260200182016040528015611dd9578160200160208202803683370190505b5081526020016000604051908082528060200260200182016040528015611e0a578160200160208202803683370190505b5081526020808201959095526040805160008082528188018352828401919091528151818152808801835260608401526080830195909552805194855294840190945260a0909301919091525092915050565b600080546001600160a01b0319166001600160a01b038316908117825560405190917fdd8c807c33d35ad7642d985aca3455e9281f5298b1c22a4aadb5a86d52df7ed191a250565b80515b81602001518110156123b057611ebe8282613247565b6000600460008460400151856000015181518110611ede57611ede61412c565b602002602001015185606001518581518110611efc57611efc61412c565b6020026020010151600354604051602001611f1993929190614142565b60408051601f198184030181529181528151602092830120835282820193909352908201600020825160c08101845281546001600160a01b039081168252600183015493820193909352600282015493810193909352600381015463ffffffff8082166060860152600160201b8204166080850152600160401b900490911660a08301529150611fa890613507565b6040805160608101825260048301546001600160a01b038116825263ffffffff600160a01b820481166020840152600160c01b9091041691810191909152611fef90612569565b60006120178460400151848151811061200a5761200a61412c565b602002602001015161360e565b905080156120a0578360e0015183815181106120355761203561412c565b602002602001015163ffffffff166001146120a05760405162461bcd60e51b815260206004820152602560248201527f506f6c667452656e743a206c656e7420616d6f756e742068617320746f206265604482015264206f6e652160d81b60648201526084016104b4565b6040518060c001604052806120b23390565b6001600160a01b03168152602001856080015185815181106120d6576120d661412c565b602002602001015181526020018560a0015185815181106120f9576120f961412c565b60200260200101518152602001856101000151858151811061211d5761211d61412c565b602002602001015163ffffffff16815260200182612158578560e00151858151811061214b5761214b61412c565b602002602001015161215b565b60015b63ffffffff168152602001856101400151858151811061217d5761217d61412c565b6020908102919091018101516001600160a01b03908116909252825185546001600160a01b0319169083161785558201516001850155604082015160028501556060820151600385018054608085015160a09095015163ffffffff93841667ffffffffffffffff1990921691909117600160201b93909516929092029390931768010000000000000000600160e01b031916600160401b9190921602179055336001600160a01b03168460600151848151811061223c5761223c61412c565b6020026020010151856040015186600001518151811061225e5761225e61412c565b60200260200101516001600160a01b03167f85f04365875f09a085041e3d530efae8ff683248d63e035df6c80ff2600fdd6b846122b8578760e0015187815181106122ab576122ab61412c565b60200260200101516122bb565b60015b60035489610100015189815181106122d5576122d561412c565b60200260200101518a608001518a815181106122f3576122f361412c565b60200260200101518b60a001518b815181106123115761231161412c565b6020026020010151898d61014001518d815181106123315761233161412c565b6020908102919091018101516040805163ffffffff998a16815292830197909752949096168686015260608601929092526080850152151560a08401526001600160a01b031660c0830152519081900360e00190a4600380549060006123968361416c565b9190505550505080806123a89061416c565b915050611ea8565b506123e98133306123d08560600151866000015187602001516000612675565b6110118660e00151876000015188602001516000612734565b50565b6123f4613980565b604051806101600160405280600081526020016001815260200189815260200188815260200185815260200184815260200160006001600160401b0381111561243f5761243f613a0b565b604051908082528060200260200182016040528015612468578160200160208202803683370190505b508152602081018890526040810187905260600160006040519080825280602002602001820160405280156124a7578160200160208202803683370190505b50815260200192909252509695505050505050565b80516124c790613644565b806060015163ffffffff166000036125215760405162461bcd60e51b815260206004820152601860248201527f506f6c667452656e743a206475726174696f6e207a65726f000000000000000060448201526064016104b4565b80602001516000036125455760405162461bcd60e51b81526004016104b4906141be565b80604001516000036123e95760405162461bcd60e51b81526004016104b4906141f5565b80516125749061369a565b602081015163ffffffff16156125cc5760405162461bcd60e51b815260206004820152601c60248201527f506f6c667452656e743a206475726174696f6e206e6f74207a65726f0000000060448201526064016104b4565b604081015163ffffffff16156123e95760405162461bcd60e51b815260206004820152601d60248201527f506f6c667452656e743a2072656e746564206174206e6f74207a65726f00000060448201526064016104b4565b80516001600160a01b031633146123e95760405162461bcd60e51b81526020600482015260156024820152742837b6333a2932b73a1d103737ba103632b73232b960591b60448201526064016104b4565b60606126818484614119565b6001600160401b0381111561269857612698613a0b565b6040519080825280602002602001820160405280156126c1578160200160208202803683370190505b509050835b8381101561272b57856126d98483614119565b815181106126e9576126e961412c565b60200260200101518286836126fe9190614119565b8151811061270e5761270e61412c565b6020908102919091010152806127238161416c565b9150506126c6565b50949350505050565b60606127408484614119565b6001600160401b0381111561275757612757613a0b565b604051908082528060200260200182016040528015612780578160200160208202803683370190505b509050835b8381101561272b57856127988483614119565b815181106127a8576127a861412c565b60200260200101518286836127bd9190614119565b815181106127cd576127cd61412c565b63ffffffff90921660209283029190910190910152806127ec8161416c565b915050612785565b612811856040015186600001518151811061200a5761200a61412c565b156128d757604085015185518151811061282d5761282d61412c565b60200260200101516001600160a01b03166323b872dd8585886060015189600001518151811061285f5761285f61412c565b60209081029190910101516040516001600160e01b031960e086901b1681526001600160a01b03938416600482015292909116602483015260448201526064015b600060405180830381600087803b1580156128ba57600080fd5b505af11580156128ce573d6000803e3d6000fd5b505050506129a3565b6128f485604001518660000151815181106111e3576111e361412c565b156129515760408501518551815181106129105761291061412c565b60200260200101516001600160a01b0316632eb2c2d6858585612932866136f1565b6040518563ffffffff1660e01b81526004016128a094939291906142bb565b60405162461bcd60e51b815260206004820152602160248201527f506f6c667452656e743a20756e737570706f7274656420746f6b656e207479706044820152606560f81b60648201526084016104b4565b5050505050565b6040516301ffc9a760e01b8152636cdb3d1360e11b60048201526000906001600160a01b038316906301ffc9a7906024015b602060405180830381865afa1580156129f9573d6000803e3d6000fd5b505050506040513d601f19601f8201168201806040525081019061048c9190614096565b8051612a2890613644565b806020015163ffffffff16600003612a525760405162461bcd60e51b81526004016104b490614316565b806040015163ffffffff166000036123e95760405162461bcd60e51b815260206004820152601c60248201527f506f6c667452656e743a2072656e746564206174206973207a65726f0000000060448201526064016104b4565b612ab68282613799565b6108fb5760405162461bcd60e51b815260206004820181905260248201527f506f6c667452656e743a20636c61696d2064617465206e6f742070617373656460448201526064016104b4565b80516040810151608090910151600091612b219163ffffffff16614185565b82516020810151608090910151919250600091612b44919063ffffffff16614185565b600254602080860151015191925060009163ffffffff600160201b909204821691612b70911684614185565b612b7a919061419c565b90506000612b9082866000015160a00151613837565b90506000612b9e858461422c565b905060008311612c005760405162461bcd60e51b815260206004820152602760248201527f506f6c667452656e743a20636f6c6c61746572616c20706c75732072656e74206044820152666973207a65726f60c81b60648201526084016104b4565b855160a081015190516000916001600160a01b03169063a9059cbb90612c268686614119565b6040516001600160e01b031960e085901b1681526001600160a01b03909216600483015260248201526044016020604051808303816000875af1158015612c71573d6000803e3d6000fd5b505050506040513d601f19601f82011682018060405250810190612c959190614096565b905080612cf35760405162461bcd60e51b815260206004820152602660248201527f506f6c667452656e743a205472616e73666572204552433230206e6f7420737560448201526563636573732160d01b60648201526084016104b4565b50505050505050565b81516001600160a01b03163314612d4d5760405162461bcd60e51b81526020600482015260156024820152742837b6333a2932b73a1d103737ba103932b73a32b960591b60448201526064016104b4565b612d578282613906565b156108fb5760405162461bcd60e51b815260206004820152602760248201527f506f6c667452656e743a206e6f742076616c69642074696d6520746f207265746044820152661d5c9b881b999d60ca1b60648201526084016104b4565b60028201546003830154600091612dd791600160201b900463ffffffff16614185565b60038401546001850154919250600091612dfe91600160201b900463ffffffff1690614185565b600254600486015491925060009163ffffffff600160201b909204821691612e2e91600160a01b90041684614185565b612e38919061419c565b600254909150600090600160201b900463ffffffff16612e588487614185565b612e62919061419c565b905060008211612ec85760405162461bcd60e51b815260206004820152602b60248201527f506f6c667452656e743a20746f74616c207061796d656e7420636f6c6c61746560448201526a72616c206973207a65726f60a81b60648201526084016104b4565b60008111612f225760405162461bcd60e51b815260206004820152602160248201527f506f6c667452656e743a206c656e646572207061796d656e74206973207a65726044820152606f60f81b60648201526084016104b4565b600081831115612f3957612f368284614119565b90505b6003870154600090612f5c908490600160401b90046001600160a01b0316613837565b9050612f688184614119565b9250612f74868361422c565b6003890154895460405163a9059cbb60e01b81526001600160a01b03918216600482015260248101879052929450600092600160401b909204169063a9059cbb906044016020604051808303816000875af1158015612fd7573d6000803e3d6000fd5b505050506040513d601f19601f82011682018060405250810190612ffb9190614096565b90508061301a5760405162461bcd60e51b81526004016104b49061423f565b60038901546004808b015460405163a9059cbb60e01b81526001600160a01b039182169281019290925260248201869052600160401b9092049091169063a9059cbb906044016020604051808303816000875af115801561307f573d6000803e3d6000fd5b505050506040513d601f19601f820116820180604052508101906130a39190614096565b9050806130c25760405162461bcd60e51b81526004016104b49061423f565b505050505050505050565b82516001600160a01b031633036131265760405162461bcd60e51b815260206004820152601c60248201527f506f6c667452656e743a2063616e742072656e74206f776e206e66740000000060448201526064016104b4565b63ffffffff801682610120015182815181106131445761314461412c565b602002602001015163ffffffff1611156131705760405162461bcd60e51b81526004016104b49061434d565b600082610120015182815181106131895761318961412c565b602002602001015163ffffffff16116131b45760405162461bcd60e51b81526004016104b490614316565b826060015163ffffffff1682610120015182815181106131d6576131d661412c565b602002602001015163ffffffff161115611d645760405162461bcd60e51b815260206004820152602c60248201527f506f6c667452656e743a2072656e74206475726174696f6e206578636565647360448201526b040c2d8d8deeecac840dac2f60a31b60648201526084016104b4565b60008260e00151828151811061325f5761325f61412c565b602002602001015163ffffffff16116132ba5760405162461bcd60e51b815260206004820152601e60248201527f506f6c667452656e743a206c656e6420616d6f756e74206973207a65726f000060448201526064016104b4565b63ffffffff80168260e0015182815181106132d7576132d761412c565b602002602001015163ffffffff1611156133035760405162461bcd60e51b81526004016104b49061434d565b6000826101000151828151811061331c5761331c61412c565b602002602001015163ffffffff16116133475760405162461bcd60e51b81526004016104b490614316565b63ffffffff801682610100015182815181106133655761336561412c565b602002602001015163ffffffff1611156133915760405162461bcd60e51b81526004016104b49061434d565b6000826080015182815181106133a9576133a961412c565b602002602001015163ffffffff16116133d45760405162461bcd60e51b81526004016104b4906141be565b60055461014083015180516001600160a01b039092169163f992e3b79190849081106134025761340261412c565b60200260200101516040518263ffffffff1660e01b815260040161343591906001600160a01b0391909116815260200190565b6020604051808303816000875af1158015613454573d6000803e3d6000fd5b505050506040513d601f19601f820116820180604052508101906134789190614096565b6134c45760405162461bcd60e51b815260206004820152601760248201527f4e6f742076616c6964206572633230206164647265737300000000000000000060448201526064016104b4565b60008260a0015182815181106134dc576134dc61412c565b602002602001015163ffffffff16116108fb5760405162461bcd60e51b81526004016104b4906141f5565b80516135129061369a565b606081015163ffffffff161561356a5760405162461bcd60e51b815260206004820152601c60248201527f506f6c667452656e743a206475726174696f6e206e6f74207a65726f0000000060448201526064016104b4565b6020810151156135bc5760405162461bcd60e51b815260206004820152601e60248201527f506f6c667452656e743a2072656e74207072696365206e6f74207a65726f000060448201526064016104b4565b6040810151156123e95760405162461bcd60e51b815260206004820152601d60248201527f506f6c667452656e743a206e6674207072696365206e6f74207a65726f00000060448201526064016104b4565b6040516301ffc9a760e01b81526380ac58cd60e01b60048201526000906001600160a01b038316906301ffc9a7906024016129dc565b6001600160a01b0381166123e95760405162461bcd60e51b815260206004820152601760248201527f506f6c667452656e743a207a65726f206164647265737300000000000000000060448201526064016104b4565b6001600160a01b038116156123e95760405162461bcd60e51b815260206004820152601d60248201527f506f6c667452656e743a206e6f742061207a65726f206164647265737300000060448201526064016104b4565b606081516001600160401b0381111561370c5761370c613a0b565b604051908082528060200260200182016040528015613735578160200160208202803683370190505b50905060005b8251811015613793578281815181106137565761375661412c565b602002602001015163ffffffff168282815181106137765761377661412c565b60209081029190910101528061378b8161416c565b91505061373b565b50919050565b6000826040015163ffffffff1682116137f45760405162461bcd60e51b815260206004820152601c60248201527f506f6c667452656e743a206e6f77206265666f72652072656e7465640000000060448201526064016104b4565b600254602084015161381391600160401b900463ffffffff169061437c565b63ffffffff16836040015163ffffffff168361382f9190614119565b119392505050565b60025460009063ffffffff8082169161385991600160801b9091041685614185565b613863919061419c565b60065460405163a9059cbb60e01b81526001600160a01b039182166004820152602481018390529192506000919084169063a9059cbb906044016020604051808303816000875af11580156138bc573d6000803e3d6000fd5b505050506040513d601f19601f820116820180604052508101906138e09190614096565b9050806138ff5760405162461bcd60e51b81526004016104b49061423f565b5092915050565b6000826040015163ffffffff1682116139615760405162461bcd60e51b815260206004820152601c60248201527f506f6c667452656e743a206e6f77206265666f72652072656e7465640000000060448201526064016104b4565b600254602084015161381391600160601b900463ffffffff169061437c565b60405180610160016040528060008152602001600081526020016060815260200160608152602001606081526020016060815260200160608152602001606081526020016060815260200160608152602001606081525090565b6000602082840312156139ec57600080fd5b81356001600160e01b031981168114613a0457600080fd5b9392505050565b634e487b7160e01b600052604160045260246000fd5b604051601f8201601f191681016001600160401b0381118282101715613a4957613a49613a0b565b604052919050565b60006001600160401b03821115613a6a57613a6a613a0b565b5060051b60200190565b80356001600160a01b0381168114613a8b57600080fd5b919050565b600082601f830112613aa157600080fd5b81356020613ab6613ab183613a51565b613a21565b82815260059290921b84018101918181019086841115613ad557600080fd5b8286015b84811015613af757613aea81613a74565b8352918301918301613ad9565b509695505050505050565b600082601f830112613b1357600080fd5b81356020613b23613ab183613a51565b82815260059290921b84018101918181019086841115613b4257600080fd5b8286015b84811015613af75780358352918301918301613b46565b600080600060608486031215613b7257600080fd5b83356001600160401b0380821115613b8957600080fd5b613b9587838801613a90565b94506020860135915080821115613bab57600080fd5b613bb787838801613b02565b93506040860135915080821115613bcd57600080fd5b50613bda86828701613b02565b9150509250925092565b600082601f830112613bf557600080fd5b81356001600160401b03811115613c0e57613c0e613a0b565b613c21601f8201601f1916602001613a21565b818152846020838601011115613c3657600080fd5b816020850160208301376000918101602001919091529392505050565b60008060008060808587031215613c6957600080fd5b613c7285613a74565b9350613c8060208601613a74565b92506040850135915060608501356001600160401b03811115613ca257600080fd5b613cae87828801613be4565b91505092959194509250565b600060208284031215613ccc57600080fd5b613a0482613a74565b803563ffffffff81168114613a8b57600080fd5b600082601f830112613cfa57600080fd5b81356020613d0a613ab183613a51565b82815260059290921b84018101918181019086841115613d2957600080fd5b8286015b84811015613af757613d3e81613cd5565b8352918301918301613d2d565b60008060008060808587031215613d6157600080fd5b84356001600160401b0380821115613d7857600080fd5b613d8488838901613a90565b95506020870135915080821115613d9a57600080fd5b613da688838901613b02565b94506040870135915080821115613dbc57600080fd5b613dc888838901613b02565b93506060870135915080821115613dde57600080fd5b50613cae87828801613ce9565b600060208284031215613dfd57600080fd5b5035919050565b600060208284031215613e1657600080fd5b613a0482613cd5565b600080600080600060a08688031215613e3757600080fd5b613e4086613a74565b9450613e4e60208701613a74565b935060408601356001600160401b0380821115613e6a57600080fd5b613e7689838a01613b02565b94506060880135915080821115613e8c57600080fd5b613e9889838a01613b02565b93506080880135915080821115613eae57600080fd5b50613ebb88828901613be4565b9150509295509295909350565b600080600080600060a08688031215613ee057600080fd5b613ee986613a74565b9450613ef760208701613a74565b9350604086013592506060860135915060808601356001600160401b03811115613f2057600080fd5b613ebb88828901613be4565b600080600080600080600060e0888a031215613f4757600080fd5b87356001600160401b0380821115613f5e57600080fd5b613f6a8b838c01613a90565b985060208a0135915080821115613f8057600080fd5b613f8c8b838c01613b02565b975060408a0135915080821115613fa257600080fd5b613fae8b838c01613ce9565b965060608a0135915080821115613fc457600080fd5b613fd08b838c01613ce9565b955060808a0135915080821115613fe657600080fd5b613ff28b838c01613b02565b945060a08a013591508082111561400857600080fd5b6140148b838c01613b02565b935060c08a013591508082111561402a57600080fd5b506140378a828b01613a90565b91505092959891949750929550565b6020808252601f908201527f5265656e7472616e637947756172643a207265656e7472616e742063616c6c00604082015260600190565b60006020828403121561408f57600080fd5b5051919050565b6000602082840312156140a857600080fd5b81518015158114613a0457600080fd5b6020808252602b908201527f57686974656c697374577261707065723a20596f7520646f6e2774206861766560408201526a2061646d696e20726f6c6560a81b606082015260800190565b634e487b7160e01b600052601160045260246000fd5b8181038181111561048c5761048c614103565b634e487b7160e01b600052603260045260246000fd5b60609390931b6bffffffffffffffffffffffff191683526014830191909152603482015260540190565b60006001820161417e5761417e614103565b5060010190565b808202811582820484141761048c5761048c614103565b6000826141b957634e487b7160e01b600052601260045260246000fd5b500490565b6020808252601d908201527f506f6c667452656e743a2072656e74207072696365206973207a65726f000000604082015260600190565b6020808252601c908201527f506f6c667452656e743a206e6674207072696365206973207a65726f00000000604082015260600190565b8082018082111561048c5761048c614103565b60208082526021908201527f506f6c667452656e743a207472616e73666572206572633230206661696c65646040820152602160f81b606082015260800190565b600081518084526020808501945080840160005b838110156142b057815187529582019590820190600101614294565b509495945050505050565b6001600160a01b0385811682528416602082015260a0604082018190526000906142e790830185614280565b82810360608401526142f98185614280565b838103608090940193909352505060008152602001949350505050565b6020808252601b908201527f506f6c667452656e743a206475726174696f6e206973207a65726f0000000000604082015260600190565b6020808252601590820152742837b6333a2932b73a1d103737ba103ab4b73a199960591b604082015260600190565b63ffffffff8181168382160190808211156138ff576138ff61410356fea164736f6c6343000811000a",
  "linkReferences": {},
  "deployedLinkReferences": {}
}