{
  "_format": "hh-sol-artifact-1",
  "contractName": "Currency",
  "sourceName": "contracts/standard/core/Currency.sol",
  "abi": [
    {
      "inputs": [],
      "stateMutability": "nonpayable",
      "type": "constructor"
    },
    {
      "anonymous": false,
      "inputs": [
        {
          "indexed": false,
          "internalType": "address",
          "name": "previousAdmin",
          "type": "address"
        },
        {
          "indexed": false,
          "internalType": "address",
          "name": "newAdmin",
          "type": "address"
        }
      ],
      "name": "AdminChanged",
      "type": "event"
    },
    {
      "anonymous": false,
      "inputs": [
        {
          "indexed": true,
          "internalType": "address",
          "name": "beacon",
          "type": "address"
        }
      ],
      "name": "BeaconUpgraded",
      "type": "event"
    },
    {
      "anonymous": false,
      "inputs": [
        {
          "indexed": false,
          "internalType": "uint8",
          "name": "version",
          "type": "uint8"
        }
      ],
      "name": "Initialized",
      "type": "event"
    },
    {
      "anonymous": false,
      "inputs": [
        {
          "indexed": false,
          "internalType": "address",
          "name": "currency",
          "type": "address"
        },
        {
          "indexed": false,
          "internalType": "string",
          "name": "url",
          "type": "string"
        }
      ],
      "name": "NewCurrency",
      "type": "event"
    },
    {
      "anonymous": false,
      "inputs": [
        {
          "indexed": true,
          "internalType": "address",
          "name": "previousOwner",
          "type": "address"
        },
        {
          "indexed": true,
          "internalType": "address",
          "name": "newOwner",
          "type": "address"
        }
      ],
      "name": "OwnershipTransferred",
      "type": "event"
    },
    {
      "anonymous": false,
      "inputs": [
        {
          "indexed": false,
          "internalType": "address",
          "name": "currency",
          "type": "address"
        },
        {
          "indexed": false,
          "internalType": "bool",
          "name": "permission",
          "type": "bool"
        }
      ],
      "name": "SetPermissionCurrency",
      "type": "event"
    },
    {
      "anonymous": false,
      "inputs": [
        {
          "indexed": true,
          "internalType": "address",
          "name": "implementation",
          "type": "address"
        }
      ],
      "name": "Upgraded",
      "type": "event"
    },
    {
      "anonymous": false,
      "inputs": [
        {
          "indexed": true,
          "internalType": "address",
          "name": "newOwner",
          "type": "address"
        }
      ],
      "name": "WhitelistChanged",
      "type": "event"
    },
    {
      "inputs": [
        {
          "internalType": "address",
          "name": "_contractERC20",
          "type": "address"
        },
        {
          "internalType": "string",
          "name": "_imgUrl",
          "type": "string"
        }
      ],
      "name": "addCurrency",
      "outputs": [],
      "stateMutability": "nonpayable",
      "type": "function"
    },
    {
      "inputs": [
        {
          "internalType": "uint256",
          "name": "",
          "type": "uint256"
        }
      ],
      "name": "currencies",
      "outputs": [
        {
          "internalType": "address",
          "name": "",
          "type": "address"
        }
      ],
      "stateMutability": "view",
      "type": "function"
    },
    {
      "inputs": [
        {
          "internalType": "address",
          "name": "",
          "type": "address"
        }
      ],
      "name": "currencyExists",
      "outputs": [
        {
          "internalType": "bool",
          "name": "",
          "type": "bool"
        }
      ],
      "stateMutability": "view",
      "type": "function"
    },
    {
      "inputs": [
        {
          "internalType": "address",
          "name": "",
          "type": "address"
        }
      ],
      "name": "currencyState",
      "outputs": [
        {
          "internalType": "bool",
          "name": "",
          "type": "bool"
        }
      ],
      "stateMutability": "view",
      "type": "function"
    },
    {
      "inputs": [],
      "name": "getLengthCurrencies",
      "outputs": [
        {
          "internalType": "uint256",
          "name": "length",
          "type": "uint256"
        }
      ],
      "stateMutability": "view",
      "type": "function"
    },
    {
      "inputs": [
        {
          "internalType": "address",
          "name": "_whitelistAddress",
          "type": "address"
        }
      ],
      "name": "initialize",
      "outputs": [],
      "stateMutability": "nonpayable",
      "type": "function"
    },
    {
      "inputs": [],
      "name": "owner",
      "outputs": [
        {
          "internalType": "address",
          "name": "",
          "type": "address"
        }
      ],
      "stateMutability": "view",
      "type": "function"
    },
    {
      "inputs": [],
      "name": "proxiableUUID",
      "outputs": [
        {
          "internalType": "bytes32",
          "name": "",
          "type": "bytes32"
        }
      ],
      "stateMutability": "view",
      "type": "function"
    },
    {
      "inputs": [],
      "name": "renounceOwnership",
      "outputs": [],
      "stateMutability": "nonpayable",
      "type": "function"
    },
    {
      "inputs": [
        {
          "internalType": "address",
          "name": "_contractERC20",
          "type": "address"
        },
        {
          "internalType": "bool",
          "name": "_permission",
          "type": "bool"
        }
      ],
      "name": "setCurrency",
      "outputs": [],
      "stateMutability": "nonpayable",
      "type": "function"
    },
    {
      "inputs": [
        {
          "internalType": "address",
          "name": "whitelistAddress_",
          "type": "address"
        }
      ],
      "name": "setWhitelistAddress",
      "outputs": [],
      "stateMutability": "nonpayable",
      "type": "function"
    },
    {
      "inputs": [
        {
          "internalType": "address",
          "name": "newOwner",
          "type": "address"
        }
      ],
      "name": "transferOwnership",
      "outputs": [],
      "stateMutability": "nonpayable",
      "type": "function"
    },
    {
      "inputs": [
        {
          "internalType": "address",
          "name": "newImplementation",
          "type": "address"
        }
      ],
      "name": "upgradeTo",
      "outputs": [],
      "stateMutability": "nonpayable",
      "type": "function"
    },
    {
      "inputs": [
        {
          "internalType": "address",
          "name": "newImplementation",
          "type": "address"
        },
        {
          "internalType": "bytes",
          "name": "data",
          "type": "bytes"
        }
      ],
      "name": "upgradeToAndCall",
      "outputs": [],
      "stateMutability": "payable",
      "type": "function"
    }
  ],
  "bytecode": "0x60a06040523060805234801561001457600080fd5b5061001d610022565b6100e2565b600054610100900460ff161561008e5760405162461bcd60e51b815260206004820152602760248201527f496e697469616c697a61626c653a20636f6e747261637420697320696e697469604482015266616c697a696e6760c81b606482015260840160405180910390fd5b60005460ff90811610156100e0576000805460ff191660ff9081179091556040519081527f7f26b83ff96e1f2b6a682f133852f6798a09c465da95921460cefb38474024989060200160405180910390a15b565b608051611680610119600039600081816104fe0152818161053e015281816107ae015281816107ee015261088101526116806000f3fe6080604052600436106100dd5760003560e01c80638da5cb5b1161007f578063c4d66de811610059578063c4d66de81461023b578063f2fde38b1461025b578063f6d1c2711461027b578063f992e3b71461029b57600080fd5b80638da5cb5b146101d457806393e2a3d714610206578063a224c7451461021b57600080fd5b80634f1ef286116100bb5780634f1ef2861461014457806352d1902d14610157578063715018a61461017f5780638025e6231461019457600080fd5b806320052e40146100e25780633659cfe6146101045780633ac4491714610124575b600080fd5b3480156100ee57600080fd5b506101026100fd366004611342565b6102cb565b005b34801561011057600080fd5b5061010261011f3660046113a4565b6104f4565b34801561013057600080fd5b5061010261013f3660046113cd565b6105d3565b610102610152366004611342565b6107a4565b34801561016357600080fd5b5061016c610874565b6040519081526020015b60405180910390f35b34801561018b57600080fd5b50610102610927565b3480156101a057600080fd5b506101c46101af3660046113a4565b60cc6020526000908152604090205460ff1681565b6040519015158152602001610176565b3480156101e057600080fd5b506033546001600160a01b03165b6040516001600160a01b039091168152602001610176565b34801561021257600080fd5b5060ca5461016c565b34801561022757600080fd5b506101026102363660046113a4565b61093b565b34801561024757600080fd5b506101026102563660046113a4565b610a84565b34801561026757600080fd5b506101026102763660046113a4565b610ba6565b34801561028757600080fd5b506101ee610296366004611404565b610c1c565b3480156102a757600080fd5b506101c46102b63660046113a4565b60cb6020526000908152604090205460ff1681565b60c95460408051631d6c8e3f60e21b815290516000926001600160a01b0316916375b238fc9160048083019260209291908290030181865afa158015610315573d6000803e3d6000fd5b505050506040513d601f19601f82011682018060405250810190610339919061141d565b60c954604051632474521560e21b8152600481018390523360248201529192506001600160a01b0316906391d1485490604401602060405180830381865afa158015610389573d6000803e3d6000fd5b505050506040513d601f19601f820116820180604052508101906103ad9190611436565b6103d25760405162461bcd60e51b81526004016103c990611453565b60405180910390fd5b6001600160a01b038316600090815260cc602052604090205460ff161561043b5760405162461bcd60e51b815260206004820152601e60248201527f43757272656e63793a207468697320616464726573732065786973747321000060448201526064016103c9565b60ca805460018082019092557f42d72674974f694b5f5159593243114d38a5c39c89d6b62fee061ff523240ee10180546001600160a01b0319166001600160a01b038616908117909155600090815260cb60209081526040808320805460ff19908116861790915560cc909252918290208054909116909217909155517f27e3f58653eb1d4604238829aa0fd2a9b994f761d54cf284958d74fb925e55e1906104e790859085906114ee565b60405180910390a1505050565b6001600160a01b037f000000000000000000000000000000000000000000000000000000000000000016300361053c5760405162461bcd60e51b81526004016103c99061151a565b7f00000000000000000000000000000000000000000000000000000000000000006001600160a01b031661058560008051602061162d833981519152546001600160a01b031690565b6001600160a01b0316146105ab5760405162461bcd60e51b81526004016103c990611566565b6105b481610c46565b604080516000808252602082019092526105d091839190610d44565b50565b60c95460408051631d6c8e3f60e21b815290516000926001600160a01b0316916375b238fc9160048083019260209291908290030181865afa15801561061d573d6000803e3d6000fd5b505050506040513d601f19601f82011682018060405250810190610641919061141d565b60c954604051632474521560e21b8152600481018390523360248201529192506001600160a01b0316906391d1485490604401602060405180830381865afa158015610691573d6000803e3d6000fd5b505050506040513d601f19601f820116820180604052508101906106b59190611436565b6106d15760405162461bcd60e51b81526004016103c990611453565b6001600160a01b038316600090815260cc602052604090205460ff166107485760405162461bcd60e51b815260206004820152602660248201527f43757272656e63793a2074686973206164647265737320646f6573206e6f742060448201526565786973742160d01b60648201526084016103c9565b6001600160a01b038316600081815260cb6020908152604091829020805460ff19168615159081179091558251938452908301527f60e7c2ea3dd73cbfa31d5c6252b17318321cff4c1c70379ed2c2f32c32ab5b4e91016104e7565b6001600160a01b037f00000000000000000000000000000000000000000000000000000000000000001630036107ec5760405162461bcd60e51b81526004016103c99061151a565b7f00000000000000000000000000000000000000000000000000000000000000006001600160a01b031661083560008051602061162d833981519152546001600160a01b031690565b6001600160a01b03161461085b5760405162461bcd60e51b81526004016103c990611566565b61086482610c46565b61087082826001610d44565b5050565b6000306001600160a01b037f000000000000000000000000000000000000000000000000000000000000000016146109145760405162461bcd60e51b815260206004820152603860248201527f555550535570677261646561626c653a206d757374206e6f742062652063616c60448201527f6c6564207468726f7567682064656c656761746563616c6c000000000000000060648201526084016103c9565b5060008051602061162d83398151915290565b61092f610eb4565b6109396000610f0e565b565b60c95460408051631d6c8e3f60e21b815290516000926001600160a01b0316916375b238fc9160048083019260209291908290030181865afa158015610985573d6000803e3d6000fd5b505050506040513d601f19601f820116820180604052508101906109a9919061141d565b60c954604051632474521560e21b8152600481018390523360248201529192506001600160a01b0316906391d1485490604401602060405180830381865afa1580156109f9573d6000803e3d6000fd5b505050506040513d601f19601f82011682018060405250810190610a1d9190611436565b610a395760405162461bcd60e51b81526004016103c990611453565b60c980546001600160a01b0319166001600160a01b0384169081179091556040517fdd8c807c33d35ad7642d985aca3455e9281f5298b1c22a4aadb5a86d52df7ed190600090a25050565b600054610100900460ff1615808015610aa45750600054600160ff909116105b80610abe5750303b158015610abe575060005460ff166001145b610b215760405162461bcd60e51b815260206004820152602e60248201527f496e697469616c697a61626c653a20636f6e747261637420697320616c72656160448201526d191e481a5b9a5d1a585b1a5e995960921b60648201526084016103c9565b6000805460ff191660011790558015610b44576000805461ff0019166101001790555b610b4c610f60565b610b54610f8f565b610b5d82610fb6565b8015610870576000805461ff0019169055604051600181527f7f26b83ff96e1f2b6a682f133852f6798a09c465da95921460cefb38474024989060200160405180910390a15050565b610bae610eb4565b6001600160a01b038116610c135760405162461bcd60e51b815260206004820152602660248201527f4f776e61626c653a206e6577206f776e657220697320746865207a65726f206160448201526564647265737360d01b60648201526084016103c9565b6105d081610f0e565b60ca8181548110610c2c57600080fd5b6000918252602090912001546001600160a01b0316905081565b60c95460408051631d6c8e3f60e21b815290516000926001600160a01b0316916375b238fc9160048083019260209291908290030181865afa158015610c90573d6000803e3d6000fd5b505050506040513d601f19601f82011682018060405250810190610cb4919061141d565b60c954604051632474521560e21b8152600481018390523360248201529192506001600160a01b0316906391d1485490604401602060405180830381865afa158015610d04573d6000803e3d6000fd5b505050506040513d601f19601f82011682018060405250810190610d289190611436565b6108705760405162461bcd60e51b81526004016103c990611453565b7f4910fdfa16fed3260ed0e7147f7cc6da11a60208b5b9406d12a635614ffd91435460ff1615610d7c57610d7783610fe6565b505050565b826001600160a01b03166352d1902d6040518163ffffffff1660e01b8152600401602060405180830381865afa925050508015610dd6575060408051601f3d908101601f19168201909252610dd39181019061141d565b60015b610e395760405162461bcd60e51b815260206004820152602e60248201527f45524331393637557067726164653a206e657720696d706c656d656e7461746960448201526d6f6e206973206e6f74205555505360901b60648201526084016103c9565b60008051602061162d8339815191528114610ea85760405162461bcd60e51b815260206004820152602960248201527f45524331393637557067726164653a20756e737570706f727465642070726f786044820152681a58589b195555525160ba1b60648201526084016103c9565b50610d77838383611082565b6033546001600160a01b031633146109395760405162461bcd60e51b815260206004820181905260248201527f4f776e61626c653a2063616c6c6572206973206e6f7420746865206f776e657260448201526064016103c9565b603380546001600160a01b038381166001600160a01b0319831681179093556040519116919082907f8be0079c531659141344cd1fd0a4f28419497f9722a3daafe3b4186f6b6457e090600090a35050565b600054610100900460ff16610f875760405162461bcd60e51b81526004016103c9906115b2565b6109396110ad565b600054610100900460ff166109395760405162461bcd60e51b81526004016103c9906115b2565b600054610100900460ff16610fdd5760405162461bcd60e51b81526004016103c9906115b2565b6105d0816110dd565b6001600160a01b0381163b6110535760405162461bcd60e51b815260206004820152602d60248201527f455243313936373a206e657720696d706c656d656e746174696f6e206973206e60448201526c1bdd08184818dbdb9d1c9858dd609a1b60648201526084016103c9565b60008051602061162d83398151915280546001600160a01b0319166001600160a01b0392909216919091179055565b61108b83611126565b6000825111806110985750805b15610d77576110a78383611166565b50505050565b600054610100900460ff166110d45760405162461bcd60e51b81526004016103c9906115b2565b61093933610f0e565b600054610100900460ff166111045760405162461bcd60e51b81526004016103c9906115b2565b60c980546001600160a01b0319166001600160a01b0392909216919091179055565b61112f81610fe6565b6040516001600160a01b038216907fbc7cd75a20ee27fd9adebab32041f755214dbc6bffa90cc0225b39da2e5c2d3b90600090a250565b60606001600160a01b0383163b6111ce5760405162461bcd60e51b815260206004820152602660248201527f416464726573733a2064656c65676174652063616c6c20746f206e6f6e2d636f6044820152651b9d1c9858dd60d21b60648201526084016103c9565b600080846001600160a01b0316846040516111e991906115fd565b600060405180830381855af49150503d8060008114611224576040519150601f19603f3d011682016040523d82523d6000602084013e611229565b606091505b5091509150611251828260405180606001604052806027815260200161164d6027913961125a565b95945050505050565b60608315611269575081611293565b8251156112795782518084602001fd5b8160405162461bcd60e51b81526004016103c99190611619565b9392505050565b80356001600160a01b03811681146112b157600080fd5b919050565b634e487b7160e01b600052604160045260246000fd5b600067ffffffffffffffff808411156112e7576112e76112b6565b604051601f8501601f19908116603f0116810190828211818310171561130f5761130f6112b6565b8160405280935085815286868601111561132857600080fd5b858560208301376000602087830101525050509392505050565b6000806040838503121561135557600080fd5b61135e8361129a565b9150602083013567ffffffffffffffff81111561137a57600080fd5b8301601f8101851361138b57600080fd5b61139a858235602084016112cc565b9150509250929050565b6000602082840312156113b657600080fd5b6112938261129a565b80151581146105d057600080fd5b600080604083850312156113e057600080fd5b6113e98361129a565b915060208301356113f9816113bf565b809150509250929050565b60006020828403121561141657600080fd5b5035919050565b60006020828403121561142f57600080fd5b5051919050565b60006020828403121561144857600080fd5b8151611293816113bf565b6020808252602b908201527f57686974656c697374577261707065723a20596f7520646f6e2774206861766560408201526a2061646d696e20726f6c6560a81b606082015260800190565b60005b838110156114b95781810151838201526020016114a1565b50506000910152565b600081518084526114da81602086016020860161149e565b601f01601f19169290920160200192915050565b6001600160a01b0383168152604060208201819052600090611512908301846114c2565b949350505050565b6020808252602c908201527f46756e6374696f6e206d7573742062652063616c6c6564207468726f7567682060408201526b19195b1959d85d1958d85b1b60a21b606082015260800190565b6020808252602c908201527f46756e6374696f6e206d7573742062652063616c6c6564207468726f7567682060408201526b6163746976652070726f787960a01b606082015260800190565b6020808252602b908201527f496e697469616c697a61626c653a20636f6e7472616374206973206e6f74206960408201526a6e697469616c697a696e6760a81b606082015260800190565b6000825161160f81846020870161149e565b9190910192915050565b60208152600061129360208301846114c256fe360894a13ba1a3210667c828492db98dca3e2076cc3735a920a3ca505d382bbc416464726573733a206c6f772d6c6576656c2064656c65676174652063616c6c206661696c6564a164736f6c6343000811000a",
  "linkReferences": {},
  "deployedLinkReferences": {}
}