{
  "_format": "hh-sol-artifact-1",
  "contractName": "CollectionOffer",
  "sourceName": "contracts/standard/core/CollectionOffer.sol",
  "abi": [
    {
      "inputs": [],
      "stateMutability": "nonpayable",
      "type": "constructor"
    },
    {
      "anonymous": false,
      "inputs": [
        {
          "indexed": false,
          "internalType": "uint256",
          "name": "offerId",
          "type": "uint256"
        },
        {
          "indexed": false,
          "internalType": "address",
          "name": "sender",
          "type": "address"
        },
        {
          "indexed": false,
          "internalType": "address",
          "name": "owner",
          "type": "address"
        },
        {
          "indexed": false,
          "internalType": "uint256",
          "name": "price",
          "type": "uint256"
        },
        {
          "indexed": false,
          "internalType": "uint256[]",
          "name": "tokenId",
          "type": "uint256[]"
        },
        {
          "indexed": false,
          "internalType": "uint256[]",
          "name": "valueId",
          "type": "uint256[]"
        },
        {
          "indexed": false,
          "internalType": "uint256",
          "name": "amounnt",
          "type": "uint256"
        },
        {
          "indexed": false,
          "internalType": "address",
          "name": "contractaddress",
          "type": "address"
        },
        {
          "indexed": false,
          "internalType": "enum CollectionOffer.ContractType",
          "name": "contractType",
          "type": "uint8"
        },
        {
          "indexed": false,
          "internalType": "address",
          "name": "contractERC20",
          "type": "address"
        },
        {
          "indexed": false,
          "internalType": "uint32",
          "name": "endTime",
          "type": "uint32"
        }
      ],
      "name": "AcceptQOffer",
      "type": "event"
    },
    {
      "anonymous": false,
      "inputs": [
        {
          "indexed": false,
          "internalType": "address",
          "name": "previousAdmin",
          "type": "address"
        },
        {
          "indexed": false,
          "internalType": "address",
          "name": "newAdmin",
          "type": "address"
        }
      ],
      "name": "AdminChanged",
      "type": "event"
    },
    {
      "anonymous": false,
      "inputs": [
        {
          "indexed": true,
          "internalType": "address",
          "name": "beacon",
          "type": "address"
        }
      ],
      "name": "BeaconUpgraded",
      "type": "event"
    },
    {
      "anonymous": false,
      "inputs": [
        {
          "indexed": false,
          "internalType": "uint256",
          "name": "offerId",
          "type": "uint256"
        },
        {
          "indexed": false,
          "internalType": "address",
          "name": "owner",
          "type": "address"
        },
        {
          "indexed": false,
          "internalType": "uint256",
          "name": "price",
          "type": "uint256"
        },
        {
          "indexed": false,
          "internalType": "uint256",
          "name": "amount",
          "type": "uint256"
        },
        {
          "indexed": false,
          "internalType": "address",
          "name": "contractaddress",
          "type": "address"
        },
        {
          "indexed": false,
          "internalType": "enum CollectionOffer.ContractType",
          "name": "contractType",
          "type": "uint8"
        },
        {
          "indexed": false,
          "internalType": "address",
          "name": "contractERC20",
          "type": "address"
        },
        {
          "indexed": false,
          "internalType": "uint32",
          "name": "endTime",
          "type": "uint32"
        }
      ],
      "name": "CancelQOffer",
      "type": "event"
    },
    {
      "anonymous": false,
      "inputs": [
        {
          "indexed": false,
          "internalType": "uint256",
          "name": "offerId",
          "type": "uint256"
        },
        {
          "indexed": false,
          "internalType": "address",
          "name": "owner",
          "type": "address"
        },
        {
          "indexed": false,
          "internalType": "uint256",
          "name": "price",
          "type": "uint256"
        },
        {
          "indexed": false,
          "internalType": "uint256",
          "name": "amount",
          "type": "uint256"
        },
        {
          "indexed": false,
          "internalType": "address",
          "name": "contractaddress",
          "type": "address"
        },
        {
          "indexed": false,
          "internalType": "enum CollectionOffer.ContractType",
          "name": "contractType",
          "type": "uint8"
        },
        {
          "indexed": false,
          "internalType": "address",
          "name": "contractERC20",
          "type": "address"
        },
        {
          "indexed": false,
          "internalType": "uint32",
          "name": "endTime",
          "type": "uint32"
        }
      ],
      "name": "CreateQOffer",
      "type": "event"
    },
    {
      "anonymous": false,
      "inputs": [
        {
          "indexed": false,
          "internalType": "uint256",
          "name": "price",
          "type": "uint256"
        },
        {
          "indexed": false,
          "internalType": "uint256",
          "name": "amountOffer",
          "type": "uint256"
        }
      ],
      "name": "CurrentPrice",
      "type": "event"
    },
    {
      "anonymous": false,
      "inputs": [
        {
          "indexed": false,
          "internalType": "uint8",
          "name": "version",
          "type": "uint8"
        }
      ],
      "name": "Initialized",
      "type": "event"
    },
    {
      "anonymous": false,
      "inputs": [
        {
          "indexed": true,
          "internalType": "address",
          "name": "previousOwner",
          "type": "address"
        },
        {
          "indexed": true,
          "internalType": "address",
          "name": "newOwner",
          "type": "address"
        }
      ],
      "name": "OwnershipTransferred",
      "type": "event"
    },
    {
      "anonymous": false,
      "inputs": [
        {
          "indexed": true,
          "internalType": "address",
          "name": "implementation",
          "type": "address"
        }
      ],
      "name": "Upgraded",
      "type": "event"
    },
    {
      "anonymous": false,
      "inputs": [
        {
          "indexed": true,
          "internalType": "address",
          "name": "newOwner",
          "type": "address"
        }
      ],
      "name": "WhitelistChanged",
      "type": "event"
    },
    {
      "stateMutability": "payable",
      "type": "fallback"
    },
    {
      "inputs": [],
      "name": "FEE_PER_PRICE",
      "outputs": [
        {
          "internalType": "uint256",
          "name": "",
          "type": "uint256"
        }
      ],
      "stateMutability": "view",
      "type": "function"
    },
    {
      "inputs": [
        {
          "internalType": "address",
          "name": "_contractaddress",
          "type": "address"
        },
        {
          "internalType": "uint256[]",
          "name": "_tokenId",
          "type": "uint256[]"
        },
        {
          "internalType": "uint256[]",
          "name": "_valueId",
          "type": "uint256[]"
        },
        {
          "internalType": "uint256",
          "name": "_amount",
          "type": "uint256"
        },
        {
          "internalType": "uint256",
          "name": "_offerId",
          "type": "uint256"
        },
        {
          "internalType": "uint256",
          "name": "_currentPrice",
          "type": "uint256"
        }
      ],
      "name": "acceptQOffer",
      "outputs": [],
      "stateMutability": "nonpayable",
      "type": "function"
    },
    {
      "inputs": [
        {
          "internalType": "uint256",
          "name": "_offerId",
          "type": "uint256"
        },
        {
          "internalType": "address",
          "name": "_contractaddress",
          "type": "address"
        }
      ],
      "name": "cancelQOffer",
      "outputs": [],
      "stateMutability": "nonpayable",
      "type": "function"
    },
    {
      "inputs": [
        {
          "internalType": "address",
          "name": "",
          "type": "address"
        },
        {
          "internalType": "uint256",
          "name": "",
          "type": "uint256"
        }
      ],
      "name": "collectionToOffer",
      "outputs": [
        {
          "internalType": "address",
          "name": "owner",
          "type": "address"
        },
        {
          "internalType": "address",
          "name": "contractERC20",
          "type": "address"
        },
        {
          "internalType": "address",
          "name": "contractaddress",
          "type": "address"
        },
        {
          "internalType": "enum CollectionOffer.ContractType",
          "name": "contractType",
          "type": "uint8"
        },
        {
          "internalType": "uint256",
          "name": "amount",
          "type": "uint256"
        },
        {
          "internalType": "uint256",
          "name": "price",
          "type": "uint256"
        },
        {
          "internalType": "uint256",
          "name": "offerId",
          "type": "uint256"
        },
        {
          "internalType": "uint32",
          "name": "endTime",
          "type": "uint32"
        },
        {
          "internalType": "enum CollectionOffer.QOfferStatus",
          "name": "status",
          "type": "uint8"
        }
      ],
      "stateMutability": "view",
      "type": "function"
    },
    {
      "inputs": [
        {
          "internalType": "address",
          "name": "",
          "type": "address"
        }
      ],
      "name": "collectionToOfferId",
      "outputs": [
        {
          "internalType": "uint256",
          "name": "",
          "type": "uint256"
        }
      ],
      "stateMutability": "view",
      "type": "function"
    },
    {
      "inputs": [
        {
          "internalType": "address",
          "name": "_contractaddress",
          "type": "address"
        },
        {
          "internalType": "address",
          "name": "_contractERC20",
          "type": "address"
        },
        {
          "internalType": "uint256",
          "name": "_price",
          "type": "uint256"
        },
        {
          "internalType": "uint256",
          "name": "_amount",
          "type": "uint256"
        },
        {
          "internalType": "uint32",
          "name": "_endTime",
          "type": "uint32"
        }
      ],
      "name": "createQOffer",
      "outputs": [],
      "stateMutability": "payable",
      "type": "function"
    },
    {
      "inputs": [
        {
          "internalType": "address",
          "name": "_whitelistAddress",
          "type": "address"
        }
      ],
      "name": "initialize",
      "outputs": [],
      "stateMutability": "nonpayable",
      "type": "function"
    },
    {
      "inputs": [],
      "name": "owner",
      "outputs": [
        {
          "internalType": "address",
          "name": "",
          "type": "address"
        }
      ],
      "stateMutability": "view",
      "type": "function"
    },
    {
      "inputs": [
        {
          "internalType": "address",
          "name": "",
          "type": "address"
        },
        {
          "internalType": "uint256",
          "name": "",
          "type": "uint256"
        }
      ],
      "name": "priceToAmount",
      "outputs": [
        {
          "internalType": "uint256",
          "name": "",
          "type": "uint256"
        }
      ],
      "stateMutability": "view",
      "type": "function"
    },
    {
      "inputs": [],
      "name": "proxiableUUID",
      "outputs": [
        {
          "internalType": "bytes32",
          "name": "",
          "type": "bytes32"
        }
      ],
      "stateMutability": "view",
      "type": "function"
    },
    {
      "inputs": [],
      "name": "renounceOwnership",
      "outputs": [],
      "stateMutability": "nonpayable",
      "type": "function"
    },
    {
      "inputs": [
        {
          "internalType": "address",
          "name": "_address",
          "type": "address"
        }
      ],
      "name": "setCurrencyAddress",
      "outputs": [],
      "stateMutability": "nonpayable",
      "type": "function"
    },
    {
      "inputs": [
        {
          "internalType": "address",
          "name": "_address",
          "type": "address"
        }
      ],
      "name": "setTreasuryAddress",
      "outputs": [],
      "stateMutability": "nonpayable",
      "type": "function"
    },
    {
      "inputs": [
        {
          "internalType": "address",
          "name": "whitelistAddress_",
          "type": "address"
        }
      ],
      "name": "setWhitelistAddress",
      "outputs": [],
      "stateMutability": "nonpayable",
      "type": "function"
    },
    {
      "inputs": [
        {
          "internalType": "address",
          "name": "newOwner",
          "type": "address"
        }
      ],
      "name": "transferOwnership",
      "outputs": [],
      "stateMutability": "nonpayable",
      "type": "function"
    },
    {
      "inputs": [
        {
          "internalType": "address",
          "name": "newImplementation",
          "type": "address"
        }
      ],
      "name": "upgradeTo",
      "outputs": [],
      "stateMutability": "nonpayable",
      "type": "function"
    },
    {
      "inputs": [
        {
          "internalType": "address",
          "name": "newImplementation",
          "type": "address"
        },
        {
          "internalType": "bytes",
          "name": "data",
          "type": "bytes"
        }
      ],
      "name": "upgradeToAndCall",
      "outputs": [],
      "stateMutability": "payable",
      "type": "function"
    }
  ],
  "bytecode": "0x60a0604052306080523480156200001557600080fd5b506200002062000026565b620000e8565b600054610100900460ff1615620000935760405162461bcd60e51b815260206004820152602760248201527f496e697469616c697a61626c653a20636f6e747261637420697320696e697469604482015266616c697a696e6760c81b606482015260840160405180910390fd5b60005460ff9081161015620000e6576000805460ff191660ff9081179091556040519081527f7f26b83ff96e1f2b6a682f133852f6798a09c465da95921460cefb38474024989060200160405180910390a15b565b608051612ce4620001206000396000818161033c01528181610385015281816104af015281816104ef01526105820152612ce46000f3fe6080604052600436106100f55760003560e01c8063715018a61161008f578063a224c74511610061578063a224c74514610292578063c02449c5146102b2578063c4d66de8146102d2578063e3961414146102f2578063f2fde38b1461031257005b8063715018a614610222578063796b89ec1461023757806385251d35146102575780638da5cb5b1461026a57005b80633f7ed2f6116100c85780633f7ed2f6146101a55780634f1ef286146101da57806352d1902d146101ed5780636605bfda1461020257005b8063087e789b146100f75780631767d8dd1461011f5780631917d6ce1461014c5780633659cfe614610185575b005b34801561010357600080fd5b5061010c600a81565b6040519081526020015b60405180910390f35b34801561012b57600080fd5b5061010c61013a36600461246c565b60ff6020526000908152604090205481565b34801561015857600080fd5b5061010c610167366004612489565b61010060209081526000928352604080842090915290825290205481565b34801561019157600080fd5b506100f56101a036600461246c565b610332565b3480156101b157600080fd5b506101c56101c0366004612489565b61041a565b604051610116999897969594939291906124df565b6100f56101e8366004612597565b6104a5565b3480156101f957600080fd5b5061010c610575565b34801561020e57600080fd5b506100f561021d36600461246c565b610628565b34801561022e57600080fd5b506100f5610749565b34801561024357600080fd5b506100f561025236600461246c565b61075d565b6100f561026536600461263f565b61087e565b34801561027657600080fd5b506033546040516001600160a01b039091168152602001610116565b34801561029e57600080fd5b506100f56102ad36600461246c565b610d91565b3480156102be57600080fd5b506100f56102cd3660046126a7565b610eda565b3480156102de57600080fd5b506100f56102ed36600461246c565b611214565b3480156102fe57600080fd5b506100f561030d366004612757565b611350565b34801561031e57600080fd5b506100f561032d36600461246c565b611b2e565b6001600160a01b037f00000000000000000000000000000000000000000000000000000000000000001630036103835760405162461bcd60e51b815260040161037a906127e9565b60405180910390fd5b7f00000000000000000000000000000000000000000000000000000000000000006001600160a01b03166103cc600080516020612c91833981519152546001600160a01b031690565b6001600160a01b0316146103f25760405162461bcd60e51b815260040161037a90612835565b6103fb81611ba4565b6040805160008082526020820190925261041791839190611ca2565b50565b60fe602052816000526040600020818154811061043657600080fd5b600091825260209091206007909102018054600182015460028301546003840154600485015460058601546006909601546001600160a01b03958616985093851696509382169460ff600160a01b90930483169491939192909163ffffffff8116916401000000009091041689565b6001600160a01b037f00000000000000000000000000000000000000000000000000000000000000001630036104ed5760405162461bcd60e51b815260040161037a906127e9565b7f00000000000000000000000000000000000000000000000000000000000000006001600160a01b0316610536600080516020612c91833981519152546001600160a01b031690565b6001600160a01b03161461055c5760405162461bcd60e51b815260040161037a90612835565b61056582611ba4565b61057182826001611ca2565b5050565b6000306001600160a01b037f000000000000000000000000000000000000000000000000000000000000000016146106155760405162461bcd60e51b815260206004820152603860248201527f555550535570677261646561626c653a206d757374206e6f742062652063616c60448201527f6c6564207468726f7567682064656c656761746563616c6c0000000000000000606482015260840161037a565b50600080516020612c9183398151915290565b60fb5460408051631d6c8e3f60e21b815290516000926001600160a01b0316916375b238fc9160048083019260209291908290030181865afa158015610672573d6000803e3d6000fd5b505050506040513d601f19601f820116820180604052508101906106969190612881565b60fb54604051632474521560e21b8152600481018390523360248201529192506001600160a01b0316906391d1485490604401602060405180830381865afa1580156106e6573d6000803e3d6000fd5b505050506040513d601f19601f8201168201806040525081019061070a919061289a565b6107265760405162461bcd60e51b815260040161037a906128bc565b5060fd80546001600160a01b0319166001600160a01b0392909216919091179055565b610751611e12565b61075b6000611e6c565b565b60fb5460408051631d6c8e3f60e21b815290516000926001600160a01b0316916375b238fc9160048083019260209291908290030181865afa1580156107a7573d6000803e3d6000fd5b505050506040513d601f19601f820116820180604052508101906107cb9190612881565b60fb54604051632474521560e21b8152600481018390523360248201529192506001600160a01b0316906391d1485490604401602060405180830381865afa15801561081b573d6000803e3d6000fd5b505050506040513d601f19601f8201168201806040525081019061083f919061289a565b61085b5760405162461bcd60e51b815260040161037a906128bc565b5060fc80546001600160a01b0319166001600160a01b0392909216919091179055565b600260c954036108a05760405162461bcd60e51b815260040161037a90612907565b600260c95560006108b086611ebe565b156108bd5750600061091b565b6108c686611f37565b156108d35750600161091b565b60405162461bcd60e51b815260206004820152601b60248201527f4f666665723a206e6f7420737570706f727420636f6e74726163740000000000604482015260640161037a565b428263ffffffff16116109695760405162461bcd60e51b81526020600482015260166024820152754f66666572203a204572726f7220456e642054696d6560501b604482015260640161037a565b826000036109b95760405162461bcd60e51b815260206004820152601a60248201527f4f66666572203a204572726f7220616d6f756e7420696e707574000000000000604482015260640161037a565b600060646109c8600a82612954565b6109d28688612967565b6109dc9190612967565b6109e6919061297e565b60fc5460405163f992e3b760e01b81526001600160a01b03898116600483015292935091169063f992e3b7906024016020604051808303816000875af1158015610a34573d6000803e3d6000fd5b505050506040513d601f19601f82011682018060405250810190610a58919061289a565b1515600114610ab75760405162461bcd60e51b815260206004820152602560248201527f4f666665723a2063616e206e6f7420757365207468697320746f6b656e206164604482015264647265737360d81b606482015260840161037a565b6001600160a01b038616610b155780341015610b155760405162461bcd60e51b815260206004820152601860248201527f4f666665723a206e6f7420656e6f75676820746f6b656e730000000000000000604482015260640161037a565b610b2186333084611f6d565b6000604051806101200160405280610b363390565b6001600160a01b03168152602001886001600160a01b03168152602001896001600160a01b03168152602001846001811115610b7457610b746124b5565b8152602080820188905260408083018a90526001600160a01b038c16600081815260ff845282812054606086015263ffffffff8a16608086015260a0909401849052835261010082528083208a8452909152812080549293508792909190610bdd908490612954565b90915550506001600160a01b03808916600090815260fe6020908152604080832080546001818101835591855293839020865160079095020180549486166001600160a01b03199586161781559286015183820180549187169186169190911790559085015160028301805491909516938116841785556060860151869593949093926001600160a81b03199092161790600160a01b908490811115610c8557610c856124b5565b02179055506080820151600382015560a0820151600482015560c0820151600582015560e082015160068201805463ffffffff90921663ffffffff198316811782556101008501519264ffffffffff191617640100000000836002811115610cef57610cef6124b5565b021790555050506001600160a01b038816600090815260ff60205260409020547f608ef8b073a94efc3f4cf04511f67c51646bb7281d271ab33dfbd1889f7636d2903388888c888d8b604051610d4c9897969594939291906129a0565b60405180910390a16001600160a01b038816600090815260ff60205260408120805460019290610d7d908490612954565b9091555050600160c9555050505050505050565b60fb5460408051631d6c8e3f60e21b815290516000926001600160a01b0316916375b238fc9160048083019260209291908290030181865afa158015610ddb573d6000803e3d6000fd5b505050506040513d601f19601f82011682018060405250810190610dff9190612881565b60fb54604051632474521560e21b8152600481018390523360248201529192506001600160a01b0316906391d1485490604401602060405180830381865afa158015610e4f573d6000803e3d6000fd5b505050506040513d601f19601f82011682018060405250810190610e73919061289a565b610e8f5760405162461bcd60e51b815260040161037a906128bc565b60fb80546001600160a01b0319166001600160a01b0384169081179091556040517fdd8c807c33d35ad7642d985aca3455e9281f5298b1c22a4aadb5a86d52df7ed190600090a25050565b600260c95403610efc5760405162461bcd60e51b815260040161037a90612907565b600260c9556001600160a01b038116600090815260fe60205260408120805484908110610f2b57610f2b6129fe565b9060005260206000209060070201905060ff6000836001600160a01b03166001600160a01b0316815260200190815260200160002054831115610fa05760405162461bcd60e51b815260206004820152600d60248201526c34b73b30b4b6321037b33332b960991b604482015260640161037a565b60006006820154640100000000900460ff166002811115610fc357610fc36124b5565b146110225760405162461bcd60e51b815260206004820152602960248201527f4f66666572203a2074686973206f66666572206973206e6f7420696e2063726560448201526861746520737461746560b81b606482015260840161037a565b80546001600160a01b0316331461108f5760405162461bcd60e51b815260206004820152602b60248201527f4f66666572203a20596f7520617265206e6f7420746865206f776e6572206f6660448201526a103a3434b99037b33332b960a91b606482015260840161037a565b6000606461109e600a82612954565b836003015484600401546110b29190612967565b6110bc9190612967565b6110c6919061297e565b60018301549091506001600160a01b03161561115557600182015460405163095ea7b360e01b8152306004820152602481018390526001600160a01b039091169063095ea7b3906044016020604051808303816000875af115801561112f573d6000803e3d6000fd5b505050506040513d601f19601f82011682018060405250810190611153919061289a565b505b60018201548254611175916001600160a01b039081169130911684611f6d565b60068201805464ff00000000191664020000000017905560058201547f8ba70ecd43b88986e244e23a7f6275983b15c973c68a8f1630ce3002e3b2981390336004850154600386015460028701546001880154600689015460405161120197969594936001600160a01b0380821694600160a01b90920460ff169391169163ffffffff909116906129a0565b60405180910390a15050600160c9555050565b600054610100900460ff16158080156112345750600054600160ff909116105b8061124e5750303b15801561124e575060005460ff166001145b6112b15760405162461bcd60e51b815260206004820152602e60248201527f496e697469616c697a61626c653a20636f6e747261637420697320616c72656160448201526d191e481a5b9a5d1a585b1a5e995960921b606482015260840161037a565b6000805460ff1916600117905580156112d4576000805461ff0019166101001790555b6112dc6120c0565b6112e5826120ef565b60fd80546001600160a01b031916331790556112ff61211f565b611307612146565b8015610571576000805461ff0019169055604051600181527f7f26b83ff96e1f2b6a682f133852f6798a09c465da95921460cefb38474024989060200160405180910390a15050565b600260c954036113725760405162461bcd60e51b815260040161037a90612907565b600260c95561138086611ebe565b1561143e57856001600160a01b0316636352211e866000815181106113a7576113a76129fe565b60200260200101516040518263ffffffff1660e01b81526004016113cd91815260200190565b602060405180830381865afa1580156113ea573d6000803e3d6000fd5b505050506040513d601f19601f8201168201806040525081019061140e9190612a14565b6001600160a01b0316336001600160a01b03161461143e5760405162461bcd60e51b815260040161037a90612a31565b61144786611f37565b156115075760006001600160a01b03871662fdd58e3388600081518110611470576114706129fe565b60200260200101516040518363ffffffff1660e01b81526004016114a99291906001600160a01b03929092168252602082015260400190565b602060405180830381865afa1580156114c6573d6000803e3d6000fd5b505050506040513d601f19601f820116820180604052508101906114ea9190612881565b116115075760405162461bcd60e51b815260040161037a90612a31565b6001600160a01b038616600090815260fe60205260408120805484908110611531576115316129fe565b9060005260206000209060070201905083816003015410156115955760405162461bcd60e51b815260206004820152601960248201527f4e6f7420656e6f756768206f66666572277320616d6f756e7400000000000000604482015260640161037a565b60006006820154640100000000900460ff1660028111156115b8576115b86124b5565b146116165760405162461bcd60e51b815260206004820152602860248201527f4f666665723a2074686973206f66666572206973206e6f7420696e2063726561604482015267746520737461746560c01b606482015260840161037a565b8181600401541461167e5760405162461bcd60e51b815260206004820152602c60248201527f4f666665722773207072696365206d75737420626520657175616c20746f206360448201526b757272656e7420707269636560a01b606482015260840161037a565b60068101544263ffffffff909116116116c95760405162461bcd60e51b815260206004820152600d60248201526c13d999995c88195e1c1a5c9959609a1b604482015260640161037a565b60068101805464ff000000001916640100000000179055600060646116ef600a82612954565b8684600401546116ff9190612967565b6117099190612967565b611713919061297e565b60018301549091506001600160a01b0316156117a257600182015460405163095ea7b360e01b8152306004820152602481018390526001600160a01b039091169063095ea7b3906044016020604051808303816000875af115801561177c573d6000803e3d6000fd5b505050506040513d601f19601f820116820180604052508101906117a0919061289a565b505b60018201546117c5906001600160a01b031630336117c08988612967565b611f6d565b600182015460fd5460048401546117fc926001600160a01b039081169230929116906117f2908a90612967565b6117c09086612a76565b865160006002840154600160a01b900460ff166001811115611820576118206124b5565b036119005760005b818110156118fe576001600160a01b038a1663b88d4fde3386548c516001600160a01b03909116908d9086908110611862576118626129fe565b60209081029190910101516040516001600160e01b031960e086901b1681526001600160a01b0393841660048201529290911660248301526044820152608060648201526002608482015261060f60f31b60a482015260c401600060405180830381600087803b1580156118d557600080fd5b505af11580156118e9573d6000803e3d6000fd5b50505050806118f790612a89565b9050611828565b505b60016002840154600160a01b900460ff166001811115611922576119226124b5565b0361198f578254604051631759616b60e11b81526001600160a01b038b811692632eb2c2d69261195c92339216908d908d90600401612add565b600060405180830381600087803b15801561197657600080fd5b505af115801561198a573d6000803e3d6000fd5b505050505b6001600160a01b03891660008181526101006020908152604080832088845282528083205493835260fe90915290208054879081106119d0576119d06129fe565b9060005260206000209060070201600301546119ec9190612a76565b6001600160a01b038a16600090815260fe60205260409020805487908110611a1657611a166129fe565b60009182526020808320600360079093020191909101929092556001600160a01b038b168152610100825260408082208783529092529081208054889290611a5f908490612a76565b909155507f6dd5d3742cdc0104ccd27491dd48e911f943a1cb0ef6af4c2b73c89131c1e8bc905085338560000160009054906101000a90046001600160a01b031686600401548c8c8c8a60020160009054906101000a90046001600160a01b03168b60020160149054906101000a900460ff168c60010160009054906101000a90046001600160a01b03168d60060160009054906101000a900463ffffffff16604051611b169b9a99989796959493929190612b3d565b60405180910390a15050600160c95550505050505050565b611b36611e12565b6001600160a01b038116611b9b5760405162461bcd60e51b815260206004820152602660248201527f4f776e61626c653a206e6577206f776e657220697320746865207a65726f206160448201526564647265737360d01b606482015260840161037a565b61041781611e6c565b60fb5460408051631d6c8e3f60e21b815290516000926001600160a01b0316916375b238fc9160048083019260209291908290030181865afa158015611bee573d6000803e3d6000fd5b505050506040513d601f19601f82011682018060405250810190611c129190612881565b60fb54604051632474521560e21b8152600481018390523360248201529192506001600160a01b0316906391d1485490604401602060405180830381865afa158015611c62573d6000803e3d6000fd5b505050506040513d601f19601f82011682018060405250810190611c86919061289a565b6105715760405162461bcd60e51b815260040161037a906128bc565b7f4910fdfa16fed3260ed0e7147f7cc6da11a60208b5b9406d12a635614ffd91435460ff1615611cda57611cd583612175565b505050565b826001600160a01b03166352d1902d6040518163ffffffff1660e01b8152600401602060405180830381865afa925050508015611d34575060408051601f3d908101601f19168201909252611d3191810190612881565b60015b611d975760405162461bcd60e51b815260206004820152602e60248201527f45524331393637557067726164653a206e657720696d706c656d656e7461746960448201526d6f6e206973206e6f74205555505360901b606482015260840161037a565b600080516020612c918339815191528114611e065760405162461bcd60e51b815260206004820152602960248201527f45524331393637557067726164653a20756e737570706f727465642070726f786044820152681a58589b195555525160ba1b606482015260840161037a565b50611cd5838383612211565b6033546001600160a01b0316331461075b5760405162461bcd60e51b815260206004820181905260248201527f4f776e61626c653a2063616c6c6572206973206e6f7420746865206f776e6572604482015260640161037a565b603380546001600160a01b038381166001600160a01b0319831681179093556040519116919082907f8be0079c531659141344cd1fd0a4f28419497f9722a3daafe3b4186f6b6457e090600090a35050565b6040516301ffc9a760e01b81526380ac58cd60e01b60048201526000906001600160a01b038316906301ffc9a7906024015b602060405180830381865afa158015611f0d573d6000803e3d6000fd5b505050506040513d601f19601f82011682018060405250810190611f31919061289a565b92915050565b6040516301ffc9a760e01b8152636cdb3d1360e11b60048201526000906001600160a01b038316906301ffc9a790602401611ef0565b60006001600160a01b038516611fee57306001600160a01b03841603611f955750600161206c565b6040516001600160a01b038416908390600081818185875af1925050503d8060008114611fde576040519150601f19603f3d011682016040523d82523d6000602084013e611fe3565b606091505b50508091505061206c565b6040516323b872dd60e01b81526001600160a01b0385811660048301528481166024830152604482018490528616906323b872dd906064016020604051808303816000875af1158015612045573d6000803e3d6000fd5b505050506040513d601f19601f82011682018060405250810190612069919061289a565b90505b806120b95760405162461bcd60e51b815260206004820152601d60248201527f4f666665723a205472616e73666572204552433230206661696c656421000000604482015260640161037a565b5050505050565b600054610100900460ff166120e75760405162461bcd60e51b815260040161037a90612bd2565b61075b61223c565b600054610100900460ff166121165760405162461bcd60e51b815260040161037a90612bd2565b6104178161226c565b600054610100900460ff1661075b5760405162461bcd60e51b815260040161037a90612bd2565b600054610100900460ff1661216d5760405162461bcd60e51b815260040161037a90612bd2565b61075b6122b5565b6001600160a01b0381163b6121e25760405162461bcd60e51b815260206004820152602d60248201527f455243313936373a206e657720696d706c656d656e746174696f6e206973206e60448201526c1bdd08184818dbdb9d1c9858dd609a1b606482015260840161037a565b600080516020612c9183398151915280546001600160a01b0319166001600160a01b0392909216919091179055565b61221a836122e3565b6000825111806122275750805b15611cd5576122368383612323565b50505050565b600054610100900460ff166122635760405162461bcd60e51b815260040161037a90612bd2565b61075b33611e6c565b600054610100900460ff166122935760405162461bcd60e51b815260040161037a90612bd2565b60fb80546001600160a01b0319166001600160a01b0392909216919091179055565b600054610100900460ff166122dc5760405162461bcd60e51b815260040161037a90612bd2565b600160c955565b6122ec81612175565b6040516001600160a01b038216907fbc7cd75a20ee27fd9adebab32041f755214dbc6bffa90cc0225b39da2e5c2d3b90600090a250565b60606001600160a01b0383163b61238b5760405162461bcd60e51b815260206004820152602660248201527f416464726573733a2064656c65676174652063616c6c20746f206e6f6e2d636f6044820152651b9d1c9858dd60d21b606482015260840161037a565b600080846001600160a01b0316846040516123a69190612c41565b600060405180830381855af49150503d80600081146123e1576040519150601f19603f3d011682016040523d82523d6000602084013e6123e6565b606091505b509150915061240e8282604051806060016040528060278152602001612cb160279139612417565b95945050505050565b60608315612426575081612450565b8251156124365782518084602001fd5b8160405162461bcd60e51b815260040161037a9190612c5d565b9392505050565b6001600160a01b038116811461041757600080fd5b60006020828403121561247e57600080fd5b813561245081612457565b6000806040838503121561249c57600080fd5b82356124a781612457565b946020939093013593505050565b634e487b7160e01b600052602160045260246000fd5b600281106124db576124db6124b5565b9052565b6001600160a01b038a81168252898116602083015288166040820152610120810161250d60608301896124cb565b8660808301528560a08301528460c083015263ffffffff841660e08301526003831061253b5761253b6124b5565b826101008301529a9950505050505050505050565b634e487b7160e01b600052604160045260246000fd5b604051601f8201601f1916810167ffffffffffffffff8111828210171561258f5761258f612550565b604052919050565b600080604083850312156125aa57600080fd5b82356125b581612457565b915060208381013567ffffffffffffffff808211156125d357600080fd5b818601915086601f8301126125e757600080fd5b8135818111156125f9576125f9612550565b61260b601f8201601f19168501612566565b9150808252878482850101111561262157600080fd5b80848401858401376000848284010152508093505050509250929050565b600080600080600060a0868803121561265757600080fd5b853561266281612457565b9450602086013561267281612457565b93506040860135925060608601359150608086013563ffffffff8116811461269957600080fd5b809150509295509295909350565b600080604083850312156126ba57600080fd5b8235915060208301356126cc81612457565b809150509250929050565b600082601f8301126126e857600080fd5b8135602067ffffffffffffffff82111561270457612704612550565b8160051b612713828201612566565b928352848101820192828101908785111561272d57600080fd5b83870192505b8483101561274c57823582529183019190830190612733565b979650505050505050565b60008060008060008060c0878903121561277057600080fd5b863561277b81612457565b9550602087013567ffffffffffffffff8082111561279857600080fd5b6127a48a838b016126d7565b965060408901359150808211156127ba57600080fd5b506127c789828a016126d7565b945050606087013592506080870135915060a087013590509295509295509295565b6020808252602c908201527f46756e6374696f6e206d7573742062652063616c6c6564207468726f7567682060408201526b19195b1959d85d1958d85b1b60a21b606082015260800190565b6020808252602c908201527f46756e6374696f6e206d7573742062652063616c6c6564207468726f7567682060408201526b6163746976652070726f787960a01b606082015260800190565b60006020828403121561289357600080fd5b5051919050565b6000602082840312156128ac57600080fd5b8151801515811461245057600080fd5b6020808252602b908201527f57686974656c697374577261707065723a20596f7520646f6e2774206861766560408201526a2061646d696e20726f6c6560a81b606082015260800190565b6020808252601f908201527f5265656e7472616e637947756172643a207265656e7472616e742063616c6c00604082015260600190565b634e487b7160e01b600052601160045260246000fd5b80820180821115611f3157611f3161293e565b8082028115828204841417611f3157611f3161293e565b60008261299b57634e487b7160e01b600052601260045260246000fd5b500490565b8881526001600160a01b038881166020830152604082018890526060820187905285811660808301526101008201906129dc60a08401876124cb565b80851660c08401525063ffffffff831660e08301529998505050505050505050565b634e487b7160e01b600052603260045260246000fd5b600060208284031215612a2657600080fd5b815161245081612457565b60208082526025908201527f596f7520617265206e6f7420746865206f776e6572206f66207468697320746f6040820152646b656e202160d81b606082015260800190565b81810381811115611f3157611f3161293e565b600060018201612a9b57612a9b61293e565b5060010190565b600081518084526020808501945080840160005b83811015612ad257815187529582019590820190600101612ab6565b509495945050505050565b6001600160a01b0385811682528416602082015260a060408201819052600090612b0990830185612aa2565b8281036060840152612b1b8185612aa2565b83810360808501526002815261060f60f31b602082015290506040810161274c565b8b81526001600160a01b038b811660208301528a81166040830152606082018a905261016060808301819052600091612b788483018c612aa2565b915083820360a0850152612b8c828b612aa2565b92508860c085015280881660e0850152612baa6101008501886124cb565b808616610120850152505063ffffffff83166101408301529c9b505050505050505050505050565b6020808252602b908201527f496e697469616c697a61626c653a20636f6e7472616374206973206e6f74206960408201526a6e697469616c697a696e6760a81b606082015260800190565b60005b83811015612c38578181015183820152602001612c20565b50506000910152565b60008251612c53818460208701612c1d565b9190910192915050565b6020815260008251806020840152612c7c816040850160208701612c1d565b601f01601f1916919091016040019291505056fe360894a13ba1a3210667c828492db98dca3e2076cc3735a920a3ca505d382bbc416464726573733a206c6f772d6c6576656c2064656c65676174652063616c6c206661696c6564a164736f6c6343000811000a",
  "linkReferences": {},
  "deployedLinkReferences": {}
}