{
  "_format": "hh-sol-artifact-1",
  "contractName": "ERC721RentableMock",
  "sourceName": "contracts/mock/ERC721RentableMock.sol",
  "abi": [
    {
      "inputs": [],
      "stateMutability": "nonpayable",
      "type": "constructor"
    },
    {
      "anonymous": false,
      "inputs": [
        {
          "indexed": true,
          "internalType": "address",
          "name": "owner",
          "type": "address"
        },
        {
          "indexed": true,
          "internalType": "address",
          "name": "approved",
          "type": "address"
        },
        {
          "indexed": true,
          "internalType": "uint256",
          "name": "tokenId",
          "type": "uint256"
        }
      ],
      "name": "Approval",
      "type": "event"
    },
    {
      "anonymous": false,
      "inputs": [
        {
          "indexed": true,
          "internalType": "address",
          "name": "owner",
          "type": "address"
        },
        {
          "indexed": true,
          "internalType": "address",
          "name": "operator",
          "type": "address"
        },
        {
          "indexed": false,
          "internalType": "bool",
          "name": "approved",
          "type": "bool"
        }
      ],
      "name": "ApprovalForAll",
      "type": "event"
    },
    {
      "anonymous": false,
      "inputs": [
        {
          "indexed": true,
          "internalType": "address",
          "name": "from",
          "type": "address"
        },
        {
          "indexed": true,
          "internalType": "address",
          "name": "to",
          "type": "address"
        },
        {
          "indexed": true,
          "internalType": "uint256",
          "name": "tokenId",
          "type": "uint256"
        }
      ],
      "name": "Transfer",
      "type": "event"
    },
    {
      "anonymous": false,
      "inputs": [
        {
          "indexed": true,
          "internalType": "uint256",
          "name": "tokenId",
          "type": "uint256"
        },
        {
          "indexed": true,
          "internalType": "address",
          "name": "user",
          "type": "address"
        },
        {
          "indexed": false,
          "internalType": "uint64",
          "name": "expires",
          "type": "uint64"
        }
      ],
      "name": "UpdateUser",
      "type": "event"
    },
    {
      "inputs": [
        {
          "internalType": "address",
          "name": "to",
          "type": "address"
        },
        {
          "internalType": "uint256",
          "name": "tokenId",
          "type": "uint256"
        }
      ],
      "name": "approve",
      "outputs": [],
      "stateMutability": "nonpayable",
      "type": "function"
    },
    {
      "inputs": [
        {
          "internalType": "address",
          "name": "owner",
          "type": "address"
        }
      ],
      "name": "balanceOf",
      "outputs": [
        {
          "internalType": "uint256",
          "name": "",
          "type": "uint256"
        }
      ],
      "stateMutability": "view",
      "type": "function"
    },
    {
      "inputs": [
        {
          "internalType": "uint256",
          "name": "tokenId",
          "type": "uint256"
        }
      ],
      "name": "getApproved",
      "outputs": [
        {
          "internalType": "address",
          "name": "",
          "type": "address"
        }
      ],
      "stateMutability": "view",
      "type": "function"
    },
    {
      "inputs": [
        {
          "internalType": "address",
          "name": "owner",
          "type": "address"
        },
        {
          "internalType": "address",
          "name": "operator",
          "type": "address"
        }
      ],
      "name": "isApprovedForAll",
      "outputs": [
        {
          "internalType": "bool",
          "name": "",
          "type": "bool"
        }
      ],
      "stateMutability": "view",
      "type": "function"
    },
    {
      "inputs": [],
      "name": "name",
      "outputs": [
        {
          "internalType": "string",
          "name": "",
          "type": "string"
        }
      ],
      "stateMutability": "view",
      "type": "function"
    },
    {
      "inputs": [],
      "name": "nftMint",
      "outputs": [
        {
          "internalType": "uint256",
          "name": "",
          "type": "uint256"
        }
      ],
      "stateMutability": "nonpayable",
      "type": "function"
    },
    {
      "inputs": [
        {
          "internalType": "uint256",
          "name": "tokenId",
          "type": "uint256"
        }
      ],
      "name": "ownerOf",
      "outputs": [
        {
          "internalType": "address",
          "name": "",
          "type": "address"
        }
      ],
      "stateMutability": "view",
      "type": "function"
    },
    {
      "inputs": [
        {
          "internalType": "address",
          "name": "from",
          "type": "address"
        },
        {
          "internalType": "address",
          "name": "to",
          "type": "address"
        },
        {
          "internalType": "uint256",
          "name": "tokenId",
          "type": "uint256"
        }
      ],
      "name": "safeTransferFrom",
      "outputs": [],
      "stateMutability": "nonpayable",
      "type": "function"
    },
    {
      "inputs": [
        {
          "internalType": "address",
          "name": "from",
          "type": "address"
        },
        {
          "internalType": "address",
          "name": "to",
          "type": "address"
        },
        {
          "internalType": "uint256",
          "name": "tokenId",
          "type": "uint256"
        },
        {
          "internalType": "bytes",
          "name": "data",
          "type": "bytes"
        }
      ],
      "name": "safeTransferFrom",
      "outputs": [],
      "stateMutability": "nonpayable",
      "type": "function"
    },
    {
      "inputs": [
        {
          "internalType": "address",
          "name": "operator",
          "type": "address"
        },
        {
          "internalType": "bool",
          "name": "approved",
          "type": "bool"
        }
      ],
      "name": "setApprovalForAll",
      "outputs": [],
      "stateMutability": "nonpayable",
      "type": "function"
    },
    {
      "inputs": [
        {
          "internalType": "uint256",
          "name": "tokenId",
          "type": "uint256"
        },
        {
          "internalType": "address",
          "name": "user",
          "type": "address"
        },
        {
          "internalType": "uint64",
          "name": "expires",
          "type": "uint64"
        }
      ],
      "name": "setUser",
      "outputs": [],
      "stateMutability": "nonpayable",
      "type": "function"
    },
    {
      "inputs": [
        {
          "internalType": "bytes4",
          "name": "interfaceId",
          "type": "bytes4"
        }
      ],
      "name": "supportsInterface",
      "outputs": [
        {
          "internalType": "bool",
          "name": "",
          "type": "bool"
        }
      ],
      "stateMutability": "view",
      "type": "function"
    },
    {
      "inputs": [],
      "name": "symbol",
      "outputs": [
        {
          "internalType": "string",
          "name": "",
          "type": "string"
        }
      ],
      "stateMutability": "view",
      "type": "function"
    },
    {
      "inputs": [
        {
          "internalType": "uint256",
          "name": "tokenId",
          "type": "uint256"
        }
      ],
      "name": "tokenURI",
      "outputs": [
        {
          "internalType": "string",
          "name": "",
          "type": "string"
        }
      ],
      "stateMutability": "view",
      "type": "function"
    },
    {
      "inputs": [
        {
          "internalType": "address",
          "name": "from",
          "type": "address"
        },
        {
          "internalType": "address",
          "name": "to",
          "type": "address"
        },
        {
          "internalType": "uint256",
          "name": "tokenId",
          "type": "uint256"
        }
      ],
      "name": "transferFrom",
      "outputs": [],
      "stateMutability": "nonpayable",
      "type": "function"
    },
    {
      "inputs": [
        {
          "internalType": "uint256",
          "name": "tokenId",
          "type": "uint256"
        }
      ],
      "name": "userExpires",
      "outputs": [
        {
          "internalType": "uint256",
          "name": "",
          "type": "uint256"
        }
      ],
      "stateMutability": "view",
      "type": "function"
    },
    {
      "inputs": [
        {
          "internalType": "uint256",
          "name": "tokenId",
          "type": "uint256"
        }
      ],
      "name": "userOf",
      "outputs": [
        {
          "internalType": "address",
          "name": "",
          "type": "address"
        }
      ],
      "stateMutability": "view",
      "type": "function"
    }
  ],
  "bytecode": "0x60806040523480156200001157600080fd5b506040518060400160405280600b81526020016a14995b9d18589b1953919560aa1b815250604051806040016040528060048152602001631493919560e21b815250816000908162000064919062000121565b50600162000073828262000121565b505050620001ed565b634e487b7160e01b600052604160045260246000fd5b600181811c90821680620000a757607f821691505b602082108103620000c857634e487b7160e01b600052602260045260246000fd5b50919050565b601f8211156200011c57600081815260208120601f850160051c81016020861015620000f75750805b601f850160051c820191505b81811015620001185782815560010162000103565b5050505b505050565b81516001600160401b038111156200013d576200013d6200007c565b62000155816200014e845462000092565b84620000ce565b602080601f8311600181146200018d5760008415620001745750858301515b600019600386901b1c1916600185901b17855562000118565b600085815260208120601f198616915b82811015620001be578886015182559484019460019091019084016200019d565b5085821015620001dd5787850151600019600388901b60f8161c191681555b5050505050600190811b01905550565b61158880620001fd6000396000f3fe608060405234801561001057600080fd5b506004361061010b5760003560e01c8063719414b4116100a2578063b88d4fde11610071578063b88d4fde1461023b578063c2f1f14a1461024e578063c87b56dd14610261578063e030565e14610274578063e985e9c51461028757600080fd5b8063719414b4146101e75780638fc88c48146101ef57806395d89b4114610220578063a22cb4651461022857600080fd5b806323b872dd116100de57806323b872dd1461018d57806342842e0e146101a05780636352211e146101b357806370a08231146101c657600080fd5b806301ffc9a71461011057806306fdde0314610138578063081812fc1461014d578063095ea7b314610178575b600080fd5b61012361011e366004611090565b61029a565b60405190151581526020015b60405180910390f35b6101406102c5565b60405161012f91906110fd565b61016061015b366004611110565b610357565b6040516001600160a01b03909116815260200161012f565b61018b610186366004611140565b61037e565b005b61018b61019b36600461116a565b610498565b61018b6101ae36600461116a565b6104c9565b6101606101c1366004611110565b6104e4565b6101d96101d43660046111a6565b610544565b60405190815260200161012f565b6101d96105ca565b6101d96101fd366004611110565b600090815260076020526040902054600160a01b900467ffffffffffffffff1690565b6101406105f6565b61018b6102363660046111c1565b610605565b61018b610249366004611213565b610614565b61016061025c366004611110565b61064c565b61014061026f366004611110565b610697565b61018b6102823660046112ef565b61070b565b61012361029536600461133c565b6107fd565b60006001600160e01b03198216632b424ad760e21b14806102bf57506102bf8261082b565b92915050565b6060600080546102d49061136f565b80601f01602080910402602001604051908101604052809291908181526020018280546103009061136f565b801561034d5780601f106103225761010080835404028352916020019161034d565b820191906000526020600020905b81548152906001019060200180831161033057829003601f168201915b5050505050905090565b60006103628261087b565b506000908152600460205260409020546001600160a01b031690565b6000610389826104e4565b9050806001600160a01b0316836001600160a01b0316036103fb5760405162461bcd60e51b815260206004820152602160248201527f4552433732313a20617070726f76616c20746f2063757272656e74206f776e656044820152603960f91b60648201526084015b60405180910390fd5b336001600160a01b0382161480610417575061041781336107fd565b6104895760405162461bcd60e51b815260206004820152603e60248201527f4552433732313a20617070726f76652063616c6c6572206973206e6f7420746f60448201527f6b656e206f776e6572206e6f7220617070726f76656420666f7220616c6c000060648201526084016103f2565b61049383836108dd565b505050565b6104a2338261094b565b6104be5760405162461bcd60e51b81526004016103f2906113a9565b6104938383836109aa565b61049383838360405180602001604052806000815250610614565b6000818152600260205260408120546001600160a01b0316806102bf5760405162461bcd60e51b8152602060048201526018602482015277115490cdcc8c4e881a5b9d985b1a59081d1bdad95b88125160421b60448201526064016103f2565b60006001600160a01b0382166105ae5760405162461bcd60e51b815260206004820152602960248201527f4552433732313a2061646472657373207a65726f206973206e6f7420612076616044820152683634b21037bbb732b960b91b60648201526084016103f2565b506001600160a01b031660009081526003602052604090205490565b60006105da600680546001019055565b60006105e560065490565b90506105f13382610b51565b919050565b6060600180546102d49061136f565b610610338383610b6b565b5050565b61061e338361094b565b61063a5760405162461bcd60e51b81526004016103f2906113a9565b61064684848484610c3a565b50505050565b60008181526007602052604081205442600160a01b90910467ffffffffffffffff161061068f57506000908152600760205260409020546001600160a01b031690565b506000919050565b60606106a28261087b565b60006106b960408051602081019091526000815290565b905060008151116106d95760405180602001604052806000815250610704565b806106e384610c6d565b6040516020016106f49291906113f7565b6040516020818303038152906040525b9392505050565b610715338461094b565b61077c5760405162461bcd60e51b815260206004820152603260248201527f455243343930373a207472616e736665722063616c6c6572206973206e6f74206044820152711bdddb995c881b9bdc88185c1c1c9bdd995960721b60648201526084016103f2565b60008381526007602090815260409182902080546001600160a01b0386166001600160e01b03199091168117600160a01b67ffffffffffffffff871690810291909117835593519384529092909186917f4e06b4e7000e659094299b3533b47b6aa8ad048e95e872d23d1f4ee55af89cfe910160405180910390a350505050565b6001600160a01b03918216600090815260056020908152604080832093909416825291909152205460ff1690565b60006001600160e01b031982166380ac58cd60e01b148061085c57506001600160e01b03198216635b5e139f60e01b145b806102bf57506301ffc9a760e01b6001600160e01b03198316146102bf565b6000818152600260205260409020546001600160a01b03166108da5760405162461bcd60e51b8152602060048201526018602482015277115490cdcc8c4e881a5b9d985b1a59081d1bdad95b88125160421b60448201526064016103f2565b50565b600081815260046020526040902080546001600160a01b0319166001600160a01b0384169081179091558190610912826104e4565b6001600160a01b03167f8c5be1e5ebec7d5bd14f71427d1e84f3dd0314c0f7b2291e5b200ac8c7c3b92560405160405180910390a45050565b600080610957836104e4565b9050806001600160a01b0316846001600160a01b0316148061097e575061097e81856107fd565b806109a25750836001600160a01b031661099784610357565b6001600160a01b0316145b949350505050565b826001600160a01b03166109bd826104e4565b6001600160a01b031614610a215760405162461bcd60e51b815260206004820152602560248201527f4552433732313a207472616e736665722066726f6d20696e636f72726563742060448201526437bbb732b960d91b60648201526084016103f2565b6001600160a01b038216610a835760405162461bcd60e51b8152602060048201526024808201527f4552433732313a207472616e7366657220746f20746865207a65726f206164646044820152637265737360e01b60648201526084016103f2565b610a8e838383610d6e565b610a996000826108dd565b6001600160a01b0383166000908152600360205260408120805460019290610ac290849061143c565b90915550506001600160a01b0382166000908152600360205260408120805460019290610af090849061144f565b909155505060008181526002602052604080822080546001600160a01b0319166001600160a01b0386811691821790925591518493918716917fddf252ad1be2c89b69c2b068fc378daa952ba7f163c4a11628f55a4df523b3ef91a4505050565b610610828260405180602001604052806000815250610df8565b816001600160a01b0316836001600160a01b031603610bcc5760405162461bcd60e51b815260206004820152601960248201527f4552433732313a20617070726f766520746f2063616c6c65720000000000000060448201526064016103f2565b6001600160a01b03838116600081815260056020908152604080832094871680845294825291829020805460ff191686151590811790915591519182527f17307eab39ab6107e8899845ad3d59bd9653f200f220920489ca2b5937696c3191015b60405180910390a3505050565b610c458484846109aa565b610c5184848484610e2b565b6106465760405162461bcd60e51b81526004016103f290611462565b606081600003610c945750506040805180820190915260018152600360fc1b602082015290565b8160005b8115610cbe5780610ca8816114b4565b9150610cb79050600a836114e3565b9150610c98565b60008167ffffffffffffffff811115610cd957610cd96111fd565b6040519080825280601f01601f191660200182016040528015610d03576020820181803683370190505b5090505b84156109a257610d1860018361143c565b9150610d25600a866114f7565b610d3090603061144f565b60f81b818381518110610d4557610d4561150b565b60200101906001600160f81b031916908160001a905350610d67600a866114e3565b9450610d07565b816001600160a01b0316836001600160a01b031614158015610da657506000818152600760205260409020546001600160a01b031615155b1561049357600081815260076020908152604080832080546001600160e01b03191690555182815283917f4e06b4e7000e659094299b3533b47b6aa8ad048e95e872d23d1f4ee55af89cfe9101610c2d565b610e028383610f2c565b610e0f6000848484610e2b565b6104935760405162461bcd60e51b81526004016103f290611462565b60006001600160a01b0384163b15610f2157604051630a85bd0160e11b81526001600160a01b0385169063150b7a0290610e6f903390899088908890600401611521565b6020604051808303816000875af1925050508015610eaa575060408051601f3d908101601f19168201909252610ea79181019061155e565b60015b610f07573d808015610ed8576040519150601f19603f3d011682016040523d82523d6000602084013e610edd565b606091505b508051600003610eff5760405162461bcd60e51b81526004016103f290611462565b805181602001fd5b6001600160e01b031916630a85bd0160e11b1490506109a2565b506001949350505050565b6001600160a01b038216610f825760405162461bcd60e51b815260206004820181905260248201527f4552433732313a206d696e7420746f20746865207a65726f206164647265737360448201526064016103f2565b6000818152600260205260409020546001600160a01b031615610fe75760405162461bcd60e51b815260206004820152601c60248201527f4552433732313a20746f6b656e20616c7265616479206d696e7465640000000060448201526064016103f2565b610ff360008383610d6e565b6001600160a01b038216600090815260036020526040812080546001929061101c90849061144f565b909155505060008181526002602052604080822080546001600160a01b0319166001600160a01b03861690811790915590518392907fddf252ad1be2c89b69c2b068fc378daa952ba7f163c4a11628f55a4df523b3ef908290a45050565b6001600160e01b0319811681146108da57600080fd5b6000602082840312156110a257600080fd5b81356107048161107a565b60005b838110156110c85781810151838201526020016110b0565b50506000910152565b600081518084526110e98160208601602086016110ad565b601f01601f19169290920160200192915050565b60208152600061070460208301846110d1565b60006020828403121561112257600080fd5b5035919050565b80356001600160a01b03811681146105f157600080fd5b6000806040838503121561115357600080fd5b61115c83611129565b946020939093013593505050565b60008060006060848603121561117f57600080fd5b61118884611129565b925061119660208501611129565b9150604084013590509250925092565b6000602082840312156111b857600080fd5b61070482611129565b600080604083850312156111d457600080fd5b6111dd83611129565b9150602083013580151581146111f257600080fd5b809150509250929050565b634e487b7160e01b600052604160045260246000fd5b6000806000806080858703121561122957600080fd5b61123285611129565b935061124060208601611129565b925060408501359150606085013567ffffffffffffffff8082111561126457600080fd5b818701915087601f83011261127857600080fd5b81358181111561128a5761128a6111fd565b604051601f8201601f19908116603f011681019083821181831017156112b2576112b26111fd565b816040528281528a60208487010111156112cb57600080fd5b82602086016020830137600060208483010152809550505050505092959194509250565b60008060006060848603121561130457600080fd5b8335925061131460208501611129565b9150604084013567ffffffffffffffff8116811461133157600080fd5b809150509250925092565b6000806040838503121561134f57600080fd5b61135883611129565b915061136660208401611129565b90509250929050565b600181811c9082168061138357607f821691505b6020821081036113a357634e487b7160e01b600052602260045260246000fd5b50919050565b6020808252602e908201527f4552433732313a2063616c6c6572206973206e6f7420746f6b656e206f776e6560408201526d1c881b9bdc88185c1c1c9bdd995960921b606082015260800190565b600083516114098184602088016110ad565b83519083019061141d8183602088016110ad565b01949350505050565b634e487b7160e01b600052601160045260246000fd5b818103818111156102bf576102bf611426565b808201808211156102bf576102bf611426565b60208082526032908201527f4552433732313a207472616e7366657220746f206e6f6e20455243373231526560408201527131b2b4bb32b91034b6b83632b6b2b73a32b960711b606082015260800190565b6000600182016114c6576114c6611426565b5060010190565b634e487b7160e01b600052601260045260246000fd5b6000826114f2576114f26114cd565b500490565b600082611506576115066114cd565b500690565b634e487b7160e01b600052603260045260246000fd5b6001600160a01b0385811682528416602082015260408101839052608060608201819052600090611554908301846110d1565b9695505050505050565b60006020828403121561157057600080fd5b81516107048161107a56fea164736f6c6343000811000a",
  "linkReferences": {},
  "deployedLinkReferences": {}
}