{
  "_format": "hh-sol-artifact-1",
  "contractName": "Marketplace",
  "sourceName": "contracts/standard/core/Marketplace.sol",
  "abi": [
    {
      "inputs": [],
      "stateMutability": "nonpayable",
      "type": "constructor"
    },
    {
      "anonymous": false,
      "inputs": [
        {
          "indexed": false,
          "internalType": "address",
          "name": "previousAdmin",
          "type": "address"
        },
        {
          "indexed": false,
          "internalType": "address",
          "name": "newAdmin",
          "type": "address"
        }
      ],
      "name": "AdminChanged",
      "type": "event"
    },
    {
      "anonymous": false,
      "inputs": [
        {
          "indexed": true,
          "internalType": "address",
          "name": "beacon",
          "type": "address"
        }
      ],
      "name": "BeaconUpgraded",
      "type": "event"
    },
    {
      "anonymous": false,
      "inputs": [
        {
          "indexed": false,
          "internalType": "uint256",
          "name": "marketId",
          "type": "uint256"
        },
        {
          "indexed": false,
          "internalType": "address",
          "name": "from",
          "type": "address"
        },
        {
          "indexed": false,
          "internalType": "address",
          "name": "to",
          "type": "address"
        },
        {
          "indexed": false,
          "internalType": "uint256",
          "name": "quantity",
          "type": "uint256"
        },
        {
          "indexed": false,
          "internalType": "address",
          "name": "contractNFT",
          "type": "address"
        },
        {
          "indexed": false,
          "internalType": "uint256",
          "name": "tokenId",
          "type": "uint256"
        },
        {
          "indexed": false,
          "internalType": "address",
          "name": "contractERC20",
          "type": "address"
        },
        {
          "indexed": false,
          "internalType": "uint256",
          "name": "price",
          "type": "uint256"
        }
      ],
      "name": "CancelListing",
      "type": "event"
    },
    {
      "anonymous": false,
      "inputs": [
        {
          "indexed": false,
          "internalType": "uint8",
          "name": "version",
          "type": "uint8"
        }
      ],
      "name": "Initialized",
      "type": "event"
    },
    {
      "anonymous": false,
      "inputs": [
        {
          "indexed": false,
          "internalType": "uint256",
          "name": "marketId",
          "type": "uint256"
        },
        {
          "indexed": false,
          "internalType": "address",
          "name": "from",
          "type": "address"
        },
        {
          "indexed": false,
          "internalType": "address",
          "name": "to",
          "type": "address"
        },
        {
          "indexed": false,
          "internalType": "uint256",
          "name": "quantity",
          "type": "uint256"
        },
        {
          "indexed": false,
          "internalType": "address",
          "name": "contractNFT",
          "type": "address"
        },
        {
          "indexed": false,
          "internalType": "uint256",
          "name": "tokenId",
          "type": "uint256"
        },
        {
          "indexed": false,
          "internalType": "address",
          "name": "contractERC20",
          "type": "address"
        },
        {
          "indexed": false,
          "internalType": "uint256",
          "name": "price",
          "type": "uint256"
        }
      ],
      "name": "ListingBulkItem",
      "type": "event"
    },
    {
      "anonymous": false,
      "inputs": [
        {
          "indexed": false,
          "internalType": "uint256",
          "name": "marketId",
          "type": "uint256"
        },
        {
          "indexed": false,
          "internalType": "address",
          "name": "from",
          "type": "address"
        },
        {
          "indexed": false,
          "internalType": "address",
          "name": "to",
          "type": "address"
        },
        {
          "indexed": false,
          "internalType": "uint256",
          "name": "quantity",
          "type": "uint256"
        },
        {
          "indexed": false,
          "internalType": "address",
          "name": "contractNFT",
          "type": "address"
        },
        {
          "indexed": false,
          "internalType": "uint256",
          "name": "tokenId",
          "type": "uint256"
        },
        {
          "indexed": false,
          "internalType": "address",
          "name": "contractERC20",
          "type": "address"
        },
        {
          "indexed": false,
          "internalType": "uint256",
          "name": "price",
          "type": "uint256"
        }
      ],
      "name": "ListingItem",
      "type": "event"
    },
    {
      "anonymous": false,
      "inputs": [
        {
          "indexed": true,
          "internalType": "address",
          "name": "previousOwner",
          "type": "address"
        },
        {
          "indexed": true,
          "internalType": "address",
          "name": "newOwner",
          "type": "address"
        }
      ],
      "name": "OwnershipTransferred",
      "type": "event"
    },
    {
      "anonymous": false,
      "inputs": [
        {
          "indexed": false,
          "internalType": "uint256",
          "name": "marketId",
          "type": "uint256"
        },
        {
          "indexed": false,
          "internalType": "address",
          "name": "from",
          "type": "address"
        },
        {
          "indexed": false,
          "internalType": "address",
          "name": "to",
          "type": "address"
        },
        {
          "indexed": false,
          "internalType": "uint256",
          "name": "quantity",
          "type": "uint256"
        },
        {
          "indexed": false,
          "internalType": "address",
          "name": "contractNFT",
          "type": "address"
        },
        {
          "indexed": false,
          "internalType": "uint256",
          "name": "tokenId",
          "type": "uint256"
        },
        {
          "indexed": false,
          "internalType": "address",
          "name": "contractERC20",
          "type": "address"
        },
        {
          "indexed": false,
          "internalType": "uint256",
          "name": "price",
          "type": "uint256"
        }
      ],
      "name": "SaleItem",
      "type": "event"
    },
    {
      "anonymous": false,
      "inputs": [
        {
          "indexed": false,
          "internalType": "uint256",
          "name": "marketId",
          "type": "uint256"
        },
        {
          "indexed": false,
          "internalType": "address",
          "name": "from",
          "type": "address"
        },
        {
          "indexed": false,
          "internalType": "address",
          "name": "to",
          "type": "address"
        },
        {
          "indexed": false,
          "internalType": "uint256",
          "name": "quantity",
          "type": "uint256"
        },
        {
          "indexed": false,
          "internalType": "address",
          "name": "contractNFT",
          "type": "address"
        },
        {
          "indexed": false,
          "internalType": "uint256",
          "name": "tokenId",
          "type": "uint256"
        },
        {
          "indexed": false,
          "internalType": "address",
          "name": "contractERC20",
          "type": "address"
        },
        {
          "indexed": false,
          "internalType": "uint256",
          "name": "price",
          "type": "uint256"
        }
      ],
      "name": "UpdatePriceItem",
      "type": "event"
    },
    {
      "anonymous": false,
      "inputs": [
        {
          "indexed": true,
          "internalType": "address",
          "name": "implementation",
          "type": "address"
        }
      ],
      "name": "Upgraded",
      "type": "event"
    },
    {
      "anonymous": false,
      "inputs": [
        {
          "indexed": true,
          "internalType": "address",
          "name": "newOwner",
          "type": "address"
        }
      ],
      "name": "WhitelistChanged",
      "type": "event"
    },
    {
      "stateMutability": "payable",
      "type": "fallback"
    },
    {
      "inputs": [],
      "name": "FEE_PER_ITEM",
      "outputs": [
        {
          "internalType": "uint256",
          "name": "",
          "type": "uint256"
        }
      ],
      "stateMutability": "view",
      "type": "function"
    },
    {
      "inputs": [],
      "name": "MAX_PERCENTAGE",
      "outputs": [
        {
          "internalType": "uint256",
          "name": "",
          "type": "uint256"
        }
      ],
      "stateMutability": "view",
      "type": "function"
    },
    {
      "inputs": [
        {
          "internalType": "address",
          "name": "_contractNFT",
          "type": "address"
        },
        {
          "internalType": "uint256",
          "name": "_tokenId",
          "type": "uint256"
        },
        {
          "internalType": "uint256",
          "name": "_storeId",
          "type": "uint256"
        },
        {
          "internalType": "uint256",
          "name": "_amount",
          "type": "uint256"
        }
      ],
      "name": "buyItem",
      "outputs": [],
      "stateMutability": "payable",
      "type": "function"
    },
    {
      "inputs": [
        {
          "internalType": "address",
          "name": "_contractNFT",
          "type": "address"
        },
        {
          "internalType": "uint256",
          "name": "_tokenId",
          "type": "uint256"
        },
        {
          "internalType": "uint256",
          "name": "_storeId",
          "type": "uint256"
        }
      ],
      "name": "cancelItem",
      "outputs": [],
      "stateMutability": "nonpayable",
      "type": "function"
    },
    {
      "inputs": [
        {
          "internalType": "address",
          "name": "_contractNFT",
          "type": "address"
        },
        {
          "internalType": "uint256",
          "name": "_tokenId",
          "type": "uint256"
        }
      ],
      "name": "getItemStoreLength",
      "outputs": [
        {
          "internalType": "uint256",
          "name": "length",
          "type": "uint256"
        }
      ],
      "stateMutability": "view",
      "type": "function"
    },
    {
      "inputs": [
        {
          "internalType": "address",
          "name": "_whitelistAddress",
          "type": "address"
        }
      ],
      "name": "initialize",
      "outputs": [],
      "stateMutability": "nonpayable",
      "type": "function"
    },
    {
      "inputs": [
        {
          "internalType": "address",
          "name": "",
          "type": "address"
        },
        {
          "internalType": "uint256",
          "name": "",
          "type": "uint256"
        },
        {
          "internalType": "uint256",
          "name": "",
          "type": "uint256"
        }
      ],
      "name": "itemStore",
      "outputs": [
        {
          "internalType": "address",
          "name": "owner",
          "type": "address"
        },
        {
          "internalType": "uint256",
          "name": "amount",
          "type": "uint256"
        },
        {
          "internalType": "address",
          "name": "contractERC20",
          "type": "address"
        },
        {
          "internalType": "uint256",
          "name": "price",
          "type": "uint256"
        },
        {
          "internalType": "enum Marketplace.ContractType",
          "name": "contractType",
          "type": "uint8"
        },
        {
          "internalType": "enum Marketplace.ItemState",
          "name": "state",
          "type": "uint8"
        }
      ],
      "stateMutability": "view",
      "type": "function"
    },
    {
      "inputs": [
        {
          "internalType": "address",
          "name": "_contractNFT",
          "type": "address"
        },
        {
          "internalType": "uint256",
          "name": "_tokenId",
          "type": "uint256"
        },
        {
          "internalType": "uint256",
          "name": "_amount",
          "type": "uint256"
        },
        {
          "internalType": "address",
          "name": "_contractERC20",
          "type": "address"
        },
        {
          "internalType": "uint256",
          "name": "_price",
          "type": "uint256"
        }
      ],
      "name": "listBulkItems",
      "outputs": [],
      "stateMutability": "nonpayable",
      "type": "function"
    },
    {
      "inputs": [
        {
          "internalType": "address",
          "name": "_contractNFT",
          "type": "address"
        },
        {
          "internalType": "uint256",
          "name": "_tokenId",
          "type": "uint256"
        },
        {
          "internalType": "address",
          "name": "_contractERC20",
          "type": "address"
        },
        {
          "internalType": "uint256",
          "name": "_price",
          "type": "uint256"
        }
      ],
      "name": "listItem",
      "outputs": [],
      "stateMutability": "nonpayable",
      "type": "function"
    },
    {
      "inputs": [
        {
          "internalType": "address",
          "name": "",
          "type": "address"
        },
        {
          "internalType": "address",
          "name": "",
          "type": "address"
        },
        {
          "internalType": "uint256[]",
          "name": "",
          "type": "uint256[]"
        },
        {
          "internalType": "uint256[]",
          "name": "",
          "type": "uint256[]"
        },
        {
          "internalType": "bytes",
          "name": "",
          "type": "bytes"
        }
      ],
      "name": "onERC1155BatchReceived",
      "outputs": [
        {
          "internalType": "bytes4",
          "name": "",
          "type": "bytes4"
        }
      ],
      "stateMutability": "nonpayable",
      "type": "function"
    },
    {
      "inputs": [
        {
          "internalType": "address",
          "name": "",
          "type": "address"
        },
        {
          "internalType": "address",
          "name": "",
          "type": "address"
        },
        {
          "internalType": "uint256",
          "name": "",
          "type": "uint256"
        },
        {
          "internalType": "uint256",
          "name": "",
          "type": "uint256"
        },
        {
          "internalType": "bytes",
          "name": "",
          "type": "bytes"
        }
      ],
      "name": "onERC1155Received",
      "outputs": [
        {
          "internalType": "bytes4",
          "name": "",
          "type": "bytes4"
        }
      ],
      "stateMutability": "nonpayable",
      "type": "function"
    },
    {
      "inputs": [
        {
          "internalType": "address",
          "name": "",
          "type": "address"
        },
        {
          "internalType": "address",
          "name": "",
          "type": "address"
        },
        {
          "internalType": "uint256",
          "name": "",
          "type": "uint256"
        },
        {
          "internalType": "bytes",
          "name": "",
          "type": "bytes"
        }
      ],
      "name": "onERC721Received",
      "outputs": [
        {
          "internalType": "bytes4",
          "name": "",
          "type": "bytes4"
        }
      ],
      "stateMutability": "nonpayable",
      "type": "function"
    },
    {
      "inputs": [],
      "name": "owner",
      "outputs": [
        {
          "internalType": "address",
          "name": "",
          "type": "address"
        }
      ],
      "stateMutability": "view",
      "type": "function"
    },
    {
      "inputs": [],
      "name": "proxiableUUID",
      "outputs": [
        {
          "internalType": "bytes32",
          "name": "",
          "type": "bytes32"
        }
      ],
      "stateMutability": "view",
      "type": "function"
    },
    {
      "inputs": [],
      "name": "renounceOwnership",
      "outputs": [],
      "stateMutability": "nonpayable",
      "type": "function"
    },
    {
      "inputs": [
        {
          "internalType": "address",
          "name": "_address",
          "type": "address"
        }
      ],
      "name": "setCurrencyAddress",
      "outputs": [],
      "stateMutability": "nonpayable",
      "type": "function"
    },
    {
      "inputs": [
        {
          "internalType": "uint256",
          "name": "_fee",
          "type": "uint256"
        }
      ],
      "name": "setFee",
      "outputs": [],
      "stateMutability": "nonpayable",
      "type": "function"
    },
    {
      "inputs": [
        {
          "internalType": "address",
          "name": "_address",
          "type": "address"
        }
      ],
      "name": "setTreasuryAddress",
      "outputs": [],
      "stateMutability": "nonpayable",
      "type": "function"
    },
    {
      "inputs": [
        {
          "internalType": "address",
          "name": "whitelistAddress_",
          "type": "address"
        }
      ],
      "name": "setWhitelistAddress",
      "outputs": [],
      "stateMutability": "nonpayable",
      "type": "function"
    },
    {
      "inputs": [
        {
          "internalType": "bytes4",
          "name": "interfaceId",
          "type": "bytes4"
        }
      ],
      "name": "supportsInterface",
      "outputs": [
        {
          "internalType": "bool",
          "name": "",
          "type": "bool"
        }
      ],
      "stateMutability": "view",
      "type": "function"
    },
    {
      "inputs": [
        {
          "internalType": "address",
          "name": "newOwner",
          "type": "address"
        }
      ],
      "name": "transferOwnership",
      "outputs": [],
      "stateMutability": "nonpayable",
      "type": "function"
    },
    {
      "inputs": [],
      "name": "treasuryAddress",
      "outputs": [
        {
          "internalType": "address",
          "name": "",
          "type": "address"
        }
      ],
      "stateMutability": "view",
      "type": "function"
    },
    {
      "inputs": [
        {
          "internalType": "address",
          "name": "_contractNFT",
          "type": "address"
        },
        {
          "internalType": "uint256",
          "name": "_tokenId",
          "type": "uint256"
        },
        {
          "internalType": "uint256",
          "name": "_storeId",
          "type": "uint256"
        },
        {
          "internalType": "uint256",
          "name": "_price",
          "type": "uint256"
        }
      ],
      "name": "updatePriceItem",
      "outputs": [],
      "stateMutability": "nonpayable",
      "type": "function"
    },
    {
      "inputs": [
        {
          "internalType": "address",
          "name": "newImplementation",
          "type": "address"
        }
      ],
      "name": "upgradeTo",
      "outputs": [],
      "stateMutability": "nonpayable",
      "type": "function"
    },
    {
      "inputs": [
        {
          "internalType": "address",
          "name": "newImplementation",
          "type": "address"
        },
        {
          "internalType": "bytes",
          "name": "data",
          "type": "bytes"
        }
      ],
      "name": "upgradeToAndCall",
      "outputs": [],
      "stateMutability": "payable",
      "type": "function"
    }
  ],
  "bytecode": "0x60a0604052306080523480156200001557600080fd5b506200002062000026565b620000e8565b600054610100900460ff1615620000935760405162461bcd60e51b815260206004820152602760248201527f496e697469616c697a61626c653a20636f6e747261637420697320696e697469604482015266616c697a696e6760c81b606482015260840160405180910390fd5b60005460ff9081161015620000e6576000805460ff191660ff9081179091556040519081527f7f26b83ff96e1f2b6a682f133852f6798a09c465da95921460cefb38474024989060200160405180910390a15b565b60805161334d620001206000396000818161080701528181610847015281816108e60152818161092601526109b9015261334d6000f3fe60806040526004361061015a5760003560e01c806369fe0e2d116100c8578063bc197c8111610084578063d54182e811610061578063d54182e81461043b578063ee8ac70f1461045b578063f23a6e6114610472578063f2fde38b1461049e57005b8063bc197c81146103ce578063c4d66de8146103fa578063c5f956af1461041a57005b806369fe0e2d146102f5578063715018a614610315578063796b89ec1461032a5780638da5cb5b1461034a578063a224c7451461037c578063b534a4d91461039c57005b80634c255c97116101175780634c255c97146102485780634f1ef2861461026d57806352d1902d1461028057806355a102881461029557806360ee1848146102b55780636605bfda146102d557005b806301ffc9a71461015c57806309d39acf14610191578063150b7a02146101a457806333481977146101e85780633535db22146102085780633659cfe614610228575b005b34801561016857600080fd5b5061017c6101773660046129b0565b6104be565b60405190151581526020015b60405180910390f35b61015a61019f3660046129ef565b6104f5565b3480156101b057600080fd5b506101cf6101bf366004612ae1565b630a85bd0160e11b949350505050565b6040516001600160e01b03199091168152602001610188565b3480156101f457600080fd5b5061015a6102033660046129ef565b610691565b34801561021457600080fd5b5061015a610223366004612b4d565b6107eb565b34801561023457600080fd5b5061015a610243366004612b95565b6107fd565b34801561025457600080fd5b5061025f6101c55481565b604051908152602001610188565b61015a61027b366004612bb2565b6108dc565b34801561028c57600080fd5b5061025f6109ac565b3480156102a157600080fd5b5061015a6102b0366004612c02565b610a5f565b3480156102c157600080fd5b5061015a6102d0366004612c37565b610c7a565b3480156102e157600080fd5b5061015a6102f0366004612b95565b610c8e565b34801561030157600080fd5b5061015a610310366004612c89565b610db0565b34801561032157600080fd5b5061015a610eb5565b34801561033657600080fd5b5061015a610345366004612b95565b610ec9565b34801561035657600080fd5b506033546001600160a01b03165b6040516001600160a01b039091168152602001610188565b34801561038857600080fd5b5061015a610397366004612b95565b610feb565b3480156103a857600080fd5b506103bc6103b7366004612c02565b611134565b60405161018896959493929190612cd6565b3480156103da57600080fd5b506101cf6103e9366004612da5565b63bc197c8160e01b95945050505050565b34801561040657600080fd5b5061015a610415366004612b95565b6111a8565b34801561042657600080fd5b506101c654610364906001600160a01b031681565b34801561044757600080fd5b5061025f610456366004612e53565b61130b565b34801561046757600080fd5b5061025f6101c45481565b34801561047e57600080fd5b506101cf61048d366004612e7f565b63f23a6e6160e01b95945050505050565b3480156104aa57600080fd5b5061015a6104b9366004612b95565b611384565b60006001600160e01b03198216630271189760e51b14806104ef57506301ffc9a760e01b6001600160e01b03198316145b92915050565b600260c954036105205760405162461bcd60e51b815260040161051790612ee8565b60405180910390fd5b600260c9556001600160a01b03841660009081526101c860209081526040808320868452909152812080548490811061055b5761055b612f1f565b60009182526020918290206040805160c081018252600590930290910180546001600160a01b039081168452600180830154958501959095526002820154169183019190915260038101546060830152600481015491929091608084019160ff909116908111156105ce576105ce612ca2565b60018111156105df576105df612ca2565b81526020016004820160019054906101000a900460ff16600181111561060757610607612ca2565b600181111561061857610618612ca2565b9052509050610629858585856113fa565b6106358585858561199b565b80517fd4e1f2352ed53be44fc73a5dd70648e4f522286e28101c4443f7c6eb1eb10b32908490338589898760400151886060015160405161067d989796959493929190612f35565b60405180910390a15050600160c955505050565b600260c954036106b35760405162461bcd60e51b815260040161051790612ee8565b600260c9556001600160a01b03841660009081526101c86020908152604080832086845290915281208054849081106106ee576106ee612f1f565b60009182526020822060059091020191506004820154610100900460ff16600181111561071d5761071d612ca2565b1461073a5760405162461bcd60e51b815260040161051790612f79565b80546001600160a01b031633146107935760405162461bcd60e51b815260206004820152601f60248201527f4d61726b6574706c6163653a20596f7520617265206e6f74206f776e657221006044820152606401610517565b600381018290557fb3b8aae0c30d37f4e39abe6a00b59bfe29dc68f0a2755cf652cdb18108f9b45483336001840154600285015460405161067d949392309290918c918c916001600160a01b03909116908b90612f35565b6107f784848484611a77565b50505050565b6001600160a01b037f00000000000000000000000000000000000000000000000000000000000000001630036108455760405162461bcd60e51b815260040161051790612fba565b7f00000000000000000000000000000000000000000000000000000000000000006001600160a01b031661088e6000805160206132fa833981519152546001600160a01b031690565b6001600160a01b0316146108b45760405162461bcd60e51b815260040161051790613006565b6108bd81611dbe565b604080516000808252602082019092526108d991839190611ebc565b50565b6001600160a01b037f00000000000000000000000000000000000000000000000000000000000000001630036109245760405162461bcd60e51b815260040161051790612fba565b7f00000000000000000000000000000000000000000000000000000000000000006001600160a01b031661096d6000805160206132fa833981519152546001600160a01b031690565b6001600160a01b0316146109935760405162461bcd60e51b815260040161051790613006565b61099c82611dbe565b6109a882826001611ebc565b5050565b6000306001600160a01b037f00000000000000000000000000000000000000000000000000000000000000001614610a4c5760405162461bcd60e51b815260206004820152603860248201527f555550535570677261646561626c653a206d757374206e6f742062652063616c60448201527f6c6564207468726f7567682064656c656761746563616c6c00000000000000006064820152608401610517565b506000805160206132fa83398151915290565b600260c95403610a815760405162461bcd60e51b815260040161051790612ee8565b600260c9556001600160a01b03831660009081526101c8602090815260408083208584529091528120805483908110610abc57610abc612f1f565b90600052602060002090600502019050610ad33390565b81546001600160a01b03908116911614610b2f5760405162461bcd60e51b815260206004820152601e60248201527f4d61726b6574706c6163653a20596f7520617265206e6f74206f776e657200006044820152606401610517565b60006004820154610100900460ff166001811115610b4f57610b4f612ca2565b14610ba85760405162461bcd60e51b815260206004820152602360248201527f4d61726b6574706c6163653a204974656d20686173206265656e2063616e63656044820152621b195960ea1b6064820152608401610517565b60048101805461ff001916610100179055610bc28461202c565b15610be6578054610be1908590859030906001600160a01b031661209f565b610c14565b610bef84612105565b15610c145760018101548154610c1491869186919030906001600160a01b031661213b565b7f61026a5dbe020644ae30e0ee4d054867381dcc36a435d28dca80662794cb483b8233600184015460028501546003860154604051610c67959493309390928c928c926001600160a01b03169190612f35565b60405180910390a15050600160c9555050565b610c8785858585856121cc565b5050505050565b60fb5460408051631d6c8e3f60e21b815290516000926001600160a01b0316916375b238fc9160048083019260209291908290030181865afa158015610cd8573d6000803e3d6000fd5b505050506040513d601f19601f82011682018060405250810190610cfc9190613052565b60fb54604051632474521560e21b8152600481018390523360248201529192506001600160a01b0316906391d1485490604401602060405180830381865afa158015610d4c573d6000803e3d6000fd5b505050506040513d601f19601f82011682018060405250810190610d70919061306b565b610d8c5760405162461bcd60e51b81526004016105179061308d565b506101c680546001600160a01b0319166001600160a01b0392909216919091179055565b60fb5460408051631d6c8e3f60e21b815290516000926001600160a01b0316916375b238fc9160048083019260209291908290030181865afa158015610dfa573d6000803e3d6000fd5b505050506040513d601f19601f82011682018060405250810190610e1e9190613052565b60fb54604051632474521560e21b8152600481018390523360248201529192506001600160a01b0316906391d1485490604401602060405180830381865afa158015610e6e573d6000803e3d6000fd5b505050506040513d601f19601f82011682018060405250810190610e92919061306b565b610eae5760405162461bcd60e51b81526004016105179061308d565b506101c455565b610ebd6124fb565b610ec76000612555565b565b60fb5460408051631d6c8e3f60e21b815290516000926001600160a01b0316916375b238fc9160048083019260209291908290030181865afa158015610f13573d6000803e3d6000fd5b505050506040513d601f19601f82011682018060405250810190610f379190613052565b60fb54604051632474521560e21b8152600481018390523360248201529192506001600160a01b0316906391d1485490604401602060405180830381865afa158015610f87573d6000803e3d6000fd5b505050506040513d601f19601f82011682018060405250810190610fab919061306b565b610fc75760405162461bcd60e51b81526004016105179061308d565b506101c780546001600160a01b0319166001600160a01b0392909216919091179055565b60fb5460408051631d6c8e3f60e21b815290516000926001600160a01b0316916375b238fc9160048083019260209291908290030181865afa158015611035573d6000803e3d6000fd5b505050506040513d601f19601f820116820180604052508101906110599190613052565b60fb54604051632474521560e21b8152600481018390523360248201529192506001600160a01b0316906391d1485490604401602060405180830381865afa1580156110a9573d6000803e3d6000fd5b505050506040513d601f19601f820116820180604052508101906110cd919061306b565b6110e95760405162461bcd60e51b81526004016105179061308d565b60fb80546001600160a01b0319166001600160a01b0384169081179091556040517fdd8c807c33d35ad7642d985aca3455e9281f5298b1c22a4aadb5a86d52df7ed190600090a25050565b6101c8602052826000526040600020602052816000526040600020818154811061115d57600080fd5b6000918252602090912060059091020180546001820154600283015460038401546004909401546001600160a01b039384169750919550909116925060ff8082169161010090041686565b600054610100900460ff16158080156111c85750600054600160ff909116105b806111e25750303b1580156111e2575060005460ff166001145b6112455760405162461bcd60e51b815260206004820152602e60248201527f496e697469616c697a61626c653a20636f6e747261637420697320616c72656160448201526d191e481a5b9a5d1a585b1a5e995960921b6064820152608401610517565b6000805460ff191660011790558015611268576000805461ff0019166101001790555b6112706125a7565b611279826125d6565b6101c680546001600160a01b031916331790556103e86101c4556127106101c5556112a2612606565b6112aa61262d565b6112b2612606565b6112ba612606565b6112c2612606565b80156109a8576000805461ff0019169055604051600181527f7f26b83ff96e1f2b6a682f133852f6798a09c465da95921460cefb38474024989060200160405180910390a15050565b604080516001600160a01b03841660208201526101c8918101829052600091908290849060600160405160208183030381529060405280519060200120604051602001611362929190918252602082015260400190565b60408051601f1981840301815291905280516020909101205495945050505050565b61138c6124fb565b6001600160a01b0381166113f15760405162461bcd60e51b815260206004820152602660248201527f4f776e61626c653a206e6577206f776e657220697320746865207a65726f206160448201526564647265737360d01b6064820152608401610517565b6108d981612555565b6001600160a01b03841660009081526101c860209081526040808320868452909152812080548490811061143057611430612f1f565b60009182526020918290206040805160c081018252600590930290910180546001600160a01b039081168452600180830154958501959095526002820154169183019190915260038101546060830152600481015491929091608084019160ff909116908111156114a3576114a3612ca2565b60018111156114b4576114b4612ca2565b81526020016004820160019054906101000a900460ff1660018111156114dc576114dc612ca2565b60018111156114ed576114ed612ca2565b81525050905080602001518211156115475760405162461bcd60e51b815260206004820152601f60248201527f4d61726b6574706c6163653a204f766572616d6f756e74206f66206e667473006044820152606401610517565b60008160a00151600181111561155f5761155f612ca2565b1461157c5760405162461bcd60e51b815260040161051790612f79565b60006101c5546101c4546101c55461159491906130ee565b60608401516115a39086613101565b6115ad9190613101565b6115b79190613118565b905060008260600151846115cb9190613101565b905060008360600151856115df9190613101565b6115e9908461313a565b60408501519091506001600160a01b031661173b578234101561164e5760405162461bcd60e51b815260206004820152601c60248201527f4d61726b6574706c6163653a204e6f7420656e6f7567682057424e42000000006044820152606401610517565b83516040516000916001600160a01b03169084908381818185875af1925050503d806000811461169a576040519150601f19603f3d011682016040523d82523d6000602084013e61169f565b606091505b50509050806116c05760405162461bcd60e51b81526004016105179061314d565b6101c6546040516000916001600160a01b03169084908381818185875af1925050503d806000811461170e576040519150601f19603f3d011682016040523d82523d6000602084013e611713565b606091505b50509050806117345760405162461bcd60e51b815260040161051790613193565b5050611991565b600084604001516001600160a01b031663dd62ed3e6117573390565b6040516001600160e01b031960e084901b1681526001600160a01b039091166004820152306024820152604401602060405180830381865afa1580156117a1573d6000803e3d6000fd5b505050506040513d601f19601f820116820180604052508101906117c59190613052565b9050838110156118215760405162461bcd60e51b815260206004820152602160248201527f4d61726b6574706c6163653a204e6f7420656e6f75676820616c6c6f77616e636044820152606560f81b6064820152608401610517565b600085604001516001600160a01b03166323b872dd61183d3390565b885160405160e084901b6001600160e01b03191681526001600160a01b03928316600482015291166024820152604481018790526064016020604051808303816000875af1158015611893573d6000803e3d6000fd5b505050506040513d601f19601f820116820180604052508101906118b7919061306b565b9050806118d65760405162461bcd60e51b81526004016105179061314d565b600086604001516001600160a01b03166323b872dd6118f23390565b6101c65460405160e084901b6001600160e01b03191681526001600160a01b03928316600482015291166024820152604481018790526064016020604051808303816000875af115801561194a573d6000803e3d6000fd5b505050506040513d601f19601f8201168201806040525081019061196e919061306b565b90508061198d5760405162461bcd60e51b815260040161051790613193565b5050505b5050505050505050565b6001600160a01b03841660009081526101c86020908152604080832086845290915281208054849081106119d1576119d1612f1f565b6000918252602082206005909102019150600482015460ff1660018111156119fb576119fb612ca2565b03611a2257611a0c8585303361209f565b60048101805461ff001916610100179055610c87565b611a2f858584303361213b565b80600101548203611a575760048101805461ff00191661010017905560006001820155610c87565b81816001016000828254611a6b919061313a565b90915550505050505050565b611a808461202c565b611acc5760405162461bcd60e51b815260206004820152601c60248201527f4d61726b6574706c6163653a206e6f74206572633732312074797065000000006044820152606401610517565b6101c75460405163f992e3b760e01b81526001600160a01b0384811660048301529091169063f992e3b7906024016020604051808303816000875af1158015611b19573d6000803e3d6000fd5b505050506040513d601f19601f82011682018060405250810190611b3d919061306b565b1515600114611b5e5760405162461bcd60e51b8152600401610517906131dc565b336040516331a9108f60e11b8152600481018590526001600160a01b0391821691861690636352211e90602401602060405180830381865afa158015611ba8573d6000803e3d6000fd5b505050506040513d601f19601f82011682018060405250810190611bcc919061321e565b6001600160a01b031614611c345760405162461bcd60e51b815260206004820152602960248201527f4d61726b6574706c6163653a20596f7520617265206e6f74206f776e6572206f60448201526819881d1bdad95b925960ba1b6064820152608401610517565b611c408484333061209f565b6000611c4c858561130b565b90508015611c72576000611c6160018361313a565b9050611c70868683600161265c565b505b6001600160a01b0385811660009081526101c8602090815260408083208884528252808320815160c08101835233815260018185018181528a8816948301948552606083018a81526080840188815260a085018990528554808501875595895296909720835160059095020180549489166001600160a01b031995861617815590518183015593516002850180549190981693169290921790955592516003820155905160048201805492939192909160ff19909116908381811115611d3a57611d3a612ca2565b021790555060a082015160048201805461ff001916610100836001811115611d6457611d64612ca2565b021790555050507f13e84bc8ce38d0eb6b738d4c26145c605369eae1c1267705392db06a5c0c10cd81611d943390565b30600189898989604051611daf989796959493929190612f35565b60405180910390a15050505050565b60fb5460408051631d6c8e3f60e21b815290516000926001600160a01b0316916375b238fc9160048083019260209291908290030181865afa158015611e08573d6000803e3d6000fd5b505050506040513d601f19601f82011682018060405250810190611e2c9190613052565b60fb54604051632474521560e21b8152600481018390523360248201529192506001600160a01b0316906391d1485490604401602060405180830381865afa158015611e7c573d6000803e3d6000fd5b505050506040513d601f19601f82011682018060405250810190611ea0919061306b565b6109a85760405162461bcd60e51b81526004016105179061308d565b7f4910fdfa16fed3260ed0e7147f7cc6da11a60208b5b9406d12a635614ffd91435460ff1615611ef457611eef836126d4565b505050565b826001600160a01b03166352d1902d6040518163ffffffff1660e01b8152600401602060405180830381865afa925050508015611f4e575060408051601f3d908101601f19168201909252611f4b91810190613052565b60015b611fb15760405162461bcd60e51b815260206004820152602e60248201527f45524331393637557067726164653a206e657720696d706c656d656e7461746960448201526d6f6e206973206e6f74205555505360901b6064820152608401610517565b6000805160206132fa83398151915281146120205760405162461bcd60e51b815260206004820152602960248201527f45524331393637557067726164653a20756e737570706f727465642070726f786044820152681a58589b195555525160ba1b6064820152608401610517565b50611eef838383612770565b6040516301ffc9a760e01b81526380ac58cd60e01b60048201526000906001600160a01b038316906301ffc9a7906024015b602060405180830381865afa15801561207b573d6000803e3d6000fd5b505050506040513d601f19601f820116820180604052508101906104ef919061306b565b6040516323b872dd60e01b81526001600160a01b0383811660048301528281166024830152604482018590528516906323b872dd90606401600060405180830381600087803b1580156120f157600080fd5b505af1158015611991573d6000803e3d6000fd5b6040516301ffc9a760e01b8152636cdb3d1360e11b60048201526000906001600160a01b038316906301ffc9a79060240161205e565b604051637921219560e11b81526001600160a01b0383811660048301528281166024830152604482018690526064820185905260a06084830152600260a483015261060f60f31b60c483015286169063f242432a9060e401600060405180830381600087803b1580156121ad57600080fd5b505af11580156121c1573d6000803e3d6000fd5b505050505050505050565b6121d585612105565b6122215760405162461bcd60e51b815260206004820152601d60248201527f4d61726b6574706c6163653a206e6f74206572633131353520747970650000006044820152606401610517565b6101c75460405163f992e3b760e01b81526001600160a01b0384811660048301529091169063f992e3b7906024016020604051808303816000875af115801561226e573d6000803e3d6000fd5b505050506040513d601f19601f82011682018060405250810190612292919061306b565b15156001146122b35760405162461bcd60e51b8152600401610517906131dc565b826001600160a01b03861662fdd58e336040516001600160e01b031960e084901b1681526001600160a01b03909116600482015260248101889052604401602060405180830381865afa15801561230e573d6000803e3d6000fd5b505050506040513d601f19601f820116820180604052508101906123329190613052565b10156123935760405162461bcd60e51b815260206004820152602a60248201527f4d61726b6574706c6163653a20596f7520646f6e2774206861766520656e6f7560448201526919da081d1bdad95b925960b21b6064820152608401610517565b6123a0858585333061213b565b60006123ac868661130b565b6001600160a01b0387811660009081526101c8602090815260408083208a84528252808320815160c0810183523381528084018b81528a8716938201938452606082018a815260016080840181815260a085018990528554808301875595895296909720835160059095020180546001600160a01b0319908116958a1695909517815591518288015593516002820180549094169716969096179091559051600385015590516004840180549596509194909260ff1990911690838181111561247757612477612ca2565b021790555060a082015160048201805461ff0019166101008360018111156124a1576124a1612ca2565b021790555050507ff7c54c478d89bfb2633873af6ee6997038935a5662fbc3213079e11df0a41560816124d13390565b30878a8a89896040516124eb989796959493929190612f35565b60405180910390a1505050505050565b6033546001600160a01b03163314610ec75760405162461bcd60e51b815260206004820181905260248201527f4f776e61626c653a2063616c6c6572206973206e6f7420746865206f776e65726044820152606401610517565b603380546001600160a01b038381166001600160a01b0319831681179093556040519116919082907f8be0079c531659141344cd1fd0a4f28419497f9722a3daafe3b4186f6b6457e090600090a35050565b600054610100900460ff166125ce5760405162461bcd60e51b81526004016105179061323b565b610ec7612795565b600054610100900460ff166125fd5760405162461bcd60e51b81526004016105179061323b565b6108d9816127c5565b600054610100900460ff16610ec75760405162461bcd60e51b81526004016105179061323b565b600054610100900460ff166126545760405162461bcd60e51b81526004016105179061323b565b610ec761280e565b6001600160a01b03841660009081526101c860209081526040808320868452909152812080548490811061269257612692612f1f565b90600052602060002090600502019050818160040160016101000a81548160ff021916908360018111156126c8576126c8612ca2565b02179055505050505050565b6001600160a01b0381163b6127415760405162461bcd60e51b815260206004820152602d60248201527f455243313936373a206e657720696d706c656d656e746174696f6e206973206e60448201526c1bdd08184818dbdb9d1c9858dd609a1b6064820152608401610517565b6000805160206132fa83398151915280546001600160a01b0319166001600160a01b0392909216919091179055565b6127798361283c565b6000825111806127865750805b15611eef576107f7838361287c565b600054610100900460ff166127bc5760405162461bcd60e51b81526004016105179061323b565b610ec733612555565b600054610100900460ff166127ec5760405162461bcd60e51b81526004016105179061323b565b60fb80546001600160a01b0319166001600160a01b0392909216919091179055565b600054610100900460ff166128355760405162461bcd60e51b81526004016105179061323b565b600160c955565b612845816126d4565b6040516001600160a01b038216907fbc7cd75a20ee27fd9adebab32041f755214dbc6bffa90cc0225b39da2e5c2d3b90600090a250565b60606001600160a01b0383163b6128e45760405162461bcd60e51b815260206004820152602660248201527f416464726573733a2064656c65676174652063616c6c20746f206e6f6e2d636f6044820152651b9d1c9858dd60d21b6064820152608401610517565b600080846001600160a01b0316846040516128ff91906132aa565b600060405180830381855af49150503d806000811461293a576040519150601f19603f3d011682016040523d82523d6000602084013e61293f565b606091505b5091509150612967828260405180606001604052806027815260200161331a60279139612970565b95945050505050565b6060831561297f5750816129a9565b82511561298f5782518084602001fd5b8160405162461bcd60e51b815260040161051791906132c6565b9392505050565b6000602082840312156129c257600080fd5b81356001600160e01b0319811681146129a957600080fd5b6001600160a01b03811681146108d957600080fd5b60008060008060808587031215612a0557600080fd5b8435612a10816129da565b966020860135965060408601359560600135945092505050565b634e487b7160e01b600052604160045260246000fd5b604051601f8201601f1916810167ffffffffffffffff81118282101715612a6957612a69612a2a565b604052919050565b600082601f830112612a8257600080fd5b813567ffffffffffffffff811115612a9c57612a9c612a2a565b612aaf601f8201601f1916602001612a40565b818152846020838601011115612ac457600080fd5b816020850160208301376000918101602001919091529392505050565b60008060008060808587031215612af757600080fd5b8435612b02816129da565b93506020850135612b12816129da565b925060408501359150606085013567ffffffffffffffff811115612b3557600080fd5b612b4187828801612a71565b91505092959194509250565b60008060008060808587031215612b6357600080fd5b8435612b6e816129da565b9350602085013592506040850135612b85816129da565b9396929550929360600135925050565b600060208284031215612ba757600080fd5b81356129a9816129da565b60008060408385031215612bc557600080fd5b8235612bd0816129da565b9150602083013567ffffffffffffffff811115612bec57600080fd5b612bf885828601612a71565b9150509250929050565b600080600060608486031215612c1757600080fd5b8335612c22816129da565b95602085013595506040909401359392505050565b600080600080600060a08688031215612c4f57600080fd5b8535612c5a816129da565b945060208601359350604086013592506060860135612c78816129da565b949793965091946080013592915050565b600060208284031215612c9b57600080fd5b5035919050565b634e487b7160e01b600052602160045260246000fd5b600281106108d957634e487b7160e01b600052602160045260246000fd5b6001600160a01b03878116825260208201879052851660408201526060810184905260c08101612d0584612cb8565b836080830152612d1483612cb8565b8260a0830152979650505050505050565b600082601f830112612d3657600080fd5b8135602067ffffffffffffffff821115612d5257612d52612a2a565b8160051b612d61828201612a40565b9283528481018201928281019087851115612d7b57600080fd5b83870192505b84831015612d9a57823582529183019190830190612d81565b979650505050505050565b600080600080600060a08688031215612dbd57600080fd5b8535612dc8816129da565b94506020860135612dd8816129da565b9350604086013567ffffffffffffffff80821115612df557600080fd5b612e0189838a01612d25565b94506060880135915080821115612e1757600080fd5b612e2389838a01612d25565b93506080880135915080821115612e3957600080fd5b50612e4688828901612a71565b9150509295509295909350565b60008060408385031215612e6657600080fd5b8235612e71816129da565b946020939093013593505050565b600080600080600060a08688031215612e9757600080fd5b8535612ea2816129da565b94506020860135612eb2816129da565b93506040860135925060608601359150608086013567ffffffffffffffff811115612edc57600080fd5b612e4688828901612a71565b6020808252601f908201527f5265656e7472616e637947756172643a207265656e7472616e742063616c6c00604082015260600190565b634e487b7160e01b600052603260045260246000fd5b9788526001600160a01b03968716602089015294861660408801526060870193909352908416608086015260a085015290911660c083015260e08201526101000190565b60208082526021908201527f4d61726b6574706c6163653a204974656d206973206e6f74206c697374696e676040820152602160f81b606082015260800190565b6020808252602c908201527f46756e6374696f6e206d7573742062652063616c6c6564207468726f7567682060408201526b19195b1959d85d1958d85b1b60a21b606082015260800190565b6020808252602c908201527f46756e6374696f6e206d7573742062652063616c6c6564207468726f7567682060408201526b6163746976652070726f787960a01b606082015260800190565b60006020828403121561306457600080fd5b5051919050565b60006020828403121561307d57600080fd5b815180151581146129a957600080fd5b6020808252602b908201527f57686974656c697374577261707065723a20596f7520646f6e2774206861766560408201526a2061646d696e20726f6c6560a81b606082015260800190565b634e487b7160e01b600052601160045260246000fd5b808201808211156104ef576104ef6130d8565b80820281158282048414176104ef576104ef6130d8565b60008261313557634e487b7160e01b600052601260045260246000fd5b500490565b818103818111156104ef576104ef6130d8565b60208082526026908201527f4d61726b6574706c6163653a2063616e206e6f74207472616e7366657220746f6040820152651037bbb732b960d11b606082015260800190565b60208082526029908201527f4d61726b6574706c6163653a2063616e206e6f74207472616e7366657220746f60408201526820747265617375727960b81b606082015260800190565b60208082526022908201527f4d61726b6574706c6163653a20556e616c6c6f7720746f6b656e206164647265604082015261737360f01b606082015260800190565b60006020828403121561323057600080fd5b81516129a9816129da565b6020808252602b908201527f496e697469616c697a61626c653a20636f6e7472616374206973206e6f74206960408201526a6e697469616c697a696e6760a81b606082015260800190565b60005b838110156132a1578181015183820152602001613289565b50506000910152565b600082516132bc818460208701613286565b9190910192915050565b60208152600082518060208401526132e5816040850160208701613286565b601f01601f1916919091016040019291505056fe360894a13ba1a3210667c828492db98dca3e2076cc3735a920a3ca505d382bbc416464726573733a206c6f772d6c6576656c2064656c65676174652063616c6c206661696c6564a164736f6c6343000811000a",
  "linkReferences": {},
  "deployedLinkReferences": {}
}