{
  "_format": "hh-sol-artifact-1",
  "contractName": "Polft1155",
  "sourceName": "contracts/standard/core/Polft1155.sol",
  "abi": [
    {
      "inputs": [],
      "stateMutability": "nonpayable",
      "type": "constructor"
    },
    {
      "anonymous": false,
      "inputs": [
        {
          "indexed": false,
          "internalType": "address",
          "name": "previousAdmin",
          "type": "address"
        },
        {
          "indexed": false,
          "internalType": "address",
          "name": "newAdmin",
          "type": "address"
        }
      ],
      "name": "AdminChanged",
      "type": "event"
    },
    {
      "anonymous": false,
      "inputs": [
        {
          "indexed": true,
          "internalType": "address",
          "name": "account",
          "type": "address"
        },
        {
          "indexed": true,
          "internalType": "address",
          "name": "operator",
          "type": "address"
        },
        {
          "indexed": false,
          "internalType": "bool",
          "name": "approved",
          "type": "bool"
        }
      ],
      "name": "ApprovalForAll",
      "type": "event"
    },
    {
      "anonymous": false,
      "inputs": [
        {
          "indexed": true,
          "internalType": "address",
          "name": "beacon",
          "type": "address"
        }
      ],
      "name": "BeaconUpgraded",
      "type": "event"
    },
    {
      "anonymous": false,
      "inputs": [
        {
          "indexed": false,
          "internalType": "uint8",
          "name": "version",
          "type": "uint8"
        }
      ],
      "name": "Initialized",
      "type": "event"
    },
    {
      "anonymous": false,
      "inputs": [
        {
          "indexed": false,
          "internalType": "address",
          "name": "from",
          "type": "address"
        },
        {
          "indexed": false,
          "internalType": "address",
          "name": "to",
          "type": "address"
        },
        {
          "indexed": false,
          "internalType": "address",
          "name": "nftAddress",
          "type": "address"
        },
        {
          "indexed": false,
          "internalType": "uint256",
          "name": "tokenId",
          "type": "uint256"
        },
        {
          "indexed": false,
          "internalType": "uint256",
          "name": "quantity",
          "type": "uint256"
        },
        {
          "indexed": false,
          "internalType": "string",
          "name": "ipfs",
          "type": "string"
        }
      ],
      "name": "Mint",
      "type": "event"
    },
    {
      "anonymous": false,
      "inputs": [
        {
          "indexed": true,
          "internalType": "address",
          "name": "previousOwner",
          "type": "address"
        },
        {
          "indexed": true,
          "internalType": "address",
          "name": "newOwner",
          "type": "address"
        }
      ],
      "name": "OwnershipTransferred",
      "type": "event"
    },
    {
      "anonymous": false,
      "inputs": [
        {
          "indexed": false,
          "internalType": "address",
          "name": "account",
          "type": "address"
        }
      ],
      "name": "Paused",
      "type": "event"
    },
    {
      "anonymous": false,
      "inputs": [
        {
          "indexed": true,
          "internalType": "address",
          "name": "operator",
          "type": "address"
        },
        {
          "indexed": true,
          "internalType": "address",
          "name": "from",
          "type": "address"
        },
        {
          "indexed": true,
          "internalType": "address",
          "name": "to",
          "type": "address"
        },
        {
          "indexed": false,
          "internalType": "uint256[]",
          "name": "ids",
          "type": "uint256[]"
        },
        {
          "indexed": false,
          "internalType": "uint256[]",
          "name": "values",
          "type": "uint256[]"
        }
      ],
      "name": "TransferBatch",
      "type": "event"
    },
    {
      "anonymous": false,
      "inputs": [
        {
          "indexed": true,
          "internalType": "address",
          "name": "operator",
          "type": "address"
        },
        {
          "indexed": true,
          "internalType": "address",
          "name": "from",
          "type": "address"
        },
        {
          "indexed": true,
          "internalType": "address",
          "name": "to",
          "type": "address"
        },
        {
          "indexed": false,
          "internalType": "uint256",
          "name": "id",
          "type": "uint256"
        },
        {
          "indexed": false,
          "internalType": "uint256",
          "name": "value",
          "type": "uint256"
        }
      ],
      "name": "TransferSingle",
      "type": "event"
    },
    {
      "anonymous": false,
      "inputs": [
        {
          "indexed": false,
          "internalType": "string",
          "name": "value",
          "type": "string"
        },
        {
          "indexed": true,
          "internalType": "uint256",
          "name": "id",
          "type": "uint256"
        }
      ],
      "name": "URI",
      "type": "event"
    },
    {
      "anonymous": false,
      "inputs": [
        {
          "indexed": false,
          "internalType": "address",
          "name": "account",
          "type": "address"
        }
      ],
      "name": "Unpaused",
      "type": "event"
    },
    {
      "anonymous": false,
      "inputs": [
        {
          "indexed": true,
          "internalType": "address",
          "name": "implementation",
          "type": "address"
        }
      ],
      "name": "Upgraded",
      "type": "event"
    },
    {
      "anonymous": false,
      "inputs": [
        {
          "indexed": true,
          "internalType": "address",
          "name": "newOwner",
          "type": "address"
        }
      ],
      "name": "WhitelistChanged",
      "type": "event"
    },
    {
      "inputs": [],
      "name": "DOMAIN_SEPARATOR",
      "outputs": [
        {
          "internalType": "bytes32",
          "name": "",
          "type": "bytes32"
        }
      ],
      "stateMutability": "view",
      "type": "function"
    },
    {
      "inputs": [
        {
          "internalType": "address",
          "name": "account",
          "type": "address"
        },
        {
          "internalType": "uint256",
          "name": "id",
          "type": "uint256"
        }
      ],
      "name": "balanceOf",
      "outputs": [
        {
          "internalType": "uint256",
          "name": "",
          "type": "uint256"
        }
      ],
      "stateMutability": "view",
      "type": "function"
    },
    {
      "inputs": [
        {
          "internalType": "address[]",
          "name": "accounts",
          "type": "address[]"
        },
        {
          "internalType": "uint256[]",
          "name": "ids",
          "type": "uint256[]"
        }
      ],
      "name": "balanceOfBatch",
      "outputs": [
        {
          "internalType": "uint256[]",
          "name": "",
          "type": "uint256[]"
        }
      ],
      "stateMutability": "view",
      "type": "function"
    },
    {
      "inputs": [
        {
          "internalType": "address",
          "name": "account",
          "type": "address"
        },
        {
          "internalType": "uint256",
          "name": "tokenId",
          "type": "uint256"
        },
        {
          "internalType": "uint256",
          "name": "value",
          "type": "uint256"
        }
      ],
      "name": "burn",
      "outputs": [],
      "stateMutability": "nonpayable",
      "type": "function"
    },
    {
      "inputs": [
        {
          "internalType": "address",
          "name": "account",
          "type": "address"
        },
        {
          "internalType": "uint256[]",
          "name": "ids",
          "type": "uint256[]"
        },
        {
          "internalType": "uint256[]",
          "name": "values",
          "type": "uint256[]"
        }
      ],
      "name": "burnBatch",
      "outputs": [],
      "stateMutability": "nonpayable",
      "type": "function"
    },
    {
      "inputs": [],
      "name": "contractURI",
      "outputs": [
        {
          "internalType": "string",
          "name": "",
          "type": "string"
        }
      ],
      "stateMutability": "view",
      "type": "function"
    },
    {
      "inputs": [
        {
          "internalType": "uint256",
          "name": "id",
          "type": "uint256"
        }
      ],
      "name": "exists",
      "outputs": [
        {
          "internalType": "bool",
          "name": "",
          "type": "bool"
        }
      ],
      "stateMutability": "view",
      "type": "function"
    },
    {
      "inputs": [
        {
          "internalType": "bytes",
          "name": "signature",
          "type": "bytes"
        },
        {
          "components": [
            {
              "internalType": "address",
              "name": "requester",
              "type": "address"
            },
            {
              "internalType": "uint256",
              "name": "assetId",
              "type": "uint256"
            },
            {
              "internalType": "uint256",
              "name": "amount",
              "type": "uint256"
            },
            {
              "internalType": "uint256",
              "name": "nonce",
              "type": "uint256"
            }
          ],
          "internalType": "struct IPolft1155.MintAssetRequest",
          "name": "req",
          "type": "tuple"
        }
      ],
      "name": "getAddressWithSignature",
      "outputs": [
        {
          "internalType": "address",
          "name": "",
          "type": "address"
        }
      ],
      "stateMutability": "view",
      "type": "function"
    },
    {
      "inputs": [
        {
          "internalType": "address",
          "name": "_whitelistAddress",
          "type": "address"
        }
      ],
      "name": "initialize",
      "outputs": [],
      "stateMutability": "nonpayable",
      "type": "function"
    },
    {
      "inputs": [
        {
          "internalType": "address",
          "name": "account",
          "type": "address"
        },
        {
          "internalType": "address",
          "name": "operator",
          "type": "address"
        }
      ],
      "name": "isApprovedForAll",
      "outputs": [
        {
          "internalType": "bool",
          "name": "",
          "type": "bool"
        }
      ],
      "stateMutability": "view",
      "type": "function"
    },
    {
      "inputs": [
        {
          "internalType": "address",
          "name": "to",
          "type": "address"
        },
        {
          "internalType": "uint256[]",
          "name": "ids",
          "type": "uint256[]"
        },
        {
          "internalType": "uint256[]",
          "name": "amounts",
          "type": "uint256[]"
        },
        {
          "internalType": "bytes",
          "name": "data",
          "type": "bytes"
        }
      ],
      "name": "mintBatch",
      "outputs": [],
      "stateMutability": "nonpayable",
      "type": "function"
    },
    {
      "inputs": [],
      "name": "mintFee",
      "outputs": [
        {
          "internalType": "uint256",
          "name": "",
          "type": "uint256"
        }
      ],
      "stateMutability": "view",
      "type": "function"
    },
    {
      "inputs": [],
      "name": "owner",
      "outputs": [
        {
          "internalType": "address",
          "name": "",
          "type": "address"
        }
      ],
      "stateMutability": "view",
      "type": "function"
    },
    {
      "inputs": [],
      "name": "pause",
      "outputs": [],
      "stateMutability": "nonpayable",
      "type": "function"
    },
    {
      "inputs": [],
      "name": "paused",
      "outputs": [
        {
          "internalType": "bool",
          "name": "",
          "type": "bool"
        }
      ],
      "stateMutability": "view",
      "type": "function"
    },
    {
      "inputs": [],
      "name": "proxiableUUID",
      "outputs": [
        {
          "internalType": "bytes32",
          "name": "",
          "type": "bytes32"
        }
      ],
      "stateMutability": "view",
      "type": "function"
    },
    {
      "inputs": [],
      "name": "renounceOwnership",
      "outputs": [],
      "stateMutability": "nonpayable",
      "type": "function"
    },
    {
      "inputs": [
        {
          "internalType": "address",
          "name": "from",
          "type": "address"
        },
        {
          "internalType": "address",
          "name": "to",
          "type": "address"
        },
        {
          "internalType": "uint256[]",
          "name": "ids",
          "type": "uint256[]"
        },
        {
          "internalType": "uint256[]",
          "name": "amounts",
          "type": "uint256[]"
        },
        {
          "internalType": "bytes",
          "name": "data",
          "type": "bytes"
        }
      ],
      "name": "safeBatchTransferFrom",
      "outputs": [],
      "stateMutability": "nonpayable",
      "type": "function"
    },
    {
      "inputs": [
        {
          "internalType": "string",
          "name": "_ipfs",
          "type": "string"
        },
        {
          "internalType": "bytes",
          "name": "_signature",
          "type": "bytes"
        },
        {
          "components": [
            {
              "internalType": "address",
              "name": "requester",
              "type": "address"
            },
            {
              "internalType": "uint256",
              "name": "assetId",
              "type": "uint256"
            },
            {
              "internalType": "uint256",
              "name": "amount",
              "type": "uint256"
            },
            {
              "internalType": "uint256",
              "name": "nonce",
              "type": "uint256"
            }
          ],
          "internalType": "struct IPolft1155.MintAssetRequest",
          "name": "_req",
          "type": "tuple"
        }
      ],
      "name": "safeMint",
      "outputs": [],
      "stateMutability": "payable",
      "type": "function"
    },
    {
      "inputs": [
        {
          "internalType": "address",
          "name": "from",
          "type": "address"
        },
        {
          "internalType": "address",
          "name": "to",
          "type": "address"
        },
        {
          "internalType": "uint256",
          "name": "id",
          "type": "uint256"
        },
        {
          "internalType": "uint256",
          "name": "amount",
          "type": "uint256"
        },
        {
          "internalType": "bytes",
          "name": "data",
          "type": "bytes"
        }
      ],
      "name": "safeTransferFrom",
      "outputs": [],
      "stateMutability": "nonpayable",
      "type": "function"
    },
    {
      "inputs": [
        {
          "internalType": "address",
          "name": "operator",
          "type": "address"
        },
        {
          "internalType": "bool",
          "name": "approved",
          "type": "bool"
        }
      ],
      "name": "setApprovalForAll",
      "outputs": [],
      "stateMutability": "nonpayable",
      "type": "function"
    },
    {
      "inputs": [
        {
          "internalType": "string",
          "name": "_contractURI",
          "type": "string"
        }
      ],
      "name": "setContractURI",
      "outputs": [],
      "stateMutability": "nonpayable",
      "type": "function"
    },
    {
      "inputs": [
        {
          "internalType": "uint256",
          "name": "_value",
          "type": "uint256"
        }
      ],
      "name": "setMintFee",
      "outputs": [],
      "stateMutability": "nonpayable",
      "type": "function"
    },
    {
      "inputs": [
        {
          "internalType": "address",
          "name": "_address",
          "type": "address"
        }
      ],
      "name": "setTreasuryAddress",
      "outputs": [],
      "stateMutability": "nonpayable",
      "type": "function"
    },
    {
      "inputs": [
        {
          "internalType": "uint256",
          "name": "_tokenId",
          "type": "uint256"
        },
        {
          "internalType": "string",
          "name": "_tokenUri",
          "type": "string"
        }
      ],
      "name": "setUri",
      "outputs": [],
      "stateMutability": "nonpayable",
      "type": "function"
    },
    {
      "inputs": [
        {
          "internalType": "address",
          "name": "whitelistAddress_",
          "type": "address"
        }
      ],
      "name": "setWhitelistAddress",
      "outputs": [],
      "stateMutability": "nonpayable",
      "type": "function"
    },
    {
      "inputs": [
        {
          "internalType": "bytes4",
          "name": "interfaceId",
          "type": "bytes4"
        }
      ],
      "name": "supportsInterface",
      "outputs": [
        {
          "internalType": "bool",
          "name": "",
          "type": "bool"
        }
      ],
      "stateMutability": "view",
      "type": "function"
    },
    {
      "inputs": [
        {
          "internalType": "uint256",
          "name": "tokenId",
          "type": "uint256"
        }
      ],
      "name": "tokenURI",
      "outputs": [
        {
          "internalType": "string",
          "name": "",
          "type": "string"
        }
      ],
      "stateMutability": "view",
      "type": "function"
    },
    {
      "inputs": [
        {
          "internalType": "uint256",
          "name": "id",
          "type": "uint256"
        }
      ],
      "name": "totalSupply",
      "outputs": [
        {
          "internalType": "uint256",
          "name": "",
          "type": "uint256"
        }
      ],
      "stateMutability": "view",
      "type": "function"
    },
    {
      "inputs": [
        {
          "internalType": "address",
          "name": "newOwner",
          "type": "address"
        }
      ],
      "name": "transferOwnership",
      "outputs": [],
      "stateMutability": "nonpayable",
      "type": "function"
    },
    {
      "inputs": [],
      "name": "unpause",
      "outputs": [],
      "stateMutability": "nonpayable",
      "type": "function"
    },
    {
      "inputs": [
        {
          "internalType": "address",
          "name": "newImplementation",
          "type": "address"
        }
      ],
      "name": "upgradeTo",
      "outputs": [],
      "stateMutability": "nonpayable",
      "type": "function"
    },
    {
      "inputs": [
        {
          "internalType": "address",
          "name": "newImplementation",
          "type": "address"
        },
        {
          "internalType": "bytes",
          "name": "data",
          "type": "bytes"
        }
      ],
      "name": "upgradeToAndCall",
      "outputs": [],
      "stateMutability": "payable",
      "type": "function"
    },
    {
      "inputs": [
        {
          "internalType": "uint256",
          "name": "tokenId",
          "type": "uint256"
        }
      ],
      "name": "uri",
      "outputs": [
        {
          "internalType": "string",
          "name": "",
          "type": "string"
        }
      ],
      "stateMutability": "view",
      "type": "function"
    }
  ],
  "bytecode": "0x60a0604052306080523480156200001557600080fd5b506200002062000026565b620000e8565b600054610100900460ff1615620000935760405162461bcd60e51b815260206004820152602760248201527f496e697469616c697a61626c653a20636f6e747261637420697320696e697469604482015266616c697a696e6760c81b606482015260840160405180910390fd5b60005460ff9081161015620000e6576000805460ff191660ff9081179091556040519081527f7f26b83ff96e1f2b6a682f133852f6798a09c465da95921460cefb38474024989060200160405180910390a15b565b60805161484262000120600039600081816108c20152818161090201528181610bd201528181610c120152610ca501526148426000f3fe6080604052600436106101f85760003560e01c8063782f08ae1161010d578063c87b56dd116100a0578063eddd0d9c1161006f578063eddd0d9c146105ca578063f242432a146105ea578063f2fde38b1461060a578063f5298aca1461062a578063fc17bce81461064a57600080fd5b8063c87b56dd14610539578063e2525e5214610559578063e8a3d4851461056c578063e985e9c51461058157600080fd5b8063a224c745116100dc578063a224c745146104ab578063a22cb465146104cb578063bd85b039146104eb578063c4d66de81461051957600080fd5b8063782f08ae146104245780638456cb59146104445780638da5cb5b14610459578063938e3d7b1461048b57600080fd5b80633f4ba83a1161019057806352d1902d1161015f57806352d1902d146103a25780635c975abb146103b75780636605bfda146103cf5780636b20c454146103ef578063715018a61461040f57600080fd5b80633f4ba83a1461031d5780634e1273f4146103325780634f1ef2861461035f5780634f558e791461037257600080fd5b80631f7fdffa116101cc5780631f7fdffa146102a45780632eb2c2d6146102c65780633644e515146102e65780633659cfe6146102fd57600080fd5b8062fdd58e146101fd57806301ffc9a7146102305780630e89341c1461026057806313966db51461028d575b600080fd5b34801561020957600080fd5b5061021d61021836600461383d565b61066a565b6040519081526020015b60405180910390f35b34801561023c57600080fd5b5061025061024b36600461387d565b610705565b6040519015158152602001610227565b34801561026c57600080fd5b5061028061027b36600461389a565b610755565b6040516102279190613903565b34801561029957600080fd5b5061021d6101f95481565b3480156102b057600080fd5b506102c46102bf366004613a5f565b610760565b005b3480156102d257600080fd5b506102c46102e1366004613af7565b610873565b3480156102f257600080fd5b5061021d6101f85481565b34801561030957600080fd5b506102c4610318366004613ba0565b6108b8565b34801561032957600080fd5b506102c4610997565b34801561033e57600080fd5b5061035261034d366004613bbb565b610a9f565b6040516102279190613cc0565b6102c461036d366004613cd3565b610bc8565b34801561037e57600080fd5b5061025061038d36600461389a565b600090815261012d6020526040902054151590565b3480156103ae57600080fd5b5061021d610c98565b3480156103c357600080fd5b5060655460ff16610250565b3480156103db57600080fd5b506102c46103ea366004613ba0565b610d4c565b3480156103fb57600080fd5b506102c461040a366004613d16565b610e70565b34801561041b57600080fd5b506102c4610f81565b34801561043057600080fd5b506102c461043f366004613d89565b610f95565b34801561045057600080fd5b506102c46110a4565b34801561046557600080fd5b506033546001600160a01b03165b6040516001600160a01b039091168152602001610227565b34801561049757600080fd5b506102c46104a6366004613db9565b6111ac565b3480156104b757600080fd5b506102c46104c6366004613ba0565b6111b9565b3480156104d757600080fd5b506102c46104e6366004613e03565b611305565b3480156104f757600080fd5b5061021d61050636600461389a565b600090815261012d602052604090205490565b34801561052557600080fd5b506102c4610534366004613ba0565b611310565b34801561054557600080fd5b5061028061055436600461389a565b61156c565b6102c4610567366004613e93565b611577565b34801561057857600080fd5b506102806118e9565b34801561058d57600080fd5b5061025061059c366004613f0e565b6001600160a01b03918216600090815260ca6020908152604080832093909416825291909152205460ff1690565b3480156105d657600080fd5b506102c46105e536600461389a565b611978565b3480156105f657600080fd5b506102c4610605366004613f41565b611a7f565b34801561061657600080fd5b506102c4610625366004613ba0565b611ac4565b34801561063657600080fd5b506102c4610645366004613fa5565b611b3a565b34801561065657600080fd5b50610473610665366004613fd8565b611c45565b60006001600160a01b0383166106da5760405162461bcd60e51b815260206004820152602a60248201527f455243313135353a2061646472657373207a65726f206973206e6f742061207660448201526930b634b21037bbb732b960b11b60648201526084015b60405180910390fd5b50600081815260c9602090815260408083206001600160a01b03861684529091529020545b92915050565b60006001600160e01b03198216636cdb3d1360e11b148061073657506001600160e01b031982166303a24d0760e21b145b806106ff57506301ffc9a760e01b6001600160e01b03198316146106ff565b60606106ff82611d63565b6101915460408051631d6c8e3f60e21b815290516000926001600160a01b0316916375b238fc9160048083019260209291908290030181865afa1580156107ab573d6000803e3d6000fd5b505050506040513d601f19601f820116820180604052508101906107cf919061402c565b61019154604051632474521560e21b8152600481018390523360248201529192506001600160a01b0316906391d1485490604401602060405180830381865afa158015610820573d6000803e3d6000fd5b505050506040513d601f19601f820116820180604052508101906108449190614045565b6108605760405162461bcd60e51b81526004016106d190614062565b61086c85858585611e44565b5050505050565b6001600160a01b03851633148061088f575061088f853361059c565b6108ab5760405162461bcd60e51b81526004016106d1906140ad565b61086c8585858585611f9f565b6001600160a01b037f00000000000000000000000000000000000000000000000000000000000000001630036109005760405162461bcd60e51b81526004016106d1906140fc565b7f00000000000000000000000000000000000000000000000000000000000000006001600160a01b03166109496000805160206147ef833981519152546001600160a01b031690565b6001600160a01b03161461096f5760405162461bcd60e51b81526004016106d190614148565b6109788161214c565b604080516000808252602082019092526109949183919061224c565b50565b6101915460408051631d6c8e3f60e21b815290516000926001600160a01b0316916375b238fc9160048083019260209291908290030181865afa1580156109e2573d6000803e3d6000fd5b505050506040513d601f19601f82011682018060405250810190610a06919061402c565b61019154604051632474521560e21b8152600481018390523360248201529192506001600160a01b0316906391d1485490604401602060405180830381865afa158015610a57573d6000803e3d6000fd5b505050506040513d601f19601f82011682018060405250810190610a7b9190614045565b610a975760405162461bcd60e51b81526004016106d190614062565b6109946123b7565b60608151835114610b045760405162461bcd60e51b815260206004820152602960248201527f455243313135353a206163636f756e747320616e6420696473206c656e677468604482015268040dad2e6dac2e8c6d60bb1b60648201526084016106d1565b600083516001600160401b03811115610b1f57610b1f613916565b604051908082528060200260200182016040528015610b48578160200160208202803683370190505b50905060005b8451811015610bc057610b93858281518110610b6c57610b6c614194565b6020026020010151858381518110610b8657610b86614194565b602002602001015161066a565b828281518110610ba557610ba5614194565b6020908102919091010152610bb9816141c0565b9050610b4e565b509392505050565b6001600160a01b037f0000000000000000000000000000000000000000000000000000000000000000163003610c105760405162461bcd60e51b81526004016106d1906140fc565b7f00000000000000000000000000000000000000000000000000000000000000006001600160a01b0316610c596000805160206147ef833981519152546001600160a01b031690565b6001600160a01b031614610c7f5760405162461bcd60e51b81526004016106d190614148565b610c888261214c565b610c948282600161224c565b5050565b6000306001600160a01b037f00000000000000000000000000000000000000000000000000000000000000001614610d385760405162461bcd60e51b815260206004820152603860248201527f555550535570677261646561626c653a206d757374206e6f742062652063616c60448201527f6c6564207468726f7567682064656c656761746563616c6c000000000000000060648201526084016106d1565b506000805160206147ef8339815191525b90565b6101915460408051631d6c8e3f60e21b815290516000926001600160a01b0316916375b238fc9160048083019260209291908290030181865afa158015610d97573d6000803e3d6000fd5b505050506040513d601f19601f82011682018060405250810190610dbb919061402c565b61019154604051632474521560e21b8152600481018390523360248201529192506001600160a01b0316906391d1485490604401602060405180830381865afa158015610e0c573d6000803e3d6000fd5b505050506040513d601f19601f82011682018060405250810190610e309190614045565b610e4c5760405162461bcd60e51b81526004016106d190614062565b506101fa80546001600160a01b0319166001600160a01b0392909216919091179055565b6101915460408051631d6c8e3f60e21b815290516000926001600160a01b0316916375b238fc9160048083019260209291908290030181865afa158015610ebb573d6000803e3d6000fd5b505050506040513d601f19601f82011682018060405250810190610edf919061402c565b61019154604051632474521560e21b8152600481018390523360248201529192506001600160a01b0316906391d1485490604401602060405180830381865afa158015610f30573d6000803e3d6000fd5b505050506040513d601f19601f82011682018060405250810190610f549190614045565b610f705760405162461bcd60e51b81526004016106d190614062565b610f7b848484612409565b50505050565b610f8961244c565b610f9360006124a6565b565b6101915460408051631d6c8e3f60e21b815290516000926001600160a01b0316916375b238fc9160048083019260209291908290030181865afa158015610fe0573d6000803e3d6000fd5b505050506040513d601f19601f82011682018060405250810190611004919061402c565b61019154604051632474521560e21b8152600481018390523360248201529192506001600160a01b0316906391d1485490604401602060405180830381865afa158015611055573d6000803e3d6000fd5b505050506040513d601f19601f820116820180604052508101906110799190614045565b6110955760405162461bcd60e51b81526004016106d190614062565b61109f83836124f8565b505050565b6101915460408051631d6c8e3f60e21b815290516000926001600160a01b0316916375b238fc9160048083019260209291908290030181865afa1580156110ef573d6000803e3d6000fd5b505050506040513d601f19601f82011682018060405250810190611113919061402c565b61019154604051632474521560e21b8152600481018390523360248201529192506001600160a01b0316906391d1485490604401602060405180830381865afa158015611164573d6000803e3d6000fd5b505050506040513d601f19601f820116820180604052508101906111889190614045565b6111a45760405162461bcd60e51b81526004016106d190614062565b610994612556565b6101fb610c948282614253565b6101915460408051631d6c8e3f60e21b815290516000926001600160a01b0316916375b238fc9160048083019260209291908290030181865afa158015611204573d6000803e3d6000fd5b505050506040513d601f19601f82011682018060405250810190611228919061402c565b61019154604051632474521560e21b8152600481018390523360248201529192506001600160a01b0316906391d1485490604401602060405180830381865afa158015611279573d6000803e3d6000fd5b505050506040513d601f19601f8201168201806040525081019061129d9190614045565b6112b95760405162461bcd60e51b81526004016106d190614062565b61019180546001600160a01b0319166001600160a01b0384169081179091556040517fdd8c807c33d35ad7642d985aca3455e9281f5298b1c22a4aadb5a86d52df7ed190600090a25050565b610c94338383612593565b600054610100900460ff16158080156113305750600054600160ff909116105b8061134a5750303b15801561134a575060005460ff166001145b6113ad5760405162461bcd60e51b815260206004820152602e60248201527f496e697469616c697a61626c653a20636f6e747261637420697320616c72656160448201526d191e481a5b9a5d1a585b1a5e995960921b60648201526084016106d1565b6000805460ff1916600117905580156113d0576000805461ff0019166101001790555b6113fa60405180604001604052806009815260200168506f6c66743131353560b81b815250612673565b6114026126a3565b61140a6126d2565b611412612701565b61141b82612728565b611423612701565b61142b612758565b611433612701565b6040805180820182526009815268506f6c66743131353560b81b6020918201528151808301835260018152603160f81b9082015281517f8b73c3c69bb8fe3d512ecc4cf759cc79239f7b179b0ffacaa9a75d522b39400f818301527f0a6b95ed59f3c591368284aae06ccb475ddadce27fde04e495b977358a30b73f818401527fc89efdaa54c0f20c7adf612882df0950f5a951637e0307cdcb4c672f298b8bc660608201524660808201523060a0808301919091528351808303909101815260c090910190925281519101206101f8556611c37937e080006101f9556101fa80546001600160a01b031916331790558015610c94576000805461ff0019169055604051600181527f7f26b83ff96e1f2b6a682f133852f6798a09c465da95921460cefb38474024989060200160405180910390a15050565b60606106ff82610755565b611582838383611c45565b6101915460408051635c79c67d60e01b815290516000926001600160a01b031691635c79c67d9160048083019260209291908290030181865afa1580156115cd573d6000803e3d6000fd5b505050506040513d601f19601f820116820180604052508101906115f1919061402c565b61019154604051632474521560e21b8152600481018390526001600160a01b0385811660248301529293509116906391d1485490604401602060405180830381865afa158015611645573d6000803e3d6000fd5b505050506040513d601f19601f820116820180604052508101906116699190614045565b6116c95760405162461bcd60e51b815260206004820152602b60248201527f57686974656c697374577261707065723a20596f7520646f6e2774206861766560448201526a206772616e7420726f6c6560a81b60648201526084016106d1565b6101f95434101561171c5760405162461bcd60e51b815260206004820152601960248201527f506f6c6674313135353a204e6f7420656e6f756768206665650000000000000060448201526064016106d1565b6101fa546040516000916001600160a01b03169034908381818185875af1925050503d806000811461176a576040519150601f19603f3d011682016040523d82523d6000602084013e61176f565b606091505b50509050806117c05760405162461bcd60e51b815260206004820152601d60248201527f506f6c6674313135353a2043616e206e6f742073656e64206d6f6e657900000060448201526064016106d1565b60208085013560009081526101f7909152604090205460ff16156118195760405162461bcd60e51b815260206004820152601060248201526f4173736574206973206d696e7465642160801b60448201526064016106d1565b611846336101f654866040013560405180604001604052806002815260200161060f60f31b815250612787565b6118536101f654886124f8565b6101f68054906000611864836141c0565b909155505060208085013560009081526101f790915260408120805460ff191660019081179091556101f6547f79438b0ee2bc727e4bfda50a589facc82e58113bdfe3672ed4521e14428a71f99291339130916118c091614312565b88604001358c6040516118d896959493929190614325565b60405180910390a150505050505050565b6101fb80546118f7906141d9565b80601f0160208091040260200160405190810160405280929190818152602001828054611923906141d9565b80156119705780601f1061194557610100808354040283529160200191611970565b820191906000526020600020905b81548152906001019060200180831161195357829003601f168201915b505050505081565b6101915460408051631d6c8e3f60e21b815290516000926001600160a01b0316916375b238fc9160048083019260209291908290030181865afa1580156119c3573d6000803e3d6000fd5b505050506040513d601f19601f820116820180604052508101906119e7919061402c565b61019154604051632474521560e21b8152600481018390523360248201529192506001600160a01b0316906391d1485490604401602060405180830381865afa158015611a38573d6000803e3d6000fd5b505050506040513d601f19601f82011682018060405250810190611a5c9190614045565b611a785760405162461bcd60e51b81526004016106d190614062565b506101f955565b6001600160a01b038516331480611a9b5750611a9b853361059c565b611ab75760405162461bcd60e51b81526004016106d1906140ad565b61086c8585858585612872565b611acc61244c565b6001600160a01b038116611b315760405162461bcd60e51b815260206004820152602660248201527f4f776e61626c653a206e6577206f776e657220697320746865207a65726f206160448201526564647265737360d01b60648201526084016106d1565b610994816124a6565b6101915460408051631d6c8e3f60e21b815290516000926001600160a01b0316916375b238fc9160048083019260209291908290030181865afa158015611b85573d6000803e3d6000fd5b505050506040513d601f19601f82011682018060405250810190611ba9919061402c565b61019154604051632474521560e21b8152600481018390523360248201529192506001600160a01b0316906391d1485490604401602060405180830381865afa158015611bfa573d6000803e3d6000fd5b505050506040513d601f19601f82011682018060405250810190611c1e9190614045565b611c3a5760405162461bcd60e51b81526004016106d190614062565b610f7b8484846129ae565b6000807fb02fb5b7bb5a43725a2362f5d951ac70473e3d68b6bf5c251b9ca1139948eb38611c766020850185613ba0565b604080516020818101949094526001600160a01b0390921682820152918501356060828101919091529185013560808201529084013560a082015260c00160405160208183030381529060405280519060200120905060006101f85482604051602001611cfa92919061190160f01b81526002810192909252602282015260420190565b6040516020818303038152906040528051906020012090506000611d5687878080601f01602080910402602001604051908101604052809392919081815260200183838082843760009201919091525086939250506129f19050565b93505050505b9392505050565b60008181526101606020526040812080546060929190611d82906141d9565b80601f0160208091040260200160405190810160405280929190818152602001828054611dae906141d9565b8015611dfb5780601f10611dd057610100808354040283529160200191611dfb565b820191906000526020600020905b815481529060010190602001808311611dde57829003601f168201915b505050505090506000815111611e1957611e1483612a0d565b611d5c565b61015f81604051602001611e2e929190614373565b6040516020818303038152906040529392505050565b6001600160a01b038416611e6a5760405162461bcd60e51b81526004016106d1906143fa565b8151835114611e8b5760405162461bcd60e51b81526004016106d19061443b565b33611e9b81600087878787612aa1565b60005b8451811015611f3757838181518110611eb957611eb9614194565b602002602001015160c96000878481518110611ed757611ed7614194565b602002602001015181526020019081526020016000206000886001600160a01b03166001600160a01b031681526020019081526020016000206000828254611f1f9190614483565b90915550819050611f2f816141c0565b915050611e9e565b50846001600160a01b031660006001600160a01b0316826001600160a01b03167f4a39dc06d4c0dbc64b70af90fd698a233a518aa5d07e595d983b8c0526c8f7fb8787604051611f88929190614496565b60405180910390a461086c81600087878787612ab7565b8151835114611fc05760405162461bcd60e51b81526004016106d19061443b565b6001600160a01b038416611fe65760405162461bcd60e51b81526004016106d1906144bb565b33611ff5818787878787612aa1565b60005b84518110156120de57600085828151811061201557612015614194565b60200260200101519050600085838151811061203357612033614194565b602090810291909101810151600084815260c9835260408082206001600160a01b038e1683529093529190912054909150818110156120845760405162461bcd60e51b81526004016106d190614500565b600083815260c9602090815260408083206001600160a01b038e8116855292528083208585039055908b168252812080548492906120c3908490614483565b92505081905550505050806120d7906141c0565b9050611ff8565b50846001600160a01b0316866001600160a01b0316826001600160a01b03167f4a39dc06d4c0dbc64b70af90fd698a233a518aa5d07e595d983b8c0526c8f7fb878760405161212e929190614496565b60405180910390a4612144818787878787612ab7565b505050505050565b6101915460408051631d6c8e3f60e21b815290516000926001600160a01b0316916375b238fc9160048083019260209291908290030181865afa158015612197573d6000803e3d6000fd5b505050506040513d601f19601f820116820180604052508101906121bb919061402c565b61019154604051632474521560e21b8152600481018390523360248201529192506001600160a01b0316906391d1485490604401602060405180830381865afa15801561220c573d6000803e3d6000fd5b505050506040513d601f19601f820116820180604052508101906122309190614045565b610c945760405162461bcd60e51b81526004016106d190614062565b7f4910fdfa16fed3260ed0e7147f7cc6da11a60208b5b9406d12a635614ffd91435460ff161561227f5761109f83612c12565b826001600160a01b03166352d1902d6040518163ffffffff1660e01b8152600401602060405180830381865afa9250505080156122d9575060408051601f3d908101601f191682019092526122d69181019061402c565b60015b61233c5760405162461bcd60e51b815260206004820152602e60248201527f45524331393637557067726164653a206e657720696d706c656d656e7461746960448201526d6f6e206973206e6f74205555505360901b60648201526084016106d1565b6000805160206147ef83398151915281146123ab5760405162461bcd60e51b815260206004820152602960248201527f45524331393637557067726164653a20756e737570706f727465642070726f786044820152681a58589b195555525160ba1b60648201526084016106d1565b5061109f838383612cae565b6123bf612cd3565b6065805460ff191690557f5db9ee0a495bf2e6ff9c91a7834c1ba4fdd244a5e8aa4e537bd38aeae4b073aa335b6040516001600160a01b03909116815260200160405180910390a1565b6001600160a01b0383163314806124255750612425833361059c565b6124415760405162461bcd60e51b81526004016106d1906140ad565b61109f838383612d1c565b6033546001600160a01b03163314610f935760405162461bcd60e51b815260206004820181905260248201527f4f776e61626c653a2063616c6c6572206973206e6f7420746865206f776e657260448201526064016106d1565b603380546001600160a01b038381166001600160a01b0319831681179093556040519116919082907f8be0079c531659141344cd1fd0a4f28419497f9722a3daafe3b4186f6b6457e090600090a35050565b6000828152610160602052604090206125118282614253565b50817f6bb7ff708619ba0610cba295a58592e0451dee2622938c8755667688daf3529b61253d84610755565b60405161254a9190613903565b60405180910390a25050565b61255e612ebb565b6065805460ff191660011790557f62e78cea01bee320cd4e420270b5ea74000d11b0c9f74754ebdbfc544b05a2586123ec3390565b816001600160a01b0316836001600160a01b0316036126065760405162461bcd60e51b815260206004820152602960248201527f455243313135353a2073657474696e6720617070726f76616c20737461747573604482015268103337b91039b2b63360b91b60648201526084016106d1565b6001600160a01b03838116600081815260ca6020908152604080832094871680845294825291829020805460ff191686151590811790915591519182527f17307eab39ab6107e8899845ad3d59bd9653f200f220920489ca2b5937696c31910160405180910390a3505050565b600054610100900460ff1661269a5760405162461bcd60e51b81526004016106d19061454a565b61099481612f01565b600054610100900460ff166126ca5760405162461bcd60e51b81526004016106d19061454a565b610f93612f31565b600054610100900460ff166126f95760405162461bcd60e51b81526004016106d19061454a565b610f93612f61565b600054610100900460ff16610f935760405162461bcd60e51b81526004016106d19061454a565b600054610100900460ff1661274f5760405162461bcd60e51b81526004016106d19061454a565b61099481612f94565b600054610100900460ff1661277f5760405162461bcd60e51b81526004016106d19061454a565b610f93612fde565b6001600160a01b0384166127ad5760405162461bcd60e51b81526004016106d1906143fa565b3360006127b985613022565b905060006127c685613022565b90506127d783600089858589612aa1565b600086815260c9602090815260408083206001600160a01b038b16845290915281208054879290612809908490614483565b909155505060408051878152602081018790526001600160a01b03808a1692600092918716917fc3d58168c5ae7397731d063d5bbf3d657854427343f4c083240f7aacaa2d0f62910160405180910390a46128698360008989898961306d565b50505050505050565b6001600160a01b0384166128985760405162461bcd60e51b81526004016106d1906144bb565b3360006128a485613022565b905060006128b185613022565b90506128c1838989858589612aa1565b600086815260c9602090815260408083206001600160a01b038c168452909152902054858110156129045760405162461bcd60e51b81526004016106d190614500565b600087815260c9602090815260408083206001600160a01b038d8116855292528083208985039055908a16825281208054889290612943908490614483565b909155505060408051888152602081018890526001600160a01b03808b16928c821692918816917fc3d58168c5ae7397731d063d5bbf3d657854427343f4c083240f7aacaa2d0f62910160405180910390a46129a3848a8a8a8a8a61306d565b505050505050505050565b6001600160a01b0383163314806129ca57506129ca833361059c565b6129e65760405162461bcd60e51b81526004016106d1906140ad565b61109f838383613128565b6000806000612a008585613244565b91509150610bc081613289565b606060cb8054612a1c906141d9565b80601f0160208091040260200160405190810160405280929190818152602001828054612a48906141d9565b8015612a955780601f10612a6a57610100808354040283529160200191612a95565b820191906000526020600020905b815481529060010190602001808311612a7857829003601f168201915b50505050509050919050565b612aa9612ebb565b61214486868686868661343f565b6001600160a01b0384163b156121445760405163bc197c8160e01b81526001600160a01b0385169063bc197c8190612afb9089908990889088908890600401614595565b6020604051808303816000875af1925050508015612b36575060408051601f3d908101601f19168201909252612b33918101906145e7565b60015b612be257612b42614604565b806308c379a003612b7b5750612b5661461f565b80612b615750612b7d565b8060405162461bcd60e51b81526004016106d19190613903565b505b60405162461bcd60e51b815260206004820152603460248201527f455243313135353a207472616e7366657220746f206e6f6e20455243313135356044820152732932b1b2b4bb32b91034b6b83632b6b2b73a32b960611b60648201526084016106d1565b6001600160e01b0319811663bc197c8160e01b146128695760405162461bcd60e51b81526004016106d1906146a8565b6001600160a01b0381163b612c7f5760405162461bcd60e51b815260206004820152602d60248201527f455243313936373a206e657720696d706c656d656e746174696f6e206973206e60448201526c1bdd08184818dbdb9d1c9858dd609a1b60648201526084016106d1565b6000805160206147ef83398151915280546001600160a01b0319166001600160a01b0392909216919091179055565b612cb7836135bb565b600082511180612cc45750805b1561109f57610f7b83836135fb565b60655460ff16610f935760405162461bcd60e51b815260206004820152601460248201527314185d5cd8589b194e881b9bdd081c185d5cd95960621b60448201526064016106d1565b6001600160a01b038316612d425760405162461bcd60e51b81526004016106d1906146f0565b8051825114612d635760405162461bcd60e51b81526004016106d19061443b565b6000339050612d8681856000868660405180602001604052806000815250612aa1565b60005b8351811015612e4e576000848281518110612da657612da6614194565b602002602001015190506000848381518110612dc457612dc4614194565b602090810291909101810151600084815260c9835260408082206001600160a01b038c168352909352919091205490915081811015612e155760405162461bcd60e51b81526004016106d190614733565b600092835260c9602090815260408085206001600160a01b038b1686529091529092209103905580612e46816141c0565b915050612d89565b5060006001600160a01b0316846001600160a01b0316826001600160a01b03167f4a39dc06d4c0dbc64b70af90fd698a233a518aa5d07e595d983b8c0526c8f7fb8686604051612e9f929190614496565b60405180910390a4604080516020810190915260009052610f7b565b60655460ff1615610f935760405162461bcd60e51b815260206004820152601060248201526f14185d5cd8589b194e881c185d5cd95960821b60448201526064016106d1565b600054610100900460ff16612f285760405162461bcd60e51b81526004016106d19061454a565b610994816136ef565b600054610100900460ff16612f585760405162461bcd60e51b81526004016106d19061454a565b610f93336124a6565b600054610100900460ff16612f885760405162461bcd60e51b81526004016106d19061454a565b6065805460ff19169055565b600054610100900460ff16612fbb5760405162461bcd60e51b81526004016106d19061454a565b61019180546001600160a01b0319166001600160a01b0392909216919091179055565b600054610100900460ff166130055760405162461bcd60e51b81526004016106d19061454a565b60408051602081019091526000815261015f906109949082614253565b6040805160018082528183019092526060916000919060208083019080368337019050509050828160008151811061305c5761305c614194565b602090810291909101015292915050565b6001600160a01b0384163b156121445760405163f23a6e6160e01b81526001600160a01b0385169063f23a6e61906130b19089908990889088908890600401614777565b6020604051808303816000875af19250505080156130ec575060408051601f3d908101601f191682019092526130e9918101906145e7565b60015b6130f857612b42614604565b6001600160e01b0319811663f23a6e6160e01b146128695760405162461bcd60e51b81526004016106d1906146a8565b6001600160a01b03831661314e5760405162461bcd60e51b81526004016106d1906146f0565b33600061315a84613022565b9050600061316784613022565b905061318783876000858560405180602001604052806000815250612aa1565b600085815260c9602090815260408083206001600160a01b038a168452909152902054848110156131ca5760405162461bcd60e51b81526004016106d190614733565b600086815260c9602090815260408083206001600160a01b038b81168086529184528285208a8703905582518b81529384018a90529092908816917fc3d58168c5ae7397731d063d5bbf3d657854427343f4c083240f7aacaa2d0f62910160405180910390a4604080516020810190915260009052612869565b600080825160410361327a5760208301516040840151606085015160001a61326e878285856136fb565b94509450505050613282565b506000905060025b9250929050565b600081600481111561329d5761329d6147bc565b036132a55750565b60018160048111156132b9576132b96147bc565b036133065760405162461bcd60e51b815260206004820152601860248201527f45434453413a20696e76616c6964207369676e6174757265000000000000000060448201526064016106d1565b600281600481111561331a5761331a6147bc565b036133675760405162461bcd60e51b815260206004820152601f60248201527f45434453413a20696e76616c6964207369676e6174757265206c656e6774680060448201526064016106d1565b600381600481111561337b5761337b6147bc565b036133d35760405162461bcd60e51b815260206004820152602260248201527f45434453413a20696e76616c6964207369676e6174757265202773272076616c604482015261756560f01b60648201526084016106d1565b60048160048111156133e7576133e76147bc565b036109945760405162461bcd60e51b815260206004820152602260248201527f45434453413a20696e76616c6964207369676e6174757265202776272076616c604482015261756560f01b60648201526084016106d1565b6001600160a01b0385166134c75760005b83518110156134c55782818151811061346b5761346b614194565b602002602001015161012d600086848151811061348a5761348a614194565b6020026020010151815260200190815260200160002060008282546134af9190614483565b909155506134be9050816141c0565b9050613450565b505b6001600160a01b0384166121445760005b83518110156128695760008482815181106134f5576134f5614194565b60200260200101519050600084838151811061351357613513614194565b60200260200101519050600061012d6000848152602001908152602001600020549050818110156135975760405162461bcd60e51b815260206004820152602860248201527f455243313135353a206275726e20616d6f756e74206578636565647320746f74604482015267616c537570706c7960c01b60648201526084016106d1565b600092835261012d6020526040909220910390556135b4816141c0565b90506134d8565b6135c481612c12565b6040516001600160a01b038216907fbc7cd75a20ee27fd9adebab32041f755214dbc6bffa90cc0225b39da2e5c2d3b90600090a250565b60606001600160a01b0383163b6136635760405162461bcd60e51b815260206004820152602660248201527f416464726573733a2064656c65676174652063616c6c20746f206e6f6e2d636f6044820152651b9d1c9858dd60d21b60648201526084016106d1565b600080846001600160a01b03168460405161367e91906147d2565b600060405180830381855af49150503d80600081146136b9576040519150601f19603f3d011682016040523d82523d6000602084013e6136be565b606091505b50915091506136e6828260405180606001604052806027815260200161480f602791396137e8565b95945050505050565b60cb610c948282614253565b6000807f7fffffffffffffffffffffffffffffff5d576e7357a4501ddfe92f46681b20a083111561373257506000905060036137df565b8460ff16601b1415801561374a57508460ff16601c14155b1561375b57506000905060046137df565b6040805160008082526020820180845289905260ff881692820192909252606081018690526080810185905260019060a0016020604051602081039080840390855afa1580156137af573d6000803e3d6000fd5b5050604051601f1901519150506001600160a01b0381166137d8576000600192509250506137df565b9150600090505b94509492505050565b606083156137f7575081611d5c565b8251156138075782518084602001fd5b8160405162461bcd60e51b81526004016106d19190613903565b80356001600160a01b038116811461383857600080fd5b919050565b6000806040838503121561385057600080fd5b61385983613821565b946020939093013593505050565b6001600160e01b03198116811461099457600080fd5b60006020828403121561388f57600080fd5b8135611d5c81613867565b6000602082840312156138ac57600080fd5b5035919050565b60005b838110156138ce5781810151838201526020016138b6565b50506000910152565b600081518084526138ef8160208601602086016138b3565b601f01601f19169290920160200192915050565b602081526000611d5c60208301846138d7565b634e487b7160e01b600052604160045260246000fd5b601f8201601f191681016001600160401b038111828210171561395157613951613916565b6040525050565b60006001600160401b0382111561397157613971613916565b5060051b60200190565b600082601f83011261398c57600080fd5b8135602061399982613958565b6040516139a6828261392c565b83815260059390931b85018201928281019150868411156139c657600080fd5b8286015b848110156139e157803583529183019183016139ca565b509695505050505050565b600082601f8301126139fd57600080fd5b81356001600160401b03811115613a1657613a16613916565b604051613a2d601f8301601f19166020018261392c565b818152846020838601011115613a4257600080fd5b816020850160208301376000918101602001919091529392505050565b60008060008060808587031215613a7557600080fd5b613a7e85613821565b935060208501356001600160401b0380821115613a9a57600080fd5b613aa68883890161397b565b94506040870135915080821115613abc57600080fd5b613ac88883890161397b565b93506060870135915080821115613ade57600080fd5b50613aeb878288016139ec565b91505092959194509250565b600080600080600060a08688031215613b0f57600080fd5b613b1886613821565b9450613b2660208701613821565b935060408601356001600160401b0380821115613b4257600080fd5b613b4e89838a0161397b565b94506060880135915080821115613b6457600080fd5b613b7089838a0161397b565b93506080880135915080821115613b8657600080fd5b50613b93888289016139ec565b9150509295509295909350565b600060208284031215613bb257600080fd5b611d5c82613821565b60008060408385031215613bce57600080fd5b82356001600160401b0380821115613be557600080fd5b818501915085601f830112613bf957600080fd5b81356020613c0682613958565b604051613c13828261392c565b83815260059390931b8501820192828101915089841115613c3357600080fd5b948201945b83861015613c5857613c4986613821565b82529482019490820190613c38565b96505086013592505080821115613c6e57600080fd5b50613c7b8582860161397b565b9150509250929050565b600081518084526020808501945080840160005b83811015613cb557815187529582019590820190600101613c99565b509495945050505050565b602081526000611d5c6020830184613c85565b60008060408385031215613ce657600080fd5b613cef83613821565b915060208301356001600160401b03811115613d0a57600080fd5b613c7b858286016139ec565b600080600060608486031215613d2b57600080fd5b613d3484613821565b925060208401356001600160401b0380821115613d5057600080fd5b613d5c8783880161397b565b93506040860135915080821115613d7257600080fd5b50613d7f8682870161397b565b9150509250925092565b60008060408385031215613d9c57600080fd5b8235915060208301356001600160401b03811115613d0a57600080fd5b600060208284031215613dcb57600080fd5b81356001600160401b03811115613de157600080fd5b613ded848285016139ec565b949350505050565b801515811461099457600080fd5b60008060408385031215613e1657600080fd5b613e1f83613821565b91506020830135613e2f81613df5565b809150509250929050565b60008083601f840112613e4c57600080fd5b5081356001600160401b03811115613e6357600080fd5b60208301915083602082850101111561328257600080fd5b600060808284031215613e8d57600080fd5b50919050565b60008060008060c08587031215613ea957600080fd5b84356001600160401b0380821115613ec057600080fd5b613ecc888389016139ec565b95506020870135915080821115613ee257600080fd5b50613eef87828801613e3a565b9094509250613f0390508660408701613e7b565b905092959194509250565b60008060408385031215613f2157600080fd5b613f2a83613821565b9150613f3860208401613821565b90509250929050565b600080600080600060a08688031215613f5957600080fd5b613f6286613821565b9450613f7060208701613821565b9350604086013592506060860135915060808601356001600160401b03811115613f9957600080fd5b613b93888289016139ec565b600080600060608486031215613fba57600080fd5b613fc384613821565b95602085013595506040909401359392505050565b600080600060a08486031215613fed57600080fd5b83356001600160401b0381111561400357600080fd5b61400f86828701613e3a565b909450925061402390508560208601613e7b565b90509250925092565b60006020828403121561403e57600080fd5b5051919050565b60006020828403121561405757600080fd5b8151611d5c81613df5565b6020808252602b908201527f57686974656c697374577261707065723a20596f7520646f6e2774206861766560408201526a2061646d696e20726f6c6560a81b606082015260800190565b6020808252602f908201527f455243313135353a2063616c6c6572206973206e6f7420746f6b656e206f776e60408201526e195c881b9bdc88185c1c1c9bdd9959608a1b606082015260800190565b6020808252602c908201527f46756e6374696f6e206d7573742062652063616c6c6564207468726f7567682060408201526b19195b1959d85d1958d85b1b60a21b606082015260800190565b6020808252602c908201527f46756e6374696f6e206d7573742062652063616c6c6564207468726f7567682060408201526b6163746976652070726f787960a01b606082015260800190565b634e487b7160e01b600052603260045260246000fd5b634e487b7160e01b600052601160045260246000fd5b6000600182016141d2576141d26141aa565b5060010190565b600181811c908216806141ed57607f821691505b602082108103613e8d57634e487b7160e01b600052602260045260246000fd5b601f82111561109f57600081815260208120601f850160051c810160208610156142345750805b601f850160051c820191505b8181101561214457828155600101614240565b81516001600160401b0381111561426c5761426c613916565b6142808161427a84546141d9565b8461420d565b602080601f8311600181146142b5576000841561429d5750858301515b600019600386901b1c1916600185901b178555612144565b600085815260208120601f198616915b828110156142e4578886015182559484019460019091019084016142c5565b50858210156143025787850151600019600388901b60f8161c191681555b5050505050600190811b01905550565b818103818111156106ff576106ff6141aa565b6001600160a01b038781168252868116602083015285166040820152606081018490526080810183905260c060a08201819052600090614367908301846138d7565b98975050505050505050565b6000808454614381816141d9565b6001828116801561439957600181146143ae576143dd565b60ff19841687528215158302870194506143dd565b8860005260208060002060005b858110156143d45781548a8201529084019082016143bb565b50505082870194505b5050505083516143f18183602088016138b3565b01949350505050565b60208082526021908201527f455243313135353a206d696e7420746f20746865207a65726f206164647265736040820152607360f81b606082015260800190565b60208082526028908201527f455243313135353a2069647320616e6420616d6f756e7473206c656e677468206040820152670dad2e6dac2e8c6d60c31b606082015260800190565b808201808211156106ff576106ff6141aa565b6040815260006144a96040830185613c85565b82810360208401526136e68185613c85565b60208082526025908201527f455243313135353a207472616e7366657220746f20746865207a65726f206164604082015264647265737360d81b606082015260800190565b6020808252602a908201527f455243313135353a20696e73756666696369656e742062616c616e636520666f60408201526939103a3930b739b332b960b11b606082015260800190565b6020808252602b908201527f496e697469616c697a61626c653a20636f6e7472616374206973206e6f74206960408201526a6e697469616c697a696e6760a81b606082015260800190565b6001600160a01b0386811682528516602082015260a0604082018190526000906145c190830186613c85565b82810360608401526145d38186613c85565b9050828103608084015261436781856138d7565b6000602082840312156145f957600080fd5b8151611d5c81613867565b600060033d1115610d495760046000803e5060005160e01c90565b600060443d101561462d5790565b6040516003193d81016004833e81513d6001600160401b03816024840111818411171561465c57505050505090565b82850191508151818111156146745750505050505090565b843d870101602082850101111561468e5750505050505090565b61469d6020828601018761392c565b509095945050505050565b60208082526028908201527f455243313135353a204552433131353552656365697665722072656a656374656040820152676420746f6b656e7360c01b606082015260800190565b60208082526023908201527f455243313135353a206275726e2066726f6d20746865207a65726f206164647260408201526265737360e81b606082015260800190565b60208082526024908201527f455243313135353a206275726e20616d6f756e7420657863656564732062616c604082015263616e636560e01b606082015260800190565b6001600160a01b03868116825285166020820152604081018490526060810183905260a0608082018190526000906147b1908301846138d7565b979650505050505050565b634e487b7160e01b600052602160045260246000fd5b600082516147e48184602087016138b3565b919091019291505056fe360894a13ba1a3210667c828492db98dca3e2076cc3735a920a3ca505d382bbc416464726573733a206c6f772d6c6576656c2064656c65676174652063616c6c206661696c6564a164736f6c6343000811000a",
  "linkReferences": {},
  "deployedLinkReferences": {}
}