{
  "_format": "hh-sol-artifact-1",
  "contractName": "Polft721",
  "sourceName": "contracts/standard/core/Polft721.sol",
  "abi": [
    {
      "inputs": [],
      "stateMutability": "nonpayable",
      "type": "constructor"
    },
    {
      "anonymous": false,
      "inputs": [
        {
          "indexed": false,
          "internalType": "address",
          "name": "previousAdmin",
          "type": "address"
        },
        {
          "indexed": false,
          "internalType": "address",
          "name": "newAdmin",
          "type": "address"
        }
      ],
      "name": "AdminChanged",
      "type": "event"
    },
    {
      "anonymous": false,
      "inputs": [
        {
          "indexed": true,
          "internalType": "address",
          "name": "owner",
          "type": "address"
        },
        {
          "indexed": true,
          "internalType": "address",
          "name": "approved",
          "type": "address"
        },
        {
          "indexed": true,
          "internalType": "uint256",
          "name": "tokenId",
          "type": "uint256"
        }
      ],
      "name": "Approval",
      "type": "event"
    },
    {
      "anonymous": false,
      "inputs": [
        {
          "indexed": true,
          "internalType": "address",
          "name": "owner",
          "type": "address"
        },
        {
          "indexed": true,
          "internalType": "address",
          "name": "operator",
          "type": "address"
        },
        {
          "indexed": false,
          "internalType": "bool",
          "name": "approved",
          "type": "bool"
        }
      ],
      "name": "ApprovalForAll",
      "type": "event"
    },
    {
      "anonymous": false,
      "inputs": [
        {
          "indexed": true,
          "internalType": "address",
          "name": "beacon",
          "type": "address"
        }
      ],
      "name": "BeaconUpgraded",
      "type": "event"
    },
    {
      "anonymous": false,
      "inputs": [
        {
          "indexed": false,
          "internalType": "uint8",
          "name": "version",
          "type": "uint8"
        }
      ],
      "name": "Initialized",
      "type": "event"
    },
    {
      "anonymous": false,
      "inputs": [
        {
          "indexed": false,
          "internalType": "address",
          "name": "from",
          "type": "address"
        },
        {
          "indexed": false,
          "internalType": "address",
          "name": "to",
          "type": "address"
        },
        {
          "indexed": false,
          "internalType": "address",
          "name": "nftAddress",
          "type": "address"
        },
        {
          "indexed": false,
          "internalType": "uint256",
          "name": "tokenId",
          "type": "uint256"
        },
        {
          "indexed": false,
          "internalType": "uint256",
          "name": "quantity",
          "type": "uint256"
        },
        {
          "indexed": false,
          "internalType": "string",
          "name": "ipfs",
          "type": "string"
        }
      ],
      "name": "Mint",
      "type": "event"
    },
    {
      "anonymous": false,
      "inputs": [
        {
          "indexed": true,
          "internalType": "address",
          "name": "previousOwner",
          "type": "address"
        },
        {
          "indexed": true,
          "internalType": "address",
          "name": "newOwner",
          "type": "address"
        }
      ],
      "name": "OwnershipTransferred",
      "type": "event"
    },
    {
      "anonymous": false,
      "inputs": [
        {
          "indexed": false,
          "internalType": "address",
          "name": "account",
          "type": "address"
        }
      ],
      "name": "Paused",
      "type": "event"
    },
    {
      "anonymous": false,
      "inputs": [
        {
          "indexed": true,
          "internalType": "address",
          "name": "from",
          "type": "address"
        },
        {
          "indexed": true,
          "internalType": "address",
          "name": "to",
          "type": "address"
        },
        {
          "indexed": true,
          "internalType": "uint256",
          "name": "tokenId",
          "type": "uint256"
        }
      ],
      "name": "Transfer",
      "type": "event"
    },
    {
      "anonymous": false,
      "inputs": [
        {
          "indexed": false,
          "internalType": "address",
          "name": "account",
          "type": "address"
        }
      ],
      "name": "Unpaused",
      "type": "event"
    },
    {
      "anonymous": false,
      "inputs": [
        {
          "indexed": true,
          "internalType": "address",
          "name": "implementation",
          "type": "address"
        }
      ],
      "name": "Upgraded",
      "type": "event"
    },
    {
      "anonymous": false,
      "inputs": [
        {
          "indexed": true,
          "internalType": "address",
          "name": "newOwner",
          "type": "address"
        }
      ],
      "name": "WhitelistChanged",
      "type": "event"
    },
    {
      "inputs": [
        {
          "internalType": "address",
          "name": "to",
          "type": "address"
        },
        {
          "internalType": "uint256",
          "name": "tokenId",
          "type": "uint256"
        }
      ],
      "name": "approve",
      "outputs": [],
      "stateMutability": "nonpayable",
      "type": "function"
    },
    {
      "inputs": [
        {
          "internalType": "address",
          "name": "owner",
          "type": "address"
        }
      ],
      "name": "balanceOf",
      "outputs": [
        {
          "internalType": "uint256",
          "name": "",
          "type": "uint256"
        }
      ],
      "stateMutability": "view",
      "type": "function"
    },
    {
      "inputs": [
        {
          "internalType": "uint256",
          "name": "tokenId",
          "type": "uint256"
        }
      ],
      "name": "burn",
      "outputs": [],
      "stateMutability": "nonpayable",
      "type": "function"
    },
    {
      "inputs": [
        {
          "internalType": "address",
          "name": "_to",
          "type": "address"
        },
        {
          "internalType": "string",
          "name": "_ipfs",
          "type": "string"
        }
      ],
      "name": "claim",
      "outputs": [],
      "stateMutability": "nonpayable",
      "type": "function"
    },
    {
      "inputs": [],
      "name": "contractURI",
      "outputs": [
        {
          "internalType": "string",
          "name": "",
          "type": "string"
        }
      ],
      "stateMutability": "view",
      "type": "function"
    },
    {
      "inputs": [],
      "name": "getAddress",
      "outputs": [
        {
          "internalType": "address",
          "name": "",
          "type": "address"
        }
      ],
      "stateMutability": "view",
      "type": "function"
    },
    {
      "inputs": [
        {
          "internalType": "bytes",
          "name": "signature",
          "type": "bytes"
        },
        {
          "components": [
            {
              "internalType": "address",
              "name": "requester",
              "type": "address"
            },
            {
              "internalType": "uint256",
              "name": "assetId",
              "type": "uint256"
            },
            {
              "internalType": "uint256",
              "name": "nonce",
              "type": "uint256"
            }
          ],
          "internalType": "struct IPolft721.MintAssetRequest",
          "name": "req",
          "type": "tuple"
        }
      ],
      "name": "getAddressWithSignature",
      "outputs": [
        {
          "internalType": "address",
          "name": "",
          "type": "address"
        }
      ],
      "stateMutability": "view",
      "type": "function"
    },
    {
      "inputs": [
        {
          "internalType": "uint256",
          "name": "tokenId",
          "type": "uint256"
        }
      ],
      "name": "getApproved",
      "outputs": [
        {
          "internalType": "address",
          "name": "",
          "type": "address"
        }
      ],
      "stateMutability": "view",
      "type": "function"
    },
    {
      "inputs": [],
      "name": "getChainId",
      "outputs": [
        {
          "internalType": "uint256",
          "name": "",
          "type": "uint256"
        }
      ],
      "stateMutability": "view",
      "type": "function"
    },
    {
      "inputs": [
        {
          "internalType": "address",
          "name": "_whitelistAddress",
          "type": "address"
        }
      ],
      "name": "initialize",
      "outputs": [],
      "stateMutability": "nonpayable",
      "type": "function"
    },
    {
      "inputs": [
        {
          "internalType": "address",
          "name": "owner",
          "type": "address"
        },
        {
          "internalType": "address",
          "name": "operator",
          "type": "address"
        }
      ],
      "name": "isApprovedForAll",
      "outputs": [
        {
          "internalType": "bool",
          "name": "",
          "type": "bool"
        }
      ],
      "stateMutability": "view",
      "type": "function"
    },
    {
      "inputs": [],
      "name": "mintFee",
      "outputs": [
        {
          "internalType": "uint256",
          "name": "",
          "type": "uint256"
        }
      ],
      "stateMutability": "view",
      "type": "function"
    },
    {
      "inputs": [],
      "name": "name",
      "outputs": [
        {
          "internalType": "string",
          "name": "",
          "type": "string"
        }
      ],
      "stateMutability": "view",
      "type": "function"
    },
    {
      "inputs": [],
      "name": "owner",
      "outputs": [
        {
          "internalType": "address",
          "name": "",
          "type": "address"
        }
      ],
      "stateMutability": "view",
      "type": "function"
    },
    {
      "inputs": [
        {
          "internalType": "uint256",
          "name": "tokenId",
          "type": "uint256"
        }
      ],
      "name": "ownerOf",
      "outputs": [
        {
          "internalType": "address",
          "name": "",
          "type": "address"
        }
      ],
      "stateMutability": "view",
      "type": "function"
    },
    {
      "inputs": [],
      "name": "pause",
      "outputs": [],
      "stateMutability": "nonpayable",
      "type": "function"
    },
    {
      "inputs": [],
      "name": "paused",
      "outputs": [
        {
          "internalType": "bool",
          "name": "",
          "type": "bool"
        }
      ],
      "stateMutability": "view",
      "type": "function"
    },
    {
      "inputs": [],
      "name": "proxiableUUID",
      "outputs": [
        {
          "internalType": "bytes32",
          "name": "",
          "type": "bytes32"
        }
      ],
      "stateMutability": "view",
      "type": "function"
    },
    {
      "inputs": [],
      "name": "renounceOwnership",
      "outputs": [],
      "stateMutability": "nonpayable",
      "type": "function"
    },
    {
      "inputs": [
        {
          "internalType": "string",
          "name": "_ipfs",
          "type": "string"
        },
        {
          "internalType": "bytes",
          "name": "_signature",
          "type": "bytes"
        },
        {
          "components": [
            {
              "internalType": "address",
              "name": "requester",
              "type": "address"
            },
            {
              "internalType": "uint256",
              "name": "assetId",
              "type": "uint256"
            },
            {
              "internalType": "uint256",
              "name": "nonce",
              "type": "uint256"
            }
          ],
          "internalType": "struct IPolft721.MintAssetRequest",
          "name": "_req",
          "type": "tuple"
        }
      ],
      "name": "safeMint",
      "outputs": [],
      "stateMutability": "payable",
      "type": "function"
    },
    {
      "inputs": [
        {
          "internalType": "address",
          "name": "from",
          "type": "address"
        },
        {
          "internalType": "address",
          "name": "to",
          "type": "address"
        },
        {
          "internalType": "uint256",
          "name": "tokenId",
          "type": "uint256"
        }
      ],
      "name": "safeTransferFrom",
      "outputs": [],
      "stateMutability": "nonpayable",
      "type": "function"
    },
    {
      "inputs": [
        {
          "internalType": "address",
          "name": "from",
          "type": "address"
        },
        {
          "internalType": "address",
          "name": "to",
          "type": "address"
        },
        {
          "internalType": "uint256",
          "name": "tokenId",
          "type": "uint256"
        },
        {
          "internalType": "bytes",
          "name": "data",
          "type": "bytes"
        }
      ],
      "name": "safeTransferFrom",
      "outputs": [],
      "stateMutability": "nonpayable",
      "type": "function"
    },
    {
      "inputs": [
        {
          "internalType": "address",
          "name": "_address",
          "type": "address"
        }
      ],
      "name": "setAirdropAddress",
      "outputs": [],
      "stateMutability": "nonpayable",
      "type": "function"
    },
    {
      "inputs": [
        {
          "internalType": "address",
          "name": "operator",
          "type": "address"
        },
        {
          "internalType": "bool",
          "name": "approved",
          "type": "bool"
        }
      ],
      "name": "setApprovalForAll",
      "outputs": [],
      "stateMutability": "nonpayable",
      "type": "function"
    },
    {
      "inputs": [
        {
          "internalType": "string",
          "name": "_contractURI",
          "type": "string"
        }
      ],
      "name": "setContractURI",
      "outputs": [],
      "stateMutability": "nonpayable",
      "type": "function"
    },
    {
      "inputs": [
        {
          "internalType": "uint256",
          "name": "_value",
          "type": "uint256"
        }
      ],
      "name": "setMintFee",
      "outputs": [],
      "stateMutability": "nonpayable",
      "type": "function"
    },
    {
      "inputs": [
        {
          "internalType": "uint256",
          "name": "_tokenId",
          "type": "uint256"
        },
        {
          "internalType": "string",
          "name": "_uri",
          "type": "string"
        }
      ],
      "name": "setTokenURI",
      "outputs": [],
      "stateMutability": "nonpayable",
      "type": "function"
    },
    {
      "inputs": [
        {
          "internalType": "address",
          "name": "_address",
          "type": "address"
        }
      ],
      "name": "setTreasuryAddress",
      "outputs": [],
      "stateMutability": "nonpayable",
      "type": "function"
    },
    {
      "inputs": [
        {
          "internalType": "address",
          "name": "whitelistAddress_",
          "type": "address"
        }
      ],
      "name": "setWhitelistAddress",
      "outputs": [],
      "stateMutability": "nonpayable",
      "type": "function"
    },
    {
      "inputs": [
        {
          "internalType": "bytes4",
          "name": "interfaceId",
          "type": "bytes4"
        }
      ],
      "name": "supportsInterface",
      "outputs": [
        {
          "internalType": "bool",
          "name": "",
          "type": "bool"
        }
      ],
      "stateMutability": "view",
      "type": "function"
    },
    {
      "inputs": [],
      "name": "symbol",
      "outputs": [
        {
          "internalType": "string",
          "name": "",
          "type": "string"
        }
      ],
      "stateMutability": "view",
      "type": "function"
    },
    {
      "inputs": [
        {
          "internalType": "uint256",
          "name": "index",
          "type": "uint256"
        }
      ],
      "name": "tokenByIndex",
      "outputs": [
        {
          "internalType": "uint256",
          "name": "",
          "type": "uint256"
        }
      ],
      "stateMutability": "view",
      "type": "function"
    },
    {
      "inputs": [
        {
          "internalType": "address",
          "name": "owner",
          "type": "address"
        },
        {
          "internalType": "uint256",
          "name": "index",
          "type": "uint256"
        }
      ],
      "name": "tokenOfOwnerByIndex",
      "outputs": [
        {
          "internalType": "uint256",
          "name": "",
          "type": "uint256"
        }
      ],
      "stateMutability": "view",
      "type": "function"
    },
    {
      "inputs": [
        {
          "internalType": "uint256",
          "name": "tokenId",
          "type": "uint256"
        }
      ],
      "name": "tokenURI",
      "outputs": [
        {
          "internalType": "string",
          "name": "",
          "type": "string"
        }
      ],
      "stateMutability": "view",
      "type": "function"
    },
    {
      "inputs": [],
      "name": "totalSupply",
      "outputs": [
        {
          "internalType": "uint256",
          "name": "",
          "type": "uint256"
        }
      ],
      "stateMutability": "view",
      "type": "function"
    },
    {
      "inputs": [
        {
          "internalType": "address",
          "name": "from",
          "type": "address"
        },
        {
          "internalType": "address",
          "name": "to",
          "type": "address"
        },
        {
          "internalType": "uint256",
          "name": "tokenId",
          "type": "uint256"
        }
      ],
      "name": "transferFrom",
      "outputs": [],
      "stateMutability": "nonpayable",
      "type": "function"
    },
    {
      "inputs": [
        {
          "internalType": "address",
          "name": "newOwner",
          "type": "address"
        }
      ],
      "name": "transferOwnership",
      "outputs": [],
      "stateMutability": "nonpayable",
      "type": "function"
    },
    {
      "inputs": [],
      "name": "unpause",
      "outputs": [],
      "stateMutability": "nonpayable",
      "type": "function"
    },
    {
      "inputs": [
        {
          "internalType": "address",
          "name": "newImplementation",
          "type": "address"
        }
      ],
      "name": "upgradeTo",
      "outputs": [],
      "stateMutability": "nonpayable",
      "type": "function"
    },
    {
      "inputs": [
        {
          "internalType": "address",
          "name": "newImplementation",
          "type": "address"
        },
        {
          "internalType": "bytes",
          "name": "data",
          "type": "bytes"
        }
      ],
      "name": "upgradeToAndCall",
      "outputs": [],
      "stateMutability": "payable",
      "type": "function"
    }
  ],
  "bytecode": "0x60a0604052306080523480156200001557600080fd5b506200002062000026565b620000e8565b600054610100900460ff1615620000935760405162461bcd60e51b815260206004820152602760248201527f496e697469616c697a61626c653a20636f6e747261637420697320696e697469604482015266616c697a696e6760c81b606482015260840160405180910390fd5b60005460ff9081161015620000e6576000805460ff191660ff9081179091556040519081527f7f26b83ff96e1f2b6a682f133852f6798a09c465da95921460cefb38474024989060200160405180910390a15b565b6080516141486200012060003960008181610d8201528181610dc20152818161103c0152818161107c01526111a201526141486000f3fe60806040526004361061023b5760003560e01c80635c975abb1161012e578063a22cb465116100ab578063c87b56dd1161006f578063c87b56dd14610657578063e8a3d48514610677578063e985e9c51461068c578063eddd0d9c146106d5578063f2fde38b146106f557600080fd5b8063a22cb465146105b7578063a8d95fb2146105d7578063ab0eda9e146105f7578063b88d4fde14610617578063c4d66de81461063757600080fd5b80638456cb59116100f25780638456cb591461052e5780638da5cb5b14610543578063938e3d7b1461056257806395d89b4114610582578063a224c7451461059757600080fd5b80635c975abb146104a15780636352211e146104b95780636605bfda146104d957806370a08231146104f9578063715018a61461051957600080fd5b80633408e470116101bc57806342842e0e1161018057806342842e0e1461041957806342966c68146104395780634f1ef286146104595780634f6ccce71461046c57806352d1902d1461048c57600080fd5b80633408e4701461039e5780633659cfe6146103b157806337a328f8146103d157806338cc4831146103f15780633f4ba83a1461040457600080fd5b806313966db51161020357806313966db514610304578063162094c41461032957806318160ddd1461034957806323b872dd1461035e5780632f745c591461037e57600080fd5b806301ffc9a71461024057806306fdde0314610275578063081812fc14610297578063095ea7b3146102cf5780630cfb4aee146102f1575b600080fd5b34801561024c57600080fd5b5061026061025b36600461374e565b610715565b60405190151581526020015b60405180910390f35b34801561028157600080fd5b5061028a610726565b60405161026c91906137bb565b3480156102a357600080fd5b506102b76102b23660046137ce565b6107b8565b6040516001600160a01b03909116815260200161026c565b3480156102db57600080fd5b506102ef6102ea366004613803565b6107df565b005b6102ef6102ff36600461392a565b6108f9565b34801561031057600080fd5b5061031b61022d5481565b60405190815260200161026c565b34801561033557600080fd5b506102ef6103443660046139a6565b610c3a565b34801561035557600080fd5b5060995461031b565b34801561036a57600080fd5b506102ef6103793660046139ed565b610cb0565b34801561038a57600080fd5b5061031b610399366004613803565b610ce2565b3480156103aa57600080fd5b504661031b565b3480156103bd57600080fd5b506102ef6103cc366004613a29565b610d78565b3480156103dd57600080fd5b506102b76103ec366004613a44565b610e57565b3480156103fd57600080fd5b50306102b7565b34801561041057600080fd5b506102ef610f06565b34801561042557600080fd5b506102ef6104343660046139ed565b61100e565b34801561044557600080fd5b506102ef6104543660046137ce565b611029565b6102ef610467366004613a99565b611032565b34801561047857600080fd5b5061031b6104873660046137ce565b611102565b34801561049857600080fd5b5061031b611195565b3480156104ad57600080fd5b5060fb5460ff16610260565b3480156104c557600080fd5b506102b76104d43660046137ce565b611248565b3480156104e557600080fd5b506102ef6104f4366004613a29565b6112a8565b34801561050557600080fd5b5061031b610514366004613a29565b6113cc565b34801561052557600080fd5b506102ef611452565b34801561053a57600080fd5b506102ef611466565b34801561054f57600080fd5b5061012d546001600160a01b03166102b7565b34801561056e57600080fd5b506102ef61057d366004613ad1565b61156e565b34801561058e57600080fd5b5061028a61157b565b3480156105a357600080fd5b506102ef6105b2366004613a29565b61158a565b3480156105c357600080fd5b506102ef6105d2366004613b14565b6116d6565b3480156105e357600080fd5b506102ef6105f2366004613a99565b6116e1565b34801561060357600080fd5b506102ef610612366004613a29565b61176d565b34801561062357600080fd5b506102ef610632366004613b4b565b611891565b34801561064357600080fd5b506102ef610652366004613a29565b6118c9565b34801561066357600080fd5b5061028a6106723660046137ce565b611abe565b34801561068357600080fd5b5061028a611ac9565b34801561069857600080fd5b506102606106a7366004613bb3565b6001600160a01b039182166000908152606a6020908152604080832093909416825291909152205460ff1690565b3480156106e157600080fd5b506102ef6106f03660046137ce565b611b58565b34801561070157600080fd5b506102ef610710366004613a29565b611c5f565b600061072082611cd5565b92915050565b60606065805461073590613be6565b80601f016020809104026020016040519081016040528092919081815260200182805461076190613be6565b80156107ae5780601f10610783576101008083540402835291602001916107ae565b820191906000526020600020905b81548152906001019060200180831161079157829003601f168201915b5050505050905090565b60006107c382611cfa565b506000908152606960205260409020546001600160a01b031690565b60006107ea82611248565b9050806001600160a01b0316836001600160a01b03160361085c5760405162461bcd60e51b815260206004820152602160248201527f4552433732313a20617070726f76616c20746f2063757272656e74206f776e656044820152603960f91b60648201526084015b60405180910390fd5b336001600160a01b0382161480610878575061087881336106a7565b6108ea5760405162461bcd60e51b815260206004820152603e60248201527f4552433732313a20617070726f76652063616c6c6572206973206e6f7420746f60448201527f6b656e206f776e6572206e6f7220617070726f76656420666f7220616c6c00006064820152608401610853565b6108f48383611d59565b505050565b610904838383610e57565b6102295460408051635c79c67d60e01b815290516000926001600160a01b031691635c79c67d9160048083019260209291908290030181865afa15801561094f573d6000803e3d6000fd5b505050506040513d601f19601f820116820180604052508101906109739190613c1a565b61022954604051632474521560e21b8152600481018390526001600160a01b0385811660248301529293509116906391d1485490604401602060405180830381865afa1580156109c7573d6000803e3d6000fd5b505050506040513d601f19601f820116820180604052508101906109eb9190613c33565b610a4b5760405162461bcd60e51b815260206004820152602b60248201527f57686974656c697374577261707065723a20596f7520646f6e2774206861766560448201526a206772616e7420726f6c6560a81b6064820152608401610853565b61022d54341015610a9e5760405162461bcd60e51b815260206004820152601860248201527f506f6c66743732313a204e6f7420656e6f7567682066656500000000000000006044820152606401610853565b61022e546040516000916001600160a01b03169034908381818185875af1925050503d8060008114610aec576040519150601f19603f3d011682016040523d82523d6000602084013e610af1565b606091505b5050905080610b425760405162461bcd60e51b815260206004820152601c60248201527f506f6c66743732313a2043616e206e6f742073656e64206d6f6e6579000000006044820152606401610853565b602080850135600090815261022b909152604090205460ff1615610b9b5760405162461bcd60e51b815260206004820152601060248201526f4173736574206973206d696e7465642160801b6044820152606401610853565b6000610ba761022a5490565b9050610bb861022a80546001019055565b610bc23382611dc7565b610bcc8189611de1565b602080860135600090815261022b9091526040808220805460ff1916600190811790915590517f79438b0ee2bc727e4bfda50a589facc82e58113bdfe3672ed4521e14428a71f992610c28929091339130918791908f90613c50565b60405180910390a15050505050505050565b8133610c4582611248565b6001600160a01b031614610ca65760405162461bcd60e51b815260206004820152602260248201527f506f6c66743732313a20596f7520617265206e6f74206f776e6572206f66204e604482015261119560f21b6064820152608401610853565b6108f48383611de1565b610cbb335b82611e74565b610cd75760405162461bcd60e51b815260040161085390613c9e565b6108f4838383611ef3565b6000610ced836113cc565b8210610d4f5760405162461bcd60e51b815260206004820152602b60248201527f455243373231456e756d657261626c653a206f776e657220696e646578206f7560448201526a74206f6620626f756e647360a81b6064820152608401610853565b506001600160a01b03919091166000908152609760209081526040808320938352929052205490565b6001600160a01b037f0000000000000000000000000000000000000000000000000000000000000000163003610dc05760405162461bcd60e51b815260040161085390613cec565b7f00000000000000000000000000000000000000000000000000000000000000006001600160a01b0316610e096000805160206140f5833981519152546001600160a01b031690565b6001600160a01b031614610e2f5760405162461bcd60e51b815260040161085390613d38565b610e388161209a565b60408051600080825260208201909252610e549183919061219a565b50565b600080610efb85858080601f0160208091040260200160405190810160405280939291908181526020018383808284376000920191909152505061022c54610ef592509050610ea96020880188613a29565b604080516020818101949094526001600160a01b039092168282015291880135606082015290870135608082015260a00160405160208183030381529060405280519060200120612305565b90612353565b9150505b9392505050565b6102295460408051631d6c8e3f60e21b815290516000926001600160a01b0316916375b238fc9160048083019260209291908290030181865afa158015610f51573d6000803e3d6000fd5b505050506040513d601f19601f82011682018060405250810190610f759190613c1a565b61022954604051632474521560e21b8152600481018390523360248201529192506001600160a01b0316906391d1485490604401602060405180830381865afa158015610fc6573d6000803e3d6000fd5b505050506040513d601f19601f82011682018060405250810190610fea9190613c33565b6110065760405162461bcd60e51b815260040161085390613d84565b610e54612377565b6108f483838360405180602001604052806000815250611891565b610e54816123c9565b6001600160a01b037f000000000000000000000000000000000000000000000000000000000000000016300361107a5760405162461bcd60e51b815260040161085390613cec565b7f00000000000000000000000000000000000000000000000000000000000000006001600160a01b03166110c36000805160206140f5833981519152546001600160a01b031690565b6001600160a01b0316146110e95760405162461bcd60e51b815260040161085390613d38565b6110f28261209a565b6110fe8282600161219a565b5050565b600061110d60995490565b82106111705760405162461bcd60e51b815260206004820152602c60248201527f455243373231456e756d657261626c653a20676c6f62616c20696e646578206f60448201526b7574206f6620626f756e647360a01b6064820152608401610853565b6099828154811061118357611183613dcf565b90600052602060002001549050919050565b6000306001600160a01b037f000000000000000000000000000000000000000000000000000000000000000016146112355760405162461bcd60e51b815260206004820152603860248201527f555550535570677261646561626c653a206d757374206e6f742062652063616c60448201527f6c6564207468726f7567682064656c656761746563616c6c00000000000000006064820152608401610853565b506000805160206140f583398151915290565b6000818152606760205260408120546001600160a01b0316806107205760405162461bcd60e51b8152602060048201526018602482015277115490cdcc8c4e881a5b9d985b1a59081d1bdad95b88125160421b6044820152606401610853565b6102295460408051631d6c8e3f60e21b815290516000926001600160a01b0316916375b238fc9160048083019260209291908290030181865afa1580156112f3573d6000803e3d6000fd5b505050506040513d601f19601f820116820180604052508101906113179190613c1a565b61022954604051632474521560e21b8152600481018390523360248201529192506001600160a01b0316906391d1485490604401602060405180830381865afa158015611368573d6000803e3d6000fd5b505050506040513d601f19601f8201168201806040525081019061138c9190613c33565b6113a85760405162461bcd60e51b815260040161085390613d84565b5061022e80546001600160a01b0319166001600160a01b0392909216919091179055565b60006001600160a01b0382166114365760405162461bcd60e51b815260206004820152602960248201527f4552433732313a2061646472657373207a65726f206973206e6f7420612076616044820152683634b21037bbb732b960b91b6064820152608401610853565b506001600160a01b031660009081526068602052604090205490565b61145a6123f7565b6114646000612452565b565b6102295460408051631d6c8e3f60e21b815290516000926001600160a01b0316916375b238fc9160048083019260209291908290030181865afa1580156114b1573d6000803e3d6000fd5b505050506040513d601f19601f820116820180604052508101906114d59190613c1a565b61022954604051632474521560e21b8152600481018390523360248201529192506001600160a01b0316906391d1485490604401602060405180830381865afa158015611526573d6000803e3d6000fd5b505050506040513d601f19601f8201168201806040525081019061154a9190613c33565b6115665760405162461bcd60e51b815260040161085390613d84565b610e546124a5565b6102306110fe8282613e33565b60606066805461073590613be6565b6102295460408051631d6c8e3f60e21b815290516000926001600160a01b0316916375b238fc9160048083019260209291908290030181865afa1580156115d5573d6000803e3d6000fd5b505050506040513d601f19601f820116820180604052508101906115f99190613c1a565b61022954604051632474521560e21b8152600481018390523360248201529192506001600160a01b0316906391d1485490604401602060405180830381865afa15801561164a573d6000803e3d6000fd5b505050506040513d601f19601f8201168201806040525081019061166e9190613c33565b61168a5760405162461bcd60e51b815260040161085390613d84565b61022980546001600160a01b0319166001600160a01b0384169081179091556040517fdd8c807c33d35ad7642d985aca3455e9281f5298b1c22a4aadb5a86d52df7ed190600090a25050565b6110fe3383836124e2565b61022f546001600160a01b0316331461173c5760405162461bcd60e51b815260206004820152601d60248201527f506f6c66743732313a206e6f742061697264726f7020616464726573730000006044820152606401610853565b600061174861022a5490565b905061175961022a80546001019055565b6117638382611dc7565b6108f48183611de1565b6102295460408051631d6c8e3f60e21b815290516000926001600160a01b0316916375b238fc9160048083019260209291908290030181865afa1580156117b8573d6000803e3d6000fd5b505050506040513d601f19601f820116820180604052508101906117dc9190613c1a565b61022954604051632474521560e21b8152600481018390523360248201529192506001600160a01b0316906391d1485490604401602060405180830381865afa15801561182d573d6000803e3d6000fd5b505050506040513d601f19601f820116820180604052508101906118519190613c33565b61186d5760405162461bcd60e51b815260040161085390613d84565b5061022f80546001600160a01b0319166001600160a01b0392909216919091179055565b61189b3383611e74565b6118b75760405162461bcd60e51b815260040161085390613c9e565b6118c3848484846125b0565b50505050565b600054610100900460ff16158080156118e95750600054600160ff909116105b806119035750303b158015611903575060005460ff166001145b6119665760405162461bcd60e51b815260206004820152602e60248201527f496e697469616c697a61626c653a20636f6e747261637420697320616c72656160448201526d191e481a5b9a5d1a585b1a5e995960921b6064820152608401610853565b6000805460ff191660011790558015611989576000805461ff0019166101001790555b6119ce60405180604001604052806008815260200167506f6c667437323160c01b8152506040518060400160405280600381526020016214111560ea1b8152506125e3565b6119d6612614565b6119de612614565b6119e78261263b565b6119ef61266b565b6119f761269a565b6119ff612614565b611a07612614565b611a31611a12610726565b604051806040016040528060018152602001603160f81b8152506126c9565b7f8a33b8863d26293d4ac8b7387dc25b141b99ff6ad73c435248e319500cbd071261022c556611c37937e0800061022d5561022e80546001600160a01b0319163317905580156110fe576000805461ff0019169055604051600181527f7f26b83ff96e1f2b6a682f133852f6798a09c465da95921460cefb38474024989060200160405180910390a15050565b6060610720826126fa565b6102308054611ad790613be6565b80601f0160208091040260200160405190810160405280929190818152602001828054611b0390613be6565b8015611b505780601f10611b2557610100808354040283529160200191611b50565b820191906000526020600020905b815481529060010190602001808311611b3357829003601f168201915b505050505081565b6102295460408051631d6c8e3f60e21b815290516000926001600160a01b0316916375b238fc9160048083019260209291908290030181865afa158015611ba3573d6000803e3d6000fd5b505050506040513d601f19601f82011682018060405250810190611bc79190613c1a565b61022954604051632474521560e21b8152600481018390523360248201529192506001600160a01b0316906391d1485490604401602060405180830381865afa158015611c18573d6000803e3d6000fd5b505050506040513d601f19601f82011682018060405250810190611c3c9190613c33565b611c585760405162461bcd60e51b815260040161085390613d84565b5061022d55565b611c676123f7565b6001600160a01b038116611ccc5760405162461bcd60e51b815260206004820152602660248201527f4f776e61626c653a206e6577206f776e657220697320746865207a65726f206160448201526564647265737360d01b6064820152608401610853565b610e5481612452565b60006001600160e01b0319821663780e9d6360e01b1480610720575061072082612802565b6000818152606760205260409020546001600160a01b0316610e545760405162461bcd60e51b8152602060048201526018602482015277115490cdcc8c4e881a5b9d985b1a59081d1bdad95b88125160421b6044820152606401610853565b600081815260696020526040902080546001600160a01b0319166001600160a01b0384169081179091558190611d8e82611248565b6001600160a01b03167f8c5be1e5ebec7d5bd14f71427d1e84f3dd0314c0f7b2291e5b200ac8c7c3b92560405160405180910390a45050565b6110fe828260405180602001604052806000815250612852565b6000828152606760205260409020546001600160a01b0316611e5c5760405162461bcd60e51b815260206004820152602e60248201527f45524337323155524953746f726167653a2055524920736574206f66206e6f6e60448201526d32bc34b9ba32b73a103a37b5b2b760911b6064820152608401610853565b600082815260c9602052604090206108f48282613e33565b600080611e8083611248565b9050806001600160a01b0316846001600160a01b03161480611ec757506001600160a01b038082166000908152606a602090815260408083209388168352929052205460ff165b80611eeb5750836001600160a01b0316611ee0846107b8565b6001600160a01b0316145b949350505050565b826001600160a01b0316611f0682611248565b6001600160a01b031614611f6a5760405162461bcd60e51b815260206004820152602560248201527f4552433732313a207472616e736665722066726f6d20696e636f72726563742060448201526437bbb732b960d91b6064820152608401610853565b6001600160a01b038216611fcc5760405162461bcd60e51b8152602060048201526024808201527f4552433732313a207472616e7366657220746f20746865207a65726f206164646044820152637265737360e01b6064820152608401610853565b611fd7838383612885565b611fe2600082611d59565b6001600160a01b038316600090815260686020526040812080546001929061200b908490613f09565b90915550506001600160a01b0382166000908152606860205260408120805460019290612039908490613f1c565b909155505060008181526067602052604080822080546001600160a01b0319166001600160a01b0386811691821790925591518493918716917fddf252ad1be2c89b69c2b068fc378daa952ba7f163c4a11628f55a4df523b3ef91a4505050565b6102295460408051631d6c8e3f60e21b815290516000926001600160a01b0316916375b238fc9160048083019260209291908290030181865afa1580156120e5573d6000803e3d6000fd5b505050506040513d601f19601f820116820180604052508101906121099190613c1a565b61022954604051632474521560e21b8152600481018390523360248201529192506001600160a01b0316906391d1485490604401602060405180830381865afa15801561215a573d6000803e3d6000fd5b505050506040513d601f19601f8201168201806040525081019061217e9190613c33565b6110fe5760405162461bcd60e51b815260040161085390613d84565b7f4910fdfa16fed3260ed0e7147f7cc6da11a60208b5b9406d12a635614ffd91435460ff16156121cd576108f483612898565b826001600160a01b03166352d1902d6040518163ffffffff1660e01b8152600401602060405180830381865afa925050508015612227575060408051601f3d908101601f1916820190925261222491810190613c1a565b60015b61228a5760405162461bcd60e51b815260206004820152602e60248201527f45524331393637557067726164653a206e657720696d706c656d656e7461746960448201526d6f6e206973206e6f74205555505360901b6064820152608401610853565b6000805160206140f583398151915281146122f95760405162461bcd60e51b815260206004820152602960248201527f45524331393637557067726164653a20756e737570706f727465642070726f786044820152681a58589b195555525160ba1b6064820152608401610853565b506108f4838383612934565b6000610720612312612959565b8360405161190160f01b6020820152602281018390526042810182905260009060620160405160208183030381529060405280519060200120905092915050565b600080600061236285856129db565b9150915061236f81612a20565b509392505050565b61237f612bd6565b60fb805460ff191690557f5db9ee0a495bf2e6ff9c91a7834c1ba4fdd244a5e8aa4e537bd38aeae4b073aa335b6040516001600160a01b03909116815260200160405180910390a1565b6123d233610cb5565b6123ee5760405162461bcd60e51b815260040161085390613c9e565b610e5481612c1f565b61012d546001600160a01b031633146114645760405162461bcd60e51b815260206004820181905260248201527f4f776e61626c653a2063616c6c6572206973206e6f7420746865206f776e65726044820152606401610853565b61012d80546001600160a01b038381166001600160a01b0319831681179093556040519116919082907f8be0079c531659141344cd1fd0a4f28419497f9722a3daafe3b4186f6b6457e090600090a35050565b6124ad612c28565b60fb805460ff191660011790557f62e78cea01bee320cd4e420270b5ea74000d11b0c9f74754ebdbfc544b05a2586123ac3390565b816001600160a01b0316836001600160a01b0316036125435760405162461bcd60e51b815260206004820152601960248201527f4552433732313a20617070726f766520746f2063616c6c6572000000000000006044820152606401610853565b6001600160a01b038381166000818152606a6020908152604080832094871680845294825291829020805460ff191686151590811790915591519182527f17307eab39ab6107e8899845ad3d59bd9653f200f220920489ca2b5937696c31910160405180910390a3505050565b6125bb848484611ef3565b6125c784848484612c6e565b6118c35760405162461bcd60e51b815260040161085390613f2f565b600054610100900460ff1661260a5760405162461bcd60e51b815260040161085390613f81565b6110fe8282612d6f565b600054610100900460ff166114645760405162461bcd60e51b815260040161085390613f81565b600054610100900460ff166126625760405162461bcd60e51b815260040161085390613f81565b610e5481612daf565b600054610100900460ff166126925760405162461bcd60e51b815260040161085390613f81565b611464612df9565b600054610100900460ff166126c15760405162461bcd60e51b815260040161085390613f81565b611464612e2c565b600054610100900460ff166126f05760405162461bcd60e51b815260040161085390613f81565b6110fe8282612e5c565b606061270582611cfa565b600082815260c960205260408120805461271e90613be6565b80601f016020809104026020016040519081016040528092919081815260200182805461274a90613be6565b80156127975780601f1061276c57610100808354040283529160200191612797565b820191906000526020600020905b81548152906001019060200180831161277a57829003601f168201915b5050505050905060006127b560408051602081019091526000815290565b905080516000036127c7575092915050565b8151156127f95780826040516020016127e1929190613fcc565b60405160208183030381529060405292505050919050565b611eeb84612e9f565b60006001600160e01b031982166380ac58cd60e01b148061283357506001600160e01b03198216635b5e139f60e01b145b8061072057506301ffc9a760e01b6001600160e01b0319831614610720565b61285c8383612f12565b6128696000848484612c6e565b6108f45760405162461bcd60e51b815260040161085390613f2f565b61288d612c28565b6108f4838383613060565b6001600160a01b0381163b6129055760405162461bcd60e51b815260206004820152602d60248201527f455243313936373a206e657720696d706c656d656e746174696f6e206973206e60448201526c1bdd08184818dbdb9d1c9858dd609a1b6064820152608401610853565b6000805160206140f583398151915280546001600160a01b0319166001600160a01b0392909216919091179055565b61293d83613118565b60008251118061294a5750805b156108f4576118c38383613158565b60006129d67f8b73c3c69bb8fe3d512ecc4cf759cc79239f7b179b0ffacaa9a75d522b39400f6129896101f55490565b6101f6546040805160208101859052908101839052606081018290524660808201523060a082015260009060c0016040516020818303038152906040528051906020012090509392505050565b905090565b6000808251604103612a115760208301516040840151606085015160001a612a058782858561324c565b94509450505050612a19565b506000905060025b9250929050565b6000816004811115612a3457612a34613ffb565b03612a3c5750565b6001816004811115612a5057612a50613ffb565b03612a9d5760405162461bcd60e51b815260206004820152601860248201527f45434453413a20696e76616c6964207369676e617475726500000000000000006044820152606401610853565b6002816004811115612ab157612ab1613ffb565b03612afe5760405162461bcd60e51b815260206004820152601f60248201527f45434453413a20696e76616c6964207369676e6174757265206c656e677468006044820152606401610853565b6003816004811115612b1257612b12613ffb565b03612b6a5760405162461bcd60e51b815260206004820152602260248201527f45434453413a20696e76616c6964207369676e6174757265202773272076616c604482015261756560f01b6064820152608401610853565b6004816004811115612b7e57612b7e613ffb565b03610e545760405162461bcd60e51b815260206004820152602260248201527f45434453413a20696e76616c6964207369676e6174757265202776272076616c604482015261756560f01b6064820152608401610853565b60fb5460ff166114645760405162461bcd60e51b815260206004820152601460248201527314185d5cd8589b194e881b9bdd081c185d5cd95960621b6044820152606401610853565b610e5481613339565b60fb5460ff16156114645760405162461bcd60e51b815260206004820152601060248201526f14185d5cd8589b194e881c185d5cd95960821b6044820152606401610853565b60006001600160a01b0384163b15612d6457604051630a85bd0160e11b81526001600160a01b0385169063150b7a0290612cb2903390899088908890600401614011565b6020604051808303816000875af1925050508015612ced575060408051601f3d908101601f19168201909252612cea9181019061404e565b60015b612d4a573d808015612d1b576040519150601f19603f3d011682016040523d82523d6000602084013e612d20565b606091505b508051600003612d425760405162461bcd60e51b815260040161085390613f2f565b805181602001fd5b6001600160e01b031916630a85bd0160e11b149050611eeb565b506001949350505050565b600054610100900460ff16612d965760405162461bcd60e51b815260040161085390613f81565b6065612da28382613e33565b5060666108f48282613e33565b600054610100900460ff16612dd65760405162461bcd60e51b815260040161085390613f81565b61022980546001600160a01b0319166001600160a01b0392909216919091179055565b600054610100900460ff16612e205760405162461bcd60e51b815260040161085390613f81565b60fb805460ff19169055565b600054610100900460ff16612e535760405162461bcd60e51b815260040161085390613f81565b61146433612452565b600054610100900460ff16612e835760405162461bcd60e51b815260040161085390613f81565b8151602092830120815191909201206101f5919091556101f655565b6060612eaa82611cfa565b6000612ec160408051602081019091526000815290565b90506000815111612ee15760405180602001604052806000815250610eff565b80612eeb84613379565b604051602001612efc929190613fcc565b6040516020818303038152906040529392505050565b6001600160a01b038216612f685760405162461bcd60e51b815260206004820181905260248201527f4552433732313a206d696e7420746f20746865207a65726f20616464726573736044820152606401610853565b6000818152606760205260409020546001600160a01b031615612fcd5760405162461bcd60e51b815260206004820152601c60248201527f4552433732313a20746f6b656e20616c7265616479206d696e746564000000006044820152606401610853565b612fd960008383612885565b6001600160a01b0382166000908152606860205260408120805460019290613002908490613f1c565b909155505060008181526067602052604080822080546001600160a01b0319166001600160a01b03861690811790915590518392907fddf252ad1be2c89b69c2b068fc378daa952ba7f163c4a11628f55a4df523b3ef908290a45050565b6001600160a01b0383166130bb576130b681609980546000838152609a60205260408120829055600182018355919091527f72a152ddfb8e864297c917af52ea6c1c68aead0fee1a62673fcc7e0c94979d000155565b6130de565b816001600160a01b0316836001600160a01b0316146130de576130de838261347a565b6001600160a01b0382166130f5576108f481613517565b826001600160a01b0316826001600160a01b0316146108f4576108f482826135c6565b61312181612898565b6040516001600160a01b038216907fbc7cd75a20ee27fd9adebab32041f755214dbc6bffa90cc0225b39da2e5c2d3b90600090a250565b60606001600160a01b0383163b6131c05760405162461bcd60e51b815260206004820152602660248201527f416464726573733a2064656c65676174652063616c6c20746f206e6f6e2d636f6044820152651b9d1c9858dd60d21b6064820152608401610853565b600080846001600160a01b0316846040516131db919061406b565b600060405180830381855af49150503d8060008114613216576040519150601f19603f3d011682016040523d82523d6000602084013e61321b565b606091505b509150915061324382826040518060600160405280602781526020016141156027913961360a565b95945050505050565b6000807f7fffffffffffffffffffffffffffffff5d576e7357a4501ddfe92f46681b20a08311156132835750600090506003613330565b8460ff16601b1415801561329b57508460ff16601c14155b156132ac5750600090506004613330565b6040805160008082526020820180845289905260ff881692820192909252606081018690526080810185905260019060a0016020604051602081039080840390855afa158015613300573d6000803e3d6000fd5b5050604051601f1901519150506001600160a01b03811661332957600060019250925050613330565b9150600090505b94509492505050565b61334281613643565b600081815260c960205260409020805461335b90613be6565b159050610e5457600081815260c960205260408120610e54916136ea565b6060816000036133a05750506040805180820190915260018152600360fc1b602082015290565b8160005b81156133ca57806133b481614087565b91506133c39050600a836140b6565b91506133a4565b60008167ffffffffffffffff8111156133e5576133e561382d565b6040519080825280601f01601f19166020018201604052801561340f576020820181803683370190505b5090505b8415611eeb57613424600183613f09565b9150613431600a866140ca565b61343c906030613f1c565b60f81b81838151811061345157613451613dcf565b60200101906001600160f81b031916908160001a905350613473600a866140b6565b9450613413565b60006001613487846113cc565b6134919190613f09565b6000838152609860205260409020549091508082146134e4576001600160a01b03841660009081526097602090815260408083208584528252808320548484528184208190558352609890915290208190555b5060009182526098602090815260408084208490556001600160a01b039094168352609781528383209183525290812055565b60995460009061352990600190613f09565b6000838152609a60205260408120546099805493945090928490811061355157613551613dcf565b90600052602060002001549050806099838154811061357257613572613dcf565b6000918252602080832090910192909255828152609a909152604080822084905585825281205560998054806135aa576135aa6140de565b6001900381819060005260206000200160009055905550505050565b60006135d1836113cc565b6001600160a01b039093166000908152609760209081526040808320868452825280832085905593825260989052919091209190915550565b60608315613619575081610eff565b8251156136295782518084602001fd5b8160405162461bcd60e51b815260040161085391906137bb565b600061364e82611248565b905061365c81600084612885565b613667600083611d59565b6001600160a01b0381166000908152606860205260408120805460019290613690908490613f09565b909155505060008281526067602052604080822080546001600160a01b0319169055518391906001600160a01b038416907fddf252ad1be2c89b69c2b068fc378daa952ba7f163c4a11628f55a4df523b3ef908390a45050565b5080546136f690613be6565b6000825580601f10613706575050565b601f016020900490600052602060002090810190610e5491905b808211156137345760008155600101613720565b5090565b6001600160e01b031981168114610e5457600080fd5b60006020828403121561376057600080fd5b8135610eff81613738565b60005b8381101561378657818101518382015260200161376e565b50506000910152565b600081518084526137a781602086016020860161376b565b601f01601f19169290920160200192915050565b602081526000610eff602083018461378f565b6000602082840312156137e057600080fd5b5035919050565b80356001600160a01b03811681146137fe57600080fd5b919050565b6000806040838503121561381657600080fd5b61381f836137e7565b946020939093013593505050565b634e487b7160e01b600052604160045260246000fd5b600082601f83011261385457600080fd5b813567ffffffffffffffff8082111561386f5761386f61382d565b604051601f8301601f19908116603f011681019082821181831017156138975761389761382d565b816040528381528660208588010111156138b057600080fd5b836020870160208301376000602085830101528094505050505092915050565b60008083601f8401126138e257600080fd5b50813567ffffffffffffffff8111156138fa57600080fd5b602083019150836020828501011115612a1957600080fd5b60006060828403121561392457600080fd5b50919050565b60008060008060a0858703121561394057600080fd5b843567ffffffffffffffff8082111561395857600080fd5b61396488838901613843565b9550602087013591508082111561397a57600080fd5b50613987878288016138d0565b909450925061399b90508660408701613912565b905092959194509250565b600080604083850312156139b957600080fd5b82359150602083013567ffffffffffffffff8111156139d757600080fd5b6139e385828601613843565b9150509250929050565b600080600060608486031215613a0257600080fd5b613a0b846137e7565b9250613a19602085016137e7565b9150604084013590509250925092565b600060208284031215613a3b57600080fd5b610eff826137e7565b600080600060808486031215613a5957600080fd5b833567ffffffffffffffff811115613a7057600080fd5b613a7c868287016138d0565b9094509250613a9090508560208601613912565b90509250925092565b60008060408385031215613aac57600080fd5b613ab5836137e7565b9150602083013567ffffffffffffffff8111156139d757600080fd5b600060208284031215613ae357600080fd5b813567ffffffffffffffff811115613afa57600080fd5b611eeb84828501613843565b8015158114610e5457600080fd5b60008060408385031215613b2757600080fd5b613b30836137e7565b91506020830135613b4081613b06565b809150509250929050565b60008060008060808587031215613b6157600080fd5b613b6a856137e7565b9350613b78602086016137e7565b925060408501359150606085013567ffffffffffffffff811115613b9b57600080fd5b613ba787828801613843565b91505092959194509250565b60008060408385031215613bc657600080fd5b613bcf836137e7565b9150613bdd602084016137e7565b90509250929050565b600181811c90821680613bfa57607f821691505b60208210810361392457634e487b7160e01b600052602260045260246000fd5b600060208284031215613c2c57600080fd5b5051919050565b600060208284031215613c4557600080fd5b8151610eff81613b06565b6001600160a01b038781168252868116602083015285166040820152606081018490526080810183905260c060a08201819052600090613c929083018461378f565b98975050505050505050565b6020808252602e908201527f4552433732313a2063616c6c6572206973206e6f7420746f6b656e206f776e6560408201526d1c881b9bdc88185c1c1c9bdd995960921b606082015260800190565b6020808252602c908201527f46756e6374696f6e206d7573742062652063616c6c6564207468726f7567682060408201526b19195b1959d85d1958d85b1b60a21b606082015260800190565b6020808252602c908201527f46756e6374696f6e206d7573742062652063616c6c6564207468726f7567682060408201526b6163746976652070726f787960a01b606082015260800190565b6020808252602b908201527f57686974656c697374577261707065723a20596f7520646f6e2774206861766560408201526a2061646d696e20726f6c6560a81b606082015260800190565b634e487b7160e01b600052603260045260246000fd5b601f8211156108f457600081815260208120601f850160051c81016020861015613e0c5750805b601f850160051c820191505b81811015613e2b57828155600101613e18565b505050505050565b815167ffffffffffffffff811115613e4d57613e4d61382d565b613e6181613e5b8454613be6565b84613de5565b602080601f831160018114613e965760008415613e7e5750858301515b600019600386901b1c1916600185901b178555613e2b565b600085815260208120601f198616915b82811015613ec557888601518255948401946001909101908401613ea6565b5085821015613ee35787850151600019600388901b60f8161c191681555b5050505050600190811b01905550565b634e487b7160e01b600052601160045260246000fd5b8181038181111561072057610720613ef3565b8082018082111561072057610720613ef3565b60208082526032908201527f4552433732313a207472616e7366657220746f206e6f6e20455243373231526560408201527131b2b4bb32b91034b6b83632b6b2b73a32b960711b606082015260800190565b6020808252602b908201527f496e697469616c697a61626c653a20636f6e7472616374206973206e6f74206960408201526a6e697469616c697a696e6760a81b606082015260800190565b60008351613fde81846020880161376b565b835190830190613ff281836020880161376b565b01949350505050565b634e487b7160e01b600052602160045260246000fd5b6001600160a01b03858116825284166020820152604081018390526080606082018190526000906140449083018461378f565b9695505050505050565b60006020828403121561406057600080fd5b8151610eff81613738565b6000825161407d81846020870161376b565b9190910192915050565b60006001820161409957614099613ef3565b5060010190565b634e487b7160e01b600052601260045260246000fd5b6000826140c5576140c56140a0565b500490565b6000826140d9576140d96140a0565b500690565b634e487b7160e01b600052603160045260246000fdfe360894a13ba1a3210667c828492db98dca3e2076cc3735a920a3ca505d382bbc416464726573733a206c6f772d6c6576656c2064656c65676174652063616c6c206661696c6564a164736f6c6343000811000a",
  "linkReferences": {},
  "deployedLinkReferences": {}
}