{
  "_format": "hh-sol-artifact-1",
  "contractName": "PolftLend",
  "sourceName": "contracts/standard/lend/PolftLend.sol",
  "abi": [
    {
      "inputs": [],
      "stateMutability": "nonpayable",
      "type": "constructor"
    },
    {
      "anonymous": false,
      "inputs": [
        {
          "indexed": false,
          "internalType": "address",
          "name": "previousAdmin",
          "type": "address"
        },
        {
          "indexed": false,
          "internalType": "address",
          "name": "newAdmin",
          "type": "address"
        }
      ],
      "name": "AdminChanged",
      "type": "event"
    },
    {
      "anonymous": false,
      "inputs": [
        {
          "indexed": true,
          "internalType": "address",
          "name": "beacon",
          "type": "address"
        }
      ],
      "name": "BeaconUpgraded",
      "type": "event"
    },
    {
      "anonymous": false,
      "inputs": [
        {
          "indexed": false,
          "internalType": "uint8",
          "name": "version",
          "type": "uint8"
        }
      ],
      "name": "Initialized",
      "type": "event"
    },
    {
      "anonymous": false,
      "inputs": [
        {
          "indexed": false,
          "internalType": "uint256",
          "name": "loanId",
          "type": "uint256"
        }
      ],
      "name": "LoanLiquidated",
      "type": "event"
    },
    {
      "anonymous": false,
      "inputs": [
        {
          "indexed": false,
          "internalType": "uint256",
          "name": "loanId",
          "type": "uint256"
        }
      ],
      "name": "LoanRepaid",
      "type": "event"
    },
    {
      "anonymous": false,
      "inputs": [
        {
          "indexed": false,
          "internalType": "uint256",
          "name": "loanId",
          "type": "uint256"
        }
      ],
      "name": "LoanStarted",
      "type": "event"
    },
    {
      "anonymous": false,
      "inputs": [
        {
          "indexed": true,
          "internalType": "address",
          "name": "previousOwner",
          "type": "address"
        },
        {
          "indexed": true,
          "internalType": "address",
          "name": "newOwner",
          "type": "address"
        }
      ],
      "name": "OwnershipTransferred",
      "type": "event"
    },
    {
      "anonymous": false,
      "inputs": [
        {
          "indexed": true,
          "internalType": "address",
          "name": "implementation",
          "type": "address"
        }
      ],
      "name": "Upgraded",
      "type": "event"
    },
    {
      "anonymous": false,
      "inputs": [
        {
          "indexed": true,
          "internalType": "address",
          "name": "newOwner",
          "type": "address"
        }
      ],
      "name": "WhitelistChanged",
      "type": "event"
    },
    {
      "stateMutability": "payable",
      "type": "fallback"
    },
    {
      "inputs": [],
      "name": "currencyAddress",
      "outputs": [
        {
          "internalType": "address",
          "name": "",
          "type": "address"
        }
      ],
      "stateMutability": "view",
      "type": "function"
    },
    {
      "inputs": [],
      "name": "feeBps",
      "outputs": [
        {
          "internalType": "uint256",
          "name": "",
          "type": "uint256"
        }
      ],
      "stateMutability": "view",
      "type": "function"
    },
    {
      "inputs": [],
      "name": "feeRecipient",
      "outputs": [
        {
          "internalType": "address",
          "name": "",
          "type": "address"
        }
      ],
      "stateMutability": "view",
      "type": "function"
    },
    {
      "inputs": [],
      "name": "getChainID",
      "outputs": [
        {
          "internalType": "uint256",
          "name": "",
          "type": "uint256"
        }
      ],
      "stateMutability": "view",
      "type": "function"
    },
    {
      "inputs": [
        {
          "internalType": "address",
          "name": "_whitelistAddress",
          "type": "address"
        }
      ],
      "name": "initialize",
      "outputs": [],
      "stateMutability": "nonpayable",
      "type": "function"
    },
    {
      "inputs": [
        {
          "components": [
            {
              "internalType": "bytes",
              "name": "signature",
              "type": "bytes"
            },
            {
              "internalType": "address[]",
              "name": "nftCollateralContract",
              "type": "address[]"
            },
            {
              "internalType": "uint256[]",
              "name": "nftCollateralId",
              "type": "uint256[]"
            },
            {
              "internalType": "address",
              "name": "borrower",
              "type": "address"
            },
            {
              "internalType": "uint256",
              "name": "nonce",
              "type": "uint256"
            }
          ],
          "internalType": "struct SignUpgradeable.BorrowSignatureParam",
          "name": "param",
          "type": "tuple"
        }
      ],
      "name": "isValidBorrowerSignature",
      "outputs": [
        {
          "internalType": "bool",
          "name": "",
          "type": "bool"
        }
      ],
      "stateMutability": "view",
      "type": "function"
    },
    {
      "inputs": [
        {
          "components": [
            {
              "internalType": "bytes",
              "name": "signature",
              "type": "bytes"
            },
            {
              "internalType": "uint256",
              "name": "principalAmount",
              "type": "uint256"
            },
            {
              "internalType": "uint256",
              "name": "maximumPaymentAmount",
              "type": "uint256"
            },
            {
              "internalType": "uint256",
              "name": "duration",
              "type": "uint256"
            },
            {
              "internalType": "uint256",
              "name": "maxDuration",
              "type": "uint256"
            },
            {
              "internalType": "uint256",
              "name": "interestRateOnBasisPoints",
              "type": "uint256"
            },
            {
              "internalType": "bool",
              "name": "interestIsProRated",
              "type": "bool"
            },
            {
              "internalType": "address[]",
              "name": "nftCollateralContract",
              "type": "address[]"
            },
            {
              "internalType": "uint256[]",
              "name": "nftCollateralId",
              "type": "uint256[]"
            },
            {
              "internalType": "address",
              "name": "erc20CollateralContract",
              "type": "address"
            },
            {
              "internalType": "address",
              "name": "lender",
              "type": "address"
            },
            {
              "internalType": "uint256",
              "name": "nonce",
              "type": "uint256"
            }
          ],
          "internalType": "struct SignUpgradeable.LendSignatureParam",
          "name": "param",
          "type": "tuple"
        }
      ],
      "name": "isValidLenderSignature",
      "outputs": [
        {
          "internalType": "bool",
          "name": "",
          "type": "bool"
        }
      ],
      "stateMutability": "view",
      "type": "function"
    },
    {
      "inputs": [
        {
          "internalType": "uint256",
          "name": "_loanId",
          "type": "uint256"
        }
      ],
      "name": "liquidateLoan",
      "outputs": [],
      "stateMutability": "nonpayable",
      "type": "function"
    },
    {
      "inputs": [
        {
          "internalType": "uint256",
          "name": "",
          "type": "uint256"
        }
      ],
      "name": "loanInformations",
      "outputs": [
        {
          "internalType": "address",
          "name": "erc20CollateralContract",
          "type": "address"
        },
        {
          "internalType": "address",
          "name": "borrower",
          "type": "address"
        },
        {
          "internalType": "address",
          "name": "lender",
          "type": "address"
        },
        {
          "internalType": "uint256",
          "name": "startTime",
          "type": "uint256"
        },
        {
          "internalType": "uint256",
          "name": "duration",
          "type": "uint256"
        },
        {
          "internalType": "uint256",
          "name": "maxDuration",
          "type": "uint256"
        },
        {
          "internalType": "uint256",
          "name": "principalPaymentAmount",
          "type": "uint256"
        },
        {
          "internalType": "uint256",
          "name": "maximumPaymentAmount",
          "type": "uint256"
        },
        {
          "internalType": "uint256",
          "name": "interestRateOnBasisPoints",
          "type": "uint256"
        },
        {
          "internalType": "bool",
          "name": "interestIsProRated",
          "type": "bool"
        }
      ],
      "stateMutability": "view",
      "type": "function"
    },
    {
      "inputs": [
        {
          "internalType": "uint256",
          "name": "",
          "type": "uint256"
        }
      ],
      "name": "loanRepaidOrLiquidated",
      "outputs": [
        {
          "internalType": "bool",
          "name": "",
          "type": "bool"
        }
      ],
      "stateMutability": "view",
      "type": "function"
    },
    {
      "inputs": [
        {
          "internalType": "address",
          "name": "",
          "type": "address"
        },
        {
          "internalType": "uint256",
          "name": "",
          "type": "uint256"
        }
      ],
      "name": "nonces",
      "outputs": [
        {
          "internalType": "bool",
          "name": "",
          "type": "bool"
        }
      ],
      "stateMutability": "view",
      "type": "function"
    },
    {
      "inputs": [
        {
          "internalType": "address",
          "name": "",
          "type": "address"
        },
        {
          "internalType": "address",
          "name": "",
          "type": "address"
        },
        {
          "internalType": "uint256",
          "name": "",
          "type": "uint256"
        },
        {
          "internalType": "bytes",
          "name": "",
          "type": "bytes"
        }
      ],
      "name": "onERC721Received",
      "outputs": [
        {
          "internalType": "bytes4",
          "name": "",
          "type": "bytes4"
        }
      ],
      "stateMutability": "nonpayable",
      "type": "function"
    },
    {
      "inputs": [],
      "name": "owner",
      "outputs": [
        {
          "internalType": "address",
          "name": "",
          "type": "address"
        }
      ],
      "stateMutability": "view",
      "type": "function"
    },
    {
      "inputs": [],
      "name": "proxiableUUID",
      "outputs": [
        {
          "internalType": "bytes32",
          "name": "",
          "type": "bytes32"
        }
      ],
      "stateMutability": "view",
      "type": "function"
    },
    {
      "inputs": [],
      "name": "renounceOwnership",
      "outputs": [],
      "stateMutability": "nonpayable",
      "type": "function"
    },
    {
      "inputs": [
        {
          "internalType": "uint256",
          "name": "_loanId",
          "type": "uint256"
        }
      ],
      "name": "repaidLoan",
      "outputs": [],
      "stateMutability": "nonpayable",
      "type": "function"
    },
    {
      "inputs": [
        {
          "internalType": "address",
          "name": "_currencyAddress",
          "type": "address"
        }
      ],
      "name": "setCurrencyAddress",
      "outputs": [],
      "stateMutability": "nonpayable",
      "type": "function"
    },
    {
      "inputs": [
        {
          "internalType": "uint256",
          "name": "_feeBps",
          "type": "uint256"
        }
      ],
      "name": "setFeeBps",
      "outputs": [],
      "stateMutability": "nonpayable",
      "type": "function"
    },
    {
      "inputs": [
        {
          "internalType": "address",
          "name": "_feeRecipient",
          "type": "address"
        }
      ],
      "name": "setFeeRecipient",
      "outputs": [],
      "stateMutability": "nonpayable",
      "type": "function"
    },
    {
      "inputs": [
        {
          "internalType": "address",
          "name": "whitelistAddress_",
          "type": "address"
        }
      ],
      "name": "setWhitelistAddress",
      "outputs": [],
      "stateMutability": "nonpayable",
      "type": "function"
    },
    {
      "inputs": [
        {
          "components": [
            {
              "internalType": "address[]",
              "name": "nftCollateralContract",
              "type": "address[]"
            },
            {
              "internalType": "uint256[]",
              "name": "nftCollateralId",
              "type": "uint256[]"
            },
            {
              "internalType": "address",
              "name": "erc20CollateralContract",
              "type": "address"
            },
            {
              "internalType": "address",
              "name": "borrower",
              "type": "address"
            },
            {
              "internalType": "address",
              "name": "lender",
              "type": "address"
            },
            {
              "internalType": "uint256",
              "name": "duration",
              "type": "uint256"
            },
            {
              "internalType": "uint256",
              "name": "maxDuration",
              "type": "uint256"
            },
            {
              "internalType": "uint256",
              "name": "principalPaymentAmount",
              "type": "uint256"
            },
            {
              "internalType": "uint256",
              "name": "maximumPaymentAmount",
              "type": "uint256"
            },
            {
              "internalType": "uint256",
              "name": "interestRateOnBasisPoints",
              "type": "uint256"
            },
            {
              "internalType": "bool",
              "name": "interestIsProRated",
              "type": "bool"
            },
            {
              "internalType": "bytes",
              "name": "borrowerSignature",
              "type": "bytes"
            },
            {
              "internalType": "bytes",
              "name": "lenderSignature",
              "type": "bytes"
            },
            {
              "internalType": "uint256[2]",
              "name": "nonces",
              "type": "uint256[2]"
            }
          ],
          "internalType": "struct PolftLend.StartLoanParams",
          "name": "param",
          "type": "tuple"
        }
      ],
      "name": "startLoan",
      "outputs": [],
      "stateMutability": "nonpayable",
      "type": "function"
    },
    {
      "inputs": [],
      "name": "totalLoan",
      "outputs": [
        {
          "internalType": "uint256",
          "name": "",
          "type": "uint256"
        }
      ],
      "stateMutability": "view",
      "type": "function"
    },
    {
      "inputs": [
        {
          "internalType": "address",
          "name": "newOwner",
          "type": "address"
        }
      ],
      "name": "transferOwnership",
      "outputs": [],
      "stateMutability": "nonpayable",
      "type": "function"
    },
    {
      "inputs": [
        {
          "internalType": "address",
          "name": "newImplementation",
          "type": "address"
        }
      ],
      "name": "upgradeTo",
      "outputs": [],
      "stateMutability": "nonpayable",
      "type": "function"
    },
    {
      "inputs": [
        {
          "internalType": "address",
          "name": "newImplementation",
          "type": "address"
        },
        {
          "internalType": "bytes",
          "name": "data",
          "type": "bytes"
        }
      ],
      "name": "upgradeToAndCall",
      "outputs": [],
      "stateMutability": "payable",
      "type": "function"
    },
    {
      "stateMutability": "payable",
      "type": "receive"
    }
  ],
  "bytecode": "0x60a0604052306080523480156200001557600080fd5b506200002062000026565b620000e8565b600054610100900460ff1615620000935760405162461bcd60e51b815260206004820152602760248201527f496e697469616c697a61626c653a20636f6e747261637420697320696e697469604482015266616c697a696e6760c81b606482015260840160405180910390fd5b60005460ff9081161015620000e6576000805460ff191660ff9081179091556040519081527f7f26b83ff96e1f2b6a682f133852f6798a09c465da95921460cefb38474024989060200160405180910390a15b565b608051613cb46200012060003960008181610681015281816106c101528181610760015281816107a001526108330152613cb46000f3fe60806040526004361061016a5760003560e01c8063715018a6116100d1578063a95730f81161008a578063db1085a011610064578063db1085a014610494578063e74b981b14610570578063f2fde38b14610590578063f6409f7b146105b057610190565b8063a95730f814610434578063c4d66de814610454578063ccdd9f5d1461047457610190565b8063715018a61461038157806372c27b6214610396578063796b89ec146103b65780638da5cb5b146103d65780638f981e03146103f4578063a224c7451461041457610190565b8063453b1a8b11610123578063453b1a8b146102d257806346904840146102e95780634f1ef2861461030a578063502e1a161461031d57806352d1902d14610359578063564b81ef1461036e57610190565b806303881aca146101a85780630d9476ff146101dd578063150b7a021461020e5780631c1cb3231461025257806324a9d8531461028b5780633659cfe6146102b057610190565b366101905760405162461bcd60e51b815260040161018790613140565b60405180910390fd5b60405162461bcd60e51b815260040161018790613140565b3480156101b457600080fd5b506101c86101c33660046133a2565b6105d0565b60405190151581526020015b60405180910390f35b3480156101e957600080fd5b506101c86101f8366004613475565b6101306020526000908152604090205460ff1681565b34801561021a57600080fd5b5061023961022936600461348e565b630a85bd0160e11b949350505050565b6040516001600160e01b031990911681526020016101d4565b34801561025e57600080fd5b5061013354610273906001600160a01b031681565b6040516001600160a01b0390911681526020016101d4565b34801561029757600080fd5b506102a26101315481565b6040519081526020016101d4565b3480156102bc57600080fd5b506102d06102cb3660046134f6565b610677565b005b3480156102de57600080fd5b506102a26101325481565b3480156102f557600080fd5b5061013454610273906001600160a01b031681565b6102d0610318366004613511565b610756565b34801561032957600080fd5b506101c861033836600461355f565b61013560209081526000928352604080842090915290825290205460ff1681565b34801561036557600080fd5b506102a2610826565b34801561037a57600080fd5b50466102a2565b34801561038d57600080fd5b506102d06108d9565b3480156103a257600080fd5b506102d06103b1366004613475565b6108ed565b3480156103c257600080fd5b506102d06103d13660046134f6565b6109f2565b3480156103e257600080fd5b506033546001600160a01b0316610273565b34801561040057600080fd5b506102d061040f366004613475565b610b14565b34801561042057600080fd5b506102d061042f3660046134f6565b610d59565b34801561044057600080fd5b506101c861044f3660046135a2565b610ea2565b34801561046057600080fd5b506102d061046f3660046134f6565b610f62565b34801561048057600080fd5b506102d061048f366004613475565b6110bc565b3480156104a057600080fd5b506105156104af366004613475565b61012f60205260009081526040902060028101546003820154600483015460058401546006850154600786015460088701546009880154600a890154600b909901546001600160a01b039889169997891698909616969495939492939192909160ff168a565b604080516001600160a01b039b8c168152998b1660208b015297909916968801969096526060870194909452608086019290925260a085015260c084015260e0830152610100820152901515610120820152610140016101d4565b34801561057c57600080fd5b506102d061058b3660046134f6565b61137d565b34801561059c57600080fd5b506102d06105ab3660046134f6565b61149f565b3480156105bc57600080fd5b506102d06105cb3660046136d4565b611515565b60608101516000906001600160a01b03166105ed57506000919050565b6000826020015183604001518460600151856080015161060a4690565b60405160200161061e959493929190613774565b604051602081830303815290604052805190602001209050600061064182611d52565b606085015185519192506001600160a01b031690610660908390611da5565b6001600160a01b031614949350505050565b919050565b6001600160a01b037f00000000000000000000000000000000000000000000000000000000000000001630036106bf5760405162461bcd60e51b8152600401610187906137b8565b7f00000000000000000000000000000000000000000000000000000000000000006001600160a01b0316610708600080516020613c61833981519152546001600160a01b031690565b6001600160a01b03161461072e5760405162461bcd60e51b815260040161018790613804565b61073781611dcb565b6040805160008082526020820190925261075391839190611dd3565b50565b6001600160a01b037f000000000000000000000000000000000000000000000000000000000000000016300361079e5760405162461bcd60e51b8152600401610187906137b8565b7f00000000000000000000000000000000000000000000000000000000000000006001600160a01b03166107e7600080516020613c61833981519152546001600160a01b031690565b6001600160a01b03161461080d5760405162461bcd60e51b815260040161018790613804565b61081682611dcb565b61082282826001611dd3565b5050565b6000306001600160a01b037f000000000000000000000000000000000000000000000000000000000000000016146108c65760405162461bcd60e51b815260206004820152603860248201527f555550535570677261646561626c653a206d757374206e6f742062652063616c60448201527f6c6564207468726f7567682064656c656761746563616c6c00000000000000006064820152608401610187565b50600080516020613c6183398151915290565b6108e1611f43565b6108eb6000611f9d565b565b60c95460408051631d6c8e3f60e21b815290516000926001600160a01b0316916375b238fc9160048083019260209291908290030181865afa158015610937573d6000803e3d6000fd5b505050506040513d601f19601f8201168201806040525081019061095b9190613850565b60c954604051632474521560e21b8152600481018390523360248201529192506001600160a01b0316906391d1485490604401602060405180830381865afa1580156109ab573d6000803e3d6000fd5b505050506040513d601f19601f820116820180604052508101906109cf9190613869565b6109eb5760405162461bcd60e51b815260040161018790613886565b5061013155565b60c95460408051631d6c8e3f60e21b815290516000926001600160a01b0316916375b238fc9160048083019260209291908290030181865afa158015610a3c573d6000803e3d6000fd5b505050506040513d601f19601f82011682018060405250810190610a609190613850565b60c954604051632474521560e21b8152600481018390523360248201529192506001600160a01b0316906391d1485490604401602060405180830381865afa158015610ab0573d6000803e3d6000fd5b505050506040513d601f19601f82011682018060405250810190610ad49190613869565b610af05760405162461bcd60e51b815260040161018790613886565b5061013380546001600160a01b0319166001600160a01b0392909216919091179055565b600260ca5403610b365760405162461bcd60e51b8152600401610187906138d1565b600260ca556000818152610130602052604090205460ff1615610b6b5760405162461bcd60e51b815260040161018790613908565b600081815261012f60209081526040808320815181546101a0948102820185019093526101808101838152909391928492849190840182828015610bd857602002820191906000526020600020905b81546001600160a01b03168152600190910190602001808311610bba575b5050505050815260200160018201805480602002602001604051908101604052809291908181526020018280548015610c3057602002820191906000526020600020905b815481526020019060010190808311610c1c575b505050918352505060028201546001600160a01b0390811660208301526003830154811660408301526004830154811660608084019190915260058401546080840152600684015460a0840152600784015460c0840152600884015460e08401526009840154610100840152600a840154610120840152600b9093015460ff1615156101409092019190915290820151919250163314610d125760405162461bcd60e51b815260206004820181905260248201527f506f6c66744c656e643a20596f7520617265206e6f7420626f72726f776572216044820152606401610187565b610d1c8183611fef565b6040518281527f9a7851747cd7ffb3fe0a32caf3da48b31f27cebe131267051640f8b72fc47186906020015b60405180910390a15050600160ca55565b60c95460408051631d6c8e3f60e21b815290516000926001600160a01b0316916375b238fc9160048083019260209291908290030181865afa158015610da3573d6000803e3d6000fd5b505050506040513d601f19601f82011682018060405250810190610dc79190613850565b60c954604051632474521560e21b8152600481018390523360248201529192506001600160a01b0316906391d1485490604401602060405180830381865afa158015610e17573d6000803e3d6000fd5b505050506040513d601f19601f82011682018060405250810190610e3b9190613869565b610e575760405162461bcd60e51b815260040161018790613886565b60c980546001600160a01b0319166001600160a01b0384169081179091556040517fdd8c807c33d35ad7642d985aca3455e9281f5298b1c22a4aadb5a86d52df7ed190600090a25050565b6101408101516000906001600160a01b0316610ec057506000919050565b600082602001518360400151846060015185608001518660a001518760c001518860e001518961010001518a61012001518b61014001518c6101600151610f044690565b604051602001610f1f9c9b9a99989796959493929190613956565b6040516020818303038152906040528051906020012090506000610f4282611d52565b61014085015185519192506001600160a01b031690610660908390611da5565b600054610100900460ff1615808015610f825750600054600160ff909116105b80610f9c5750303b158015610f9c575060005460ff166001145b610fff5760405162461bcd60e51b815260206004820152602e60248201527f496e697469616c697a61626c653a20636f6e747261637420697320616c72656160448201526d191e481a5b9a5d1a585b1a5e995960921b6064820152608401610187565b6000805460ff191660011790558015611022576000805461ff0019166101001790555b61102a612250565b61103261227f565b61103b826122a6565b6110436122d6565b61104b612305565b61105361227f565b60326101315561271061012e5561013480546001600160a01b031916331790558015610822576000805461ff0019169055604051600181527f7f26b83ff96e1f2b6a682f133852f6798a09c465da95921460cefb38474024989060200160405180910390a15050565b600260ca54036110de5760405162461bcd60e51b8152600401610187906138d1565b600260ca556000818152610130602052604090205460ff16156111135760405162461bcd60e51b815260040161018790613908565b600081815261012f60209081526040808320815181546101a094810282018501909352610180810183815290939192849284919084018282801561118057602002820191906000526020600020905b81546001600160a01b03168152600190910190602001808311611162575b50505050508152602001600182018054806020026020016040519081016040528092919081815260200182805480156111d857602002820191906000526020600020905b8154815260200190600101908083116111c4575b505050918352505060028201546001600160a01b0390811660208301526003830154811660408301526004830154811660608301526005830154608080840191909152600684015460a0840152600784015460c0840152600884015460e08401526009840154610100840152600a840154610120840152600b9093015460ff16151561014090920191909152908201519192501633146112ba5760405162461bcd60e51b815260206004820181905260248201527f506f6c66744c656e643a20596f7520617265206e6f7420626f72726f776572216044820152606401610187565b8060a001518160e001516112ce91906139eb565b4210156113435760405162461bcd60e51b815260206004820152603860248201527f506f6c66744c656e643a204974206973206e6f742074696d6520666f7220796f60448201527f7520746f206c697175696461746520746865206c6f616e2100000000000000006064820152608401610187565b61134d8183612334565b6040518281527faf91ffe368225045d42f7c2b4b90feb438133ac1e375e73bc9066652b70a1d7790602001610d48565b60c95460408051631d6c8e3f60e21b815290516000926001600160a01b0316916375b238fc9160048083019260209291908290030181865afa1580156113c7573d6000803e3d6000fd5b505050506040513d601f19601f820116820180604052508101906113eb9190613850565b60c954604051632474521560e21b8152600481018390523360248201529192506001600160a01b0316906391d1485490604401602060405180830381865afa15801561143b573d6000803e3d6000fd5b505050506040513d601f19601f8201168201806040525081019061145f9190613869565b61147b5760405162461bcd60e51b815260040161018790613886565b5061013480546001600160a01b0319166001600160a01b0392909216919091179055565b6114a7611f43565b6001600160a01b03811661150c5760405162461bcd60e51b815260206004820152602660248201527f4f776e61626c653a206e6577206f776e657220697320746865207a65726f206160448201526564647265737360d01b6064820152608401610187565b61075381611f9d565b600260ca54036115375760405162461bcd60e51b8152600401610187906138d1565b600260ca5561154c60808201606083016134f6565b6001600160a01b0316336001600160a01b0316146115b75760405162461bcd60e51b815260206004820152602260248201527f506f6c66744c656e643a2063616c6c6572206973206e6f7420626f72726f7765604482015261722160f01b6064820152608401610187565b8060a001358160c0013510156116355760405162461bcd60e51b815260206004820152603860248201527f506f6c66744c656e643a204d6178206475726174696f6e2068617320746f206260448201527f652067726561746572207468616e206475726174696f6e2100000000000000006064820152608401610187565b8060e0013581610100013510156116cb5760405162461bcd60e51b815260206004820152604e60248201527f506f6c66744c656e643a204d6178207061796d656e7420616d6f756e7420686160448201527f7320746f2062652067726561746572207468616e207072696e636970616c207060648201526d61796d656e7420616d6f756e742160901b608482015260a401610187565b8060a0013560000361172b5760405162461bcd60e51b8152602060048201526024808201527f506f6c66744c656e643a204475726174696f6e2063616e206e6f74206265207a60448201526365726f2160e01b6064820152608401610187565b61173860208201826139fe565b905061174482806139fe565b9050146117c75760405162461bcd60e51b8152602060048201526044602482018190527f506f6c66744c656e643a206e6674436f6c6c61746572616c436f6e7472616374908201527f206c656e67746820697320657175616c20746f206e6674436f6c6c61746572616064820152636c49642160e01b608482015260a401610187565b610133546001600160a01b031663f992e3b76117e960608401604085016134f6565b6040516001600160e01b031960e084901b1681526001600160a01b0390911660048201526024016020604051808303816000875af115801561182f573d6000803e3d6000fd5b505050506040513d601f19601f820116820180604052508101906118539190613869565b61189f5760405162461bcd60e51b815260206004820152601d60248201527f506f6c66744c656e643a206e6f742076616c69642063757272656e63790000006044820152606401610187565b61013560006118b460808401606085016134f6565b6001600160a01b03168152602080820192909252604090810160009081206101a0850135825290925290205460ff161561193e5760405162461bcd60e51b815260206004820152602560248201527f506f6c66744c656e643a20496e76616c6964206e6f6e636520696e20626f72726044820152646f7765722160d81b6064820152608401610187565b610135600061195360a08401608085016134f6565b6001600160a01b03168152602080820192909252604090810160009081206101c0850135825290925290205460ff16156119db5760405162461bcd60e51b815260206004820152602360248201527f506f6c66744c656e643a20496e76616c6964206e6f6e636520696e206c656e6460448201526265722160e81b6064820152608401610187565b611acf6040518060a00160405280838061016001906119fa9190613a5e565b8080601f016020809104026020016040519081016040528093929190818152602001838380828437600092019190915250505090825250602001611a3e84806139fe565b80806020026020016040519081016040528093929190818152602001838360200280828437600092019190915250505090825250602090810190611a84908501856139fe565b808060200260200160405190810160405280939291908181526020018383602002808284376000920191909152505050908252503360208201526101a08401356040909101526105d0565b611b2c5760405162461bcd60e51b815260206004820152602860248201527f506f6c66744c656e643a20426f72726f776572207369676e6174757265206973604482015267081a5b9d985b1a5960c21b6064820152608401610187565b611ca660405180610180016040528083806101800190611b4c9190613a5e565b8080601f01602080910402602001604051908101604052809392919081815260200183838082843760009201919091525050509082525060e08401356020820152610100840135604082015260a080850135606083015260c08086013560808401526101208601359183019190915201611bce61016085016101408601613aa5565b15158152602001611bdf84806139fe565b80806020026020016040519081016040528093929190818152602001838360200280828437600092019190915250505090825250602090810190611c25908501856139fe565b80806020026020016040519081016040528093929190818152602001838360200280828437600092019190915250505090825250602001611c6c60608501604086016134f6565b6001600160a01b03168152602001611c8a60a08501608086016134f6565b6001600160a01b031681526101c0840135602090910152610ea2565b611d015760405162461bcd60e51b815260206004820152602660248201527f506f6c66744c656e643a204c656e646572207369676e617475726520697320696044820152651b9d985b1a5960d21b6064820152608401610187565b61013254611d0f828261241c565b61013254611d1e9060016139eb565b610132556040518181527fb84300f2105d022caf125b784baff92771eee48caf0a08617148a343911992e790602001610d48565b6040517f19457468657265756d205369676e6564204d6573736167653a0a3332000000006020820152603c8101829052600090605c01604051602081830303815290604052805190602001209050919050565b6000806000611db48585612836565b91509150611dc18161287b565b5090505b92915050565b610753611f43565b7f4910fdfa16fed3260ed0e7147f7cc6da11a60208b5b9406d12a635614ffd91435460ff1615611e0b57611e0683612a31565b505050565b826001600160a01b03166352d1902d6040518163ffffffff1660e01b8152600401602060405180830381865afa925050508015611e65575060408051601f3d908101601f19168201909252611e6291810190613850565b60015b611ec85760405162461bcd60e51b815260206004820152602e60248201527f45524331393637557067726164653a206e657720696d706c656d656e7461746960448201526d6f6e206973206e6f74205555505360901b6064820152608401610187565b600080516020613c618339815191528114611f375760405162461bcd60e51b815260206004820152602960248201527f45524331393637557067726164653a20756e737570706f727465642070726f786044820152681a58589b195555525160ba1b6064820152608401610187565b50611e06838383612acd565b6033546001600160a01b031633146108eb5760405162461bcd60e51b815260206004820181905260248201527f4f776e61626c653a2063616c6c6572206973206e6f7420746865206f776e65726044820152606401610187565b603380546001600160a01b038381166001600160a01b0319831681179093556040519116919082907f8be0079c531659141344cd1fd0a4f28419497f9722a3daafe3b4186f6b6457e090600090a35050565b60008061201c8461010001518561012001518660a001518760c00151886101400151896101600151612af2565b60008581526101306020526040808220805460ff1916600117905587810151606089015160808a015192516323b872dd60e01b815295975093955091936001600160a01b03909216926323b872dd9261207a92908890600401613ac2565b6020604051808303816000875af1158015612099573d6000803e3d6000fd5b505050506040513d601f19601f820116820180604052508101906120bd9190613869565b9050806120dc5760405162461bcd60e51b815260040161018790613ae6565b60408086015160608701516101345492516323b872dd60e01b81526001600160a01b03928316936323b872dd9361211b93929116908790600401613ac2565b6020604051808303816000875af115801561213a573d6000803e3d6000fd5b505050506040513d601f19601f8201168201806040525081019061215e9190613869565b90508061217d5760405162461bcd60e51b815260040161018790613ae6565b60005b855151811015612248576121d3866000015182815181106121a3576121a3613a48565b6020026020010151876020015183815181106121c1576121c1613a48565b60200260200101518860600151612bbc565b9150816122365760405162461bcd60e51b815260206004820152602b60248201527f506f6c66744c656e643a205472616e73666572204e465420746f20626f72726f60448201526a776572206661696c65642160a81b6064820152608401610187565b8061224081613b27565b915050612180565b505050505050565b600054610100900460ff166122775760405162461bcd60e51b815260040161018790613b40565b6108eb612bfa565b600054610100900460ff166108eb5760405162461bcd60e51b815260040161018790613b40565b600054610100900460ff166122cd5760405162461bcd60e51b815260040161018790613b40565b61075381612c2a565b600054610100900460ff166122fd5760405162461bcd60e51b815260040161018790613b40565b6108eb61227f565b600054610100900460ff1661232c5760405162461bcd60e51b815260040161018790613b40565b6108eb612c73565b600081815261013060205260408120805460ff19166001179055805b835151811015612416576123a38460000151828151811061237357612373613a48565b60200260200101518560200151838151811061239157612391613a48565b60200260200101518660800151612bbc565b9150816124045760405162461bcd60e51b815260206004820152602960248201527f506f6c66744c656e643a205472616e73666572204e465420746f206c656e646560448201526872206661696c65642160b81b6064820152608401610187565b8061240e81613b27565b915050612350565b50505050565b6040805161018081019091526000908061243685806139fe565b8080602002602001604051908101604052809392919081815260200183836020028082843760009201919091525050509082525060209081019061247c908601866139fe565b808060200260200160405190810160405280939291908181526020018383602002808284376000920191909152505050908252506020016124c360608601604087016134f6565b6001600160a01b031681526020016124e160808601606087016134f6565b6001600160a01b031681526020016124ff60a08601608087016134f6565b6001600160a01b031681526020014281526020018460a0013581526020018460c0013581526020018460e001358152602001846101000135815260200184610120013581526020018461014001602081019061255b9190613aa5565b15159052600083815261012f60209081526040909120825180519394508493919261258b9284929091019061308b565b5060208281015180516125a492600185019201906130f0565b5060408201516002820180546001600160a01b03199081166001600160a01b0393841617909155606080850151600385018054841691851691909117905560808086015160048601805490941694169390931790915560a0840151600584015560c0840151600684015560e0840151600784015561010084015160088401556101208401516009840155610140840151600a84015561016090930151600b909201805460ff1916921515929092179091556001916101359160009161266d9188019088016134f6565b6001600160a01b03168152602080820192909252604090810160009081206101a088013582529092528120805460ff191692151592909217909155600190610135906126bf60a08701608088016134f6565b6001600160a01b03168152602080820192909252604090810160009081206101c088013582529092528120805460ff1916921515929092179091555b8151518110156127b257815180518290811061271957612719613a48565b60200260200101516001600160a01b03166323b872dd33308560200151858151811061274757612747613a48565b60200260200101516040518463ffffffff1660e01b815260040161276d93929190613ac2565b600060405180830381600087803b15801561278757600080fd5b505af115801561279b573d6000803e3d6000fd5b5050505080806127aa90613b27565b9150506126fb565b506040808201516101345461010084015192516323b872dd60e01b81526001600160a01b03928316936323b872dd936127f393339391169190600401613ac2565b6020604051808303816000875af1158015612812573d6000803e3d6000fd5b505050506040513d601f19601f820116820180604052508101906124169190613869565b600080825160410361286c5760208301516040840151606085015160001a61286087828585612ca1565b94509450505050612874565b506000905060025b9250929050565b600081600481111561288f5761288f613b8b565b036128975750565b60018160048111156128ab576128ab613b8b565b036128f85760405162461bcd60e51b815260206004820152601860248201527f45434453413a20696e76616c6964207369676e617475726500000000000000006044820152606401610187565b600281600481111561290c5761290c613b8b565b036129595760405162461bcd60e51b815260206004820152601f60248201527f45434453413a20696e76616c6964207369676e6174757265206c656e677468006044820152606401610187565b600381600481111561296d5761296d613b8b565b036129c55760405162461bcd60e51b815260206004820152602260248201527f45434453413a20696e76616c6964207369676e6174757265202773272076616c604482015261756560f01b6064820152608401610187565b60048160048111156129d9576129d9613b8b565b036107535760405162461bcd60e51b815260206004820152602260248201527f45434453413a20696e76616c6964207369676e6174757265202776272076616c604482015261756560f01b6064820152608401610187565b6001600160a01b0381163b612a9e5760405162461bcd60e51b815260206004820152602d60248201527f455243313936373a206e657720696d706c656d656e746174696f6e206973206e60448201526c1bdd08184818dbdb9d1c9858dd609a1b6064820152608401610187565b600080516020613c6183398151915280546001600160a01b0319166001600160a01b0392909216919091179055565b612ad683612d8e565b600082511180612ae35750805b15611e06576124168383612dce565b6000806000808415612b835761012e54600090612b0f888d613ba1565b612b199190613bb8565b905087612b258a612ec2565b612b2f9083613ba1565b612b399190613bb8565b612b43908c6139eb565b915089821115612b5e57612b57828b613bda565b9250612b7d565b61012e5461013154612b709084613ba1565b612b7a9190613bb8565b92505b50612ba2565b61012e5461013154612b95908b613ba1565b612b9f9190613bb8565b91505b612bac828a613bda565b9a91995090975050505050505050565b600080612bca858585612ece565b90508015612bdc576001915050612bf3565b6000612be986868661301f565b9250612bf3915050565b9392505050565b600054610100900460ff16612c215760405162461bcd60e51b815260040161018790613b40565b6108eb33611f9d565b600054610100900460ff16612c515760405162461bcd60e51b815260040161018790613b40565b60c980546001600160a01b0319166001600160a01b0392909216919091179055565b600054610100900460ff16612c9a5760405162461bcd60e51b815260040161018790613b40565b600160ca55565b6000807f7fffffffffffffffffffffffffffffff5d576e7357a4501ddfe92f46681b20a0831115612cd85750600090506003612d85565b8460ff16601b14158015612cf057508460ff16601c14155b15612d015750600090506004612d85565b6040805160008082526020820180845289905260ff881692820192909252606081018690526080810185905260019060a0016020604051602081039080840390855afa158015612d55573d6000803e3d6000fd5b5050604051601f1901519150506001600160a01b038116612d7e57600060019250925050612d85565b9150600090505b94509492505050565b612d9781612a31565b6040516001600160a01b038216907fbc7cd75a20ee27fd9adebab32041f755214dbc6bffa90cc0225b39da2e5c2d3b90600090a250565b60606001600160a01b0383163b612e365760405162461bcd60e51b815260206004820152602660248201527f416464726573733a2064656c65676174652063616c6c20746f206e6f6e2d636f6044820152651b9d1c9858dd60d21b6064820152608401610187565b600080846001600160a01b031684604051612e519190613c11565b600060405180830381855af49150503d8060008114612e8c576040519150601f19603f3d011682016040523d82523d6000602084013e612e91565b606091505b5091509150612eb98282604051806060016040528060278152602001613c8160279139613052565b95945050505050565b6000611dc58242613bda565b60408051306024820152604480820185905282518083039091018152606490910182526020810180516001600160e01b031663095ea7b360e01b17905290516000916001600160a01b03861691612f259190613c11565b6000604051808303816000865af19150503d8060008114612f62576040519150601f19603f3d011682016040523d82523d6000602084013e612f67565b606091505b5050506000846001600160a01b03166323b872dd60e01b308587604051602401612f9393929190613ac2565b60408051601f198184030181529181526020820180516001600160e01b03166001600160e01b0319909416939093179092529051612fd19190613c11565b6000604051808303816000865af19150503d806000811461300e576040519150601f19603f3d011682016040523d82523d6000602084013e613013565b606091505b50909695505050505050565b6040516001600160a01b03828116602483015260448201849052600091829186169063a9059cbb60e01b90606401612f93565b60608315613061575081612bf3565b8251156130715782518084602001fd5b8160405162461bcd60e51b81526004016101879190613c2d565b8280548282559060005260206000209081019282156130e0579160200282015b828111156130e057825182546001600160a01b0319166001600160a01b039091161782556020909201916001909101906130ab565b506130ec92915061312b565b5090565b8280548282559060005260206000209081019282156130e0579160200282015b828111156130e0578251825591602001919060010190613110565b5b808211156130ec576000815560010161312c565b60208082526036908201527f506f6c66744c656e643a2043616e206e6f742073656e64206574686572206469604082015275726563746c7920776974686f7574206d6574686f642160501b606082015260800190565b634e487b7160e01b600052604160045260246000fd5b60405160a0810167ffffffffffffffff811182821017156131cf576131cf613196565b60405290565b604051610180810167ffffffffffffffff811182821017156131cf576131cf613196565b604051601f8201601f1916810167ffffffffffffffff8111828210171561322257613222613196565b604052919050565b600082601f83011261323b57600080fd5b813567ffffffffffffffff81111561325557613255613196565b613268601f8201601f19166020016131f9565b81815284602083860101111561327d57600080fd5b816020850160208301376000918101602001919091529392505050565b600067ffffffffffffffff8211156132b4576132b4613196565b5060051b60200190565b80356001600160a01b038116811461067257600080fd5b600082601f8301126132e657600080fd5b813560206132fb6132f68361329a565b6131f9565b82815260059290921b8401810191818101908684111561331a57600080fd5b8286015b8481101561333c5761332f816132be565b835291830191830161331e565b509695505050505050565b600082601f83011261335857600080fd5b813560206133686132f68361329a565b82815260059290921b8401810191818101908684111561338757600080fd5b8286015b8481101561333c578035835291830191830161338b565b6000602082840312156133b457600080fd5b813567ffffffffffffffff808211156133cc57600080fd5b9083019060a082860312156133e057600080fd5b6133e86131ac565b8235828111156133f757600080fd5b6134038782860161322a565b82525060208301358281111561341857600080fd5b613424878286016132d5565b60208301525060408301358281111561343c57600080fd5b61344887828601613347565b60408301525061345a606084016132be565b60608201526080830135608082015280935050505092915050565b60006020828403121561348757600080fd5b5035919050565b600080600080608085870312156134a457600080fd5b6134ad856132be565b93506134bb602086016132be565b925060408501359150606085013567ffffffffffffffff8111156134de57600080fd5b6134ea8782880161322a565b91505092959194509250565b60006020828403121561350857600080fd5b612bf3826132be565b6000806040838503121561352457600080fd5b61352d836132be565b9150602083013567ffffffffffffffff81111561354957600080fd5b6135558582860161322a565b9150509250929050565b6000806040838503121561357257600080fd5b61357b836132be565b946020939093013593505050565b801515811461075357600080fd5b803561067281613589565b6000602082840312156135b457600080fd5b813567ffffffffffffffff808211156135cc57600080fd5b9083019061018082860312156135e157600080fd5b6135e96131d5565b8235828111156135f857600080fd5b6136048782860161322a565b8252506020830135602082015260408301356040820152606083013560608201526080830135608082015260a083013560a082015261364560c08401613597565b60c082015260e08301358281111561365c57600080fd5b613668878286016132d5565b60e083015250610100808401358381111561368257600080fd5b61368e88828701613347565b82840152505061012091506136a48284016132be565b8282015261014091506136b88284016132be565b9181019190915261016091820135918101919091529392505050565b6000602082840312156136e657600080fd5b813567ffffffffffffffff8111156136fd57600080fd5b82016101e08185031215612bf357600080fd5b60008151602080840160005b838110156137415781516001600160a01b03168752958201959082019060010161371c565b509495945050505050565b60008151602080840160005b8381101561374157815187529582019590820190600101613758565b60006137896137838389613710565b8761374c565b60609590951b6bffffffffffffffffffffffff1916855250506014830191909152603482015260540192915050565b6020808252602c908201527f46756e6374696f6e206d7573742062652063616c6c6564207468726f7567682060408201526b19195b1959d85d1958d85b1b60a21b606082015260800190565b6020808252602c908201527f46756e6374696f6e206d7573742062652063616c6c6564207468726f7567682060408201526b6163746976652070726f787960a01b606082015260800190565b60006020828403121561386257600080fd5b5051919050565b60006020828403121561387b57600080fd5b8151612bf381613589565b6020808252602b908201527f57686974656c697374577261707065723a20596f7520646f6e2774206861766560408201526a2061646d696e20726f6c6560a81b606082015260800190565b6020808252601f908201527f5265656e7472616e637947756172643a207265656e7472616e742063616c6c00604082015260600190565b6020808252602e908201527f506f6c66744c656e643a204c6f616e20686173206265656e206c69717569646160408201526d746564206f72207265706169642160901b606082015260800190565b8c81528b60208201528a604082015289606082015288608082015287151560f81b60a0820152600061399461398e60a184018a613710565b8861374c565b6bffffffffffffffffffffffff19606097881b811682529590961b909416601486015250602884019190915260488301525060680198975050505050505050565b634e487b7160e01b600052601160045260246000fd5b80820180821115611dc557611dc56139d5565b6000808335601e19843603018112613a1557600080fd5b83018035915067ffffffffffffffff821115613a3057600080fd5b6020019150600581901b360382131561287457600080fd5b634e487b7160e01b600052603260045260246000fd5b6000808335601e19843603018112613a7557600080fd5b83018035915067ffffffffffffffff821115613a9057600080fd5b60200191503681900382131561287457600080fd5b600060208284031215613ab757600080fd5b8135612bf381613589565b6001600160a01b039384168152919092166020820152604081019190915260600190565b60208082526021908201527f506f6c66744c656e643a205472616e7366657220746f6b656e206661696c65646040820152602160f81b606082015260800190565b600060018201613b3957613b396139d5565b5060010190565b6020808252602b908201527f496e697469616c697a61626c653a20636f6e7472616374206973206e6f74206960408201526a6e697469616c697a696e6760a81b606082015260800190565b634e487b7160e01b600052602160045260246000fd5b8082028115828204841417611dc557611dc56139d5565b600082613bd557634e487b7160e01b600052601260045260246000fd5b500490565b81810381811115611dc557611dc56139d5565b60005b83811015613c08578181015183820152602001613bf0565b50506000910152565b60008251613c23818460208701613bed565b9190910192915050565b6020815260008251806020840152613c4c816040850160208701613bed565b601f01601f1916919091016040019291505056fe360894a13ba1a3210667c828492db98dca3e2076cc3735a920a3ca505d382bbc416464726573733a206c6f772d6c6576656c2064656c65676174652063616c6c206661696c6564a164736f6c6343000811000a",
  "linkReferences": {},
  "deployedLinkReferences": {}
}