{
  "_format": "hh-sol-artifact-1",
  "contractName": "Whitelist",
  "sourceName": "contracts/standard/core/Whitelist.sol",
  "abi": [
    {
      "inputs": [],
      "stateMutability": "nonpayable",
      "type": "constructor"
    },
    {
      "anonymous": false,
      "inputs": [
        {
          "indexed": false,
          "internalType": "address",
          "name": "previousAdmin",
          "type": "address"
        },
        {
          "indexed": false,
          "internalType": "address",
          "name": "newAdmin",
          "type": "address"
        }
      ],
      "name": "AdminChanged",
      "type": "event"
    },
    {
      "anonymous": false,
      "inputs": [
        {
          "indexed": true,
          "internalType": "address",
          "name": "beacon",
          "type": "address"
        }
      ],
      "name": "BeaconUpgraded",
      "type": "event"
    },
    {
      "anonymous": false,
      "inputs": [
        {
          "indexed": false,
          "internalType": "address",
          "name": "from",
          "type": "address"
        },
        {
          "indexed": false,
          "internalType": "address",
          "name": "to",
          "type": "address"
        }
      ],
      "name": "ContractAdminChanged",
      "type": "event"
    },
    {
      "anonymous": false,
      "inputs": [
        {
          "indexed": false,
          "internalType": "uint8",
          "name": "version",
          "type": "uint8"
        }
      ],
      "name": "Initialized",
      "type": "event"
    },
    {
      "anonymous": false,
      "inputs": [
        {
          "indexed": true,
          "internalType": "address",
          "name": "previousOwner",
          "type": "address"
        },
        {
          "indexed": true,
          "internalType": "address",
          "name": "newOwner",
          "type": "address"
        }
      ],
      "name": "OwnershipTransferred",
      "type": "event"
    },
    {
      "anonymous": false,
      "inputs": [
        {
          "indexed": true,
          "internalType": "bytes32",
          "name": "role",
          "type": "bytes32"
        },
        {
          "indexed": true,
          "internalType": "bytes32",
          "name": "previousAdminRole",
          "type": "bytes32"
        },
        {
          "indexed": true,
          "internalType": "bytes32",
          "name": "newAdminRole",
          "type": "bytes32"
        }
      ],
      "name": "RoleAdminChanged",
      "type": "event"
    },
    {
      "anonymous": false,
      "inputs": [
        {
          "indexed": true,
          "internalType": "bytes32",
          "name": "role",
          "type": "bytes32"
        },
        {
          "indexed": true,
          "internalType": "address",
          "name": "account",
          "type": "address"
        },
        {
          "indexed": true,
          "internalType": "address",
          "name": "sender",
          "type": "address"
        }
      ],
      "name": "RoleGranted",
      "type": "event"
    },
    {
      "anonymous": false,
      "inputs": [
        {
          "indexed": true,
          "internalType": "bytes32",
          "name": "role",
          "type": "bytes32"
        },
        {
          "indexed": true,
          "internalType": "address",
          "name": "account",
          "type": "address"
        },
        {
          "indexed": true,
          "internalType": "address",
          "name": "sender",
          "type": "address"
        }
      ],
      "name": "RoleRevoked",
      "type": "event"
    },
    {
      "anonymous": false,
      "inputs": [
        {
          "indexed": true,
          "internalType": "address",
          "name": "implementation",
          "type": "address"
        }
      ],
      "name": "Upgraded",
      "type": "event"
    },
    {
      "inputs": [],
      "name": "ADMIN_ROLE",
      "outputs": [
        {
          "internalType": "bytes32",
          "name": "",
          "type": "bytes32"
        }
      ],
      "stateMutability": "view",
      "type": "function"
    },
    {
      "inputs": [],
      "name": "DEFAULT_ADMIN_ROLE",
      "outputs": [
        {
          "internalType": "bytes32",
          "name": "",
          "type": "bytes32"
        }
      ],
      "stateMutability": "view",
      "type": "function"
    },
    {
      "inputs": [],
      "name": "GRANT_ROLE",
      "outputs": [
        {
          "internalType": "bytes32",
          "name": "",
          "type": "bytes32"
        }
      ],
      "stateMutability": "view",
      "type": "function"
    },
    {
      "inputs": [
        {
          "internalType": "address",
          "name": "account",
          "type": "address"
        }
      ],
      "name": "addGrantRole",
      "outputs": [],
      "stateMutability": "nonpayable",
      "type": "function"
    },
    {
      "inputs": [
        {
          "internalType": "address",
          "name": "_newAdmin",
          "type": "address"
        }
      ],
      "name": "changeContractAdmin",
      "outputs": [],
      "stateMutability": "nonpayable",
      "type": "function"
    },
    {
      "inputs": [
        {
          "internalType": "bytes32",
          "name": "role",
          "type": "bytes32"
        }
      ],
      "name": "getRoleAdmin",
      "outputs": [
        {
          "internalType": "bytes32",
          "name": "",
          "type": "bytes32"
        }
      ],
      "stateMutability": "view",
      "type": "function"
    },
    {
      "inputs": [
        {
          "internalType": "bytes32",
          "name": "role",
          "type": "bytes32"
        },
        {
          "internalType": "address",
          "name": "account",
          "type": "address"
        }
      ],
      "name": "grantRole",
      "outputs": [],
      "stateMutability": "nonpayable",
      "type": "function"
    },
    {
      "inputs": [
        {
          "internalType": "bytes32",
          "name": "role",
          "type": "bytes32"
        },
        {
          "internalType": "address",
          "name": "account",
          "type": "address"
        }
      ],
      "name": "hasRole",
      "outputs": [
        {
          "internalType": "bool",
          "name": "",
          "type": "bool"
        }
      ],
      "stateMutability": "view",
      "type": "function"
    },
    {
      "inputs": [],
      "name": "initialize",
      "outputs": [],
      "stateMutability": "nonpayable",
      "type": "function"
    },
    {
      "inputs": [],
      "name": "owner",
      "outputs": [
        {
          "internalType": "address",
          "name": "",
          "type": "address"
        }
      ],
      "stateMutability": "view",
      "type": "function"
    },
    {
      "inputs": [],
      "name": "proxiableUUID",
      "outputs": [
        {
          "internalType": "bytes32",
          "name": "",
          "type": "bytes32"
        }
      ],
      "stateMutability": "view",
      "type": "function"
    },
    {
      "inputs": [],
      "name": "renounceOwnership",
      "outputs": [],
      "stateMutability": "nonpayable",
      "type": "function"
    },
    {
      "inputs": [
        {
          "internalType": "bytes32",
          "name": "role",
          "type": "bytes32"
        },
        {
          "internalType": "address",
          "name": "account",
          "type": "address"
        }
      ],
      "name": "renounceRole",
      "outputs": [],
      "stateMutability": "nonpayable",
      "type": "function"
    },
    {
      "inputs": [
        {
          "internalType": "bytes32",
          "name": "role",
          "type": "bytes32"
        },
        {
          "internalType": "address",
          "name": "account",
          "type": "address"
        }
      ],
      "name": "revokeRole",
      "outputs": [],
      "stateMutability": "nonpayable",
      "type": "function"
    },
    {
      "inputs": [
        {
          "internalType": "bytes32",
          "name": "role",
          "type": "bytes32"
        },
        {
          "internalType": "address",
          "name": "account",
          "type": "address"
        }
      ],
      "name": "setRole",
      "outputs": [],
      "stateMutability": "nonpayable",
      "type": "function"
    },
    {
      "inputs": [
        {
          "internalType": "bytes4",
          "name": "interfaceId",
          "type": "bytes4"
        }
      ],
      "name": "supportsInterface",
      "outputs": [
        {
          "internalType": "bool",
          "name": "",
          "type": "bool"
        }
      ],
      "stateMutability": "view",
      "type": "function"
    },
    {
      "inputs": [
        {
          "internalType": "address",
          "name": "newOwner",
          "type": "address"
        }
      ],
      "name": "transferOwnership",
      "outputs": [],
      "stateMutability": "nonpayable",
      "type": "function"
    },
    {
      "inputs": [
        {
          "internalType": "address",
          "name": "newImplementation",
          "type": "address"
        }
      ],
      "name": "upgradeTo",
      "outputs": [],
      "stateMutability": "nonpayable",
      "type": "function"
    },
    {
      "inputs": [
        {
          "internalType": "address",
          "name": "newImplementation",
          "type": "address"
        },
        {
          "internalType": "bytes",
          "name": "data",
          "type": "bytes"
        }
      ],
      "name": "upgradeToAndCall",
      "outputs": [],
      "stateMutability": "payable",
      "type": "function"
    }
  ],
  "bytecode": "0x60a06040523060805234801561001457600080fd5b5061001d610022565b6100e2565b600054610100900460ff161561008e5760405162461bcd60e51b815260206004820152602760248201527f496e697469616c697a61626c653a20636f6e747261637420697320696e697469604482015266616c697a696e6760c81b606482015260840160405180910390fd5b60005460ff90811610156100e0576000805460ff191660ff9081179091556040519081527f7f26b83ff96e1f2b6a682f133852f6798a09c465da95921460cefb38474024989060200160405180910390a15b565b608051611697610119600039600081816104fb0152818161053b0152818161069b015281816106db015261076a01526116976000f3fe6080604052600436106101145760003560e01c80635c79c67d116100a057806391d148541161006457806391d14854146102fe578063a217fddf1461031e578063d547741f14610333578063dff8720314610353578063f2fde38b1461037357600080fd5b80635c79c67d14610256578063715018a61461028a57806375b238fc1461029f5780638129fc1c146102c15780638da5cb5b146102d657600080fd5b806336568abe116100e757806336568abe146101ce5780633659cfe6146101ee5780634e0327e41461020e5780634f1ef2861461022e57806352d1902d1461024157600080fd5b806301ffc9a714610119578063248a9ca31461014e5780632d006cac1461018c5780632f2ff15d146101ae575b600080fd5b34801561012557600080fd5b50610139610134366004611254565b610393565b60405190151581526020015b60405180910390f35b34801561015a57600080fd5b5061017e61016936600461127e565b600090815260fb602052604090206001015490565b604051908152602001610145565b34801561019857600080fd5b506101ac6101a73660046112b3565b6103ca565b005b3480156101ba57600080fd5b506101ac6101c93660046112ce565b610448565b3480156101da57600080fd5b506101ac6101e93660046112ce565b610472565b3480156101fa57600080fd5b506101ac6102093660046112b3565b6104f1565b34801561021a57600080fd5b506101ac6102293660046112b3565b6105d0565b6101ac61023c366004611310565b610691565b34801561024d57600080fd5b5061017e61075d565b34801561026257600080fd5b5061017e7f19daf714879a8d7ce7cf1f321ee5d4641baddaf542cc56400b31137e85e7f60381565b34801561029657600080fd5b506101ac610810565b3480156102ab57600080fd5b5061017e60008051602061166b83398151915281565b3480156102cd57600080fd5b506101ac610824565b3480156102e257600080fd5b506033546040516001600160a01b039091168152602001610145565b34801561030a57600080fd5b506101396103193660046112ce565b61095c565b34801561032a57600080fd5b5061017e600081565b34801561033f57600080fd5b506101ac61034e3660046112ce565b61098a565b34801561035f57600080fd5b506101ac61036e3660046112ce565b6109af565b34801561037f57600080fd5b506101ac61038e3660046112b3565b6109b9565b60006001600160e01b03198216637965db0b60e01b14806103c457506301ffc9a760e01b6001600160e01b03198316145b92915050565b60008051602061166b8339815191526103e281610a2f565b61040c7f19daf714879a8d7ce7cf1f321ee5d4641baddaf542cc56400b31137e85e7f60383610a39565b6104447f19daf714879a8d7ce7cf1f321ee5d4641baddaf542cc56400b31137e85e7f60360008051602061166b833981519152610a43565b5050565b600082815260fb602052604090206001015461046381610a2f565b61046d8383610a8e565b505050565b6001600160a01b03811633146104e75760405162461bcd60e51b815260206004820152602f60248201527f416363657373436f6e74726f6c3a2063616e206f6e6c792072656e6f756e636560448201526e103937b632b9903337b91039b2b63360891b60648201526084015b60405180910390fd5b6104448282610b14565b6001600160a01b037f00000000000000000000000000000000000000000000000000000000000000001630036105395760405162461bcd60e51b81526004016104de906113d2565b7f00000000000000000000000000000000000000000000000000000000000000006001600160a01b0316610582600080516020611624833981519152546001600160a01b031690565b6001600160a01b0316146105a85760405162461bcd60e51b81526004016104de9061141e565b6105b181610b7b565b604080516000808252602082019092526105cd91839190610b83565b50565b60006105db81610a2f565b6001600160a01b0382163b156106335760405162461bcd60e51b815260206004820181905260248201527f4e65772061646d696e206d757374206e6f74206265206120636f6e747261637460448201526064016104de565b61063e600083610448565b610649600033610472565b7f66f076177b9ddd9ef736dcbac92cbbb9668daaa07a9638b1265e7f0575076ce233604080516001600160a01b03928316815291851660208301520160405180910390a15050565b6001600160a01b037f00000000000000000000000000000000000000000000000000000000000000001630036106d95760405162461bcd60e51b81526004016104de906113d2565b7f00000000000000000000000000000000000000000000000000000000000000006001600160a01b0316610722600080516020611624833981519152546001600160a01b031690565b6001600160a01b0316146107485760405162461bcd60e51b81526004016104de9061141e565b61075182610b7b565b61044482826001610b83565b6000306001600160a01b037f000000000000000000000000000000000000000000000000000000000000000016146107fd5760405162461bcd60e51b815260206004820152603860248201527f555550535570677261646561626c653a206d757374206e6f742062652063616c60448201527f6c6564207468726f7567682064656c656761746563616c6c000000000000000060648201526084016104de565b5060008051602061162483398151915290565b610818610cee565b6108226000610d48565b565b600054610100900460ff16158080156108445750600054600160ff909116105b8061085e5750303b15801561085e575060005460ff166001145b6108c15760405162461bcd60e51b815260206004820152602e60248201527f496e697469616c697a61626c653a20636f6e747261637420697320616c72656160448201526d191e481a5b9a5d1a585b1a5e995960921b60648201526084016104de565b6000805460ff1916600117905580156108e4576000805461ff0019166101001790555b6108ec610d9a565b6108f4610dc9565b61090c60008051602061166b83398151915233610a39565b610914610dc9565b80156105cd576000805461ff0019169055604051600181527f7f26b83ff96e1f2b6a682f133852f6798a09c465da95921460cefb38474024989060200160405180910390a150565b600082815260fb602090815260408083206001600160a01b038516845290915281205460ff165b9392505050565b600082815260fb60205260409020600101546109a581610a2f565b61046d8383610b14565b6104448282610a39565b6109c1610cee565b6001600160a01b038116610a265760405162461bcd60e51b815260206004820152602660248201527f4f776e61626c653a206e6577206f776e657220697320746865207a65726f206160448201526564647265737360d01b60648201526084016104de565b6105cd81610d48565b6105cd8133610df0565b6104448282610a8e565b600082815260fb6020526040808220600101805490849055905190918391839186917fbd79b86ffe0ab8e8776151514217cd7cacd52c909f66475c3af44e129f0b00ff9190a4505050565b610a98828261095c565b61044457600082815260fb602090815260408083206001600160a01b03851684529091529020805460ff19166001179055610ad03390565b6001600160a01b0316816001600160a01b0316837f2f8788117e7eff1d82e926ec794901d17c78024a50270940304540a733656f0d60405160405180910390a45050565b610b1e828261095c565b1561044457600082815260fb602090815260408083206001600160a01b0385168085529252808320805460ff1916905551339285917ff6391f5c32d9c69d2a47ea670b442974b53935d1edc7fd64eb21e047a839171b9190a45050565b6105cd610cee565b7f4910fdfa16fed3260ed0e7147f7cc6da11a60208b5b9406d12a635614ffd91435460ff1615610bb65761046d83610e54565b826001600160a01b03166352d1902d6040518163ffffffff1660e01b8152600401602060405180830381865afa925050508015610c10575060408051601f3d908101601f19168201909252610c0d9181019061146a565b60015b610c735760405162461bcd60e51b815260206004820152602e60248201527f45524331393637557067726164653a206e657720696d706c656d656e7461746960448201526d6f6e206973206e6f74205555505360901b60648201526084016104de565b6000805160206116248339815191528114610ce25760405162461bcd60e51b815260206004820152602960248201527f45524331393637557067726164653a20756e737570706f727465642070726f786044820152681a58589b195555525160ba1b60648201526084016104de565b5061046d838383610ef0565b6033546001600160a01b031633146108225760405162461bcd60e51b815260206004820181905260248201527f4f776e61626c653a2063616c6c6572206973206e6f7420746865206f776e657260448201526064016104de565b603380546001600160a01b038381166001600160a01b0319831681179093556040519116919082907f8be0079c531659141344cd1fd0a4f28419497f9722a3daafe3b4186f6b6457e090600090a35050565b600054610100900460ff16610dc15760405162461bcd60e51b81526004016104de90611483565b610822610f1b565b600054610100900460ff166108225760405162461bcd60e51b81526004016104de90611483565b610dfa828261095c565b61044457610e12816001600160a01b03166014610f4b565b610e1d836020610f4b565b604051602001610e2e9291906114f2565b60408051601f198184030181529082905262461bcd60e51b82526104de91600401611567565b6001600160a01b0381163b610ec15760405162461bcd60e51b815260206004820152602d60248201527f455243313936373a206e657720696d706c656d656e746174696f6e206973206e60448201526c1bdd08184818dbdb9d1c9858dd609a1b60648201526084016104de565b60008051602061162483398151915280546001600160a01b0319166001600160a01b0392909216919091179055565b610ef9836110e7565b600082511180610f065750805b1561046d57610f158383611127565b50505050565b600054610100900460ff16610f425760405162461bcd60e51b81526004016104de90611483565b61082233610d48565b60606000610f5a8360026115b0565b610f659060026115c7565b67ffffffffffffffff811115610f7d57610f7d6112fa565b6040519080825280601f01601f191660200182016040528015610fa7576020820181803683370190505b509050600360fc1b81600081518110610fc257610fc26115da565b60200101906001600160f81b031916908160001a905350600f60fb1b81600181518110610ff157610ff16115da565b60200101906001600160f81b031916908160001a90535060006110158460026115b0565b6110209060016115c7565b90505b6001811115611098576f181899199a1a9b1b9c1cb0b131b232b360811b85600f1660108110611054576110546115da565b1a60f81b82828151811061106a5761106a6115da565b60200101906001600160f81b031916908160001a90535060049490941c93611091816115f0565b9050611023565b5083156109835760405162461bcd60e51b815260206004820181905260248201527f537472696e67733a20686578206c656e67746820696e73756666696369656e7460448201526064016104de565b6110f081610e54565b6040516001600160a01b038216907fbc7cd75a20ee27fd9adebab32041f755214dbc6bffa90cc0225b39da2e5c2d3b90600090a250565b60606001600160a01b0383163b61118f5760405162461bcd60e51b815260206004820152602660248201527f416464726573733a2064656c65676174652063616c6c20746f206e6f6e2d636f6044820152651b9d1c9858dd60d21b60648201526084016104de565b600080846001600160a01b0316846040516111aa9190611607565b600060405180830381855af49150503d80600081146111e5576040519150601f19603f3d011682016040523d82523d6000602084013e6111ea565b606091505b509150915061121282826040518060600160405280602781526020016116446027913961121b565b95945050505050565b6060831561122a575081610983565b82511561123a5782518084602001fd5b8160405162461bcd60e51b81526004016104de9190611567565b60006020828403121561126657600080fd5b81356001600160e01b03198116811461098357600080fd5b60006020828403121561129057600080fd5b5035919050565b80356001600160a01b03811681146112ae57600080fd5b919050565b6000602082840312156112c557600080fd5b61098382611297565b600080604083850312156112e157600080fd5b823591506112f160208401611297565b90509250929050565b634e487b7160e01b600052604160045260246000fd5b6000806040838503121561132357600080fd5b61132c83611297565b9150602083013567ffffffffffffffff8082111561134957600080fd5b818501915085601f83011261135d57600080fd5b81358181111561136f5761136f6112fa565b604051601f8201601f19908116603f01168101908382118183101715611397576113976112fa565b816040528281528860208487010111156113b057600080fd5b8260208601602083013760006020848301015280955050505050509250929050565b6020808252602c908201527f46756e6374696f6e206d7573742062652063616c6c6564207468726f7567682060408201526b19195b1959d85d1958d85b1b60a21b606082015260800190565b6020808252602c908201527f46756e6374696f6e206d7573742062652063616c6c6564207468726f7567682060408201526b6163746976652070726f787960a01b606082015260800190565b60006020828403121561147c57600080fd5b5051919050565b6020808252602b908201527f496e697469616c697a61626c653a20636f6e7472616374206973206e6f74206960408201526a6e697469616c697a696e6760a81b606082015260800190565b60005b838110156114e95781810151838201526020016114d1565b50506000910152565b7f416363657373436f6e74726f6c3a206163636f756e742000000000000000000081526000835161152a8160178501602088016114ce565b7001034b99036b4b9b9b4b733903937b6329607d1b601791840191820152835161155b8160288401602088016114ce565b01602801949350505050565b60208152600082518060208401526115868160408501602087016114ce565b601f01601f19169190910160400192915050565b634e487b7160e01b600052601160045260246000fd5b80820281158282048414176103c4576103c461159a565b808201808211156103c4576103c461159a565b634e487b7160e01b600052603260045260246000fd5b6000816115ff576115ff61159a565b506000190190565b600082516116198184602087016114ce565b919091019291505056fe360894a13ba1a3210667c828492db98dca3e2076cc3735a920a3ca505d382bbc416464726573733a206c6f772d6c6576656c2064656c65676174652063616c6c206661696c6564a49807205ce4d355092ef5a8a18f56e8913cf4a201fbe287825b095693c21775a164736f6c6343000811000a",
  "linkReferences": {},
  "deployedLinkReferences": {}
}