{
  "_format": "hh-sol-artifact-1",
  "contractName": "ERC721Mock",
  "sourceName": "contracts/mock/ERC721Mock.sol",
  "abi": [
    {
      "inputs": [],
      "stateMutability": "nonpayable",
      "type": "constructor"
    },
    {
      "anonymous": false,
      "inputs": [
        {
          "indexed": true,
          "internalType": "address",
          "name": "owner",
          "type": "address"
        },
        {
          "indexed": true,
          "internalType": "address",
          "name": "approved",
          "type": "address"
        },
        {
          "indexed": true,
          "internalType": "uint256",
          "name": "tokenId",
          "type": "uint256"
        }
      ],
      "name": "Approval",
      "type": "event"
    },
    {
      "anonymous": false,
      "inputs": [
        {
          "indexed": true,
          "internalType": "address",
          "name": "owner",
          "type": "address"
        },
        {
          "indexed": true,
          "internalType": "address",
          "name": "operator",
          "type": "address"
        },
        {
          "indexed": false,
          "internalType": "bool",
          "name": "approved",
          "type": "bool"
        }
      ],
      "name": "ApprovalForAll",
      "type": "event"
    },
    {
      "anonymous": false,
      "inputs": [
        {
          "indexed": true,
          "internalType": "address",
          "name": "previousOwner",
          "type": "address"
        },
        {
          "indexed": true,
          "internalType": "address",
          "name": "newOwner",
          "type": "address"
        }
      ],
      "name": "OwnershipTransferred",
      "type": "event"
    },
    {
      "anonymous": false,
      "inputs": [
        {
          "indexed": true,
          "internalType": "address",
          "name": "from",
          "type": "address"
        },
        {
          "indexed": true,
          "internalType": "address",
          "name": "to",
          "type": "address"
        },
        {
          "indexed": true,
          "internalType": "uint256",
          "name": "tokenId",
          "type": "uint256"
        }
      ],
      "name": "Transfer",
      "type": "event"
    },
    {
      "inputs": [
        {
          "internalType": "address",
          "name": "to",
          "type": "address"
        },
        {
          "internalType": "uint256",
          "name": "tokenId",
          "type": "uint256"
        }
      ],
      "name": "approve",
      "outputs": [],
      "stateMutability": "nonpayable",
      "type": "function"
    },
    {
      "inputs": [
        {
          "internalType": "address",
          "name": "owner",
          "type": "address"
        }
      ],
      "name": "balanceOf",
      "outputs": [
        {
          "internalType": "uint256",
          "name": "",
          "type": "uint256"
        }
      ],
      "stateMutability": "view",
      "type": "function"
    },
    {
      "inputs": [
        {
          "internalType": "address",
          "name": "to",
          "type": "address"
        },
        {
          "internalType": "string",
          "name": "uri",
          "type": "string"
        }
      ],
      "name": "claim",
      "outputs": [],
      "stateMutability": "nonpayable",
      "type": "function"
    },
    {
      "inputs": [
        {
          "internalType": "uint256",
          "name": "tokenId",
          "type": "uint256"
        }
      ],
      "name": "getApproved",
      "outputs": [
        {
          "internalType": "address",
          "name": "",
          "type": "address"
        }
      ],
      "stateMutability": "view",
      "type": "function"
    },
    {
      "inputs": [
        {
          "internalType": "address",
          "name": "owner",
          "type": "address"
        },
        {
          "internalType": "address",
          "name": "operator",
          "type": "address"
        }
      ],
      "name": "isApprovedForAll",
      "outputs": [
        {
          "internalType": "bool",
          "name": "",
          "type": "bool"
        }
      ],
      "stateMutability": "view",
      "type": "function"
    },
    {
      "inputs": [],
      "name": "name",
      "outputs": [
        {
          "internalType": "string",
          "name": "",
          "type": "string"
        }
      ],
      "stateMutability": "view",
      "type": "function"
    },
    {
      "inputs": [],
      "name": "owner",
      "outputs": [
        {
          "internalType": "address",
          "name": "",
          "type": "address"
        }
      ],
      "stateMutability": "view",
      "type": "function"
    },
    {
      "inputs": [
        {
          "internalType": "uint256",
          "name": "tokenId",
          "type": "uint256"
        }
      ],
      "name": "ownerOf",
      "outputs": [
        {
          "internalType": "address",
          "name": "",
          "type": "address"
        }
      ],
      "stateMutability": "view",
      "type": "function"
    },
    {
      "inputs": [],
      "name": "renounceOwnership",
      "outputs": [],
      "stateMutability": "nonpayable",
      "type": "function"
    },
    {
      "inputs": [
        {
          "internalType": "address",
          "name": "to",
          "type": "address"
        },
        {
          "internalType": "string",
          "name": "uri",
          "type": "string"
        }
      ],
      "name": "safeMint",
      "outputs": [],
      "stateMutability": "nonpayable",
      "type": "function"
    },
    {
      "inputs": [
        {
          "internalType": "address",
          "name": "from",
          "type": "address"
        },
        {
          "internalType": "address",
          "name": "to",
          "type": "address"
        },
        {
          "internalType": "uint256",
          "name": "tokenId",
          "type": "uint256"
        }
      ],
      "name": "safeTransferFrom",
      "outputs": [],
      "stateMutability": "nonpayable",
      "type": "function"
    },
    {
      "inputs": [
        {
          "internalType": "address",
          "name": "from",
          "type": "address"
        },
        {
          "internalType": "address",
          "name": "to",
          "type": "address"
        },
        {
          "internalType": "uint256",
          "name": "tokenId",
          "type": "uint256"
        },
        {
          "internalType": "bytes",
          "name": "data",
          "type": "bytes"
        }
      ],
      "name": "safeTransferFrom",
      "outputs": [],
      "stateMutability": "nonpayable",
      "type": "function"
    },
    {
      "inputs": [
        {
          "internalType": "address",
          "name": "operator",
          "type": "address"
        },
        {
          "internalType": "bool",
          "name": "approved",
          "type": "bool"
        }
      ],
      "name": "setApprovalForAll",
      "outputs": [],
      "stateMutability": "nonpayable",
      "type": "function"
    },
    {
      "inputs": [
        {
          "internalType": "bytes4",
          "name": "interfaceId",
          "type": "bytes4"
        }
      ],
      "name": "supportsInterface",
      "outputs": [
        {
          "internalType": "bool",
          "name": "",
          "type": "bool"
        }
      ],
      "stateMutability": "view",
      "type": "function"
    },
    {
      "inputs": [],
      "name": "symbol",
      "outputs": [
        {
          "internalType": "string",
          "name": "",
          "type": "string"
        }
      ],
      "stateMutability": "view",
      "type": "function"
    },
    {
      "inputs": [
        {
          "internalType": "uint256",
          "name": "index",
          "type": "uint256"
        }
      ],
      "name": "tokenByIndex",
      "outputs": [
        {
          "internalType": "uint256",
          "name": "",
          "type": "uint256"
        }
      ],
      "stateMutability": "view",
      "type": "function"
    },
    {
      "inputs": [
        {
          "internalType": "address",
          "name": "owner",
          "type": "address"
        },
        {
          "internalType": "uint256",
          "name": "index",
          "type": "uint256"
        }
      ],
      "name": "tokenOfOwnerByIndex",
      "outputs": [
        {
          "internalType": "uint256",
          "name": "",
          "type": "uint256"
        }
      ],
      "stateMutability": "view",
      "type": "function"
    },
    {
      "inputs": [
        {
          "internalType": "uint256",
          "name": "tokenId",
          "type": "uint256"
        }
      ],
      "name": "tokenURI",
      "outputs": [
        {
          "internalType": "string",
          "name": "",
          "type": "string"
        }
      ],
      "stateMutability": "view",
      "type": "function"
    },
    {
      "inputs": [],
      "name": "totalSupply",
      "outputs": [
        {
          "internalType": "uint256",
          "name": "",
          "type": "uint256"
        }
      ],
      "stateMutability": "view",
      "type": "function"
    },
    {
      "inputs": [
        {
          "internalType": "address",
          "name": "from",
          "type": "address"
        },
        {
          "internalType": "address",
          "name": "to",
          "type": "address"
        },
        {
          "internalType": "uint256",
          "name": "tokenId",
          "type": "uint256"
        }
      ],
      "name": "transferFrom",
      "outputs": [],
      "stateMutability": "nonpayable",
      "type": "function"
    },
    {
      "inputs": [
        {
          "internalType": "address",
          "name": "newOwner",
          "type": "address"
        }
      ],
      "name": "transferOwnership",
      "outputs": [],
      "stateMutability": "nonpayable",
      "type": "function"
    }
  ],
  "bytecode": "0x60806040523480156200001157600080fd5b506040518060400160405280600a8152602001694552433732314d6f636b60b01b815250604051806040016040528060038152602001621352d160ea1b81525081600090816200006291906200018f565b5060016200007182826200018f565b5050506200008e620000886200009460201b60201c565b62000098565b6200025b565b3390565b600b80546001600160a01b038381166001600160a01b0319831681179093556040519116919082907f8be0079c531659141344cd1fd0a4f28419497f9722a3daafe3b4186f6b6457e090600090a35050565b634e487b7160e01b600052604160045260246000fd5b600181811c908216806200011557607f821691505b6020821081036200013657634e487b7160e01b600052602260045260246000fd5b50919050565b601f8211156200018a57600081815260208120601f850160051c81016020861015620001655750805b601f850160051c820191505b81811015620001865782815560010162000171565b5050505b505050565b81516001600160401b03811115620001ab57620001ab620000ea565b620001c381620001bc845462000100565b846200013c565b602080601f831160018114620001fb5760008415620001e25750858301515b600019600386901b1c1916600185901b17855562000186565b600085815260208120601f198616915b828110156200022c578886015182559484019460019091019084016200020b565b50858210156200024b5787850151600019600388901b60f8161c191681555b5050505050600190811b01905550565b611bcb806200026b6000396000f3fe608060405234801561001057600080fd5b50600436106101375760003560e01c806370a08231116100b8578063a8d95fb21161007c578063a8d95fb214610271578063b88d4fde14610284578063c87b56dd14610297578063d204c45e14610271578063e985e9c5146102aa578063f2fde38b146102e657600080fd5b806370a082311461022a578063715018a61461023d5780638da5cb5b1461024557806395d89b4114610256578063a22cb4651461025e57600080fd5b806323b872dd116100ff57806323b872dd146101cb5780632f745c59146101de57806342842e0e146101f15780634f6ccce7146102045780636352211e1461021757600080fd5b806301ffc9a71461013c57806306fdde0314610164578063081812fc14610179578063095ea7b3146101a457806318160ddd146101b9575b600080fd5b61014f61014a36600461157f565b6102f9565b60405190151581526020015b60405180910390f35b61016c61030a565b60405161015b91906115ec565b61018c6101873660046115ff565b61039c565b6040516001600160a01b03909116815260200161015b565b6101b76101b2366004611634565b6103c3565b005b6008545b60405190815260200161015b565b6101b76101d936600461165e565b6104dd565b6101bd6101ec366004611634565b61050e565b6101b76101ff36600461165e565b6105a4565b6101bd6102123660046115ff565b6105bf565b61018c6102253660046115ff565b610652565b6101bd61023836600461169a565b6106b2565b6101b7610738565b600b546001600160a01b031661018c565b61016c61074c565b6101b761026c3660046116b5565b61075b565b6101b761027f36600461177d565b61076a565b6101b76102923660046117df565b610799565b61016c6102a53660046115ff565b6107d1565b61014f6102b836600461185b565b6001600160a01b03918216600090815260056020908152604080832093909416825291909152205460ff1690565b6101b76102f436600461169a565b6107dc565b600061030482610855565b92915050565b6060600080546103199061188e565b80601f01602080910402602001604051908101604052809291908181526020018280546103459061188e565b80156103925780601f1061036757610100808354040283529160200191610392565b820191906000526020600020905b81548152906001019060200180831161037557829003601f168201915b5050505050905090565b60006103a78261087a565b506000908152600460205260409020546001600160a01b031690565b60006103ce82610652565b9050806001600160a01b0316836001600160a01b0316036104405760405162461bcd60e51b815260206004820152602160248201527f4552433732313a20617070726f76616c20746f2063757272656e74206f776e656044820152603960f91b60648201526084015b60405180910390fd5b336001600160a01b038216148061045c575061045c81336102b8565b6104ce5760405162461bcd60e51b815260206004820152603e60248201527f4552433732313a20617070726f76652063616c6c6572206973206e6f7420746f60448201527f6b656e206f776e6572206e6f7220617070726f76656420666f7220616c6c00006064820152608401610437565b6104d883836108d9565b505050565b6104e73382610947565b6105035760405162461bcd60e51b8152600401610437906118c8565b6104d88383836109c6565b6000610519836106b2565b821061057b5760405162461bcd60e51b815260206004820152602b60248201527f455243373231456e756d657261626c653a206f776e657220696e646578206f7560448201526a74206f6620626f756e647360a81b6064820152608401610437565b506001600160a01b03919091166000908152600660209081526040808320938352929052205490565b6104d883838360405180602001604052806000815250610799565b60006105ca60085490565b821061062d5760405162461bcd60e51b815260206004820152602c60248201527f455243373231456e756d657261626c653a20676c6f62616c20696e646578206f60448201526b7574206f6620626f756e647360a01b6064820152608401610437565b6008828154811061064057610640611916565b90600052602060002001549050919050565b6000818152600260205260408120546001600160a01b0316806103045760405162461bcd60e51b8152602060048201526018602482015277115490cdcc8c4e881a5b9d985b1a59081d1bdad95b88125160421b6044820152606401610437565b60006001600160a01b03821661071c5760405162461bcd60e51b815260206004820152602960248201527f4552433732313a2061646472657373207a65726f206973206e6f7420612076616044820152683634b21037bbb732b960b91b6064820152608401610437565b506001600160a01b031660009081526003602052604090205490565b610740610b6d565b61074a6000610bc7565b565b6060600180546103199061188e565b610766338383610c19565b5050565b6000610775600c5490565b9050610785600c80546001019055565b61078f8382610ce7565b6104d88183610d01565b6107a33383610947565b6107bf5760405162461bcd60e51b8152600401610437906118c8565b6107cb84848484610d94565b50505050565b606061030482610dc7565b6107e4610b6d565b6001600160a01b0381166108495760405162461bcd60e51b815260206004820152602660248201527f4f776e61626c653a206e6577206f776e657220697320746865207a65726f206160448201526564647265737360d01b6064820152608401610437565b61085281610bc7565b50565b60006001600160e01b0319821663780e9d6360e01b1480610304575061030482610ecf565b6000818152600260205260409020546001600160a01b03166108525760405162461bcd60e51b8152602060048201526018602482015277115490cdcc8c4e881a5b9d985b1a59081d1bdad95b88125160421b6044820152606401610437565b600081815260046020526040902080546001600160a01b0319166001600160a01b038416908117909155819061090e82610652565b6001600160a01b03167f8c5be1e5ebec7d5bd14f71427d1e84f3dd0314c0f7b2291e5b200ac8c7c3b92560405160405180910390a45050565b60008061095383610652565b9050806001600160a01b0316846001600160a01b0316148061099a57506001600160a01b0380821660009081526005602090815260408083209388168352929052205460ff165b806109be5750836001600160a01b03166109b38461039c565b6001600160a01b0316145b949350505050565b826001600160a01b03166109d982610652565b6001600160a01b031614610a3d5760405162461bcd60e51b815260206004820152602560248201527f4552433732313a207472616e736665722066726f6d20696e636f72726563742060448201526437bbb732b960d91b6064820152608401610437565b6001600160a01b038216610a9f5760405162461bcd60e51b8152602060048201526024808201527f4552433732313a207472616e7366657220746f20746865207a65726f206164646044820152637265737360e01b6064820152608401610437565b610aaa838383610f1f565b610ab56000826108d9565b6001600160a01b0383166000908152600360205260408120805460019290610ade908490611942565b90915550506001600160a01b0382166000908152600360205260408120805460019290610b0c908490611955565b909155505060008181526002602052604080822080546001600160a01b0319166001600160a01b0386811691821790925591518493918716917fddf252ad1be2c89b69c2b068fc378daa952ba7f163c4a11628f55a4df523b3ef91a4505050565b600b546001600160a01b0316331461074a5760405162461bcd60e51b815260206004820181905260248201527f4f776e61626c653a2063616c6c6572206973206e6f7420746865206f776e65726044820152606401610437565b600b80546001600160a01b038381166001600160a01b0319831681179093556040519116919082907f8be0079c531659141344cd1fd0a4f28419497f9722a3daafe3b4186f6b6457e090600090a35050565b816001600160a01b0316836001600160a01b031603610c7a5760405162461bcd60e51b815260206004820152601960248201527f4552433732313a20617070726f766520746f2063616c6c6572000000000000006044820152606401610437565b6001600160a01b03838116600081815260056020908152604080832094871680845294825291829020805460ff191686151590811790915591519182527f17307eab39ab6107e8899845ad3d59bd9653f200f220920489ca2b5937696c31910160405180910390a3505050565b610766828260405180602001604052806000815250610f2a565b6000828152600260205260409020546001600160a01b0316610d7c5760405162461bcd60e51b815260206004820152602e60248201527f45524337323155524953746f726167653a2055524920736574206f66206e6f6e60448201526d32bc34b9ba32b73a103a37b5b2b760911b6064820152608401610437565b6000828152600a602052604090206104d882826119b6565b610d9f8484846109c6565b610dab84848484610f5d565b6107cb5760405162461bcd60e51b815260040161043790611a76565b6060610dd28261087a565b6000828152600a602052604081208054610deb9061188e565b80601f0160208091040260200160405190810160405280929190818152602001828054610e179061188e565b8015610e645780601f10610e3957610100808354040283529160200191610e64565b820191906000526020600020905b815481529060010190602001808311610e4757829003601f168201915b505050505090506000610e8260408051602081019091526000815290565b90508051600003610e94575092915050565b815115610ec6578082604051602001610eae929190611ac8565b60405160208183030381529060405292505050919050565b6109be8461105e565b60006001600160e01b031982166380ac58cd60e01b1480610f0057506001600160e01b03198216635b5e139f60e01b145b8061030457506301ffc9a760e01b6001600160e01b0319831614610304565b6104d88383836110d2565b610f34838361118a565b610f416000848484610f5d565b6104d85760405162461bcd60e51b815260040161043790611a76565b60006001600160a01b0384163b1561105357604051630a85bd0160e11b81526001600160a01b0385169063150b7a0290610fa1903390899088908890600401611af7565b6020604051808303816000875af1925050508015610fdc575060408051601f3d908101601f19168201909252610fd991810190611b34565b60015b611039573d80801561100a576040519150601f19603f3d011682016040523d82523d6000602084013e61100f565b606091505b5080516000036110315760405162461bcd60e51b815260040161043790611a76565b805181602001fd5b6001600160e01b031916630a85bd0160e11b1490506109be565b506001949350505050565b60606110698261087a565b600061108060408051602081019091526000815290565b905060008151116110a057604051806020016040528060008152506110cb565b806110aa846112d8565b6040516020016110bb929190611ac8565b6040516020818303038152906040525b9392505050565b6001600160a01b03831661112d5761112881600880546000838152600960205260408120829055600182018355919091527ff3f7a9fe364faab93b216da50a3214154f22a0a2b415b23a84c8169e8b636ee30155565b611150565b816001600160a01b0316836001600160a01b0316146111505761115083826113d9565b6001600160a01b038216611167576104d881611476565b826001600160a01b0316826001600160a01b0316146104d8576104d88282611525565b6001600160a01b0382166111e05760405162461bcd60e51b815260206004820181905260248201527f4552433732313a206d696e7420746f20746865207a65726f20616464726573736044820152606401610437565b6000818152600260205260409020546001600160a01b0316156112455760405162461bcd60e51b815260206004820152601c60248201527f4552433732313a20746f6b656e20616c7265616479206d696e746564000000006044820152606401610437565b61125160008383610f1f565b6001600160a01b038216600090815260036020526040812080546001929061127a908490611955565b909155505060008181526002602052604080822080546001600160a01b0319166001600160a01b03861690811790915590518392907fddf252ad1be2c89b69c2b068fc378daa952ba7f163c4a11628f55a4df523b3ef908290a45050565b6060816000036112ff5750506040805180820190915260018152600360fc1b602082015290565b8160005b8115611329578061131381611b51565b91506113229050600a83611b80565b9150611303565b60008167ffffffffffffffff811115611344576113446116f1565b6040519080825280601f01601f19166020018201604052801561136e576020820181803683370190505b5090505b84156109be57611383600183611942565b9150611390600a86611b94565b61139b906030611955565b60f81b8183815181106113b0576113b0611916565b60200101906001600160f81b031916908160001a9053506113d2600a86611b80565b9450611372565b600060016113e6846106b2565b6113f09190611942565b600083815260076020526040902054909150808214611443576001600160a01b03841660009081526006602090815260408083208584528252808320548484528184208190558352600790915290208190555b5060009182526007602090815260408084208490556001600160a01b039094168352600681528383209183525290812055565b60085460009061148890600190611942565b600083815260096020526040812054600880549394509092849081106114b0576114b0611916565b9060005260206000200154905080600883815481106114d1576114d1611916565b600091825260208083209091019290925582815260099091526040808220849055858252812055600880548061150957611509611ba8565b6001900381819060005260206000200160009055905550505050565b6000611530836106b2565b6001600160a01b039093166000908152600660209081526040808320868452825280832085905593825260079052919091209190915550565b6001600160e01b03198116811461085257600080fd5b60006020828403121561159157600080fd5b81356110cb81611569565b60005b838110156115b757818101518382015260200161159f565b50506000910152565b600081518084526115d881602086016020860161159c565b601f01601f19169290920160200192915050565b6020815260006110cb60208301846115c0565b60006020828403121561161157600080fd5b5035919050565b80356001600160a01b038116811461162f57600080fd5b919050565b6000806040838503121561164757600080fd5b61165083611618565b946020939093013593505050565b60008060006060848603121561167357600080fd5b61167c84611618565b925061168a60208501611618565b9150604084013590509250925092565b6000602082840312156116ac57600080fd5b6110cb82611618565b600080604083850312156116c857600080fd5b6116d183611618565b9150602083013580151581146116e657600080fd5b809150509250929050565b634e487b7160e01b600052604160045260246000fd5b600067ffffffffffffffff80841115611722576117226116f1565b604051601f8501601f19908116603f0116810190828211818310171561174a5761174a6116f1565b8160405280935085815286868601111561176357600080fd5b858560208301376000602087830101525050509392505050565b6000806040838503121561179057600080fd5b61179983611618565b9150602083013567ffffffffffffffff8111156117b557600080fd5b8301601f810185136117c657600080fd5b6117d585823560208401611707565b9150509250929050565b600080600080608085870312156117f557600080fd5b6117fe85611618565b935061180c60208601611618565b925060408501359150606085013567ffffffffffffffff81111561182f57600080fd5b8501601f8101871361184057600080fd5b61184f87823560208401611707565b91505092959194509250565b6000806040838503121561186e57600080fd5b61187783611618565b915061188560208401611618565b90509250929050565b600181811c908216806118a257607f821691505b6020821081036118c257634e487b7160e01b600052602260045260246000fd5b50919050565b6020808252602e908201527f4552433732313a2063616c6c6572206973206e6f7420746f6b656e206f776e6560408201526d1c881b9bdc88185c1c1c9bdd995960921b606082015260800190565b634e487b7160e01b600052603260045260246000fd5b634e487b7160e01b600052601160045260246000fd5b818103818111156103045761030461192c565b808201808211156103045761030461192c565b601f8211156104d857600081815260208120601f850160051c8101602086101561198f5750805b601f850160051c820191505b818110156119ae5782815560010161199b565b505050505050565b815167ffffffffffffffff8111156119d0576119d06116f1565b6119e4816119de845461188e565b84611968565b602080601f831160018114611a195760008415611a015750858301515b600019600386901b1c1916600185901b1785556119ae565b600085815260208120601f198616915b82811015611a4857888601518255948401946001909101908401611a29565b5085821015611a665787850151600019600388901b60f8161c191681555b5050505050600190811b01905550565b60208082526032908201527f4552433732313a207472616e7366657220746f206e6f6e20455243373231526560408201527131b2b4bb32b91034b6b83632b6b2b73a32b960711b606082015260800190565b60008351611ada81846020880161159c565b835190830190611aee81836020880161159c565b01949350505050565b6001600160a01b0385811682528416602082015260408101839052608060608201819052600090611b2a908301846115c0565b9695505050505050565b600060208284031215611b4657600080fd5b81516110cb81611569565b600060018201611b6357611b6361192c565b5060010190565b634e487b7160e01b600052601260045260246000fd5b600082611b8f57611b8f611b6a565b500490565b600082611ba357611ba3611b6a565b500690565b634e487b7160e01b600052603160045260246000fdfea164736f6c6343000811000a",
  "linkReferences": {},
  "deployedLinkReferences": {}
}