{
  "_format": "hh-sol-artifact-1",
  "contractName": "WhitelistUpgradeable",
  "sourceName": "contracts/shared/WhitelistUpgradeable.sol",
  "abi": [
    {
      "anonymous": false,
      "inputs": [
        {
          "indexed": false,
          "internalType": "uint8",
          "name": "version",
          "type": "uint8"
        }
      ],
      "name": "Initialized",
      "type": "event"
    },
    {
      "anonymous": false,
      "inputs": [
        {
          "indexed": true,
          "internalType": "address",
          "name": "newOwner",
          "type": "address"
        }
      ],
      "name": "WhitelistChanged",
      "type": "event"
    },
    {
      "inputs": [
        {
          "internalType": "address",
          "name": "whitelistAddress_",
          "type": "address"
        }
      ],
      "name": "setWhitelistAddress",
      "outputs": [],
      "stateMutability": "nonpayable",
      "type": "function"
    }
  ],
  "bytecode": "0x608060405234801561001057600080fd5b5061024e806100206000396000f3fe608060405234801561001057600080fd5b506004361061002b5760003560e01c8063a224c74514610030575b600080fd5b61004361003e3660046101d6565b610045565b005b60335460408051631d6c8e3f60e21b815290516000926001600160a01b0316916375b238fc9160048083019260209291908290030181865afa15801561008f573d6000803e3d6000fd5b505050506040513d601f19601f820116820180604052508101906100b39190610206565b603354604051632474521560e21b8152600481018390523360248201529192506001600160a01b0316906391d1485490604401602060405180830381865afa158015610103573d6000803e3d6000fd5b505050506040513d601f19601f82011682018060405250810190610127919061021f565b61018b5760405162461bcd60e51b815260206004820152602b60248201527f57686974656c697374577261707065723a20596f7520646f6e2774206861766560448201526a2061646d696e20726f6c6560a81b606482015260840160405180910390fd5b603380546001600160a01b0319166001600160a01b0384169081179091556040517fdd8c807c33d35ad7642d985aca3455e9281f5298b1c22a4aadb5a86d52df7ed190600090a25050565b6000602082840312156101e857600080fd5b81356001600160a01b03811681146101ff57600080fd5b9392505050565b60006020828403121561021857600080fd5b5051919050565b60006020828403121561023157600080fd5b815180151581146101ff57600080fdfea164736f6c6343000811000a",
  "linkReferences": {},
  "deployedLinkReferences": {}
}