{
  "_format": "hh-sol-artifact-1",
  "contractName": "SignUpgradeable",
  "sourceName": "contracts/standard/lend/SignUpgradeable.sol",
  "abi": [
    {
      "anonymous": false,
      "inputs": [
        {
          "indexed": false,
          "internalType": "uint8",
          "name": "version",
          "type": "uint8"
        }
      ],
      "name": "Initialized",
      "type": "event"
    },
    {
      "inputs": [],
      "name": "getChainID",
      "outputs": [
        {
          "internalType": "uint256",
          "name": "",
          "type": "uint256"
        }
      ],
      "stateMutability": "view",
      "type": "function"
    },
    {
      "inputs": [
        {
          "components": [
            {
              "internalType": "bytes",
              "name": "signature",
              "type": "bytes"
            },
            {
              "internalType": "address[]",
              "name": "nftCollateralContract",
              "type": "address[]"
            },
            {
              "internalType": "uint256[]",
              "name": "nftCollateralId",
              "type": "uint256[]"
            },
            {
              "internalType": "address",
              "name": "borrower",
              "type": "address"
            },
            {
              "internalType": "uint256",
              "name": "nonce",
              "type": "uint256"
            }
          ],
          "internalType": "struct SignUpgradeable.BorrowSignatureParam",
          "name": "param",
          "type": "tuple"
        }
      ],
      "name": "isValidBorrowerSignature",
      "outputs": [
        {
          "internalType": "bool",
          "name": "",
          "type": "bool"
        }
      ],
      "stateMutability": "view",
      "type": "function"
    },
    {
      "inputs": [
        {
          "components": [
            {
              "internalType": "bytes",
              "name": "signature",
              "type": "bytes"
            },
            {
              "internalType": "uint256",
              "name": "principalAmount",
              "type": "uint256"
            },
            {
              "internalType": "uint256",
              "name": "maximumPaymentAmount",
              "type": "uint256"
            },
            {
              "internalType": "uint256",
              "name": "duration",
              "type": "uint256"
            },
            {
              "internalType": "uint256",
              "name": "maxDuration",
              "type": "uint256"
            },
            {
              "internalType": "uint256",
              "name": "interestRateOnBasisPoints",
              "type": "uint256"
            },
            {
              "internalType": "bool",
              "name": "interestIsProRated",
              "type": "bool"
            },
            {
              "internalType": "address[]",
              "name": "nftCollateralContract",
              "type": "address[]"
            },
            {
              "internalType": "uint256[]",
              "name": "nftCollateralId",
              "type": "uint256[]"
            },
            {
              "internalType": "address",
              "name": "erc20CollateralContract",
              "type": "address"
            },
            {
              "internalType": "address",
              "name": "lender",
              "type": "address"
            },
            {
              "internalType": "uint256",
              "name": "nonce",
              "type": "uint256"
            }
          ],
          "internalType": "struct SignUpgradeable.LendSignatureParam",
          "name": "param",
          "type": "tuple"
        }
      ],
      "name": "isValidLenderSignature",
      "outputs": [
        {
          "internalType": "bool",
          "name": "",
          "type": "bool"
        }
      ],
      "stateMutability": "view",
      "type": "function"
    }
  ],
  "bytecode": "0x608060405234801561001057600080fd5b50610ac8806100206000396000f3fe608060405234801561001057600080fd5b50600436106100415760003560e01c806303881aca14610046578063564b81ef1461006e578063a95730f81461007c575b600080fd5b610059610054366004610769565b61008f565b60405190151581526020015b60405180910390f35b604051468152602001610065565b61005961008a36600461084c565b610136565b60608101516000906001600160a01b03166100ac57506000919050565b600082602001518360400151846060015185608001516100c94690565b6040516020016100dd9594939291906109e2565b6040516020818303038152906040528051906020012090506000610100826101f6565b606085015185519192506001600160a01b03169061011f908390610249565b6001600160a01b031614949350505050565b919050565b6101408101516000906001600160a01b031661015457506000919050565b600082602001518360400151846060015185608001518660a001518760c001518860e001518961010001518a61012001518b61014001518c61016001516101984690565b6040516020016101b39c9b9a99989796959493929190610a26565b60405160208183030381529060405280519060200120905060006101d6826101f6565b61014085015185519192506001600160a01b03169061011f908390610249565b6040517f19457468657265756d205369676e6564204d6573736167653a0a3332000000006020820152603c8101829052600090605c01604051602081830303815290604052805190602001209050919050565b6000806000610258858561026d565b91509150610265816102b2565b509392505050565b60008082516041036102a35760208301516040840151606085015160001a61029787828585610470565b945094505050506102ab565b506000905060025b9250929050565b60008160048111156102c6576102c6610aa5565b036102ce5750565b60018160048111156102e2576102e2610aa5565b036103345760405162461bcd60e51b815260206004820152601860248201527f45434453413a20696e76616c6964207369676e6174757265000000000000000060448201526064015b60405180910390fd5b600281600481111561034857610348610aa5565b036103955760405162461bcd60e51b815260206004820152601f60248201527f45434453413a20696e76616c6964207369676e6174757265206c656e67746800604482015260640161032b565b60038160048111156103a9576103a9610aa5565b036104015760405162461bcd60e51b815260206004820152602260248201527f45434453413a20696e76616c6964207369676e6174757265202773272076616c604482015261756560f01b606482015260840161032b565b600481600481111561041557610415610aa5565b0361046d5760405162461bcd60e51b815260206004820152602260248201527f45434453413a20696e76616c6964207369676e6174757265202776272076616c604482015261756560f01b606482015260840161032b565b50565b6000807f7fffffffffffffffffffffffffffffff5d576e7357a4501ddfe92f46681b20a08311156104a75750600090506003610554565b8460ff16601b141580156104bf57508460ff16601c14155b156104d05750600090506004610554565b6040805160008082526020820180845289905260ff881692820192909252606081018690526080810185905260019060a0016020604051602081039080840390855afa158015610524573d6000803e3d6000fd5b5050604051601f1901519150506001600160a01b03811661054d57600060019250925050610554565b9150600090505b94509492505050565b634e487b7160e01b600052604160045260246000fd5b60405160a0810167ffffffffffffffff811182821017156105965761059661055d565b60405290565b604051610180810167ffffffffffffffff811182821017156105965761059661055d565b604051601f8201601f1916810167ffffffffffffffff811182821017156105e9576105e961055d565b604052919050565b600082601f83011261060257600080fd5b813567ffffffffffffffff81111561061c5761061c61055d565b61062f601f8201601f19166020016105c0565b81815284602083860101111561064457600080fd5b816020850160208301376000918101602001919091529392505050565b600067ffffffffffffffff82111561067b5761067b61055d565b5060051b60200190565b80356001600160a01b038116811461013157600080fd5b600082601f8301126106ad57600080fd5b813560206106c26106bd83610661565b6105c0565b82815260059290921b840181019181810190868411156106e157600080fd5b8286015b84811015610703576106f681610685565b83529183019183016106e5565b509695505050505050565b600082601f83011261071f57600080fd5b8135602061072f6106bd83610661565b82815260059290921b8401810191818101908684111561074e57600080fd5b8286015b848110156107035780358352918301918301610752565b60006020828403121561077b57600080fd5b813567ffffffffffffffff8082111561079357600080fd5b9083019060a082860312156107a757600080fd5b6107af610573565b8235828111156107be57600080fd5b6107ca878286016105f1565b8252506020830135828111156107df57600080fd5b6107eb8782860161069c565b60208301525060408301358281111561080357600080fd5b61080f8782860161070e565b60408301525061082160608401610685565b60608201526080830135608082015280935050505092915050565b8035801515811461013157600080fd5b60006020828403121561085e57600080fd5b813567ffffffffffffffff8082111561087657600080fd5b90830190610180828603121561088b57600080fd5b61089361059c565b8235828111156108a257600080fd5b6108ae878286016105f1565b8252506020830135602082015260408301356040820152606083013560608201526080830135608082015260a083013560a08201526108ef60c0840161083c565b60c082015260e08301358281111561090657600080fd5b6109128782860161069c565b60e083015250610100808401358381111561092c57600080fd5b6109388882870161070e565b828401525050610120915061094e828401610685565b828201526101409150610962828401610685565b9181019190915261016091820135918101919091529392505050565b60008151602080840160005b838110156109af5781516001600160a01b03168752958201959082019060010161098a565b509495945050505050565b60008151602080840160005b838110156109af578151875295820195908201906001016109c6565b60006109f76109f1838961097e565b876109ba565b60609590951b6bffffffffffffffffffffffff1916855250506014830191909152603482015260540192915050565b8c81528b60208201528a604082015289606082015288608082015287151560f81b60a08201526000610a64610a5e60a184018a61097e565b886109ba565b6bffffffffffffffffffffffff19606097881b811682529590961b909416601486015250602884019190915260488301525060680198975050505050505050565b634e487b7160e01b600052602160045260246000fdfea164736f6c6343000811000a",
  "linkReferences": {},
  "deployedLinkReferences": {}
}