{
  "_format": "hh-sol-artifact-1",
  "contractName": "SampleBaseRentableNFT",
  "sourceName": "contracts/shared/SampleBaseRentableNFT.sol",
  "abi": [
    {
      "inputs": [
        {
          "internalType": "string",
          "name": "name_",
          "type": "string"
        },
        {
          "internalType": "string",
          "name": "symbol_",
          "type": "string"
        }
      ],
      "stateMutability": "nonpayable",
      "type": "constructor"
    },
    {
      "anonymous": false,
      "inputs": [
        {
          "indexed": true,
          "internalType": "address",
          "name": "owner",
          "type": "address"
        },
        {
          "indexed": true,
          "internalType": "address",
          "name": "approved",
          "type": "address"
        },
        {
          "indexed": true,
          "internalType": "uint256",
          "name": "tokenId",
          "type": "uint256"
        }
      ],
      "name": "Approval",
      "type": "event"
    },
    {
      "anonymous": false,
      "inputs": [
        {
          "indexed": true,
          "internalType": "address",
          "name": "owner",
          "type": "address"
        },
        {
          "indexed": true,
          "internalType": "address",
          "name": "operator",
          "type": "address"
        },
        {
          "indexed": false,
          "internalType": "bool",
          "name": "approved",
          "type": "bool"
        }
      ],
      "name": "ApprovalForAll",
      "type": "event"
    },
    {
      "anonymous": false,
      "inputs": [
        {
          "indexed": true,
          "internalType": "address",
          "name": "from",
          "type": "address"
        },
        {
          "indexed": true,
          "internalType": "address",
          "name": "to",
          "type": "address"
        },
        {
          "indexed": true,
          "internalType": "uint256",
          "name": "tokenId",
          "type": "uint256"
        }
      ],
      "name": "Transfer",
      "type": "event"
    },
    {
      "anonymous": false,
      "inputs": [
        {
          "indexed": true,
          "internalType": "uint256",
          "name": "tokenId",
          "type": "uint256"
        },
        {
          "indexed": true,
          "internalType": "address",
          "name": "user",
          "type": "address"
        },
        {
          "indexed": false,
          "internalType": "uint64",
          "name": "expires",
          "type": "uint64"
        }
      ],
      "name": "UpdateUser",
      "type": "event"
    },
    {
      "inputs": [
        {
          "internalType": "address",
          "name": "to",
          "type": "address"
        },
        {
          "internalType": "uint256",
          "name": "tokenId",
          "type": "uint256"
        }
      ],
      "name": "approve",
      "outputs": [],
      "stateMutability": "nonpayable",
      "type": "function"
    },
    {
      "inputs": [
        {
          "internalType": "address",
          "name": "owner",
          "type": "address"
        }
      ],
      "name": "balanceOf",
      "outputs": [
        {
          "internalType": "uint256",
          "name": "",
          "type": "uint256"
        }
      ],
      "stateMutability": "view",
      "type": "function"
    },
    {
      "inputs": [
        {
          "internalType": "uint256",
          "name": "tokenId",
          "type": "uint256"
        }
      ],
      "name": "getApproved",
      "outputs": [
        {
          "internalType": "address",
          "name": "",
          "type": "address"
        }
      ],
      "stateMutability": "view",
      "type": "function"
    },
    {
      "inputs": [
        {
          "internalType": "address",
          "name": "owner",
          "type": "address"
        },
        {
          "internalType": "address",
          "name": "operator",
          "type": "address"
        }
      ],
      "name": "isApprovedForAll",
      "outputs": [
        {
          "internalType": "bool",
          "name": "",
          "type": "bool"
        }
      ],
      "stateMutability": "view",
      "type": "function"
    },
    {
      "inputs": [],
      "name": "name",
      "outputs": [
        {
          "internalType": "string",
          "name": "",
          "type": "string"
        }
      ],
      "stateMutability": "view",
      "type": "function"
    },
    {
      "inputs": [
        {
          "internalType": "uint256",
          "name": "tokenId",
          "type": "uint256"
        }
      ],
      "name": "ownerOf",
      "outputs": [
        {
          "internalType": "address",
          "name": "",
          "type": "address"
        }
      ],
      "stateMutability": "view",
      "type": "function"
    },
    {
      "inputs": [
        {
          "internalType": "address",
          "name": "from",
          "type": "address"
        },
        {
          "internalType": "address",
          "name": "to",
          "type": "address"
        },
        {
          "internalType": "uint256",
          "name": "tokenId",
          "type": "uint256"
        }
      ],
      "name": "safeTransferFrom",
      "outputs": [],
      "stateMutability": "nonpayable",
      "type": "function"
    },
    {
      "inputs": [
        {
          "internalType": "address",
          "name": "from",
          "type": "address"
        },
        {
          "internalType": "address",
          "name": "to",
          "type": "address"
        },
        {
          "internalType": "uint256",
          "name": "tokenId",
          "type": "uint256"
        },
        {
          "internalType": "bytes",
          "name": "data",
          "type": "bytes"
        }
      ],
      "name": "safeTransferFrom",
      "outputs": [],
      "stateMutability": "nonpayable",
      "type": "function"
    },
    {
      "inputs": [
        {
          "internalType": "address",
          "name": "operator",
          "type": "address"
        },
        {
          "internalType": "bool",
          "name": "approved",
          "type": "bool"
        }
      ],
      "name": "setApprovalForAll",
      "outputs": [],
      "stateMutability": "nonpayable",
      "type": "function"
    },
    {
      "inputs": [
        {
          "internalType": "uint256",
          "name": "tokenId",
          "type": "uint256"
        },
        {
          "internalType": "address",
          "name": "user",
          "type": "address"
        },
        {
          "internalType": "uint64",
          "name": "expires",
          "type": "uint64"
        }
      ],
      "name": "setUser",
      "outputs": [],
      "stateMutability": "nonpayable",
      "type": "function"
    },
    {
      "inputs": [
        {
          "internalType": "bytes4",
          "name": "interfaceId",
          "type": "bytes4"
        }
      ],
      "name": "supportsInterface",
      "outputs": [
        {
          "internalType": "bool",
          "name": "",
          "type": "bool"
        }
      ],
      "stateMutability": "view",
      "type": "function"
    },
    {
      "inputs": [],
      "name": "symbol",
      "outputs": [
        {
          "internalType": "string",
          "name": "",
          "type": "string"
        }
      ],
      "stateMutability": "view",
      "type": "function"
    },
    {
      "inputs": [
        {
          "internalType": "uint256",
          "name": "tokenId",
          "type": "uint256"
        }
      ],
      "name": "tokenURI",
      "outputs": [
        {
          "internalType": "string",
          "name": "",
          "type": "string"
        }
      ],
      "stateMutability": "view",
      "type": "function"
    },
    {
      "inputs": [
        {
          "internalType": "address",
          "name": "from",
          "type": "address"
        },
        {
          "internalType": "address",
          "name": "to",
          "type": "address"
        },
        {
          "internalType": "uint256",
          "name": "tokenId",
          "type": "uint256"
        }
      ],
      "name": "transferFrom",
      "outputs": [],
      "stateMutability": "nonpayable",
      "type": "function"
    },
    {
      "inputs": [
        {
          "internalType": "uint256",
          "name": "tokenId",
          "type": "uint256"
        }
      ],
      "name": "userExpires",
      "outputs": [
        {
          "internalType": "uint256",
          "name": "",
          "type": "uint256"
        }
      ],
      "stateMutability": "view",
      "type": "function"
    },
    {
      "inputs": [
        {
          "internalType": "uint256",
          "name": "tokenId",
          "type": "uint256"
        }
      ],
      "name": "userOf",
      "outputs": [
        {
          "internalType": "address",
          "name": "",
          "type": "address"
        }
      ],
      "stateMutability": "view",
      "type": "function"
    }
  ],
  "bytecode": "0x60806040523480156200001157600080fd5b50604051620016ab380380620016ab833981016040819052620000349162000123565b818160006200004483826200021c565b5060016200005382826200021c565b5050505050620002e8565b634e487b7160e01b600052604160045260246000fd5b600082601f8301126200008657600080fd5b81516001600160401b0380821115620000a357620000a36200005e565b604051601f8301601f19908116603f01168101908282118183101715620000ce57620000ce6200005e565b81604052838152602092508683858801011115620000eb57600080fd5b600091505b838210156200010f5785820183015181830184015290820190620000f0565b600093810190920192909252949350505050565b600080604083850312156200013757600080fd5b82516001600160401b03808211156200014f57600080fd5b6200015d8683870162000074565b935060208501519150808211156200017457600080fd5b50620001838582860162000074565b9150509250929050565b600181811c90821680620001a257607f821691505b602082108103620001c357634e487b7160e01b600052602260045260246000fd5b50919050565b601f8211156200021757600081815260208120601f850160051c81016020861015620001f25750805b601f850160051c820191505b818110156200021357828155600101620001fe565b5050505b505050565b81516001600160401b038111156200023857620002386200005e565b62000250816200024984546200018d565b84620001c9565b602080601f8311600181146200028857600084156200026f5750858301515b600019600386901b1c1916600185901b17855562000213565b600085815260208120601f198616915b82811015620002b95788860151825594840194600190910190840162000298565b5085821015620002d85787850151600019600388901b60f8161c191681555b5050505050600190811b01905550565b6113b380620002f86000396000f3fe608060405234801561001057600080fd5b50600436106101005760003560e01c80638fc88c4811610097578063c2f1f14a11610066578063c2f1f14a1461023b578063c87b56dd1461024e578063e030565e14610261578063e985e9c51461027457600080fd5b80638fc88c48146101dc57806395d89b411461020d578063a22cb46514610215578063b88d4fde1461022857600080fd5b806323b872dd116100d357806323b872dd1461018257806342842e0e146101955780636352211e146101a857806370a08231146101bb57600080fd5b806301ffc9a71461010557806306fdde031461012d578063081812fc14610142578063095ea7b31461016d575b600080fd5b610118610113366004610ebb565b610287565b60405190151581526020015b60405180910390f35b6101356102b2565b6040516101249190610f28565b610155610150366004610f3b565b610344565b6040516001600160a01b039091168152602001610124565b61018061017b366004610f6b565b61036b565b005b610180610190366004610f95565b610485565b6101806101a3366004610f95565b6104b6565b6101556101b6366004610f3b565b6104d1565b6101ce6101c9366004610fd1565b610531565b604051908152602001610124565b6101ce6101ea366004610f3b565b600090815260066020526040902054600160a01b900467ffffffffffffffff1690565b6101356105b7565b610180610223366004610fec565b6105c6565b61018061023636600461103e565b6105d5565b610155610249366004610f3b565b61060d565b61013561025c366004610f3b565b61065d565b61018061026f36600461111a565b6106d1565b610118610282366004611167565b6107c3565b60006001600160e01b03198216632b424ad760e21b14806102ac57506102ac826107f1565b92915050565b6060600080546102c19061119a565b80601f01602080910402602001604051908101604052809291908181526020018280546102ed9061119a565b801561033a5780601f1061030f5761010080835404028352916020019161033a565b820191906000526020600020905b81548152906001019060200180831161031d57829003601f168201915b5050505050905090565b600061034f82610841565b506000908152600460205260409020546001600160a01b031690565b6000610376826104d1565b9050806001600160a01b0316836001600160a01b0316036103e85760405162461bcd60e51b815260206004820152602160248201527f4552433732313a20617070726f76616c20746f2063757272656e74206f776e656044820152603960f91b60648201526084015b60405180910390fd5b336001600160a01b0382161480610404575061040481336107c3565b6104765760405162461bcd60e51b815260206004820152603e60248201527f4552433732313a20617070726f76652063616c6c6572206973206e6f7420746f60448201527f6b656e206f776e6572206e6f7220617070726f76656420666f7220616c6c000060648201526084016103df565b61048083836108a3565b505050565b61048f3382610911565b6104ab5760405162461bcd60e51b81526004016103df906111d4565b610480838383610970565b610480838383604051806020016040528060008152506105d5565b6000818152600260205260408120546001600160a01b0316806102ac5760405162461bcd60e51b8152602060048201526018602482015277115490cdcc8c4e881a5b9d985b1a59081d1bdad95b88125160421b60448201526064016103df565b60006001600160a01b03821661059b5760405162461bcd60e51b815260206004820152602960248201527f4552433732313a2061646472657373207a65726f206973206e6f7420612076616044820152683634b21037bbb732b960b91b60648201526084016103df565b506001600160a01b031660009081526003602052604090205490565b6060600180546102c19061119a565b6105d1338383610b17565b5050565b6105df3383610911565b6105fb5760405162461bcd60e51b81526004016103df906111d4565b61060784848484610be6565b50505050565b60008181526006602052604081205442600160a01b90910467ffffffffffffffff161061065057506000908152600660205260409020546001600160a01b031690565b506000919050565b919050565b606061066882610841565b600061067f60408051602081019091526000815290565b9050600081511161069f57604051806020016040528060008152506106ca565b806106a984610c19565b6040516020016106ba929190611222565b6040516020818303038152906040525b9392505050565b6106db3384610911565b6107425760405162461bcd60e51b815260206004820152603260248201527f455243343930373a207472616e736665722063616c6c6572206973206e6f74206044820152711bdddb995c881b9bdc88185c1c1c9bdd995960721b60648201526084016103df565b60008381526006602090815260409182902080546001600160a01b0386166001600160e01b03199091168117600160a01b67ffffffffffffffff871690810291909117835593519384529092909186917f4e06b4e7000e659094299b3533b47b6aa8ad048e95e872d23d1f4ee55af89cfe910160405180910390a350505050565b6001600160a01b03918216600090815260056020908152604080832093909416825291909152205460ff1690565b60006001600160e01b031982166380ac58cd60e01b148061082257506001600160e01b03198216635b5e139f60e01b145b806102ac57506301ffc9a760e01b6001600160e01b03198316146102ac565b6000818152600260205260409020546001600160a01b03166108a05760405162461bcd60e51b8152602060048201526018602482015277115490cdcc8c4e881a5b9d985b1a59081d1bdad95b88125160421b60448201526064016103df565b50565b600081815260046020526040902080546001600160a01b0319166001600160a01b03841690811790915581906108d8826104d1565b6001600160a01b03167f8c5be1e5ebec7d5bd14f71427d1e84f3dd0314c0f7b2291e5b200ac8c7c3b92560405160405180910390a45050565b60008061091d836104d1565b9050806001600160a01b0316846001600160a01b03161480610944575061094481856107c3565b806109685750836001600160a01b031661095d84610344565b6001600160a01b0316145b949350505050565b826001600160a01b0316610983826104d1565b6001600160a01b0316146109e75760405162461bcd60e51b815260206004820152602560248201527f4552433732313a207472616e736665722066726f6d20696e636f72726563742060448201526437bbb732b960d91b60648201526084016103df565b6001600160a01b038216610a495760405162461bcd60e51b8152602060048201526024808201527f4552433732313a207472616e7366657220746f20746865207a65726f206164646044820152637265737360e01b60648201526084016103df565b610a54838383610d1a565b610a5f6000826108a3565b6001600160a01b0383166000908152600360205260408120805460019290610a88908490611267565b90915550506001600160a01b0382166000908152600360205260408120805460019290610ab690849061127a565b909155505060008181526002602052604080822080546001600160a01b0319166001600160a01b0386811691821790925591518493918716917fddf252ad1be2c89b69c2b068fc378daa952ba7f163c4a11628f55a4df523b3ef91a4505050565b816001600160a01b0316836001600160a01b031603610b785760405162461bcd60e51b815260206004820152601960248201527f4552433732313a20617070726f766520746f2063616c6c65720000000000000060448201526064016103df565b6001600160a01b03838116600081815260056020908152604080832094871680845294825291829020805460ff191686151590811790915591519182527f17307eab39ab6107e8899845ad3d59bd9653f200f220920489ca2b5937696c3191015b60405180910390a3505050565b610bf1848484610970565b610bfd84848484610da4565b6106075760405162461bcd60e51b81526004016103df9061128d565b606081600003610c405750506040805180820190915260018152600360fc1b602082015290565b8160005b8115610c6a5780610c54816112df565b9150610c639050600a8361130e565b9150610c44565b60008167ffffffffffffffff811115610c8557610c85611028565b6040519080825280601f01601f191660200182016040528015610caf576020820181803683370190505b5090505b841561096857610cc4600183611267565b9150610cd1600a86611322565b610cdc90603061127a565b60f81b818381518110610cf157610cf1611336565b60200101906001600160f81b031916908160001a905350610d13600a8661130e565b9450610cb3565b816001600160a01b0316836001600160a01b031614158015610d5257506000818152600660205260409020546001600160a01b031615155b1561048057600081815260066020908152604080832080546001600160e01b03191690555182815283917f4e06b4e7000e659094299b3533b47b6aa8ad048e95e872d23d1f4ee55af89cfe9101610bd9565b60006001600160a01b0384163b15610e9a57604051630a85bd0160e11b81526001600160a01b0385169063150b7a0290610de890339089908890889060040161134c565b6020604051808303816000875af1925050508015610e23575060408051601f3d908101601f19168201909252610e2091810190611389565b60015b610e80573d808015610e51576040519150601f19603f3d011682016040523d82523d6000602084013e610e56565b606091505b508051600003610e785760405162461bcd60e51b81526004016103df9061128d565b805181602001fd5b6001600160e01b031916630a85bd0160e11b149050610968565b506001949350505050565b6001600160e01b0319811681146108a057600080fd5b600060208284031215610ecd57600080fd5b81356106ca81610ea5565b60005b83811015610ef3578181015183820152602001610edb565b50506000910152565b60008151808452610f14816020860160208601610ed8565b601f01601f19169290920160200192915050565b6020815260006106ca6020830184610efc565b600060208284031215610f4d57600080fd5b5035919050565b80356001600160a01b038116811461065857600080fd5b60008060408385031215610f7e57600080fd5b610f8783610f54565b946020939093013593505050565b600080600060608486031215610faa57600080fd5b610fb384610f54565b9250610fc160208501610f54565b9150604084013590509250925092565b600060208284031215610fe357600080fd5b6106ca82610f54565b60008060408385031215610fff57600080fd5b61100883610f54565b91506020830135801515811461101d57600080fd5b809150509250929050565b634e487b7160e01b600052604160045260246000fd5b6000806000806080858703121561105457600080fd5b61105d85610f54565b935061106b60208601610f54565b925060408501359150606085013567ffffffffffffffff8082111561108f57600080fd5b818701915087601f8301126110a357600080fd5b8135818111156110b5576110b5611028565b604051601f8201601f19908116603f011681019083821181831017156110dd576110dd611028565b816040528281528a60208487010111156110f657600080fd5b82602086016020830137600060208483010152809550505050505092959194509250565b60008060006060848603121561112f57600080fd5b8335925061113f60208501610f54565b9150604084013567ffffffffffffffff8116811461115c57600080fd5b809150509250925092565b6000806040838503121561117a57600080fd5b61118383610f54565b915061119160208401610f54565b90509250929050565b600181811c908216806111ae57607f821691505b6020821081036111ce57634e487b7160e01b600052602260045260246000fd5b50919050565b6020808252602e908201527f4552433732313a2063616c6c6572206973206e6f7420746f6b656e206f776e6560408201526d1c881b9bdc88185c1c1c9bdd995960921b606082015260800190565b60008351611234818460208801610ed8565b835190830190611248818360208801610ed8565b01949350505050565b634e487b7160e01b600052601160045260246000fd5b818103818111156102ac576102ac611251565b808201808211156102ac576102ac611251565b60208082526032908201527f4552433732313a207472616e7366657220746f206e6f6e20455243373231526560408201527131b2b4bb32b91034b6b83632b6b2b73a32b960711b606082015260800190565b6000600182016112f1576112f1611251565b5060010190565b634e487b7160e01b600052601260045260246000fd5b60008261131d5761131d6112f8565b500490565b600082611331576113316112f8565b500690565b634e487b7160e01b600052603260045260246000fd5b6001600160a01b038581168252841660208201526040810183905260806060820181905260009061137f90830184610efc565b9695505050505050565b60006020828403121561139b57600080fd5b81516106ca81610ea556fea164736f6c6343000811000a",
  "linkReferences": {},
  "deployedLinkReferences": {}
}